{
	"56_DEX/SimpleSwap.sol": {
		"SimpleSwap": {
			"abi": [
				{
					"inputs": [
						{
							"internalType": "contract IERC20",
							"name": "_token0",
							"type": "address"
						},
						{
							"internalType": "contract IERC20",
							"name": "_token1",
							"type": "address"
						}
					],
					"stateMutability": "nonpayable",
					"type": "constructor"
				},
				{
					"inputs": [
						{
							"internalType": "address",
							"name": "spender",
							"type": "address"
						},
						{
							"internalType": "uint256",
							"name": "allowance",
							"type": "uint256"
						},
						{
							"internalType": "uint256",
							"name": "needed",
							"type": "uint256"
						}
					],
					"name": "ERC20InsufficientAllowance",
					"type": "error"
				},
				{
					"inputs": [
						{
							"internalType": "address",
							"name": "sender",
							"type": "address"
						},
						{
							"internalType": "uint256",
							"name": "balance",
							"type": "uint256"
						},
						{
							"internalType": "uint256",
							"name": "needed",
							"type": "uint256"
						}
					],
					"name": "ERC20InsufficientBalance",
					"type": "error"
				},
				{
					"inputs": [
						{
							"internalType": "address",
							"name": "approver",
							"type": "address"
						}
					],
					"name": "ERC20InvalidApprover",
					"type": "error"
				},
				{
					"inputs": [
						{
							"internalType": "address",
							"name": "receiver",
							"type": "address"
						}
					],
					"name": "ERC20InvalidReceiver",
					"type": "error"
				},
				{
					"inputs": [
						{
							"internalType": "address",
							"name": "sender",
							"type": "address"
						}
					],
					"name": "ERC20InvalidSender",
					"type": "error"
				},
				{
					"inputs": [
						{
							"internalType": "address",
							"name": "spender",
							"type": "address"
						}
					],
					"name": "ERC20InvalidSpender",
					"type": "error"
				},
				{
					"anonymous": false,
					"inputs": [
						{
							"indexed": true,
							"internalType": "address",
							"name": "owner",
							"type": "address"
						},
						{
							"indexed": true,
							"internalType": "address",
							"name": "spender",
							"type": "address"
						},
						{
							"indexed": false,
							"internalType": "uint256",
							"name": "value",
							"type": "uint256"
						}
					],
					"name": "Approval",
					"type": "event"
				},
				{
					"anonymous": false,
					"inputs": [
						{
							"indexed": true,
							"internalType": "address",
							"name": "sender",
							"type": "address"
						},
						{
							"indexed": false,
							"internalType": "uint256",
							"name": "amount0",
							"type": "uint256"
						},
						{
							"indexed": false,
							"internalType": "uint256",
							"name": "amount1",
							"type": "uint256"
						}
					],
					"name": "Burn",
					"type": "event"
				},
				{
					"anonymous": false,
					"inputs": [
						{
							"indexed": true,
							"internalType": "address",
							"name": "sender",
							"type": "address"
						},
						{
							"indexed": false,
							"internalType": "uint256",
							"name": "amount0",
							"type": "uint256"
						},
						{
							"indexed": false,
							"internalType": "uint256",
							"name": "amount1",
							"type": "uint256"
						}
					],
					"name": "Mint",
					"type": "event"
				},
				{
					"anonymous": false,
					"inputs": [
						{
							"indexed": true,
							"internalType": "address",
							"name": "sender",
							"type": "address"
						},
						{
							"indexed": false,
							"internalType": "uint256",
							"name": "amountIn",
							"type": "uint256"
						},
						{
							"indexed": false,
							"internalType": "address",
							"name": "tokenIn",
							"type": "address"
						},
						{
							"indexed": false,
							"internalType": "uint256",
							"name": "amountOut",
							"type": "uint256"
						},
						{
							"indexed": false,
							"internalType": "address",
							"name": "tokenOut",
							"type": "address"
						}
					],
					"name": "Swap",
					"type": "event"
				},
				{
					"anonymous": false,
					"inputs": [
						{
							"indexed": true,
							"internalType": "address",
							"name": "from",
							"type": "address"
						},
						{
							"indexed": true,
							"internalType": "address",
							"name": "to",
							"type": "address"
						},
						{
							"indexed": false,
							"internalType": "uint256",
							"name": "value",
							"type": "uint256"
						}
					],
					"name": "Transfer",
					"type": "event"
				},
				{
					"inputs": [
						{
							"internalType": "uint256",
							"name": "amount0Desired",
							"type": "uint256"
						},
						{
							"internalType": "uint256",
							"name": "amount1Desired",
							"type": "uint256"
						}
					],
					"name": "addLiquidity",
					"outputs": [
						{
							"internalType": "uint256",
							"name": "liquidity",
							"type": "uint256"
						}
					],
					"stateMutability": "nonpayable",
					"type": "function"
				},
				{
					"inputs": [
						{
							"internalType": "address",
							"name": "owner",
							"type": "address"
						},
						{
							"internalType": "address",
							"name": "spender",
							"type": "address"
						}
					],
					"name": "allowance",
					"outputs": [
						{
							"internalType": "uint256",
							"name": "",
							"type": "uint256"
						}
					],
					"stateMutability": "view",
					"type": "function"
				},
				{
					"inputs": [
						{
							"internalType": "address",
							"name": "spender",
							"type": "address"
						},
						{
							"internalType": "uint256",
							"name": "value",
							"type": "uint256"
						}
					],
					"name": "approve",
					"outputs": [
						{
							"internalType": "bool",
							"name": "",
							"type": "bool"
						}
					],
					"stateMutability": "nonpayable",
					"type": "function"
				},
				{
					"inputs": [
						{
							"internalType": "address",
							"name": "account",
							"type": "address"
						}
					],
					"name": "balanceOf",
					"outputs": [
						{
							"internalType": "uint256",
							"name": "",
							"type": "uint256"
						}
					],
					"stateMutability": "view",
					"type": "function"
				},
				{
					"inputs": [],
					"name": "decimals",
					"outputs": [
						{
							"internalType": "uint8",
							"name": "",
							"type": "uint8"
						}
					],
					"stateMutability": "view",
					"type": "function"
				},
				{
					"inputs": [
						{
							"internalType": "uint256",
							"name": "amountIn",
							"type": "uint256"
						},
						{
							"internalType": "uint256",
							"name": "reserveIn",
							"type": "uint256"
						},
						{
							"internalType": "uint256",
							"name": "reserveOut",
							"type": "uint256"
						}
					],
					"name": "getAmountOut",
					"outputs": [
						{
							"internalType": "uint256",
							"name": "amountOut",
							"type": "uint256"
						}
					],
					"stateMutability": "pure",
					"type": "function"
				},
				{
					"inputs": [],
					"name": "name",
					"outputs": [
						{
							"internalType": "string",
							"name": "",
							"type": "string"
						}
					],
					"stateMutability": "view",
					"type": "function"
				},
				{
					"inputs": [
						{
							"internalType": "uint256",
							"name": "liquidity",
							"type": "uint256"
						}
					],
					"name": "removeLiquidity",
					"outputs": [
						{
							"internalType": "uint256",
							"name": "amount0",
							"type": "uint256"
						},
						{
							"internalType": "uint256",
							"name": "amount1",
							"type": "uint256"
						}
					],
					"stateMutability": "nonpayable",
					"type": "function"
				},
				{
					"inputs": [],
					"name": "resvers0",
					"outputs": [
						{
							"internalType": "uint256",
							"name": "",
							"type": "uint256"
						}
					],
					"stateMutability": "view",
					"type": "function"
				},
				{
					"inputs": [],
					"name": "resvers1",
					"outputs": [
						{
							"internalType": "uint256",
							"name": "",
							"type": "uint256"
						}
					],
					"stateMutability": "view",
					"type": "function"
				},
				{
					"inputs": [
						{
							"internalType": "uint256",
							"name": "amountIn",
							"type": "uint256"
						},
						{
							"internalType": "contract IERC20",
							"name": "tokenIn",
							"type": "address"
						},
						{
							"internalType": "uint256",
							"name": "amountOutMin",
							"type": "uint256"
						}
					],
					"name": "swap",
					"outputs": [
						{
							"internalType": "uint256",
							"name": "amountOut",
							"type": "uint256"
						},
						{
							"internalType": "contract IERC20",
							"name": "tokenOut",
							"type": "address"
						}
					],
					"stateMutability": "nonpayable",
					"type": "function"
				},
				{
					"inputs": [],
					"name": "symbol",
					"outputs": [
						{
							"internalType": "string",
							"name": "",
							"type": "string"
						}
					],
					"stateMutability": "view",
					"type": "function"
				},
				{
					"inputs": [],
					"name": "token0",
					"outputs": [
						{
							"internalType": "contract IERC20",
							"name": "",
							"type": "address"
						}
					],
					"stateMutability": "view",
					"type": "function"
				},
				{
					"inputs": [],
					"name": "token1",
					"outputs": [
						{
							"internalType": "contract IERC20",
							"name": "",
							"type": "address"
						}
					],
					"stateMutability": "view",
					"type": "function"
				},
				{
					"inputs": [],
					"name": "totalSupply",
					"outputs": [
						{
							"internalType": "uint256",
							"name": "",
							"type": "uint256"
						}
					],
					"stateMutability": "view",
					"type": "function"
				},
				{
					"inputs": [
						{
							"internalType": "address",
							"name": "to",
							"type": "address"
						},
						{
							"internalType": "uint256",
							"name": "value",
							"type": "uint256"
						}
					],
					"name": "transfer",
					"outputs": [
						{
							"internalType": "bool",
							"name": "",
							"type": "bool"
						}
					],
					"stateMutability": "nonpayable",
					"type": "function"
				},
				{
					"inputs": [
						{
							"internalType": "address",
							"name": "from",
							"type": "address"
						},
						{
							"internalType": "address",
							"name": "to",
							"type": "address"
						},
						{
							"internalType": "uint256",
							"name": "value",
							"type": "uint256"
						}
					],
					"name": "transferFrom",
					"outputs": [
						{
							"internalType": "bool",
							"name": "",
							"type": "bool"
						}
					],
					"stateMutability": "nonpayable",
					"type": "function"
				}
			],
			"devdoc": {
				"errors": {
					"ERC20InsufficientAllowance(address,uint256,uint256)": [
						{
							"details": "Indicates a failure with the `spender`’s `allowance`. Used in transfers.",
							"params": {
								"allowance": "Amount of tokens a `spender` is allowed to operate with.",
								"needed": "Minimum amount required to perform a transfer.",
								"spender": "Address that may be allowed to operate on tokens without being their owner."
							}
						}
					],
					"ERC20InsufficientBalance(address,uint256,uint256)": [
						{
							"details": "Indicates an error related to the current `balance` of a `sender`. Used in transfers.",
							"params": {
								"balance": "Current balance for the interacting account.",
								"needed": "Minimum amount required to perform a transfer.",
								"sender": "Address whose tokens are being transferred."
							}
						}
					],
					"ERC20InvalidApprover(address)": [
						{
							"details": "Indicates a failure with the `approver` of a token to be approved. Used in approvals.",
							"params": {
								"approver": "Address initiating an approval operation."
							}
						}
					],
					"ERC20InvalidReceiver(address)": [
						{
							"details": "Indicates a failure with the token `receiver`. Used in transfers.",
							"params": {
								"receiver": "Address to which tokens are being transferred."
							}
						}
					],
					"ERC20InvalidSender(address)": [
						{
							"details": "Indicates a failure with the token `sender`. Used in transfers.",
							"params": {
								"sender": "Address whose tokens are being transferred."
							}
						}
					],
					"ERC20InvalidSpender(address)": [
						{
							"details": "Indicates a failure with the `spender` to be approved. Used in approvals.",
							"params": {
								"spender": "Address that may be allowed to operate on tokens without being their owner."
							}
						}
					]
				},
				"events": {
					"Approval(address,address,uint256)": {
						"details": "Emitted when the allowance of a `spender` for an `owner` is set by a call to {approve}. `value` is the new allowance."
					},
					"Transfer(address,address,uint256)": {
						"details": "Emitted when `value` tokens are moved from one account (`from`) to another (`to`). Note that `value` may be zero."
					}
				},
				"kind": "dev",
				"methods": {
					"allowance(address,address)": {
						"details": "See {IERC20-allowance}."
					},
					"approve(address,uint256)": {
						"details": "See {IERC20-approve}. NOTE: If `value` is the maximum `uint256`, the allowance is not updated on `transferFrom`. This is semantically equivalent to an infinite approval. Requirements: - `spender` cannot be the zero address."
					},
					"balanceOf(address)": {
						"details": "See {IERC20-balanceOf}."
					},
					"decimals()": {
						"details": "Returns the number of decimals used to get its user representation. For example, if `decimals` equals `2`, a balance of `505` tokens should be displayed to a user as `5.05` (`505 / 10 ** 2`). Tokens usually opt for a value of 18, imitating the relationship between Ether and Wei. This is the default value returned by this function, unless it's overridden. NOTE: This information is only used for _display_ purposes: it in no way affects any of the arithmetic of the contract, including {IERC20-balanceOf} and {IERC20-transfer}."
					},
					"name()": {
						"details": "Returns the name of the token."
					},
					"symbol()": {
						"details": "Returns the symbol of the token, usually a shorter version of the name."
					},
					"totalSupply()": {
						"details": "See {IERC20-totalSupply}."
					},
					"transfer(address,uint256)": {
						"details": "See {IERC20-transfer}. Requirements: - `to` cannot be the zero address. - the caller must have a balance of at least `value`."
					},
					"transferFrom(address,address,uint256)": {
						"details": "See {IERC20-transferFrom}. Emits an {Approval} event indicating the updated allowance. This is not required by the EIP. See the note at the beginning of {ERC20}. NOTE: Does not update the allowance if the current allowance is the maximum `uint256`. Requirements: - `from` and `to` cannot be the zero address. - `from` must have a balance of at least `value`. - the caller must have allowance for ``from``'s tokens of at least `value`."
					}
				},
				"version": 1
			},
			"evm": {
				"assembly": "    /* \"56_DEX/SimpleSwap.sol\":116:4368  contract SimpleSwap is ERC20{... */\n  mstore(0x40, 0x80)\n    /* \"56_DEX/SimpleSwap.sol\":675:806  constructor(IERC20 _token0,IERC20 _token1) ERC20(\"SimpleSwap\", \"SS\") {... */\n  callvalue\n  dup1\n  iszero\n  tag_1\n  jumpi\n  0x00\n  dup1\n  revert\ntag_1:\n  pop\n  mload(0x40)\n  sub(codesize, bytecodeSize)\n  dup1\n  bytecodeSize\n  dup4\n  codecopy\n  dup2\n  dup2\n  add\n  0x40\n  mstore\n  dup2\n  add\n  swap1\n  tag_2\n  swap2\n  swap1\n  tag_3\n  jump\t// in\ntag_2:\n    /* \"@openzeppelin/contracts/token/ERC20/ERC20.sol\":1896:2009  constructor(string memory name_, string memory symbol_) {... */\n  mload(0x40)\n  dup1\n  0x40\n  add\n  0x40\n  mstore\n  dup1\n  0x0a\n  dup2\n  mstore\n  0x20\n  add\n  0x53696d706c655377617000000000000000000000000000000000000000000000\n  dup2\n  mstore\n  pop\n  mload(0x40)\n  dup1\n  0x40\n  add\n  0x40\n  mstore\n  dup1\n  0x02\n  dup2\n  mstore\n  0x20\n  add\n  0x5353000000000000000000000000000000000000000000000000000000000000\n  dup2\n  mstore\n  pop\n    /* \"@openzeppelin/contracts/token/ERC20/ERC20.sol\":1970:1975  name_ */\n  dup2\n    /* \"@openzeppelin/contracts/token/ERC20/ERC20.sol\":1962:1967  _name */\n  0x03\n    /* \"@openzeppelin/contracts/token/ERC20/ERC20.sol\":1962:1975  _name = name_ */\n  swap1\n  dup2\n  tag_7\n  swap2\n  swap1\n  tag_8\n  jump\t// in\ntag_7:\n  pop\n    /* \"@openzeppelin/contracts/token/ERC20/ERC20.sol\":1995:2002  symbol_ */\n  dup1\n    /* \"@openzeppelin/contracts/token/ERC20/ERC20.sol\":1985:1992  _symbol */\n  0x04\n    /* \"@openzeppelin/contracts/token/ERC20/ERC20.sol\":1985:2002  _symbol = symbol_ */\n  swap1\n  dup2\n  tag_9\n  swap2\n  swap1\n  tag_8\n  jump\t// in\ntag_9:\n  pop\n    /* \"@openzeppelin/contracts/token/ERC20/ERC20.sol\":1896:2009  constructor(string memory name_, string memory symbol_) {... */\n  pop\n  pop\n    /* \"56_DEX/SimpleSwap.sol\":764:771  _token0 */\n  dup2\n    /* \"56_DEX/SimpleSwap.sol\":755:761  token0 */\n  0x05\n  0x00\n    /* \"56_DEX/SimpleSwap.sol\":755:771  token0 = _token0 */\n  0x0100\n  exp\n  dup2\n  sload\n  dup2\n  0xffffffffffffffffffffffffffffffffffffffff\n  mul\n  not\n  and\n  swap1\n  dup4\n  0xffffffffffffffffffffffffffffffffffffffff\n  and\n  mul\n  or\n  swap1\n  sstore\n  pop\n    /* \"56_DEX/SimpleSwap.sol\":791:798  _token1 */\n  dup1\n    /* \"56_DEX/SimpleSwap.sol\":782:788  token1 */\n  0x06\n  0x00\n    /* \"56_DEX/SimpleSwap.sol\":782:798  token1 = _token1 */\n  0x0100\n  exp\n  dup2\n  sload\n  dup2\n  0xffffffffffffffffffffffffffffffffffffffff\n  mul\n  not\n  and\n  swap1\n  dup4\n  0xffffffffffffffffffffffffffffffffffffffff\n  and\n  mul\n  or\n  swap1\n  sstore\n  pop\n    /* \"56_DEX/SimpleSwap.sol\":675:806  constructor(IERC20 _token0,IERC20 _token1) ERC20(\"SimpleSwap\", \"SS\") {... */\n  pop\n  pop\n    /* \"56_DEX/SimpleSwap.sol\":116:4368  contract SimpleSwap is ERC20{... */\n  jump(tag_11)\n    /* \"#utility.yul\":88:205   */\ntag_13:\n    /* \"#utility.yul\":197:198   */\n  0x00\n    /* \"#utility.yul\":194:195   */\n  dup1\n    /* \"#utility.yul\":187:199   */\n  revert\n    /* \"#utility.yul\":334:460   */\ntag_15:\n    /* \"#utility.yul\":371:378   */\n  0x00\n    /* \"#utility.yul\":411:453   */\n  0xffffffffffffffffffffffffffffffffffffffff\n    /* \"#utility.yul\":404:409   */\n  dup3\n    /* \"#utility.yul\":400:454   */\n  and\n    /* \"#utility.yul\":389:454   */\n  swap1\n  pop\n    /* \"#utility.yul\":334:460   */\n  swap2\n  swap1\n  pop\n  jump\t// out\n    /* \"#utility.yul\":466:562   */\ntag_16:\n    /* \"#utility.yul\":503:510   */\n  0x00\n    /* \"#utility.yul\":532:556   */\n  tag_46\n    /* \"#utility.yul\":550:555   */\n  dup3\n    /* \"#utility.yul\":532:556   */\n  tag_15\n  jump\t// in\ntag_46:\n    /* \"#utility.yul\":521:556   */\n  swap1\n  pop\n    /* \"#utility.yul\":466:562   */\n  swap2\n  swap1\n  pop\n  jump\t// out\n    /* \"#utility.yul\":568:679   */\ntag_17:\n    /* \"#utility.yul\":620:627   */\n  0x00\n    /* \"#utility.yul\":649:673   */\n  tag_48\n    /* \"#utility.yul\":667:672   */\n  dup3\n    /* \"#utility.yul\":649:673   */\n  tag_16\n  jump\t// in\ntag_48:\n    /* \"#utility.yul\":638:673   */\n  swap1\n  pop\n    /* \"#utility.yul\":568:679   */\n  swap2\n  swap1\n  pop\n  jump\t// out\n    /* \"#utility.yul\":685:837   */\ntag_18:\n    /* \"#utility.yul\":773:812   */\n  tag_50\n    /* \"#utility.yul\":806:811   */\n  dup2\n    /* \"#utility.yul\":773:812   */\n  tag_17\n  jump\t// in\ntag_50:\n    /* \"#utility.yul\":766:771   */\n  dup2\n    /* \"#utility.yul\":763:813   */\n  eq\n    /* \"#utility.yul\":753:831   */\n  tag_51\n  jumpi\n    /* \"#utility.yul\":827:828   */\n  0x00\n    /* \"#utility.yul\":824:825   */\n  dup1\n    /* \"#utility.yul\":817:829   */\n  revert\n    /* \"#utility.yul\":753:831   */\ntag_51:\n    /* \"#utility.yul\":685:837   */\n  pop\n  jump\t// out\n    /* \"#utility.yul\":843:1016   */\ntag_19:\n    /* \"#utility.yul\":915:920   */\n  0x00\n    /* \"#utility.yul\":946:952   */\n  dup2\n    /* \"#utility.yul\":940:953   */\n  mload\n    /* \"#utility.yul\":931:953   */\n  swap1\n  pop\n    /* \"#utility.yul\":962:1010   */\n  tag_53\n    /* \"#utility.yul\":1004:1009   */\n  dup2\n    /* \"#utility.yul\":962:1010   */\n  tag_18\n  jump\t// in\ntag_53:\n    /* \"#utility.yul\":843:1016   */\n  swap3\n  swap2\n  pop\n  pop\n  jump\t// out\n    /* \"#utility.yul\":1022:1589   */\ntag_3:\n    /* \"#utility.yul\":1131:1137   */\n  0x00\n    /* \"#utility.yul\":1139:1145   */\n  dup1\n    /* \"#utility.yul\":1188:1190   */\n  0x40\n    /* \"#utility.yul\":1176:1185   */\n  dup4\n    /* \"#utility.yul\":1167:1174   */\n  dup6\n    /* \"#utility.yul\":1163:1186   */\n  sub\n    /* \"#utility.yul\":1159:1191   */\n  slt\n    /* \"#utility.yul\":1156:1275   */\n  iszero\n  tag_55\n  jumpi\n    /* \"#utility.yul\":1194:1273   */\n  tag_56\n  tag_13\n  jump\t// in\ntag_56:\n    /* \"#utility.yul\":1156:1275   */\ntag_55:\n    /* \"#utility.yul\":1314:1315   */\n  0x00\n    /* \"#utility.yul\":1339:1418   */\n  tag_57\n    /* \"#utility.yul\":1410:1417   */\n  dup6\n    /* \"#utility.yul\":1401:1407   */\n  dup3\n    /* \"#utility.yul\":1390:1399   */\n  dup7\n    /* \"#utility.yul\":1386:1408   */\n  add\n    /* \"#utility.yul\":1339:1418   */\n  tag_19\n  jump\t// in\ntag_57:\n    /* \"#utility.yul\":1329:1418   */\n  swap3\n  pop\n    /* \"#utility.yul\":1285:1428   */\n  pop\n    /* \"#utility.yul\":1467:1469   */\n  0x20\n    /* \"#utility.yul\":1493:1572   */\n  tag_58\n    /* \"#utility.yul\":1564:1571   */\n  dup6\n    /* \"#utility.yul\":1555:1561   */\n  dup3\n    /* \"#utility.yul\":1544:1553   */\n  dup7\n    /* \"#utility.yul\":1540:1562   */\n  add\n    /* \"#utility.yul\":1493:1572   */\n  tag_19\n  jump\t// in\ntag_58:\n    /* \"#utility.yul\":1483:1572   */\n  swap2\n  pop\n    /* \"#utility.yul\":1438:1582   */\n  pop\n    /* \"#utility.yul\":1022:1589   */\n  swap3\n  pop\n  swap3\n  swap1\n  pop\n  jump\t// out\n    /* \"#utility.yul\":1595:1694   */\ntag_20:\n    /* \"#utility.yul\":1647:1653   */\n  0x00\n    /* \"#utility.yul\":1681:1686   */\n  dup2\n    /* \"#utility.yul\":1675:1687   */\n  mload\n    /* \"#utility.yul\":1665:1687   */\n  swap1\n  pop\n    /* \"#utility.yul\":1595:1694   */\n  swap2\n  swap1\n  pop\n  jump\t// out\n    /* \"#utility.yul\":1700:1880   */\ntag_21:\n    /* \"#utility.yul\":1748:1825   */\n  0x4e487b7100000000000000000000000000000000000000000000000000000000\n    /* \"#utility.yul\":1745:1746   */\n  0x00\n    /* \"#utility.yul\":1738:1826   */\n  mstore\n    /* \"#utility.yul\":1845:1849   */\n  0x41\n    /* \"#utility.yul\":1842:1843   */\n  0x04\n    /* \"#utility.yul\":1835:1850   */\n  mstore\n    /* \"#utility.yul\":1869:1873   */\n  0x24\n    /* \"#utility.yul\":1866:1867   */\n  0x00\n    /* \"#utility.yul\":1859:1874   */\n  revert\n    /* \"#utility.yul\":1886:2066   */\ntag_22:\n    /* \"#utility.yul\":1934:2011   */\n  0x4e487b7100000000000000000000000000000000000000000000000000000000\n    /* \"#utility.yul\":1931:1932   */\n  0x00\n    /* \"#utility.yul\":1924:2012   */\n  mstore\n    /* \"#utility.yul\":2031:2035   */\n  0x22\n    /* \"#utility.yul\":2028:2029   */\n  0x04\n    /* \"#utility.yul\":2021:2036   */\n  mstore\n    /* \"#utility.yul\":2055:2059   */\n  0x24\n    /* \"#utility.yul\":2052:2053   */\n  0x00\n    /* \"#utility.yul\":2045:2060   */\n  revert\n    /* \"#utility.yul\":2072:2392   */\ntag_23:\n    /* \"#utility.yul\":2116:2122   */\n  0x00\n    /* \"#utility.yul\":2153:2154   */\n  0x02\n    /* \"#utility.yul\":2147:2151   */\n  dup3\n    /* \"#utility.yul\":2143:2155   */\n  div\n    /* \"#utility.yul\":2133:2155   */\n  swap1\n  pop\n    /* \"#utility.yul\":2200:2201   */\n  0x01\n    /* \"#utility.yul\":2194:2198   */\n  dup3\n    /* \"#utility.yul\":2190:2202   */\n  and\n    /* \"#utility.yul\":2221:2239   */\n  dup1\n    /* \"#utility.yul\":2211:2292   */\n  tag_63\n  jumpi\n    /* \"#utility.yul\":2277:2281   */\n  0x7f\n    /* \"#utility.yul\":2269:2275   */\n  dup3\n    /* \"#utility.yul\":2265:2282   */\n  and\n    /* \"#utility.yul\":2255:2282   */\n  swap2\n  pop\n    /* \"#utility.yul\":2211:2292   */\ntag_63:\n    /* \"#utility.yul\":2339:2341   */\n  0x20\n    /* \"#utility.yul\":2331:2337   */\n  dup3\n    /* \"#utility.yul\":2328:2342   */\n  lt\n    /* \"#utility.yul\":2308:2326   */\n  dup2\n    /* \"#utility.yul\":2305:2343   */\n  sub\n    /* \"#utility.yul\":2302:2386   */\n  tag_64\n  jumpi\n    /* \"#utility.yul\":2358:2376   */\n  tag_65\n  tag_22\n  jump\t// in\ntag_65:\n    /* \"#utility.yul\":2302:2386   */\ntag_64:\n    /* \"#utility.yul\":2123:2392   */\n  pop\n    /* \"#utility.yul\":2072:2392   */\n  swap2\n  swap1\n  pop\n  jump\t// out\n    /* \"#utility.yul\":2398:2539   */\ntag_24:\n    /* \"#utility.yul\":2447:2451   */\n  0x00\n    /* \"#utility.yul\":2470:2473   */\n  dup2\n    /* \"#utility.yul\":2462:2473   */\n  swap1\n  pop\n    /* \"#utility.yul\":2493:2496   */\n  dup2\n    /* \"#utility.yul\":2490:2491   */\n  0x00\n    /* \"#utility.yul\":2483:2497   */\n  mstore\n    /* \"#utility.yul\":2527:2531   */\n  0x20\n    /* \"#utility.yul\":2524:2525   */\n  0x00\n    /* \"#utility.yul\":2514:2532   */\n  keccak256\n    /* \"#utility.yul\":2506:2532   */\n  swap1\n  pop\n    /* \"#utility.yul\":2398:2539   */\n  swap2\n  swap1\n  pop\n  jump\t// out\n    /* \"#utility.yul\":2545:2638   */\ntag_25:\n    /* \"#utility.yul\":2582:2588   */\n  0x00\n    /* \"#utility.yul\":2629:2631   */\n  0x20\n    /* \"#utility.yul\":2624:2626   */\n  0x1f\n    /* \"#utility.yul\":2617:2622   */\n  dup4\n    /* \"#utility.yul\":2613:2627   */\n  add\n    /* \"#utility.yul\":2609:2632   */\n  div\n    /* \"#utility.yul\":2599:2632   */\n  swap1\n  pop\n    /* \"#utility.yul\":2545:2638   */\n  swap2\n  swap1\n  pop\n  jump\t// out\n    /* \"#utility.yul\":2644:2751   */\ntag_26:\n    /* \"#utility.yul\":2688:2696   */\n  0x00\n    /* \"#utility.yul\":2738:2743   */\n  dup3\n    /* \"#utility.yul\":2732:2736   */\n  dup3\n    /* \"#utility.yul\":2728:2744   */\n  shl\n    /* \"#utility.yul\":2707:2744   */\n  swap1\n  pop\n    /* \"#utility.yul\":2644:2751   */\n  swap3\n  swap2\n  pop\n  pop\n  jump\t// out\n    /* \"#utility.yul\":2757:3150   */\ntag_27:\n    /* \"#utility.yul\":2826:2832   */\n  0x00\n    /* \"#utility.yul\":2876:2877   */\n  0x08\n    /* \"#utility.yul\":2864:2874   */\n  dup4\n    /* \"#utility.yul\":2860:2878   */\n  mul\n    /* \"#utility.yul\":2899:2996   */\n  tag_70\n    /* \"#utility.yul\":2929:2995   */\n  0xffffffffffffffffffffffffffffffffffffffffffffffffffffffffffffffff\n    /* \"#utility.yul\":2918:2927   */\n  dup3\n    /* \"#utility.yul\":2899:2996   */\n  tag_26\n  jump\t// in\ntag_70:\n    /* \"#utility.yul\":3017:3056   */\n  tag_71\n    /* \"#utility.yul\":3047:3055   */\n  dup7\n    /* \"#utility.yul\":3036:3045   */\n  dup4\n    /* \"#utility.yul\":3017:3056   */\n  tag_26\n  jump\t// in\ntag_71:\n    /* \"#utility.yul\":3005:3056   */\n  swap6\n  pop\n    /* \"#utility.yul\":3089:3093   */\n  dup1\n    /* \"#utility.yul\":3085:3094   */\n  not\n    /* \"#utility.yul\":3078:3083   */\n  dup5\n    /* \"#utility.yul\":3074:3095   */\n  and\n    /* \"#utility.yul\":3065:3095   */\n  swap4\n  pop\n    /* \"#utility.yul\":3138:3142   */\n  dup1\n    /* \"#utility.yul\":3128:3136   */\n  dup7\n    /* \"#utility.yul\":3124:3143   */\n  and\n    /* \"#utility.yul\":3117:3122   */\n  dup5\n    /* \"#utility.yul\":3114:3144   */\n  or\n    /* \"#utility.yul\":3104:3144   */\n  swap3\n  pop\n    /* \"#utility.yul\":2833:3150   */\n  pop\n  pop\n    /* \"#utility.yul\":2757:3150   */\n  swap4\n  swap3\n  pop\n  pop\n  pop\n  jump\t// out\n    /* \"#utility.yul\":3156:3233   */\ntag_28:\n    /* \"#utility.yul\":3193:3200   */\n  0x00\n    /* \"#utility.yul\":3222:3227   */\n  dup2\n    /* \"#utility.yul\":3211:3227   */\n  swap1\n  pop\n    /* \"#utility.yul\":3156:3233   */\n  swap2\n  swap1\n  pop\n  jump\t// out\n    /* \"#utility.yul\":3239:3299   */\ntag_29:\n    /* \"#utility.yul\":3267:3270   */\n  0x00\n    /* \"#utility.yul\":3288:3293   */\n  dup2\n    /* \"#utility.yul\":3281:3293   */\n  swap1\n  pop\n    /* \"#utility.yul\":3239:3299   */\n  swap2\n  swap1\n  pop\n  jump\t// out\n    /* \"#utility.yul\":3305:3447   */\ntag_30:\n    /* \"#utility.yul\":3355:3364   */\n  0x00\n    /* \"#utility.yul\":3388:3441   */\n  tag_75\n    /* \"#utility.yul\":3406:3440   */\n  tag_76\n    /* \"#utility.yul\":3415:3439   */\n  tag_77\n    /* \"#utility.yul\":3433:3438   */\n  dup5\n    /* \"#utility.yul\":3415:3439   */\n  tag_28\n  jump\t// in\ntag_77:\n    /* \"#utility.yul\":3406:3440   */\n  tag_29\n  jump\t// in\ntag_76:\n    /* \"#utility.yul\":3388:3441   */\n  tag_28\n  jump\t// in\ntag_75:\n    /* \"#utility.yul\":3375:3441   */\n  swap1\n  pop\n    /* \"#utility.yul\":3305:3447   */\n  swap2\n  swap1\n  pop\n  jump\t// out\n    /* \"#utility.yul\":3453:3528   */\ntag_31:\n    /* \"#utility.yul\":3496:3499   */\n  0x00\n    /* \"#utility.yul\":3517:3522   */\n  dup2\n    /* \"#utility.yul\":3510:3522   */\n  swap1\n  pop\n    /* \"#utility.yul\":3453:3528   */\n  swap2\n  swap1\n  pop\n  jump\t// out\n    /* \"#utility.yul\":3534:3803   */\ntag_32:\n    /* \"#utility.yul\":3644:3683   */\n  tag_80\n    /* \"#utility.yul\":3675:3682   */\n  dup4\n    /* \"#utility.yul\":3644:3683   */\n  tag_30\n  jump\t// in\ntag_80:\n    /* \"#utility.yul\":3705:3796   */\n  tag_81\n    /* \"#utility.yul\":3754:3795   */\n  tag_82\n    /* \"#utility.yul\":3778:3794   */\n  dup3\n    /* \"#utility.yul\":3754:3795   */\n  tag_31\n  jump\t// in\ntag_82:\n    /* \"#utility.yul\":3746:3752   */\n  dup5\n    /* \"#utility.yul\":3739:3743   */\n  dup5\n    /* \"#utility.yul\":3733:3744   */\n  sload\n    /* \"#utility.yul\":3705:3796   */\n  tag_27\n  jump\t// in\ntag_81:\n    /* \"#utility.yul\":3699:3703   */\n  dup3\n    /* \"#utility.yul\":3692:3797   */\n  sstore\n    /* \"#utility.yul\":3610:3803   */\n  pop\n    /* \"#utility.yul\":3534:3803   */\n  pop\n  pop\n  pop\n  jump\t// out\n    /* \"#utility.yul\":3809:3882   */\ntag_33:\n    /* \"#utility.yul\":3854:3857   */\n  0x00\n    /* \"#utility.yul\":3809:3882   */\n  swap1\n  jump\t// out\n    /* \"#utility.yul\":3888:4077   */\ntag_34:\n    /* \"#utility.yul\":3965:3997   */\n  tag_85\n  tag_33\n  jump\t// in\ntag_85:\n    /* \"#utility.yul\":4006:4071   */\n  tag_86\n    /* \"#utility.yul\":4064:4070   */\n  dup2\n    /* \"#utility.yul\":4056:4062   */\n  dup5\n    /* \"#utility.yul\":4050:4054   */\n  dup5\n    /* \"#utility.yul\":4006:4071   */\n  tag_32\n  jump\t// in\ntag_86:\n    /* \"#utility.yul\":3941:4077   */\n  pop\n    /* \"#utility.yul\":3888:4077   */\n  pop\n  pop\n  jump\t// out\n    /* \"#utility.yul\":4083:4269   */\ntag_35:\n    /* \"#utility.yul\":4143:4263   */\ntag_88:\n    /* \"#utility.yul\":4160:4163   */\n  dup2\n    /* \"#utility.yul\":4153:4158   */\n  dup2\n    /* \"#utility.yul\":4150:4164   */\n  lt\n    /* \"#utility.yul\":4143:4263   */\n  iszero\n  tag_90\n  jumpi\n    /* \"#utility.yul\":4214:4253   */\n  tag_91\n    /* \"#utility.yul\":4251:4252   */\n  0x00\n    /* \"#utility.yul\":4244:4249   */\n  dup3\n    /* \"#utility.yul\":4214:4253   */\n  tag_34\n  jump\t// in\ntag_91:\n    /* \"#utility.yul\":4187:4188   */\n  0x01\n    /* \"#utility.yul\":4180:4185   */\n  dup2\n    /* \"#utility.yul\":4176:4189   */\n  add\n    /* \"#utility.yul\":4167:4189   */\n  swap1\n  pop\n    /* \"#utility.yul\":4143:4263   */\n  jump(tag_88)\ntag_90:\n    /* \"#utility.yul\":4083:4269   */\n  pop\n  pop\n  jump\t// out\n    /* \"#utility.yul\":4275:4818   */\ntag_36:\n    /* \"#utility.yul\":4376:4378   */\n  0x1f\n    /* \"#utility.yul\":4371:4374   */\n  dup3\n    /* \"#utility.yul\":4368:4379   */\n  gt\n    /* \"#utility.yul\":4365:4811   */\n  iszero\n  tag_93\n  jumpi\n    /* \"#utility.yul\":4410:4448   */\n  tag_94\n    /* \"#utility.yul\":4442:4447   */\n  dup2\n    /* \"#utility.yul\":4410:4448   */\n  tag_24\n  jump\t// in\ntag_94:\n    /* \"#utility.yul\":4494:4523   */\n  tag_95\n    /* \"#utility.yul\":4512:4522   */\n  dup5\n    /* \"#utility.yul\":4494:4523   */\n  tag_25\n  jump\t// in\ntag_95:\n    /* \"#utility.yul\":4484:4492   */\n  dup2\n    /* \"#utility.yul\":4480:4524   */\n  add\n    /* \"#utility.yul\":4677:4679   */\n  0x20\n    /* \"#utility.yul\":4665:4675   */\n  dup6\n    /* \"#utility.yul\":4662:4680   */\n  lt\n    /* \"#utility.yul\":4659:4708   */\n  iszero\n  tag_96\n  jumpi\n    /* \"#utility.yul\":4698:4706   */\n  dup2\n    /* \"#utility.yul\":4683:4706   */\n  swap1\n  pop\n    /* \"#utility.yul\":4659:4708   */\ntag_96:\n    /* \"#utility.yul\":4721:4801   */\n  tag_97\n    /* \"#utility.yul\":4777:4799   */\n  tag_98\n    /* \"#utility.yul\":4795:4798   */\n  dup6\n    /* \"#utility.yul\":4777:4799   */\n  tag_25\n  jump\t// in\ntag_98:\n    /* \"#utility.yul\":4767:4775   */\n  dup4\n    /* \"#utility.yul\":4763:4800   */\n  add\n    /* \"#utility.yul\":4750:4761   */\n  dup3\n    /* \"#utility.yul\":4721:4801   */\n  tag_35\n  jump\t// in\ntag_97:\n    /* \"#utility.yul\":4380:4811   */\n  pop\n  pop\n    /* \"#utility.yul\":4365:4811   */\ntag_93:\n    /* \"#utility.yul\":4275:4818   */\n  pop\n  pop\n  pop\n  jump\t// out\n    /* \"#utility.yul\":4824:4941   */\ntag_37:\n    /* \"#utility.yul\":4878:4886   */\n  0x00\n    /* \"#utility.yul\":4928:4933   */\n  dup3\n    /* \"#utility.yul\":4922:4926   */\n  dup3\n    /* \"#utility.yul\":4918:4934   */\n  shr\n    /* \"#utility.yul\":4897:4934   */\n  swap1\n  pop\n    /* \"#utility.yul\":4824:4941   */\n  swap3\n  swap2\n  pop\n  pop\n  jump\t// out\n    /* \"#utility.yul\":4947:5116   */\ntag_38:\n    /* \"#utility.yul\":4991:4997   */\n  0x00\n    /* \"#utility.yul\":5024:5075   */\n  tag_101\n    /* \"#utility.yul\":5072:5073   */\n  0x00\n    /* \"#utility.yul\":5068:5074   */\n  not\n    /* \"#utility.yul\":5060:5065   */\n  dup5\n    /* \"#utility.yul\":5057:5058   */\n  0x08\n    /* \"#utility.yul\":5053:5066   */\n  mul\n    /* \"#utility.yul\":5024:5075   */\n  tag_37\n  jump\t// in\ntag_101:\n    /* \"#utility.yul\":5020:5076   */\n  not\n    /* \"#utility.yul\":5105:5109   */\n  dup1\n    /* \"#utility.yul\":5099:5103   */\n  dup4\n    /* \"#utility.yul\":5095:5110   */\n  and\n    /* \"#utility.yul\":5085:5110   */\n  swap2\n  pop\n    /* \"#utility.yul\":4998:5116   */\n  pop\n    /* \"#utility.yul\":4947:5116   */\n  swap3\n  swap2\n  pop\n  pop\n  jump\t// out\n    /* \"#utility.yul\":5121:5416   */\ntag_39:\n    /* \"#utility.yul\":5197:5201   */\n  0x00\n    /* \"#utility.yul\":5343:5372   */\n  tag_103\n    /* \"#utility.yul\":5368:5371   */\n  dup4\n    /* \"#utility.yul\":5362:5366   */\n  dup4\n    /* \"#utility.yul\":5343:5372   */\n  tag_38\n  jump\t// in\ntag_103:\n    /* \"#utility.yul\":5335:5372   */\n  swap2\n  pop\n    /* \"#utility.yul\":5405:5408   */\n  dup3\n    /* \"#utility.yul\":5402:5403   */\n  0x02\n    /* \"#utility.yul\":5398:5409   */\n  mul\n    /* \"#utility.yul\":5392:5396   */\n  dup3\n    /* \"#utility.yul\":5389:5410   */\n  or\n    /* \"#utility.yul\":5381:5410   */\n  swap1\n  pop\n    /* \"#utility.yul\":5121:5416   */\n  swap3\n  swap2\n  pop\n  pop\n  jump\t// out\n    /* \"#utility.yul\":5421:6816   */\ntag_8:\n    /* \"#utility.yul\":5538:5575   */\n  tag_105\n    /* \"#utility.yul\":5571:5574   */\n  dup3\n    /* \"#utility.yul\":5538:5575   */\n  tag_20\n  jump\t// in\ntag_105:\n    /* \"#utility.yul\":5640:5658   */\n  0xffffffffffffffff\n    /* \"#utility.yul\":5632:5638   */\n  dup2\n    /* \"#utility.yul\":5629:5659   */\n  gt\n    /* \"#utility.yul\":5626:5682   */\n  iszero\n  tag_106\n  jumpi\n    /* \"#utility.yul\":5662:5680   */\n  tag_107\n  tag_21\n  jump\t// in\ntag_107:\n    /* \"#utility.yul\":5626:5682   */\ntag_106:\n    /* \"#utility.yul\":5706:5744   */\n  tag_108\n    /* \"#utility.yul\":5738:5742   */\n  dup3\n    /* \"#utility.yul\":5732:5743   */\n  sload\n    /* \"#utility.yul\":5706:5744   */\n  tag_23\n  jump\t// in\ntag_108:\n    /* \"#utility.yul\":5791:5858   */\n  tag_109\n    /* \"#utility.yul\":5851:5857   */\n  dup3\n    /* \"#utility.yul\":5843:5849   */\n  dup3\n    /* \"#utility.yul\":5837:5841   */\n  dup6\n    /* \"#utility.yul\":5791:5858   */\n  tag_36\n  jump\t// in\ntag_109:\n    /* \"#utility.yul\":5885:5886   */\n  0x00\n    /* \"#utility.yul\":5909:5913   */\n  0x20\n    /* \"#utility.yul\":5896:5913   */\n  swap1\n  pop\n    /* \"#utility.yul\":5941:5943   */\n  0x1f\n    /* \"#utility.yul\":5933:5939   */\n  dup4\n    /* \"#utility.yul\":5930:5944   */\n  gt\n    /* \"#utility.yul\":5958:5959   */\n  0x01\n    /* \"#utility.yul\":5953:6571   */\n  dup2\n  eq\n  tag_111\n  jumpi\n    /* \"#utility.yul\":6615:6616   */\n  0x00\n    /* \"#utility.yul\":6632:6638   */\n  dup5\n    /* \"#utility.yul\":6629:6706   */\n  iszero\n  tag_112\n  jumpi\n    /* \"#utility.yul\":6681:6690   */\n  dup3\n    /* \"#utility.yul\":6676:6679   */\n  dup8\n    /* \"#utility.yul\":6672:6691   */\n  add\n    /* \"#utility.yul\":6666:6692   */\n  mload\n    /* \"#utility.yul\":6657:6692   */\n  swap1\n  pop\n    /* \"#utility.yul\":6629:6706   */\ntag_112:\n    /* \"#utility.yul\":6732:6799   */\n  tag_113\n    /* \"#utility.yul\":6792:6798   */\n  dup6\n    /* \"#utility.yul\":6785:6790   */\n  dup3\n    /* \"#utility.yul\":6732:6799   */\n  tag_39\n  jump\t// in\ntag_113:\n    /* \"#utility.yul\":6726:6730   */\n  dup7\n    /* \"#utility.yul\":6719:6800   */\n  sstore\n    /* \"#utility.yul\":6588:6810   */\n  pop\n    /* \"#utility.yul\":5923:6810   */\n  jump(tag_110)\n    /* \"#utility.yul\":5953:6571   */\ntag_111:\n    /* \"#utility.yul\":6005:6009   */\n  0x1f\n    /* \"#utility.yul\":6001:6010   */\n  not\n    /* \"#utility.yul\":5993:5999   */\n  dup5\n    /* \"#utility.yul\":5989:6011   */\n  and\n    /* \"#utility.yul\":6039:6076   */\n  tag_114\n    /* \"#utility.yul\":6071:6075   */\n  dup7\n    /* \"#utility.yul\":6039:6076   */\n  tag_24\n  jump\t// in\ntag_114:\n    /* \"#utility.yul\":6098:6099   */\n  0x00\n    /* \"#utility.yul\":6112:6320   */\ntag_115:\n    /* \"#utility.yul\":6126:6133   */\n  dup3\n    /* \"#utility.yul\":6123:6124   */\n  dup2\n    /* \"#utility.yul\":6120:6134   */\n  lt\n    /* \"#utility.yul\":6112:6320   */\n  iszero\n  tag_117\n  jumpi\n    /* \"#utility.yul\":6205:6214   */\n  dup5\n    /* \"#utility.yul\":6200:6203   */\n  dup10\n    /* \"#utility.yul\":6196:6215   */\n  add\n    /* \"#utility.yul\":6190:6216   */\n  mload\n    /* \"#utility.yul\":6182:6188   */\n  dup3\n    /* \"#utility.yul\":6175:6217   */\n  sstore\n    /* \"#utility.yul\":6256:6257   */\n  0x01\n    /* \"#utility.yul\":6248:6254   */\n  dup3\n    /* \"#utility.yul\":6244:6258   */\n  add\n    /* \"#utility.yul\":6234:6258   */\n  swap2\n  pop\n    /* \"#utility.yul\":6303:6305   */\n  0x20\n    /* \"#utility.yul\":6292:6301   */\n  dup6\n    /* \"#utility.yul\":6288:6306   */\n  add\n    /* \"#utility.yul\":6275:6306   */\n  swap5\n  pop\n    /* \"#utility.yul\":6149:6153   */\n  0x20\n    /* \"#utility.yul\":6146:6147   */\n  dup2\n    /* \"#utility.yul\":6142:6154   */\n  add\n    /* \"#utility.yul\":6137:6154   */\n  swap1\n  pop\n    /* \"#utility.yul\":6112:6320   */\n  jump(tag_115)\ntag_117:\n    /* \"#utility.yul\":6348:6354   */\n  dup7\n    /* \"#utility.yul\":6339:6346   */\n  dup4\n    /* \"#utility.yul\":6336:6355   */\n  lt\n    /* \"#utility.yul\":6333:6512   */\n  iszero\n  tag_118\n  jumpi\n    /* \"#utility.yul\":6406:6415   */\n  dup5\n    /* \"#utility.yul\":6401:6404   */\n  dup10\n    /* \"#utility.yul\":6397:6416   */\n  add\n    /* \"#utility.yul\":6391:6417   */\n  mload\n    /* \"#utility.yul\":6449:6497   */\n  tag_119\n    /* \"#utility.yul\":6491:6495   */\n  0x1f\n    /* \"#utility.yul\":6483:6489   */\n  dup10\n    /* \"#utility.yul\":6479:6496   */\n  and\n    /* \"#utility.yul\":6468:6477   */\n  dup3\n    /* \"#utility.yul\":6449:6497   */\n  tag_38\n  jump\t// in\ntag_119:\n    /* \"#utility.yul\":6441:6447   */\n  dup4\n    /* \"#utility.yul\":6434:6498   */\n  sstore\n    /* \"#utility.yul\":6356:6512   */\n  pop\n    /* \"#utility.yul\":6333:6512   */\ntag_118:\n    /* \"#utility.yul\":6558:6559   */\n  0x01\n    /* \"#utility.yul\":6554:6555   */\n  0x02\n    /* \"#utility.yul\":6546:6552   */\n  dup9\n    /* \"#utility.yul\":6542:6556   */\n  mul\n    /* \"#utility.yul\":6538:6560   */\n  add\n    /* \"#utility.yul\":6532:6536   */\n  dup9\n    /* \"#utility.yul\":6525:6561   */\n  sstore\n    /* \"#utility.yul\":5960:6571   */\n  pop\n  pop\n  pop\n    /* \"#utility.yul\":5923:6810   */\ntag_110:\n  pop\n    /* \"#utility.yul\":5513:6816   */\n  pop\n  pop\n  pop\n    /* \"#utility.yul\":5421:6816   */\n  pop\n  pop\n  jump\t// out\n    /* \"56_DEX/SimpleSwap.sol\":116:4368  contract SimpleSwap is ERC20{... */\ntag_11:\n  dataSize(sub_0)\n  dup1\n  dataOffset(sub_0)\n  0x00\n  codecopy\n  0x00\n  return\nstop\n\nsub_0: assembly {\n        /* \"56_DEX/SimpleSwap.sol\":116:4368  contract SimpleSwap is ERC20{... */\n      mstore(0x40, 0x80)\n      callvalue\n      dup1\n      iszero\n      tag_1\n      jumpi\n      0x00\n      dup1\n      revert\n    tag_1:\n      pop\n      jumpi(tag_2, lt(calldatasize, 0x04))\n      shr(0xe0, calldataload(0x00))\n      dup1\n      0x4543c7cf\n      gt\n      tag_20\n      jumpi\n      dup1\n      0x9cd441da\n      gt\n      tag_21\n      jumpi\n      dup1\n      0x9cd441da\n      eq\n      tag_15\n      jumpi\n      dup1\n      0xa9059cbb\n      eq\n      tag_16\n      jumpi\n      dup1\n      0xd21220a7\n      eq\n      tag_17\n      jumpi\n      dup1\n      0xdd62ed3e\n      eq\n      tag_18\n      jumpi\n      dup1\n      0xf000ead9\n      eq\n      tag_19\n      jumpi\n      jump(tag_2)\n    tag_21:\n      dup1\n      0x4543c7cf\n      eq\n      tag_11\n      jumpi\n      dup1\n      0x70a08231\n      eq\n      tag_12\n      jumpi\n      dup1\n      0x95d89b41\n      eq\n      tag_13\n      jumpi\n      dup1\n      0x9c8f9f23\n      eq\n      tag_14\n      jumpi\n      jump(tag_2)\n    tag_20:\n      dup1\n      0x18160ddd\n      gt\n      tag_22\n      jumpi\n      dup1\n      0x18160ddd\n      eq\n      tag_7\n      jumpi\n      dup1\n      0x23b872dd\n      eq\n      tag_8\n      jumpi\n      dup1\n      0x313ce567\n      eq\n      tag_9\n      jumpi\n      dup1\n      0x43264349\n      eq\n      tag_10\n      jumpi\n      jump(tag_2)\n    tag_22:\n      dup1\n      0x054d50d4\n      eq\n      tag_3\n      jumpi\n      dup1\n      0x06fdde03\n      eq\n      tag_4\n      jumpi\n      dup1\n      0x095ea7b3\n      eq\n      tag_5\n      jumpi\n      dup1\n      0x0dfe1681\n      eq\n      tag_6\n      jumpi\n    tag_2:\n      0x00\n      dup1\n      revert\n        /* \"56_DEX/SimpleSwap.sol\":2962:3226  function getAmountOut(uint amountIn,uint reserveIn,uint reserveOut) public pure returns(uint amountOut) {... */\n    tag_3:\n      tag_23\n      0x04\n      dup1\n      calldatasize\n      sub\n      dup2\n      add\n      swap1\n      tag_24\n      swap2\n      swap1\n      tag_25\n      jump\t// in\n    tag_24:\n      tag_26\n      jump\t// in\n    tag_23:\n      mload(0x40)\n      tag_27\n      swap2\n      swap1\n      tag_28\n      jump\t// in\n    tag_27:\n      mload(0x40)\n      dup1\n      swap2\n      sub\n      swap1\n      return\n        /* \"@openzeppelin/contracts/token/ERC20/ERC20.sol\":2074:2163  function name() public view virtual returns (string memory) {... */\n    tag_4:\n      tag_29\n      tag_30\n      jump\t// in\n    tag_29:\n      mload(0x40)\n      tag_31\n      swap2\n      swap1\n      tag_32\n      jump\t// in\n    tag_31:\n      mload(0x40)\n      dup1\n      swap2\n      sub\n      swap1\n      return\n        /* \"@openzeppelin/contracts/token/ERC20/ERC20.sol\":4293:4479  function approve(address spender, uint256 value) public virtual returns (bool) {... */\n    tag_5:\n      tag_33\n      0x04\n      dup1\n      calldatasize\n      sub\n      dup2\n      add\n      swap1\n      tag_34\n      swap2\n      swap1\n      tag_35\n      jump\t// in\n    tag_34:\n      tag_36\n      jump\t// in\n    tag_33:\n      mload(0x40)\n      tag_37\n      swap2\n      swap1\n      tag_38\n      jump\t// in\n    tag_37:\n      mload(0x40)\n      dup1\n      swap2\n      sub\n      swap1\n      return\n        /* \"56_DEX/SimpleSwap.sol\":189:209  IERC20 public token0 */\n    tag_6:\n      tag_39\n      tag_40\n      jump\t// in\n    tag_39:\n      mload(0x40)\n      tag_41\n      swap2\n      swap1\n      tag_42\n      jump\t// in\n    tag_41:\n      mload(0x40)\n      dup1\n      swap2\n      sub\n      swap1\n      return\n        /* \"@openzeppelin/contracts/token/ERC20/ERC20.sol\":3144:3241  function totalSupply() public view virtual returns (uint256) {... */\n    tag_7:\n      tag_43\n      tag_44\n      jump\t// in\n    tag_43:\n      mload(0x40)\n      tag_45\n      swap2\n      swap1\n      tag_28\n      jump\t// in\n    tag_45:\n      mload(0x40)\n      dup1\n      swap2\n      sub\n      swap1\n      return\n        /* \"@openzeppelin/contracts/token/ERC20/ERC20.sol\":5039:5283  function transferFrom(address from, address to, uint256 value) public virtual returns (bool) {... */\n    tag_8:\n      tag_46\n      0x04\n      dup1\n      calldatasize\n      sub\n      dup2\n      add\n      swap1\n      tag_47\n      swap2\n      swap1\n      tag_48\n      jump\t// in\n    tag_47:\n      tag_49\n      jump\t// in\n    tag_46:\n      mload(0x40)\n      tag_50\n      swap2\n      swap1\n      tag_38\n      jump\t// in\n    tag_50:\n      mload(0x40)\n      dup1\n      swap2\n      sub\n      swap1\n      return\n        /* \"@openzeppelin/contracts/token/ERC20/ERC20.sol\":3002:3084  function decimals() public view virtual returns (uint8) {... */\n    tag_9:\n      tag_51\n      tag_52\n      jump\t// in\n    tag_51:\n      mload(0x40)\n      tag_53\n      swap2\n      swap1\n      tag_54\n      jump\t// in\n    tag_53:\n      mload(0x40)\n      dup1\n      swap2\n      sub\n      swap1\n      return\n        /* \"56_DEX/SimpleSwap.sol\":3232:4365  function swap(uint amountIn,IERC20 tokenIn,uint amountOutMin) external returns(uint amountOut,IERC20 tokenOut) {... */\n    tag_10:\n      tag_55\n      0x04\n      dup1\n      calldatasize\n      sub\n      dup2\n      add\n      swap1\n      tag_56\n      swap2\n      swap1\n      tag_57\n      jump\t// in\n    tag_56:\n      tag_58\n      jump\t// in\n    tag_55:\n      mload(0x40)\n      tag_59\n      swap3\n      swap2\n      swap1\n      tag_60\n      jump\t// in\n    tag_59:\n      mload(0x40)\n      dup1\n      swap2\n      sub\n      swap1\n      return\n        /* \"56_DEX/SimpleSwap.sol\":269:289  uint public resvers0 */\n    tag_11:\n      tag_61\n      tag_62\n      jump\t// in\n    tag_61:\n      mload(0x40)\n      tag_63\n      swap2\n      swap1\n      tag_28\n      jump\t// in\n    tag_63:\n      mload(0x40)\n      dup1\n      swap2\n      sub\n      swap1\n      return\n        /* \"@openzeppelin/contracts/token/ERC20/ERC20.sol\":3299:3415  function balanceOf(address account) public view virtual returns (uint256) {... */\n    tag_12:\n      tag_64\n      0x04\n      dup1\n      calldatasize\n      sub\n      dup2\n      add\n      swap1\n      tag_65\n      swap2\n      swap1\n      tag_66\n      jump\t// in\n    tag_65:\n      tag_67\n      jump\t// in\n    tag_64:\n      mload(0x40)\n      tag_68\n      swap2\n      swap1\n      tag_28\n      jump\t// in\n    tag_68:\n      mload(0x40)\n      dup1\n      swap2\n      sub\n      swap1\n      return\n        /* \"@openzeppelin/contracts/token/ERC20/ERC20.sol\":2276:2369  function symbol() public view virtual returns (string memory) {... */\n    tag_13:\n      tag_69\n      tag_70\n      jump\t// in\n    tag_69:\n      mload(0x40)\n      tag_71\n      swap2\n      swap1\n      tag_32\n      jump\t// in\n    tag_71:\n      mload(0x40)\n      dup1\n      swap2\n      sub\n      swap1\n      return\n        /* \"56_DEX/SimpleSwap.sol\":2122:2852  function removeLiquidity(uint liquidity) external returns(uint amount0,uint amount1) {... */\n    tag_14:\n      tag_72\n      0x04\n      dup1\n      calldatasize\n      sub\n      dup2\n      add\n      swap1\n      tag_73\n      swap2\n      swap1\n      tag_74\n      jump\t// in\n    tag_73:\n      tag_75\n      jump\t// in\n    tag_72:\n      mload(0x40)\n      tag_76\n      swap3\n      swap2\n      swap1\n      tag_77\n      jump\t// in\n    tag_76:\n      mload(0x40)\n      dup1\n      swap2\n      sub\n      swap1\n      return\n        /* \"56_DEX/SimpleSwap.sol\":1252:2093  function addLiquidity(uint amount0Desired,uint amount1Desired) public returns(uint liquidity) {... */\n    tag_15:\n      tag_78\n      0x04\n      dup1\n      calldatasize\n      sub\n      dup2\n      add\n      swap1\n      tag_79\n      swap2\n      swap1\n      tag_80\n      jump\t// in\n    tag_79:\n      tag_81\n      jump\t// in\n    tag_78:\n      mload(0x40)\n      tag_82\n      swap2\n      swap1\n      tag_28\n      jump\t// in\n    tag_82:\n      mload(0x40)\n      dup1\n      swap2\n      sub\n      swap1\n      return\n        /* \"@openzeppelin/contracts/token/ERC20/ERC20.sol\":3610:3788  function transfer(address to, uint256 value) public virtual returns (bool) {... */\n    tag_16:\n      tag_83\n      0x04\n      dup1\n      calldatasize\n      sub\n      dup2\n      add\n      swap1\n      tag_84\n      swap2\n      swap1\n      tag_35\n      jump\t// in\n    tag_84:\n      tag_85\n      jump\t// in\n    tag_83:\n      mload(0x40)\n      tag_86\n      swap2\n      swap1\n      tag_38\n      jump\t// in\n    tag_86:\n      mload(0x40)\n      dup1\n      swap2\n      sub\n      swap1\n      return\n        /* \"56_DEX/SimpleSwap.sol\":216:236  IERC20 public token1 */\n    tag_17:\n      tag_87\n      tag_88\n      jump\t// in\n    tag_87:\n      mload(0x40)\n      tag_89\n      swap2\n      swap1\n      tag_42\n      jump\t// in\n    tag_89:\n      mload(0x40)\n      dup1\n      swap2\n      sub\n      swap1\n      return\n        /* \"@openzeppelin/contracts/token/ERC20/ERC20.sol\":3846:3986  function allowance(address owner, address spender) public view virtual returns (uint256) {... */\n    tag_18:\n      tag_90\n      0x04\n      dup1\n      calldatasize\n      sub\n      dup2\n      add\n      swap1\n      tag_91\n      swap2\n      swap1\n      tag_92\n      jump\t// in\n    tag_91:\n      tag_93\n      jump\t// in\n    tag_90:\n      mload(0x40)\n      tag_94\n      swap2\n      swap1\n      tag_28\n      jump\t// in\n    tag_94:\n      mload(0x40)\n      dup1\n      swap2\n      sub\n      swap1\n      return\n        /* \"56_DEX/SimpleSwap.sol\":296:316  uint public resvers1 */\n    tag_19:\n      tag_95\n      tag_96\n      jump\t// in\n    tag_95:\n      mload(0x40)\n      tag_97\n      swap2\n      swap1\n      tag_28\n      jump\t// in\n    tag_97:\n      mload(0x40)\n      dup1\n      swap2\n      sub\n      swap1\n      return\n        /* \"56_DEX/SimpleSwap.sol\":2962:3226  function getAmountOut(uint amountIn,uint reserveIn,uint reserveOut) public pure returns(uint amountOut) {... */\n    tag_26:\n        /* \"56_DEX/SimpleSwap.sol\":3050:3064  uint amountOut */\n      0x00\n        /* \"56_DEX/SimpleSwap.sol\":3096:3097  0 */\n      dup1\n        /* \"56_DEX/SimpleSwap.sol\":3085:3093  amountIn */\n      dup5\n        /* \"56_DEX/SimpleSwap.sol\":3085:3097  amountIn > 0 */\n      gt\n        /* \"56_DEX/SimpleSwap.sol\":3077:3098  require(amountIn > 0) */\n      tag_99\n      jumpi\n      0x00\n      dup1\n      revert\n    tag_99:\n        /* \"56_DEX/SimpleSwap.sol\":3129:3130  0 */\n      0x00\n        /* \"56_DEX/SimpleSwap.sol\":3117:3126  reserveIn */\n      dup4\n        /* \"56_DEX/SimpleSwap.sol\":3117:3130  reserveIn > 0 */\n      gt\n        /* \"56_DEX/SimpleSwap.sol\":3117:3148  reserveIn > 0 && reserveOut > 0 */\n      dup1\n      iszero\n      tag_100\n      jumpi\n      pop\n        /* \"56_DEX/SimpleSwap.sol\":3147:3148  0 */\n      0x00\n        /* \"56_DEX/SimpleSwap.sol\":3134:3144  reserveOut */\n      dup3\n        /* \"56_DEX/SimpleSwap.sol\":3134:3148  reserveOut > 0 */\n      gt\n        /* \"56_DEX/SimpleSwap.sol\":3117:3148  reserveIn > 0 && reserveOut > 0 */\n    tag_100:\n        /* \"56_DEX/SimpleSwap.sol\":3109:3149  require(reserveIn > 0 && reserveOut > 0) */\n      tag_101\n      jumpi\n      0x00\n      dup1\n      revert\n    tag_101:\n        /* \"56_DEX/SimpleSwap.sol\":3209:3217  amountIn */\n      dup4\n        /* \"56_DEX/SimpleSwap.sol\":3197:3206  reserveIn */\n      dup4\n        /* \"56_DEX/SimpleSwap.sol\":3197:3217  reserveIn + amountIn */\n      tag_102\n      swap2\n      swap1\n      tag_103\n      jump\t// in\n    tag_102:\n        /* \"56_DEX/SimpleSwap.sol\":3183:3193  reserveOut */\n      dup3\n        /* \"56_DEX/SimpleSwap.sol\":3172:3180  amountIn */\n      dup6\n        /* \"56_DEX/SimpleSwap.sol\":3172:3193  amountIn * reserveOut */\n      tag_104\n      swap2\n      swap1\n      tag_105\n      jump\t// in\n    tag_104:\n        /* \"56_DEX/SimpleSwap.sol\":3172:3218  amountIn * reserveOut / (reserveIn + amountIn) */\n      tag_106\n      swap2\n      swap1\n      tag_107\n      jump\t// in\n    tag_106:\n        /* \"56_DEX/SimpleSwap.sol\":3160:3218  amountOut = amountIn * reserveOut / (reserveIn + amountIn) */\n      swap1\n      pop\n        /* \"56_DEX/SimpleSwap.sol\":2962:3226  function getAmountOut(uint amountIn,uint reserveIn,uint reserveOut) public pure returns(uint amountOut) {... */\n      swap4\n      swap3\n      pop\n      pop\n      pop\n      jump\t// out\n        /* \"@openzeppelin/contracts/token/ERC20/ERC20.sol\":2074:2163  function name() public view virtual returns (string memory) {... */\n    tag_30:\n        /* \"@openzeppelin/contracts/token/ERC20/ERC20.sol\":2119:2132  string memory */\n      0x60\n        /* \"@openzeppelin/contracts/token/ERC20/ERC20.sol\":2151:2156  _name */\n      0x03\n        /* \"@openzeppelin/contracts/token/ERC20/ERC20.sol\":2144:2156  return _name */\n      dup1\n      sload\n      tag_109\n      swap1\n      tag_110\n      jump\t// in\n    tag_109:\n      dup1\n      0x1f\n      add\n      0x20\n      dup1\n      swap2\n      div\n      mul\n      0x20\n      add\n      mload(0x40)\n      swap1\n      dup2\n      add\n      0x40\n      mstore\n      dup1\n      swap3\n      swap2\n      swap1\n      dup2\n      dup2\n      mstore\n      0x20\n      add\n      dup3\n      dup1\n      sload\n      tag_111\n      swap1\n      tag_110\n      jump\t// in\n    tag_111:\n      dup1\n      iszero\n      tag_112\n      jumpi\n      dup1\n      0x1f\n      lt\n      tag_113\n      jumpi\n      0x0100\n      dup1\n      dup4\n      sload\n      div\n      mul\n      dup4\n      mstore\n      swap2\n      0x20\n      add\n      swap2\n      jump(tag_112)\n    tag_113:\n      dup3\n      add\n      swap2\n      swap1\n      0x00\n      mstore\n      keccak256(0x00, 0x20)\n      swap1\n    tag_114:\n      dup2\n      sload\n      dup2\n      mstore\n      swap1\n      0x01\n      add\n      swap1\n      0x20\n      add\n      dup1\n      dup4\n      gt\n      tag_114\n      jumpi\n      dup3\n      swap1\n      sub\n      0x1f\n      and\n      dup3\n      add\n      swap2\n    tag_112:\n      pop\n      pop\n      pop\n      pop\n      pop\n      swap1\n      pop\n        /* \"@openzeppelin/contracts/token/ERC20/ERC20.sol\":2074:2163  function name() public view virtual returns (string memory) {... */\n      swap1\n      jump\t// out\n        /* \"@openzeppelin/contracts/token/ERC20/ERC20.sol\":4293:4479  function approve(address spender, uint256 value) public virtual returns (bool) {... */\n    tag_36:\n        /* \"@openzeppelin/contracts/token/ERC20/ERC20.sol\":4366:4370  bool */\n      0x00\n        /* \"@openzeppelin/contracts/token/ERC20/ERC20.sol\":4382:4395  address owner */\n      dup1\n        /* \"@openzeppelin/contracts/token/ERC20/ERC20.sol\":4398:4410  _msgSender() */\n      tag_116\n        /* \"@openzeppelin/contracts/token/ERC20/ERC20.sol\":4398:4408  _msgSender */\n      tag_117\n        /* \"@openzeppelin/contracts/token/ERC20/ERC20.sol\":4398:4410  _msgSender() */\n      jump\t// in\n    tag_116:\n        /* \"@openzeppelin/contracts/token/ERC20/ERC20.sol\":4382:4410  address owner = _msgSender() */\n      swap1\n      pop\n        /* \"@openzeppelin/contracts/token/ERC20/ERC20.sol\":4420:4451  _approve(owner, spender, value) */\n      tag_118\n        /* \"@openzeppelin/contracts/token/ERC20/ERC20.sol\":4429:4434  owner */\n      dup2\n        /* \"@openzeppelin/contracts/token/ERC20/ERC20.sol\":4436:4443  spender */\n      dup6\n        /* \"@openzeppelin/contracts/token/ERC20/ERC20.sol\":4445:4450  value */\n      dup6\n        /* \"@openzeppelin/contracts/token/ERC20/ERC20.sol\":4420:4428  _approve */\n      tag_119\n        /* \"@openzeppelin/contracts/token/ERC20/ERC20.sol\":4420:4451  _approve(owner, spender, value) */\n      jump\t// in\n    tag_118:\n        /* \"@openzeppelin/contracts/token/ERC20/ERC20.sol\":4468:4472  true */\n      0x01\n        /* \"@openzeppelin/contracts/token/ERC20/ERC20.sol\":4461:4472  return true */\n      swap2\n      pop\n      pop\n        /* \"@openzeppelin/contracts/token/ERC20/ERC20.sol\":4293:4479  function approve(address spender, uint256 value) public virtual returns (bool) {... */\n      swap3\n      swap2\n      pop\n      pop\n      jump\t// out\n        /* \"56_DEX/SimpleSwap.sol\":189:209  IERC20 public token0 */\n    tag_40:\n      0x05\n      0x00\n      swap1\n      sload\n      swap1\n      0x0100\n      exp\n      swap1\n      div\n      0xffffffffffffffffffffffffffffffffffffffff\n      and\n      dup2\n      jump\t// out\n        /* \"@openzeppelin/contracts/token/ERC20/ERC20.sol\":3144:3241  function totalSupply() public view virtual returns (uint256) {... */\n    tag_44:\n        /* \"@openzeppelin/contracts/token/ERC20/ERC20.sol\":3196:3203  uint256 */\n      0x00\n        /* \"@openzeppelin/contracts/token/ERC20/ERC20.sol\":3222:3234  _totalSupply */\n      sload(0x02)\n        /* \"@openzeppelin/contracts/token/ERC20/ERC20.sol\":3215:3234  return _totalSupply */\n      swap1\n      pop\n        /* \"@openzeppelin/contracts/token/ERC20/ERC20.sol\":3144:3241  function totalSupply() public view virtual returns (uint256) {... */\n      swap1\n      jump\t// out\n        /* \"@openzeppelin/contracts/token/ERC20/ERC20.sol\":5039:5283  function transferFrom(address from, address to, uint256 value) public virtual returns (bool) {... */\n    tag_49:\n        /* \"@openzeppelin/contracts/token/ERC20/ERC20.sol\":5126:5130  bool */\n      0x00\n        /* \"@openzeppelin/contracts/token/ERC20/ERC20.sol\":5142:5157  address spender */\n      dup1\n        /* \"@openzeppelin/contracts/token/ERC20/ERC20.sol\":5160:5172  _msgSender() */\n      tag_122\n        /* \"@openzeppelin/contracts/token/ERC20/ERC20.sol\":5160:5170  _msgSender */\n      tag_117\n        /* \"@openzeppelin/contracts/token/ERC20/ERC20.sol\":5160:5172  _msgSender() */\n      jump\t// in\n    tag_122:\n        /* \"@openzeppelin/contracts/token/ERC20/ERC20.sol\":5142:5172  address spender = _msgSender() */\n      swap1\n      pop\n        /* \"@openzeppelin/contracts/token/ERC20/ERC20.sol\":5182:5219  _spendAllowance(from, spender, value) */\n      tag_123\n        /* \"@openzeppelin/contracts/token/ERC20/ERC20.sol\":5198:5202  from */\n      dup6\n        /* \"@openzeppelin/contracts/token/ERC20/ERC20.sol\":5204:5211  spender */\n      dup3\n        /* \"@openzeppelin/contracts/token/ERC20/ERC20.sol\":5213:5218  value */\n      dup6\n        /* \"@openzeppelin/contracts/token/ERC20/ERC20.sol\":5182:5197  _spendAllowance */\n      tag_124\n        /* \"@openzeppelin/contracts/token/ERC20/ERC20.sol\":5182:5219  _spendAllowance(from, spender, value) */\n      jump\t// in\n    tag_123:\n        /* \"@openzeppelin/contracts/token/ERC20/ERC20.sol\":5229:5255  _transfer(from, to, value) */\n      tag_125\n        /* \"@openzeppelin/contracts/token/ERC20/ERC20.sol\":5239:5243  from */\n      dup6\n        /* \"@openzeppelin/contracts/token/ERC20/ERC20.sol\":5245:5247  to */\n      dup6\n        /* \"@openzeppelin/contracts/token/ERC20/ERC20.sol\":5249:5254  value */\n      dup6\n        /* \"@openzeppelin/contracts/token/ERC20/ERC20.sol\":5229:5238  _transfer */\n      tag_126\n        /* \"@openzeppelin/contracts/token/ERC20/ERC20.sol\":5229:5255  _transfer(from, to, value) */\n      jump\t// in\n    tag_125:\n        /* \"@openzeppelin/contracts/token/ERC20/ERC20.sol\":5272:5276  true */\n      0x01\n        /* \"@openzeppelin/contracts/token/ERC20/ERC20.sol\":5265:5276  return true */\n      swap2\n      pop\n      pop\n        /* \"@openzeppelin/contracts/token/ERC20/ERC20.sol\":5039:5283  function transferFrom(address from, address to, uint256 value) public virtual returns (bool) {... */\n      swap4\n      swap3\n      pop\n      pop\n      pop\n      jump\t// out\n        /* \"@openzeppelin/contracts/token/ERC20/ERC20.sol\":3002:3084  function decimals() public view virtual returns (uint8) {... */\n    tag_52:\n        /* \"@openzeppelin/contracts/token/ERC20/ERC20.sol\":3051:3056  uint8 */\n      0x00\n        /* \"@openzeppelin/contracts/token/ERC20/ERC20.sol\":3075:3077  18 */\n      0x12\n        /* \"@openzeppelin/contracts/token/ERC20/ERC20.sol\":3068:3077  return 18 */\n      swap1\n      pop\n        /* \"@openzeppelin/contracts/token/ERC20/ERC20.sol\":3002:3084  function decimals() public view virtual returns (uint8) {... */\n      swap1\n      jump\t// out\n        /* \"56_DEX/SimpleSwap.sol\":3232:4365  function swap(uint amountIn,IERC20 tokenIn,uint amountOutMin) external returns(uint amountOut,IERC20 tokenOut) {... */\n    tag_58:\n        /* \"56_DEX/SimpleSwap.sol\":3311:3325  uint amountOut */\n      0x00\n        /* \"56_DEX/SimpleSwap.sol\":3326:3341  IERC20 tokenOut */\n      dup1\n        /* \"56_DEX/SimpleSwap.sol\":3373:3374  0 */\n      0x00\n        /* \"56_DEX/SimpleSwap.sol\":3362:3370  amountIn */\n      dup6\n        /* \"56_DEX/SimpleSwap.sol\":3362:3374  amountIn > 0 */\n      gt\n        /* \"56_DEX/SimpleSwap.sol\":3354:3375  require(amountIn > 0) */\n      tag_129\n      jumpi\n      0x00\n      dup1\n      revert\n    tag_129:\n        /* \"56_DEX/SimpleSwap.sol\":3405:3411  token0 */\n      0x05\n      0x00\n      swap1\n      sload\n      swap1\n      0x0100\n      exp\n      swap1\n      div\n      0xffffffffffffffffffffffffffffffffffffffff\n      and\n        /* \"56_DEX/SimpleSwap.sol\":3394:3411  tokenIn == token0 */\n      0xffffffffffffffffffffffffffffffffffffffff\n      and\n        /* \"56_DEX/SimpleSwap.sol\":3394:3401  tokenIn */\n      dup5\n        /* \"56_DEX/SimpleSwap.sol\":3394:3411  tokenIn == token0 */\n      0xffffffffffffffffffffffffffffffffffffffff\n      and\n      eq\n        /* \"56_DEX/SimpleSwap.sol\":3394:3432  tokenIn == token0 || tokenIn == token1 */\n      dup1\n      tag_130\n      jumpi\n      pop\n        /* \"56_DEX/SimpleSwap.sol\":3426:3432  token1 */\n      0x06\n      0x00\n      swap1\n      sload\n      swap1\n      0x0100\n      exp\n      swap1\n      div\n      0xffffffffffffffffffffffffffffffffffffffff\n      and\n        /* \"56_DEX/SimpleSwap.sol\":3415:3432  tokenIn == token1 */\n      0xffffffffffffffffffffffffffffffffffffffff\n      and\n        /* \"56_DEX/SimpleSwap.sol\":3415:3422  tokenIn */\n      dup5\n        /* \"56_DEX/SimpleSwap.sol\":3415:3432  tokenIn == token1 */\n      0xffffffffffffffffffffffffffffffffffffffff\n      and\n      eq\n        /* \"56_DEX/SimpleSwap.sol\":3394:3432  tokenIn == token0 || tokenIn == token1 */\n    tag_130:\n        /* \"56_DEX/SimpleSwap.sol\":3386:3433  require(tokenIn == token0 || tokenIn == token1) */\n      tag_131\n      jumpi\n      0x00\n      dup1\n      revert\n    tag_131:\n        /* \"56_DEX/SimpleSwap.sol\":3444:3457  uint balance0 */\n      0x00\n        /* \"56_DEX/SimpleSwap.sol\":3460:3466  token0 */\n      0x05\n      0x00\n      swap1\n      sload\n      swap1\n      0x0100\n      exp\n      swap1\n      div\n      0xffffffffffffffffffffffffffffffffffffffff\n      and\n        /* \"56_DEX/SimpleSwap.sol\":3460:3476  token0.balanceOf */\n      0xffffffffffffffffffffffffffffffffffffffff\n      and\n      0x70a08231\n        /* \"56_DEX/SimpleSwap.sol\":3485:3489  this */\n      address\n        /* \"56_DEX/SimpleSwap.sol\":3460:3491  token0.balanceOf(address(this)) */\n      mload(0x40)\n      dup3\n      0xffffffff\n      and\n      0xe0\n      shl\n      dup2\n      mstore\n      0x04\n      add\n      tag_132\n      swap2\n      swap1\n      tag_133\n      jump\t// in\n    tag_132:\n      0x20\n      mload(0x40)\n      dup1\n      dup4\n      sub\n      dup2\n      dup7\n      gas\n      staticcall\n      iszero\n      dup1\n      iszero\n      tag_135\n      jumpi\n      returndatasize\n      0x00\n      dup1\n      returndatacopy\n      revert(0x00, returndatasize)\n    tag_135:\n      pop\n      pop\n      pop\n      pop\n      mload(0x40)\n      returndatasize\n      not(0x1f)\n      0x1f\n      dup3\n      add\n      and\n      dup3\n      add\n      dup1\n      0x40\n      mstore\n      pop\n      dup2\n      add\n      swap1\n      tag_136\n      swap2\n      swap1\n      tag_137\n      jump\t// in\n    tag_136:\n        /* \"56_DEX/SimpleSwap.sol\":3444:3491  uint balance0 = token0.balanceOf(address(this)) */\n      swap1\n      pop\n        /* \"56_DEX/SimpleSwap.sol\":3502:3515  uint balance1 */\n      0x00\n        /* \"56_DEX/SimpleSwap.sol\":3518:3524  token1 */\n      0x06\n      0x00\n      swap1\n      sload\n      swap1\n      0x0100\n      exp\n      swap1\n      div\n      0xffffffffffffffffffffffffffffffffffffffff\n      and\n        /* \"56_DEX/SimpleSwap.sol\":3518:3534  token1.balanceOf */\n      0xffffffffffffffffffffffffffffffffffffffff\n      and\n      0x70a08231\n        /* \"56_DEX/SimpleSwap.sol\":3543:3547  this */\n      address\n        /* \"56_DEX/SimpleSwap.sol\":3518:3549  token1.balanceOf(address(this)) */\n      mload(0x40)\n      dup3\n      0xffffffff\n      and\n      0xe0\n      shl\n      dup2\n      mstore\n      0x04\n      add\n      tag_138\n      swap2\n      swap1\n      tag_133\n      jump\t// in\n    tag_138:\n      0x20\n      mload(0x40)\n      dup1\n      dup4\n      sub\n      dup2\n      dup7\n      gas\n      staticcall\n      iszero\n      dup1\n      iszero\n      tag_140\n      jumpi\n      returndatasize\n      0x00\n      dup1\n      returndatacopy\n      revert(0x00, returndatasize)\n    tag_140:\n      pop\n      pop\n      pop\n      pop\n      mload(0x40)\n      returndatasize\n      not(0x1f)\n      0x1f\n      dup3\n      add\n      and\n      dup3\n      add\n      dup1\n      0x40\n      mstore\n      pop\n      dup2\n      add\n      swap1\n      tag_141\n      swap2\n      swap1\n      tag_137\n      jump\t// in\n    tag_141:\n        /* \"56_DEX/SimpleSwap.sol\":3502:3549  uint balance1 = token1.balanceOf(address(this)) */\n      swap1\n      pop\n        /* \"56_DEX/SimpleSwap.sol\":3575:3581  token0 */\n      0x05\n      0x00\n      swap1\n      sload\n      swap1\n      0x0100\n      exp\n      swap1\n      div\n      0xffffffffffffffffffffffffffffffffffffffff\n      and\n        /* \"56_DEX/SimpleSwap.sol\":3564:3581  tokenIn == token0 */\n      0xffffffffffffffffffffffffffffffffffffffff\n      and\n        /* \"56_DEX/SimpleSwap.sol\":3564:3571  tokenIn */\n      dup7\n        /* \"56_DEX/SimpleSwap.sol\":3564:3581  tokenIn == token0 */\n      0xffffffffffffffffffffffffffffffffffffffff\n      and\n      sub\n        /* \"56_DEX/SimpleSwap.sol\":3560:4162  if (tokenIn == token0) {... */\n      tag_142\n      jumpi\n        /* \"56_DEX/SimpleSwap.sol\":3609:3615  token1 */\n      0x06\n      0x00\n      swap1\n      sload\n      swap1\n      0x0100\n      exp\n      swap1\n      div\n      0xffffffffffffffffffffffffffffffffffffffff\n      and\n        /* \"56_DEX/SimpleSwap.sol\":3598:3615  tokenOut = token1 */\n      swap3\n      pop\n        /* \"56_DEX/SimpleSwap.sol\":3642:3684  getAmountOut(amountIn, balance0, balance1) */\n      tag_143\n        /* \"56_DEX/SimpleSwap.sol\":3655:3663  amountIn */\n      dup8\n        /* \"56_DEX/SimpleSwap.sol\":3665:3673  balance0 */\n      dup4\n        /* \"56_DEX/SimpleSwap.sol\":3675:3683  balance1 */\n      dup4\n        /* \"56_DEX/SimpleSwap.sol\":3642:3654  getAmountOut */\n      tag_26\n        /* \"56_DEX/SimpleSwap.sol\":3642:3684  getAmountOut(amountIn, balance0, balance1) */\n      jump\t// in\n    tag_143:\n        /* \"56_DEX/SimpleSwap.sol\":3630:3684  amountOut = getAmountOut(amountIn, balance0, balance1) */\n      swap4\n      pop\n        /* \"56_DEX/SimpleSwap.sol\":3719:3731  amountOutMin */\n      dup5\n        /* \"56_DEX/SimpleSwap.sol\":3707:3716  amountOut */\n      dup5\n        /* \"56_DEX/SimpleSwap.sol\":3707:3731  amountOut > amountOutMin */\n      gt\n        /* \"56_DEX/SimpleSwap.sol\":3699:3732  require(amountOut > amountOutMin) */\n      tag_144\n      jumpi\n      0x00\n      dup1\n      revert\n    tag_144:\n        /* \"56_DEX/SimpleSwap.sol\":3747:3754  tokenIn */\n      dup6\n        /* \"56_DEX/SimpleSwap.sol\":3747:3767  tokenIn.transferFrom */\n      0xffffffffffffffffffffffffffffffffffffffff\n      and\n      0x23b872dd\n        /* \"56_DEX/SimpleSwap.sol\":3768:3778  msg.sender */\n      caller\n        /* \"56_DEX/SimpleSwap.sol\":3787:3791  this */\n      address\n        /* \"56_DEX/SimpleSwap.sol\":3794:3802  amountIn */\n      dup11\n        /* \"56_DEX/SimpleSwap.sol\":3747:3803  tokenIn.transferFrom(msg.sender,address(this), amountIn) */\n      mload(0x40)\n      dup5\n      0xffffffff\n      and\n      0xe0\n      shl\n      dup2\n      mstore\n      0x04\n      add\n      tag_145\n      swap4\n      swap3\n      swap2\n      swap1\n      tag_146\n      jump\t// in\n    tag_145:\n      0x20\n      mload(0x40)\n      dup1\n      dup4\n      sub\n      dup2\n      0x00\n      dup8\n      gas\n      call\n      iszero\n      dup1\n      iszero\n      tag_148\n      jumpi\n      returndatasize\n      0x00\n      dup1\n      returndatacopy\n      revert(0x00, returndatasize)\n    tag_148:\n      pop\n      pop\n      pop\n      pop\n      mload(0x40)\n      returndatasize\n      not(0x1f)\n      0x1f\n      dup3\n      add\n      and\n      dup3\n      add\n      dup1\n      0x40\n      mstore\n      pop\n      dup2\n      add\n      swap1\n      tag_149\n      swap2\n      swap1\n      tag_150\n      jump\t// in\n    tag_149:\n      pop\n        /* \"56_DEX/SimpleSwap.sol\":3818:3826  tokenOut */\n      dup3\n        /* \"56_DEX/SimpleSwap.sol\":3818:3835  tokenOut.transfer */\n      0xffffffffffffffffffffffffffffffffffffffff\n      and\n      0xa9059cbb\n        /* \"56_DEX/SimpleSwap.sol\":3836:3846  msg.sender */\n      caller\n        /* \"56_DEX/SimpleSwap.sol\":3848:3857  amountOut */\n      dup7\n        /* \"56_DEX/SimpleSwap.sol\":3818:3858  tokenOut.transfer(msg.sender, amountOut) */\n      mload(0x40)\n      dup4\n      0xffffffff\n      and\n      0xe0\n      shl\n      dup2\n      mstore\n      0x04\n      add\n      tag_151\n      swap3\n      swap2\n      swap1\n      tag_152\n      jump\t// in\n    tag_151:\n      0x20\n      mload(0x40)\n      dup1\n      dup4\n      sub\n      dup2\n      0x00\n      dup8\n      gas\n      call\n      iszero\n      dup1\n      iszero\n      tag_154\n      jumpi\n      returndatasize\n      0x00\n      dup1\n      returndatacopy\n      revert(0x00, returndatasize)\n    tag_154:\n      pop\n      pop\n      pop\n      pop\n      mload(0x40)\n      returndatasize\n      not(0x1f)\n      0x1f\n      dup3\n      add\n      and\n      dup3\n      add\n      dup1\n      0x40\n      mstore\n      pop\n      dup2\n      add\n      swap1\n      tag_155\n      swap2\n      swap1\n      tag_150\n      jump\t// in\n    tag_155:\n      pop\n        /* \"56_DEX/SimpleSwap.sol\":3560:4162  if (tokenIn == token0) {... */\n      jump(tag_156)\n    tag_142:\n        /* \"56_DEX/SimpleSwap.sol\":3900:3906  token1 */\n      0x06\n      0x00\n      swap1\n      sload\n      swap1\n      0x0100\n      exp\n      swap1\n      div\n      0xffffffffffffffffffffffffffffffffffffffff\n      and\n        /* \"56_DEX/SimpleSwap.sol\":3890:3906  tokenIn = token1 */\n      swap6\n      pop\n        /* \"56_DEX/SimpleSwap.sol\":3933:3975  getAmountOut(amountIn, balance1, balance0) */\n      tag_157\n        /* \"56_DEX/SimpleSwap.sol\":3946:3954  amountIn */\n      dup8\n        /* \"56_DEX/SimpleSwap.sol\":3956:3964  balance1 */\n      dup3\n        /* \"56_DEX/SimpleSwap.sol\":3966:3974  balance0 */\n      dup5\n        /* \"56_DEX/SimpleSwap.sol\":3933:3945  getAmountOut */\n      tag_26\n        /* \"56_DEX/SimpleSwap.sol\":3933:3975  getAmountOut(amountIn, balance1, balance0) */\n      jump\t// in\n    tag_157:\n        /* \"56_DEX/SimpleSwap.sol\":3921:3975  amountOut = getAmountOut(amountIn, balance1, balance0) */\n      swap4\n      pop\n        /* \"56_DEX/SimpleSwap.sol\":4010:4022  amountOutMin */\n      dup5\n        /* \"56_DEX/SimpleSwap.sol\":3998:4007  amountOut */\n      dup5\n        /* \"56_DEX/SimpleSwap.sol\":3998:4022  amountOut > amountOutMin */\n      gt\n        /* \"56_DEX/SimpleSwap.sol\":3990:4023  require(amountOut > amountOutMin) */\n      tag_158\n      jumpi\n      0x00\n      dup1\n      revert\n    tag_158:\n        /* \"56_DEX/SimpleSwap.sol\":4038:4045  tokenIn */\n      dup6\n        /* \"56_DEX/SimpleSwap.sol\":4038:4058  tokenIn.transferFrom */\n      0xffffffffffffffffffffffffffffffffffffffff\n      and\n      0x23b872dd\n        /* \"56_DEX/SimpleSwap.sol\":4059:4069  msg.sender */\n      caller\n        /* \"56_DEX/SimpleSwap.sol\":4079:4083  this */\n      address\n        /* \"56_DEX/SimpleSwap.sol\":4086:4094  amountIn */\n      dup11\n        /* \"56_DEX/SimpleSwap.sol\":4038:4095  tokenIn.transferFrom(msg.sender, address(this), amountIn) */\n      mload(0x40)\n      dup5\n      0xffffffff\n      and\n      0xe0\n      shl\n      dup2\n      mstore\n      0x04\n      add\n      tag_159\n      swap4\n      swap3\n      swap2\n      swap1\n      tag_146\n      jump\t// in\n    tag_159:\n      0x20\n      mload(0x40)\n      dup1\n      dup4\n      sub\n      dup2\n      0x00\n      dup8\n      gas\n      call\n      iszero\n      dup1\n      iszero\n      tag_161\n      jumpi\n      returndatasize\n      0x00\n      dup1\n      returndatacopy\n      revert(0x00, returndatasize)\n    tag_161:\n      pop\n      pop\n      pop\n      pop\n      mload(0x40)\n      returndatasize\n      not(0x1f)\n      0x1f\n      dup3\n      add\n      and\n      dup3\n      add\n      dup1\n      0x40\n      mstore\n      pop\n      dup2\n      add\n      swap1\n      tag_162\n      swap2\n      swap1\n      tag_150\n      jump\t// in\n    tag_162:\n      pop\n        /* \"56_DEX/SimpleSwap.sol\":4110:4118  tokenOut */\n      dup3\n        /* \"56_DEX/SimpleSwap.sol\":4110:4127  tokenOut.transfer */\n      0xffffffffffffffffffffffffffffffffffffffff\n      and\n      0xa9059cbb\n        /* \"56_DEX/SimpleSwap.sol\":4128:4138  msg.sender */\n      caller\n        /* \"56_DEX/SimpleSwap.sol\":4140:4149  amountOut */\n      dup7\n        /* \"56_DEX/SimpleSwap.sol\":4110:4150  tokenOut.transfer(msg.sender, amountOut) */\n      mload(0x40)\n      dup4\n      0xffffffff\n      and\n      0xe0\n      shl\n      dup2\n      mstore\n      0x04\n      add\n      tag_163\n      swap3\n      swap2\n      swap1\n      tag_152\n      jump\t// in\n    tag_163:\n      0x20\n      mload(0x40)\n      dup1\n      dup4\n      sub\n      dup2\n      0x00\n      dup8\n      gas\n      call\n      iszero\n      dup1\n      iszero\n      tag_165\n      jumpi\n      returndatasize\n      0x00\n      dup1\n      returndatacopy\n      revert(0x00, returndatasize)\n    tag_165:\n      pop\n      pop\n      pop\n      pop\n      mload(0x40)\n      returndatasize\n      not(0x1f)\n      0x1f\n      dup3\n      add\n      and\n      dup3\n      add\n      dup1\n      0x40\n      mstore\n      pop\n      dup2\n      add\n      swap1\n      tag_166\n      swap2\n      swap1\n      tag_150\n      jump\t// in\n    tag_166:\n      pop\n        /* \"56_DEX/SimpleSwap.sol\":3560:4162  if (tokenIn == token0) {... */\n    tag_156:\n        /* \"56_DEX/SimpleSwap.sol\":4183:4189  token0 */\n      0x05\n      0x00\n      swap1\n      sload\n      swap1\n      0x0100\n      exp\n      swap1\n      div\n      0xffffffffffffffffffffffffffffffffffffffff\n      and\n        /* \"56_DEX/SimpleSwap.sol\":4183:4199  token0.balanceOf */\n      0xffffffffffffffffffffffffffffffffffffffff\n      and\n      0x70a08231\n        /* \"56_DEX/SimpleSwap.sol\":4208:4212  this */\n      address\n        /* \"56_DEX/SimpleSwap.sol\":4183:4214  token0.balanceOf(address(this)) */\n      mload(0x40)\n      dup3\n      0xffffffff\n      and\n      0xe0\n      shl\n      dup2\n      mstore\n      0x04\n      add\n      tag_167\n      swap2\n      swap1\n      tag_133\n      jump\t// in\n    tag_167:\n      0x20\n      mload(0x40)\n      dup1\n      dup4\n      sub\n      dup2\n      dup7\n      gas\n      staticcall\n      iszero\n      dup1\n      iszero\n      tag_169\n      jumpi\n      returndatasize\n      0x00\n      dup1\n      returndatacopy\n      revert(0x00, returndatasize)\n    tag_169:\n      pop\n      pop\n      pop\n      pop\n      mload(0x40)\n      returndatasize\n      not(0x1f)\n      0x1f\n      dup3\n      add\n      and\n      dup3\n      add\n      dup1\n      0x40\n      mstore\n      pop\n      dup2\n      add\n      swap1\n      tag_170\n      swap2\n      swap1\n      tag_137\n      jump\t// in\n    tag_170:\n        /* \"56_DEX/SimpleSwap.sol\":4172:4180  resvers0 */\n      0x07\n        /* \"56_DEX/SimpleSwap.sol\":4172:4214  resvers0 = token0.balanceOf(address(this)) */\n      dup2\n      swap1\n      sstore\n      pop\n        /* \"56_DEX/SimpleSwap.sol\":4236:4242  token1 */\n      0x06\n      0x00\n      swap1\n      sload\n      swap1\n      0x0100\n      exp\n      swap1\n      div\n      0xffffffffffffffffffffffffffffffffffffffff\n      and\n        /* \"56_DEX/SimpleSwap.sol\":4236:4252  token1.balanceOf */\n      0xffffffffffffffffffffffffffffffffffffffff\n      and\n      0x70a08231\n        /* \"56_DEX/SimpleSwap.sol\":4261:4265  this */\n      address\n        /* \"56_DEX/SimpleSwap.sol\":4236:4267  token1.balanceOf(address(this)) */\n      mload(0x40)\n      dup3\n      0xffffffff\n      and\n      0xe0\n      shl\n      dup2\n      mstore\n      0x04\n      add\n      tag_171\n      swap2\n      swap1\n      tag_133\n      jump\t// in\n    tag_171:\n      0x20\n      mload(0x40)\n      dup1\n      dup4\n      sub\n      dup2\n      dup7\n      gas\n      staticcall\n      iszero\n      dup1\n      iszero\n      tag_173\n      jumpi\n      returndatasize\n      0x00\n      dup1\n      returndatacopy\n      revert(0x00, returndatasize)\n    tag_173:\n      pop\n      pop\n      pop\n      pop\n      mload(0x40)\n      returndatasize\n      not(0x1f)\n      0x1f\n      dup3\n      add\n      and\n      dup3\n      add\n      dup1\n      0x40\n      mstore\n      pop\n      dup2\n      add\n      swap1\n      tag_174\n      swap2\n      swap1\n      tag_137\n      jump\t// in\n    tag_174:\n        /* \"56_DEX/SimpleSwap.sol\":4225:4233  resvers1 */\n      0x08\n        /* \"56_DEX/SimpleSwap.sol\":4225:4267  resvers1 = token1.balanceOf(address(this)) */\n      dup2\n      swap1\n      sstore\n      pop\n        /* \"56_DEX/SimpleSwap.sol\":4288:4298  msg.sender */\n      caller\n        /* \"56_DEX/SimpleSwap.sol\":4283:4357  Swap(msg.sender, amountIn, address(tokenIn), amountOut, address(tokenOut)) */\n      0xffffffffffffffffffffffffffffffffffffffff\n      and\n      0x24043855bfbfea0ccea141e5a73d7116bf0bfe083ea900a791f4b407ff03e525\n        /* \"56_DEX/SimpleSwap.sol\":4300:4308  amountIn */\n      dup9\n        /* \"56_DEX/SimpleSwap.sol\":4318:4325  tokenIn */\n      dup9\n        /* \"56_DEX/SimpleSwap.sol\":4328:4337  amountOut */\n      dup8\n        /* \"56_DEX/SimpleSwap.sol\":4347:4355  tokenOut */\n      dup8\n        /* \"56_DEX/SimpleSwap.sol\":4283:4357  Swap(msg.sender, amountIn, address(tokenIn), amountOut, address(tokenOut)) */\n      mload(0x40)\n      tag_175\n      swap5\n      swap4\n      swap3\n      swap2\n      swap1\n      tag_176\n      jump\t// in\n    tag_175:\n      mload(0x40)\n      dup1\n      swap2\n      sub\n      swap1\n      log2\n        /* \"56_DEX/SimpleSwap.sol\":3343:4365  {... */\n      pop\n      pop\n        /* \"56_DEX/SimpleSwap.sol\":3232:4365  function swap(uint amountIn,IERC20 tokenIn,uint amountOutMin) external returns(uint amountOut,IERC20 tokenOut) {... */\n      swap4\n      pop\n      swap4\n      swap2\n      pop\n      pop\n      jump\t// out\n        /* \"56_DEX/SimpleSwap.sol\":269:289  uint public resvers0 */\n    tag_62:\n      sload(0x07)\n      dup2\n      jump\t// out\n        /* \"@openzeppelin/contracts/token/ERC20/ERC20.sol\":3299:3415  function balanceOf(address account) public view virtual returns (uint256) {... */\n    tag_67:\n        /* \"@openzeppelin/contracts/token/ERC20/ERC20.sol\":3364:3371  uint256 */\n      0x00\n        /* \"@openzeppelin/contracts/token/ERC20/ERC20.sol\":3390:3399  _balances */\n      dup1\n        /* \"@openzeppelin/contracts/token/ERC20/ERC20.sol\":3390:3408  _balances[account] */\n      0x00\n        /* \"@openzeppelin/contracts/token/ERC20/ERC20.sol\":3400:3407  account */\n      dup4\n        /* \"@openzeppelin/contracts/token/ERC20/ERC20.sol\":3390:3408  _balances[account] */\n      0xffffffffffffffffffffffffffffffffffffffff\n      and\n      0xffffffffffffffffffffffffffffffffffffffff\n      and\n      dup2\n      mstore\n      0x20\n      add\n      swap1\n      dup2\n      mstore\n      0x20\n      add\n      0x00\n      keccak256\n      sload\n        /* \"@openzeppelin/contracts/token/ERC20/ERC20.sol\":3383:3408  return _balances[account] */\n      swap1\n      pop\n        /* \"@openzeppelin/contracts/token/ERC20/ERC20.sol\":3299:3415  function balanceOf(address account) public view virtual returns (uint256) {... */\n      swap2\n      swap1\n      pop\n      jump\t// out\n        /* \"@openzeppelin/contracts/token/ERC20/ERC20.sol\":2276:2369  function symbol() public view virtual returns (string memory) {... */\n    tag_70:\n        /* \"@openzeppelin/contracts/token/ERC20/ERC20.sol\":2323:2336  string memory */\n      0x60\n        /* \"@openzeppelin/contracts/token/ERC20/ERC20.sol\":2355:2362  _symbol */\n      0x04\n        /* \"@openzeppelin/contracts/token/ERC20/ERC20.sol\":2348:2362  return _symbol */\n      dup1\n      sload\n      tag_179\n      swap1\n      tag_110\n      jump\t// in\n    tag_179:\n      dup1\n      0x1f\n      add\n      0x20\n      dup1\n      swap2\n      div\n      mul\n      0x20\n      add\n      mload(0x40)\n      swap1\n      dup2\n      add\n      0x40\n      mstore\n      dup1\n      swap3\n      swap2\n      swap1\n      dup2\n      dup2\n      mstore\n      0x20\n      add\n      dup3\n      dup1\n      sload\n      tag_180\n      swap1\n      tag_110\n      jump\t// in\n    tag_180:\n      dup1\n      iszero\n      tag_181\n      jumpi\n      dup1\n      0x1f\n      lt\n      tag_182\n      jumpi\n      0x0100\n      dup1\n      dup4\n      sload\n      div\n      mul\n      dup4\n      mstore\n      swap2\n      0x20\n      add\n      swap2\n      jump(tag_181)\n    tag_182:\n      dup3\n      add\n      swap2\n      swap1\n      0x00\n      mstore\n      keccak256(0x00, 0x20)\n      swap1\n    tag_183:\n      dup2\n      sload\n      dup2\n      mstore\n      swap1\n      0x01\n      add\n      swap1\n      0x20\n      add\n      dup1\n      dup4\n      gt\n      tag_183\n      jumpi\n      dup3\n      swap1\n      sub\n      0x1f\n      and\n      dup3\n      add\n      swap2\n    tag_181:\n      pop\n      pop\n      pop\n      pop\n      pop\n      swap1\n      pop\n        /* \"@openzeppelin/contracts/token/ERC20/ERC20.sol\":2276:2369  function symbol() public view virtual returns (string memory) {... */\n      swap1\n      jump\t// out\n        /* \"56_DEX/SimpleSwap.sol\":2122:2852  function removeLiquidity(uint liquidity) external returns(uint amount0,uint amount1) {... */\n    tag_75:\n        /* \"56_DEX/SimpleSwap.sol\":2180:2192  uint amount0 */\n      0x00\n        /* \"56_DEX/SimpleSwap.sol\":2193:2205  uint amount1 */\n      dup1\n        /* \"56_DEX/SimpleSwap.sol\":2218:2231  uint balance0 */\n      0x00\n        /* \"56_DEX/SimpleSwap.sol\":2234:2240  token0 */\n      0x05\n      0x00\n      swap1\n      sload\n      swap1\n      0x0100\n      exp\n      swap1\n      div\n      0xffffffffffffffffffffffffffffffffffffffff\n      and\n        /* \"56_DEX/SimpleSwap.sol\":2234:2250  token0.balanceOf */\n      0xffffffffffffffffffffffffffffffffffffffff\n      and\n      0x70a08231\n        /* \"56_DEX/SimpleSwap.sol\":2259:2263  this */\n      address\n        /* \"56_DEX/SimpleSwap.sol\":2234:2265  token0.balanceOf(address(this)) */\n      mload(0x40)\n      dup3\n      0xffffffff\n      and\n      0xe0\n      shl\n      dup2\n      mstore\n      0x04\n      add\n      tag_185\n      swap2\n      swap1\n      tag_133\n      jump\t// in\n    tag_185:\n      0x20\n      mload(0x40)\n      dup1\n      dup4\n      sub\n      dup2\n      dup7\n      gas\n      staticcall\n      iszero\n      dup1\n      iszero\n      tag_187\n      jumpi\n      returndatasize\n      0x00\n      dup1\n      returndatacopy\n      revert(0x00, returndatasize)\n    tag_187:\n      pop\n      pop\n      pop\n      pop\n      mload(0x40)\n      returndatasize\n      not(0x1f)\n      0x1f\n      dup3\n      add\n      and\n      dup3\n      add\n      dup1\n      0x40\n      mstore\n      pop\n      dup2\n      add\n      swap1\n      tag_188\n      swap2\n      swap1\n      tag_137\n      jump\t// in\n    tag_188:\n        /* \"56_DEX/SimpleSwap.sol\":2218:2265  uint balance0 = token0.balanceOf(address(this)) */\n      swap1\n      pop\n        /* \"56_DEX/SimpleSwap.sol\":2276:2289  uint balance1 */\n      0x00\n        /* \"56_DEX/SimpleSwap.sol\":2292:2298  token1 */\n      0x06\n      0x00\n      swap1\n      sload\n      swap1\n      0x0100\n      exp\n      swap1\n      div\n      0xffffffffffffffffffffffffffffffffffffffff\n      and\n        /* \"56_DEX/SimpleSwap.sol\":2292:2308  token1.balanceOf */\n      0xffffffffffffffffffffffffffffffffffffffff\n      and\n      0x70a08231\n        /* \"56_DEX/SimpleSwap.sol\":2317:2321  this */\n      address\n        /* \"56_DEX/SimpleSwap.sol\":2292:2323  token1.balanceOf(address(this)) */\n      mload(0x40)\n      dup3\n      0xffffffff\n      and\n      0xe0\n      shl\n      dup2\n      mstore\n      0x04\n      add\n      tag_189\n      swap2\n      swap1\n      tag_133\n      jump\t// in\n    tag_189:\n      0x20\n      mload(0x40)\n      dup1\n      dup4\n      sub\n      dup2\n      dup7\n      gas\n      staticcall\n      iszero\n      dup1\n      iszero\n      tag_191\n      jumpi\n      returndatasize\n      0x00\n      dup1\n      returndatacopy\n      revert(0x00, returndatasize)\n    tag_191:\n      pop\n      pop\n      pop\n      pop\n      mload(0x40)\n      returndatasize\n      not(0x1f)\n      0x1f\n      dup3\n      add\n      and\n      dup3\n      add\n      dup1\n      0x40\n      mstore\n      pop\n      dup2\n      add\n      swap1\n      tag_192\n      swap2\n      swap1\n      tag_137\n      jump\t// in\n    tag_192:\n        /* \"56_DEX/SimpleSwap.sol\":2276:2323  uint balance1 = token1.balanceOf(address(this)) */\n      swap1\n      pop\n        /* \"56_DEX/SimpleSwap.sol\":2334:2351  uint _totalSupply */\n      0x00\n        /* \"56_DEX/SimpleSwap.sol\":2354:2367  totalSupply() */\n      tag_193\n        /* \"56_DEX/SimpleSwap.sol\":2354:2365  totalSupply */\n      tag_44\n        /* \"56_DEX/SimpleSwap.sol\":2354:2367  totalSupply() */\n      jump\t// in\n    tag_193:\n        /* \"56_DEX/SimpleSwap.sol\":2334:2367  uint _totalSupply = totalSupply() */\n      swap1\n      pop\n        /* \"56_DEX/SimpleSwap.sol\":2441:2453  _totalSupply */\n      dup1\n        /* \"56_DEX/SimpleSwap.sol\":2430:2438  balance0 */\n      dup4\n        /* \"56_DEX/SimpleSwap.sol\":2418:2427  liquidity */\n      dup8\n        /* \"56_DEX/SimpleSwap.sol\":2418:2438  liquidity * balance0 */\n      tag_194\n      swap2\n      swap1\n      tag_105\n      jump\t// in\n    tag_194:\n        /* \"56_DEX/SimpleSwap.sol\":2418:2453  liquidity * balance0 / _totalSupply */\n      tag_195\n      swap2\n      swap1\n      tag_107\n      jump\t// in\n    tag_195:\n        /* \"56_DEX/SimpleSwap.sol\":2408:2453  amount0 = liquidity * balance0 / _totalSupply */\n      swap5\n      pop\n        /* \"56_DEX/SimpleSwap.sol\":2497:2509  _totalSupply */\n      dup1\n        /* \"56_DEX/SimpleSwap.sol\":2486:2494  balance1 */\n      dup3\n        /* \"56_DEX/SimpleSwap.sol\":2474:2483  liquidity */\n      dup8\n        /* \"56_DEX/SimpleSwap.sol\":2474:2494  liquidity * balance1 */\n      tag_196\n      swap2\n      swap1\n      tag_105\n      jump\t// in\n    tag_196:\n        /* \"56_DEX/SimpleSwap.sol\":2474:2509  liquidity * balance1 / _totalSupply */\n      tag_197\n      swap2\n      swap1\n      tag_107\n      jump\t// in\n    tag_197:\n        /* \"56_DEX/SimpleSwap.sol\":2464:2509  amount1 = liquidity * balance1 / _totalSupply */\n      swap4\n      pop\n        /* \"56_DEX/SimpleSwap.sol\":2538:2539  0 */\n      0x00\n        /* \"56_DEX/SimpleSwap.sol\":2528:2535  amount0 */\n      dup6\n        /* \"56_DEX/SimpleSwap.sol\":2528:2539  amount0 > 0 */\n      gt\n        /* \"56_DEX/SimpleSwap.sol\":2528:2553  amount0 > 0 && amount1 >0 */\n      dup1\n      iszero\n      tag_198\n      jumpi\n      pop\n        /* \"56_DEX/SimpleSwap.sol\":2552:2553  0 */\n      0x00\n        /* \"56_DEX/SimpleSwap.sol\":2543:2550  amount1 */\n      dup5\n        /* \"56_DEX/SimpleSwap.sol\":2543:2553  amount1 >0 */\n      gt\n        /* \"56_DEX/SimpleSwap.sol\":2528:2553  amount0 > 0 && amount1 >0 */\n    tag_198:\n        /* \"56_DEX/SimpleSwap.sol\":2520:2554  require(amount0 > 0 && amount1 >0) */\n      tag_199\n      jumpi\n      0x00\n      dup1\n      revert\n    tag_199:\n        /* \"56_DEX/SimpleSwap.sol\":2565:2593  _burn(msg.sender, liquidity) */\n      tag_200\n        /* \"56_DEX/SimpleSwap.sol\":2571:2581  msg.sender */\n      caller\n        /* \"56_DEX/SimpleSwap.sol\":2583:2592  liquidity */\n      dup8\n        /* \"56_DEX/SimpleSwap.sol\":2565:2570  _burn */\n      tag_201\n        /* \"56_DEX/SimpleSwap.sol\":2565:2593  _burn(msg.sender, liquidity) */\n      jump\t// in\n    tag_200:\n        /* \"56_DEX/SimpleSwap.sol\":2604:2610  token0 */\n      0x05\n      0x00\n      swap1\n      sload\n      swap1\n      0x0100\n      exp\n      swap1\n      div\n      0xffffffffffffffffffffffffffffffffffffffff\n      and\n        /* \"56_DEX/SimpleSwap.sol\":2604:2619  token0.transfer */\n      0xffffffffffffffffffffffffffffffffffffffff\n      and\n      0xa9059cbb\n        /* \"56_DEX/SimpleSwap.sol\":2620:2630  msg.sender */\n      caller\n        /* \"56_DEX/SimpleSwap.sol\":2632:2639  amount0 */\n      dup8\n        /* \"56_DEX/SimpleSwap.sol\":2604:2640  token0.transfer(msg.sender, amount0) */\n      mload(0x40)\n      dup4\n      0xffffffff\n      and\n      0xe0\n      shl\n      dup2\n      mstore\n      0x04\n      add\n      tag_202\n      swap3\n      swap2\n      swap1\n      tag_152\n      jump\t// in\n    tag_202:\n      0x20\n      mload(0x40)\n      dup1\n      dup4\n      sub\n      dup2\n      0x00\n      dup8\n      gas\n      call\n      iszero\n      dup1\n      iszero\n      tag_204\n      jumpi\n      returndatasize\n      0x00\n      dup1\n      returndatacopy\n      revert(0x00, returndatasize)\n    tag_204:\n      pop\n      pop\n      pop\n      pop\n      mload(0x40)\n      returndatasize\n      not(0x1f)\n      0x1f\n      dup3\n      add\n      and\n      dup3\n      add\n      dup1\n      0x40\n      mstore\n      pop\n      dup2\n      add\n      swap1\n      tag_205\n      swap2\n      swap1\n      tag_150\n      jump\t// in\n    tag_205:\n      pop\n        /* \"56_DEX/SimpleSwap.sol\":2652:2658  token1 */\n      0x06\n      0x00\n      swap1\n      sload\n      swap1\n      0x0100\n      exp\n      swap1\n      div\n      0xffffffffffffffffffffffffffffffffffffffff\n      and\n        /* \"56_DEX/SimpleSwap.sol\":2652:2667  token1.transfer */\n      0xffffffffffffffffffffffffffffffffffffffff\n      and\n      0xa9059cbb\n        /* \"56_DEX/SimpleSwap.sol\":2668:2678  msg.sender */\n      caller\n        /* \"56_DEX/SimpleSwap.sol\":2680:2687  amount1 */\n      dup7\n        /* \"56_DEX/SimpleSwap.sol\":2652:2688  token1.transfer(msg.sender, amount1) */\n      mload(0x40)\n      dup4\n      0xffffffff\n      and\n      0xe0\n      shl\n      dup2\n      mstore\n      0x04\n      add\n      tag_206\n      swap3\n      swap2\n      swap1\n      tag_152\n      jump\t// in\n    tag_206:\n      0x20\n      mload(0x40)\n      dup1\n      dup4\n      sub\n      dup2\n      0x00\n      dup8\n      gas\n      call\n      iszero\n      dup1\n      iszero\n      tag_208\n      jumpi\n      returndatasize\n      0x00\n      dup1\n      returndatacopy\n      revert(0x00, returndatasize)\n    tag_208:\n      pop\n      pop\n      pop\n      pop\n      mload(0x40)\n      returndatasize\n      not(0x1f)\n      0x1f\n      dup3\n      add\n      and\n      dup3\n      add\n      dup1\n      0x40\n      mstore\n      pop\n      dup2\n      add\n      swap1\n      tag_209\n      swap2\n      swap1\n      tag_150\n      jump\t// in\n    tag_209:\n      pop\n        /* \"56_DEX/SimpleSwap.sol\":2710:2716  token0 */\n      0x05\n      0x00\n      swap1\n      sload\n      swap1\n      0x0100\n      exp\n      swap1\n      div\n      0xffffffffffffffffffffffffffffffffffffffff\n      and\n        /* \"56_DEX/SimpleSwap.sol\":2710:2726  token0.balanceOf */\n      0xffffffffffffffffffffffffffffffffffffffff\n      and\n      0x70a08231\n        /* \"56_DEX/SimpleSwap.sol\":2735:2739  this */\n      address\n        /* \"56_DEX/SimpleSwap.sol\":2710:2741  token0.balanceOf(address(this)) */\n      mload(0x40)\n      dup3\n      0xffffffff\n      and\n      0xe0\n      shl\n      dup2\n      mstore\n      0x04\n      add\n      tag_210\n      swap2\n      swap1\n      tag_133\n      jump\t// in\n    tag_210:\n      0x20\n      mload(0x40)\n      dup1\n      dup4\n      sub\n      dup2\n      dup7\n      gas\n      staticcall\n      iszero\n      dup1\n      iszero\n      tag_212\n      jumpi\n      returndatasize\n      0x00\n      dup1\n      returndatacopy\n      revert(0x00, returndatasize)\n    tag_212:\n      pop\n      pop\n      pop\n      pop\n      mload(0x40)\n      returndatasize\n      not(0x1f)\n      0x1f\n      dup3\n      add\n      and\n      dup3\n      add\n      dup1\n      0x40\n      mstore\n      pop\n      dup2\n      add\n      swap1\n      tag_213\n      swap2\n      swap1\n      tag_137\n      jump\t// in\n    tag_213:\n        /* \"56_DEX/SimpleSwap.sol\":2699:2707  resvers0 */\n      0x07\n        /* \"56_DEX/SimpleSwap.sol\":2699:2741  resvers0 = token0.balanceOf(address(this)) */\n      dup2\n      swap1\n      sstore\n      pop\n        /* \"56_DEX/SimpleSwap.sol\":2763:2769  token1 */\n      0x06\n      0x00\n      swap1\n      sload\n      swap1\n      0x0100\n      exp\n      swap1\n      div\n      0xffffffffffffffffffffffffffffffffffffffff\n      and\n        /* \"56_DEX/SimpleSwap.sol\":2763:2779  token1.balanceOf */\n      0xffffffffffffffffffffffffffffffffffffffff\n      and\n      0x70a08231\n        /* \"56_DEX/SimpleSwap.sol\":2788:2792  this */\n      address\n        /* \"56_DEX/SimpleSwap.sol\":2763:2794  token1.balanceOf(address(this)) */\n      mload(0x40)\n      dup3\n      0xffffffff\n      and\n      0xe0\n      shl\n      dup2\n      mstore\n      0x04\n      add\n      tag_214\n      swap2\n      swap1\n      tag_133\n      jump\t// in\n    tag_214:\n      0x20\n      mload(0x40)\n      dup1\n      dup4\n      sub\n      dup2\n      dup7\n      gas\n      staticcall\n      iszero\n      dup1\n      iszero\n      tag_216\n      jumpi\n      returndatasize\n      0x00\n      dup1\n      returndatacopy\n      revert(0x00, returndatasize)\n    tag_216:\n      pop\n      pop\n      pop\n      pop\n      mload(0x40)\n      returndatasize\n      not(0x1f)\n      0x1f\n      dup3\n      add\n      and\n      dup3\n      add\n      dup1\n      0x40\n      mstore\n      pop\n      dup2\n      add\n      swap1\n      tag_217\n      swap2\n      swap1\n      tag_137\n      jump\t// in\n    tag_217:\n        /* \"56_DEX/SimpleSwap.sol\":2752:2760  resvers1 */\n      0x08\n        /* \"56_DEX/SimpleSwap.sol\":2752:2794  resvers1 = token1.balanceOf(address(this)) */\n      dup2\n      swap1\n      sstore\n      pop\n        /* \"56_DEX/SimpleSwap.sol\":2815:2825  msg.sender */\n      caller\n        /* \"56_DEX/SimpleSwap.sol\":2810:2844  Burn(msg.sender, amount0, amount1) */\n      0xffffffffffffffffffffffffffffffffffffffff\n      and\n      0x49995e5dd6158cf69ad3e9777c46755a1a826a446c6416992167462dad033b2a\n        /* \"56_DEX/SimpleSwap.sol\":2827:2834  amount0 */\n      dup7\n        /* \"56_DEX/SimpleSwap.sol\":2836:2843  amount1 */\n      dup7\n        /* \"56_DEX/SimpleSwap.sol\":2810:2844  Burn(msg.sender, amount0, amount1) */\n      mload(0x40)\n      tag_218\n      swap3\n      swap2\n      swap1\n      tag_77\n      jump\t// in\n    tag_218:\n      mload(0x40)\n      dup1\n      swap2\n      sub\n      swap1\n      log2\n        /* \"56_DEX/SimpleSwap.sol\":2207:2852  {... */\n      pop\n      pop\n      pop\n        /* \"56_DEX/SimpleSwap.sol\":2122:2852  function removeLiquidity(uint liquidity) external returns(uint amount0,uint amount1) {... */\n      swap2\n      pop\n      swap2\n      jump\t// out\n        /* \"56_DEX/SimpleSwap.sol\":1252:2093  function addLiquidity(uint amount0Desired,uint amount1Desired) public returns(uint liquidity) {... */\n    tag_81:\n        /* \"56_DEX/SimpleSwap.sol\":1330:1344  uint liquidity */\n      0x00\n        /* \"56_DEX/SimpleSwap.sol\":1396:1402  token0 */\n      0x05\n      0x00\n      swap1\n      sload\n      swap1\n      0x0100\n      exp\n      swap1\n      div\n      0xffffffffffffffffffffffffffffffffffffffff\n      and\n        /* \"56_DEX/SimpleSwap.sol\":1396:1415  token0.transferFrom */\n      0xffffffffffffffffffffffffffffffffffffffff\n      and\n      0x23b872dd\n        /* \"56_DEX/SimpleSwap.sol\":1416:1426  msg.sender */\n      caller\n        /* \"56_DEX/SimpleSwap.sol\":1436:1440  this */\n      address\n        /* \"56_DEX/SimpleSwap.sol\":1443:1457  amount0Desired */\n      dup7\n        /* \"56_DEX/SimpleSwap.sol\":1396:1458  token0.transferFrom(msg.sender, address(this), amount0Desired) */\n      mload(0x40)\n      dup5\n      0xffffffff\n      and\n      0xe0\n      shl\n      dup2\n      mstore\n      0x04\n      add\n      tag_220\n      swap4\n      swap3\n      swap2\n      swap1\n      tag_146\n      jump\t// in\n    tag_220:\n      0x20\n      mload(0x40)\n      dup1\n      dup4\n      sub\n      dup2\n      0x00\n      dup8\n      gas\n      call\n      iszero\n      dup1\n      iszero\n      tag_222\n      jumpi\n      returndatasize\n      0x00\n      dup1\n      returndatacopy\n      revert(0x00, returndatasize)\n    tag_222:\n      pop\n      pop\n      pop\n      pop\n      mload(0x40)\n      returndatasize\n      not(0x1f)\n      0x1f\n      dup3\n      add\n      and\n      dup3\n      add\n      dup1\n      0x40\n      mstore\n      pop\n      dup2\n      add\n      swap1\n      tag_223\n      swap2\n      swap1\n      tag_150\n      jump\t// in\n    tag_223:\n      pop\n        /* \"56_DEX/SimpleSwap.sol\":1469:1475  token1 */\n      0x06\n      0x00\n      swap1\n      sload\n      swap1\n      0x0100\n      exp\n      swap1\n      div\n      0xffffffffffffffffffffffffffffffffffffffff\n      and\n        /* \"56_DEX/SimpleSwap.sol\":1469:1488  token1.transferFrom */\n      0xffffffffffffffffffffffffffffffffffffffff\n      and\n      0x23b872dd\n        /* \"56_DEX/SimpleSwap.sol\":1489:1499  msg.sender */\n      caller\n        /* \"56_DEX/SimpleSwap.sol\":1509:1513  this */\n      address\n        /* \"56_DEX/SimpleSwap.sol\":1516:1530  amount1Desired */\n      dup6\n        /* \"56_DEX/SimpleSwap.sol\":1469:1531  token1.transferFrom(msg.sender, address(this), amount1Desired) */\n      mload(0x40)\n      dup5\n      0xffffffff\n      and\n      0xe0\n      shl\n      dup2\n      mstore\n      0x04\n      add\n      tag_224\n      swap4\n      swap3\n      swap2\n      swap1\n      tag_146\n      jump\t// in\n    tag_224:\n      0x20\n      mload(0x40)\n      dup1\n      dup4\n      sub\n      dup2\n      0x00\n      dup8\n      gas\n      call\n      iszero\n      dup1\n      iszero\n      tag_226\n      jumpi\n      returndatasize\n      0x00\n      dup1\n      returndatacopy\n      revert(0x00, returndatasize)\n    tag_226:\n      pop\n      pop\n      pop\n      pop\n      mload(0x40)\n      returndatasize\n      not(0x1f)\n      0x1f\n      dup3\n      add\n      and\n      dup3\n      add\n      dup1\n      0x40\n      mstore\n      pop\n      dup2\n      add\n      swap1\n      tag_227\n      swap2\n      swap1\n      tag_150\n      jump\t// in\n    tag_227:\n      pop\n        /* \"56_DEX/SimpleSwap.sol\":1542:1559  uint _totalSupply */\n      0x00\n        /* \"56_DEX/SimpleSwap.sol\":1562:1575  totalSupply() */\n      tag_228\n        /* \"56_DEX/SimpleSwap.sol\":1562:1573  totalSupply */\n      tag_44\n        /* \"56_DEX/SimpleSwap.sol\":1562:1575  totalSupply() */\n      jump\t// in\n    tag_228:\n        /* \"56_DEX/SimpleSwap.sol\":1542:1575  uint _totalSupply = totalSupply() */\n      swap1\n      pop\n        /* \"56_DEX/SimpleSwap.sol\":1636:1637  0 */\n      0x00\n        /* \"56_DEX/SimpleSwap.sol\":1620:1632  _totalSupply */\n      dup2\n        /* \"56_DEX/SimpleSwap.sol\":1620:1637  _totalSupply == 0 */\n      sub\n        /* \"56_DEX/SimpleSwap.sol\":1616:1844  if (_totalSupply == 0) {... */\n      tag_229\n      jumpi\n        /* \"56_DEX/SimpleSwap.sol\":1666:1701  sqrt(amount0Desired*amount1Desired) */\n      tag_230\n        /* \"56_DEX/SimpleSwap.sol\":1686:1700  amount1Desired */\n      dup4\n        /* \"56_DEX/SimpleSwap.sol\":1671:1685  amount0Desired */\n      dup6\n        /* \"56_DEX/SimpleSwap.sol\":1671:1700  amount0Desired*amount1Desired */\n      tag_231\n      swap2\n      swap1\n      tag_105\n      jump\t// in\n    tag_231:\n        /* \"56_DEX/SimpleSwap.sol\":1666:1670  sqrt */\n      tag_232\n        /* \"56_DEX/SimpleSwap.sol\":1666:1701  sqrt(amount0Desired*amount1Desired) */\n      jump\t// in\n    tag_230:\n        /* \"56_DEX/SimpleSwap.sol\":1654:1701  liquidity = sqrt(amount0Desired*amount1Desired) */\n      swap2\n      pop\n        /* \"56_DEX/SimpleSwap.sol\":1616:1844  if (_totalSupply == 0) {... */\n      jump(tag_233)\n    tag_229:\n        /* \"56_DEX/SimpleSwap.sol\":1745:1832  min(amount0Desired * _totalSupply / resvers0, amount1Desired * _totalSupply / resvers1) */\n      tag_234\n        /* \"56_DEX/SimpleSwap.sol\":1781:1789  resvers0 */\n      sload(0x07)\n        /* \"56_DEX/SimpleSwap.sol\":1766:1778  _totalSupply */\n      dup3\n        /* \"56_DEX/SimpleSwap.sol\":1749:1763  amount0Desired */\n      dup7\n        /* \"56_DEX/SimpleSwap.sol\":1749:1778  amount0Desired * _totalSupply */\n      tag_235\n      swap2\n      swap1\n      tag_105\n      jump\t// in\n    tag_235:\n        /* \"56_DEX/SimpleSwap.sol\":1749:1789  amount0Desired * _totalSupply / resvers0 */\n      tag_236\n      swap2\n      swap1\n      tag_107\n      jump\t// in\n    tag_236:\n        /* \"56_DEX/SimpleSwap.sol\":1823:1831  resvers1 */\n      sload(0x08)\n        /* \"56_DEX/SimpleSwap.sol\":1808:1820  _totalSupply */\n      dup4\n        /* \"56_DEX/SimpleSwap.sol\":1791:1805  amount1Desired */\n      dup7\n        /* \"56_DEX/SimpleSwap.sol\":1791:1820  amount1Desired * _totalSupply */\n      tag_237\n      swap2\n      swap1\n      tag_105\n      jump\t// in\n    tag_237:\n        /* \"56_DEX/SimpleSwap.sol\":1791:1831  amount1Desired * _totalSupply / resvers1 */\n      tag_238\n      swap2\n      swap1\n      tag_107\n      jump\t// in\n    tag_238:\n        /* \"56_DEX/SimpleSwap.sol\":1745:1748  min */\n      tag_239\n        /* \"56_DEX/SimpleSwap.sol\":1745:1832  min(amount0Desired * _totalSupply / resvers0, amount1Desired * _totalSupply / resvers1) */\n      jump\t// in\n    tag_234:\n        /* \"56_DEX/SimpleSwap.sol\":1733:1832  liquidity = min(amount0Desired * _totalSupply / resvers0, amount1Desired * _totalSupply / resvers1) */\n      swap2\n      pop\n        /* \"56_DEX/SimpleSwap.sol\":1616:1844  if (_totalSupply == 0) {... */\n    tag_233:\n        /* \"56_DEX/SimpleSwap.sol\":1874:1875  0 */\n      0x00\n        /* \"56_DEX/SimpleSwap.sol\":1862:1871  liquidity */\n      dup3\n        /* \"56_DEX/SimpleSwap.sol\":1862:1875  liquidity > 0 */\n      gt\n        /* \"56_DEX/SimpleSwap.sol\":1854:1876  require(liquidity > 0) */\n      tag_240\n      jumpi\n      0x00\n      dup1\n      revert\n    tag_240:\n        /* \"56_DEX/SimpleSwap.sol\":1898:1904  token0 */\n      0x05\n      0x00\n      swap1\n      sload\n      swap1\n      0x0100\n      exp\n      swap1\n      div\n      0xffffffffffffffffffffffffffffffffffffffff\n      and\n        /* \"56_DEX/SimpleSwap.sol\":1898:1914  token0.balanceOf */\n      0xffffffffffffffffffffffffffffffffffffffff\n      and\n      0x70a08231\n        /* \"56_DEX/SimpleSwap.sol\":1923:1927  this */\n      address\n        /* \"56_DEX/SimpleSwap.sol\":1898:1929  token0.balanceOf(address(this)) */\n      mload(0x40)\n      dup3\n      0xffffffff\n      and\n      0xe0\n      shl\n      dup2\n      mstore\n      0x04\n      add\n      tag_241\n      swap2\n      swap1\n      tag_133\n      jump\t// in\n    tag_241:\n      0x20\n      mload(0x40)\n      dup1\n      dup4\n      sub\n      dup2\n      dup7\n      gas\n      staticcall\n      iszero\n      dup1\n      iszero\n      tag_243\n      jumpi\n      returndatasize\n      0x00\n      dup1\n      returndatacopy\n      revert(0x00, returndatasize)\n    tag_243:\n      pop\n      pop\n      pop\n      pop\n      mload(0x40)\n      returndatasize\n      not(0x1f)\n      0x1f\n      dup3\n      add\n      and\n      dup3\n      add\n      dup1\n      0x40\n      mstore\n      pop\n      dup2\n      add\n      swap1\n      tag_244\n      swap2\n      swap1\n      tag_137\n      jump\t// in\n    tag_244:\n        /* \"56_DEX/SimpleSwap.sol\":1887:1895  resvers0 */\n      0x07\n        /* \"56_DEX/SimpleSwap.sol\":1887:1929  resvers0 = token0.balanceOf(address(this)) */\n      dup2\n      swap1\n      sstore\n      pop\n        /* \"56_DEX/SimpleSwap.sol\":1951:1957  token1 */\n      0x06\n      0x00\n      swap1\n      sload\n      swap1\n      0x0100\n      exp\n      swap1\n      div\n      0xffffffffffffffffffffffffffffffffffffffff\n      and\n        /* \"56_DEX/SimpleSwap.sol\":1951:1967  token1.balanceOf */\n      0xffffffffffffffffffffffffffffffffffffffff\n      and\n      0x70a08231\n        /* \"56_DEX/SimpleSwap.sol\":1976:1980  this */\n      address\n        /* \"56_DEX/SimpleSwap.sol\":1951:1982  token1.balanceOf(address(this)) */\n      mload(0x40)\n      dup3\n      0xffffffff\n      and\n      0xe0\n      shl\n      dup2\n      mstore\n      0x04\n      add\n      tag_245\n      swap2\n      swap1\n      tag_133\n      jump\t// in\n    tag_245:\n      0x20\n      mload(0x40)\n      dup1\n      dup4\n      sub\n      dup2\n      dup7\n      gas\n      staticcall\n      iszero\n      dup1\n      iszero\n      tag_247\n      jumpi\n      returndatasize\n      0x00\n      dup1\n      returndatacopy\n      revert(0x00, returndatasize)\n    tag_247:\n      pop\n      pop\n      pop\n      pop\n      mload(0x40)\n      returndatasize\n      not(0x1f)\n      0x1f\n      dup3\n      add\n      and\n      dup3\n      add\n      dup1\n      0x40\n      mstore\n      pop\n      dup2\n      add\n      swap1\n      tag_248\n      swap2\n      swap1\n      tag_137\n      jump\t// in\n    tag_248:\n        /* \"56_DEX/SimpleSwap.sol\":1940:1948  resvers1 */\n      0x08\n        /* \"56_DEX/SimpleSwap.sol\":1940:1982  resvers1 = token1.balanceOf(address(this)) */\n      dup2\n      swap1\n      sstore\n      pop\n        /* \"56_DEX/SimpleSwap.sol\":1993:2021  _mint(msg.sender, liquidity) */\n      tag_249\n        /* \"56_DEX/SimpleSwap.sol\":1999:2009  msg.sender */\n      caller\n        /* \"56_DEX/SimpleSwap.sol\":2011:2020  liquidity */\n      dup4\n        /* \"56_DEX/SimpleSwap.sol\":1993:1998  _mint */\n      tag_250\n        /* \"56_DEX/SimpleSwap.sol\":1993:2021  _mint(msg.sender, liquidity) */\n      jump\t// in\n    tag_249:\n        /* \"56_DEX/SimpleSwap.sol\":2042:2052  msg.sender */\n      caller\n        /* \"56_DEX/SimpleSwap.sol\":2037:2085  Mint(msg.sender, amount0Desired, amount1Desired) */\n      0xffffffffffffffffffffffffffffffffffffffff\n      and\n      0x4c209b5fc8ad50758f13e2e1088ba56a560dff690a1c6fef26394f4c03821c4f\n        /* \"56_DEX/SimpleSwap.sol\":2054:2068  amount0Desired */\n      dup6\n        /* \"56_DEX/SimpleSwap.sol\":2070:2084  amount1Desired */\n      dup6\n        /* \"56_DEX/SimpleSwap.sol\":2037:2085  Mint(msg.sender, amount0Desired, amount1Desired) */\n      mload(0x40)\n      tag_251\n      swap3\n      swap2\n      swap1\n      tag_77\n      jump\t// in\n    tag_251:\n      mload(0x40)\n      dup1\n      swap2\n      sub\n      swap1\n      log2\n        /* \"56_DEX/SimpleSwap.sol\":1346:2093  {... */\n      pop\n        /* \"56_DEX/SimpleSwap.sol\":1252:2093  function addLiquidity(uint amount0Desired,uint amount1Desired) public returns(uint liquidity) {... */\n      swap3\n      swap2\n      pop\n      pop\n      jump\t// out\n        /* \"@openzeppelin/contracts/token/ERC20/ERC20.sol\":3610:3788  function transfer(address to, uint256 value) public virtual returns (bool) {... */\n    tag_85:\n        /* \"@openzeppelin/contracts/token/ERC20/ERC20.sol\":3679:3683  bool */\n      0x00\n        /* \"@openzeppelin/contracts/token/ERC20/ERC20.sol\":3695:3708  address owner */\n      dup1\n        /* \"@openzeppelin/contracts/token/ERC20/ERC20.sol\":3711:3723  _msgSender() */\n      tag_253\n        /* \"@openzeppelin/contracts/token/ERC20/ERC20.sol\":3711:3721  _msgSender */\n      tag_117\n        /* \"@openzeppelin/contracts/token/ERC20/ERC20.sol\":3711:3723  _msgSender() */\n      jump\t// in\n    tag_253:\n        /* \"@openzeppelin/contracts/token/ERC20/ERC20.sol\":3695:3723  address owner = _msgSender() */\n      swap1\n      pop\n        /* \"@openzeppelin/contracts/token/ERC20/ERC20.sol\":3733:3760  _transfer(owner, to, value) */\n      tag_254\n        /* \"@openzeppelin/contracts/token/ERC20/ERC20.sol\":3743:3748  owner */\n      dup2\n        /* \"@openzeppelin/contracts/token/ERC20/ERC20.sol\":3750:3752  to */\n      dup6\n        /* \"@openzeppelin/contracts/token/ERC20/ERC20.sol\":3754:3759  value */\n      dup6\n        /* \"@openzeppelin/contracts/token/ERC20/ERC20.sol\":3733:3742  _transfer */\n      tag_126\n        /* \"@openzeppelin/contracts/token/ERC20/ERC20.sol\":3733:3760  _transfer(owner, to, value) */\n      jump\t// in\n    tag_254:\n        /* \"@openzeppelin/contracts/token/ERC20/ERC20.sol\":3777:3781  true */\n      0x01\n        /* \"@openzeppelin/contracts/token/ERC20/ERC20.sol\":3770:3781  return true */\n      swap2\n      pop\n      pop\n        /* \"@openzeppelin/contracts/token/ERC20/ERC20.sol\":3610:3788  function transfer(address to, uint256 value) public virtual returns (bool) {... */\n      swap3\n      swap2\n      pop\n      pop\n      jump\t// out\n        /* \"56_DEX/SimpleSwap.sol\":216:236  IERC20 public token1 */\n    tag_88:\n      0x06\n      0x00\n      swap1\n      sload\n      swap1\n      0x0100\n      exp\n      swap1\n      div\n      0xffffffffffffffffffffffffffffffffffffffff\n      and\n      dup2\n      jump\t// out\n        /* \"@openzeppelin/contracts/token/ERC20/ERC20.sol\":3846:3986  function allowance(address owner, address spender) public view virtual returns (uint256) {... */\n    tag_93:\n        /* \"@openzeppelin/contracts/token/ERC20/ERC20.sol\":3926:3933  uint256 */\n      0x00\n        /* \"@openzeppelin/contracts/token/ERC20/ERC20.sol\":3952:3963  _allowances */\n      0x01\n        /* \"@openzeppelin/contracts/token/ERC20/ERC20.sol\":3952:3970  _allowances[owner] */\n      0x00\n        /* \"@openzeppelin/contracts/token/ERC20/ERC20.sol\":3964:3969  owner */\n      dup5\n        /* \"@openzeppelin/contracts/token/ERC20/ERC20.sol\":3952:3970  _allowances[owner] */\n      0xffffffffffffffffffffffffffffffffffffffff\n      and\n      0xffffffffffffffffffffffffffffffffffffffff\n      and\n      dup2\n      mstore\n      0x20\n      add\n      swap1\n      dup2\n      mstore\n      0x20\n      add\n      0x00\n      keccak256\n        /* \"@openzeppelin/contracts/token/ERC20/ERC20.sol\":3952:3979  _allowances[owner][spender] */\n      0x00\n        /* \"@openzeppelin/contracts/token/ERC20/ERC20.sol\":3971:3978  spender */\n      dup4\n        /* \"@openzeppelin/contracts/token/ERC20/ERC20.sol\":3952:3979  _allowances[owner][spender] */\n      0xffffffffffffffffffffffffffffffffffffffff\n      and\n      0xffffffffffffffffffffffffffffffffffffffff\n      and\n      dup2\n      mstore\n      0x20\n      add\n      swap1\n      dup2\n      mstore\n      0x20\n      add\n      0x00\n      keccak256\n      sload\n        /* \"@openzeppelin/contracts/token/ERC20/ERC20.sol\":3945:3979  return _allowances[owner][spender] */\n      swap1\n      pop\n        /* \"@openzeppelin/contracts/token/ERC20/ERC20.sol\":3846:3986  function allowance(address owner, address spender) public view virtual returns (uint256) {... */\n      swap3\n      swap2\n      pop\n      pop\n      jump\t// out\n        /* \"56_DEX/SimpleSwap.sol\":296:316  uint public resvers1 */\n    tag_96:\n      sload(0x08)\n      dup2\n      jump\t// out\n        /* \"@openzeppelin/contracts/utils/Context.sol\":656:752  function _msgSender() internal view virtual returns (address) {... */\n    tag_117:\n        /* \"@openzeppelin/contracts/utils/Context.sol\":709:716  address */\n      0x00\n        /* \"@openzeppelin/contracts/utils/Context.sol\":735:745  msg.sender */\n      caller\n        /* \"@openzeppelin/contracts/utils/Context.sol\":728:745  return msg.sender */\n      swap1\n      pop\n        /* \"@openzeppelin/contracts/utils/Context.sol\":656:752  function _msgSender() internal view virtual returns (address) {... */\n      swap1\n      jump\t// out\n        /* \"@openzeppelin/contracts/token/ERC20/ERC20.sol\":8989:9117  function _approve(address owner, address spender, uint256 value) internal {... */\n    tag_119:\n        /* \"@openzeppelin/contracts/token/ERC20/ERC20.sol\":9073:9110  _approve(owner, spender, value, true) */\n      tag_258\n        /* \"@openzeppelin/contracts/token/ERC20/ERC20.sol\":9082:9087  owner */\n      dup4\n        /* \"@openzeppelin/contracts/token/ERC20/ERC20.sol\":9089:9096  spender */\n      dup4\n        /* \"@openzeppelin/contracts/token/ERC20/ERC20.sol\":9098:9103  value */\n      dup4\n        /* \"@openzeppelin/contracts/token/ERC20/ERC20.sol\":9105:9109  true */\n      0x01\n        /* \"@openzeppelin/contracts/token/ERC20/ERC20.sol\":9073:9081  _approve */\n      tag_259\n        /* \"@openzeppelin/contracts/token/ERC20/ERC20.sol\":9073:9110  _approve(owner, spender, value, true) */\n      jump\t// in\n    tag_258:\n        /* \"@openzeppelin/contracts/token/ERC20/ERC20.sol\":8989:9117  function _approve(address owner, address spender, uint256 value) internal {... */\n      pop\n      pop\n      pop\n      jump\t// out\n        /* \"@openzeppelin/contracts/token/ERC20/ERC20.sol\":10663:11140  function _spendAllowance(address owner, address spender, uint256 value) internal virtual {... */\n    tag_124:\n        /* \"@openzeppelin/contracts/token/ERC20/ERC20.sol\":10762:10786  uint256 currentAllowance */\n      0x00\n        /* \"@openzeppelin/contracts/token/ERC20/ERC20.sol\":10789:10814  allowance(owner, spender) */\n      tag_261\n        /* \"@openzeppelin/contracts/token/ERC20/ERC20.sol\":10799:10804  owner */\n      dup5\n        /* \"@openzeppelin/contracts/token/ERC20/ERC20.sol\":10806:10813  spender */\n      dup5\n        /* \"@openzeppelin/contracts/token/ERC20/ERC20.sol\":10789:10798  allowance */\n      tag_93\n        /* \"@openzeppelin/contracts/token/ERC20/ERC20.sol\":10789:10814  allowance(owner, spender) */\n      jump\t// in\n    tag_261:\n        /* \"@openzeppelin/contracts/token/ERC20/ERC20.sol\":10762:10814  uint256 currentAllowance = allowance(owner, spender) */\n      swap1\n      pop\n        /* \"@openzeppelin/contracts/token/ERC20/ERC20.sol\":10848:10865  type(uint256).max */\n      0xffffffffffffffffffffffffffffffffffffffffffffffffffffffffffffffff\n        /* \"@openzeppelin/contracts/token/ERC20/ERC20.sol\":10828:10844  currentAllowance */\n      dup2\n        /* \"@openzeppelin/contracts/token/ERC20/ERC20.sol\":10828:10865  currentAllowance != type(uint256).max */\n      eq\n        /* \"@openzeppelin/contracts/token/ERC20/ERC20.sol\":10824:11134  if (currentAllowance != type(uint256).max) {... */\n      tag_262\n      jumpi\n        /* \"@openzeppelin/contracts/token/ERC20/ERC20.sol\":10904:10909  value */\n      dup2\n        /* \"@openzeppelin/contracts/token/ERC20/ERC20.sol\":10885:10901  currentAllowance */\n      dup2\n        /* \"@openzeppelin/contracts/token/ERC20/ERC20.sol\":10885:10909  currentAllowance < value */\n      lt\n        /* \"@openzeppelin/contracts/token/ERC20/ERC20.sol\":10881:11011  if (currentAllowance < value) {... */\n      iszero\n      tag_263\n      jumpi\n        /* \"@openzeppelin/contracts/token/ERC20/ERC20.sol\":10963:10970  spender */\n      dup3\n        /* \"@openzeppelin/contracts/token/ERC20/ERC20.sol\":10972:10988  currentAllowance */\n      dup2\n        /* \"@openzeppelin/contracts/token/ERC20/ERC20.sol\":10990:10995  value */\n      dup4\n        /* \"@openzeppelin/contracts/token/ERC20/ERC20.sol\":10936:10996  ERC20InsufficientAllowance(spender, currentAllowance, value) */\n      mload(0x40)\n      0xfb8f41b200000000000000000000000000000000000000000000000000000000\n      dup2\n      mstore\n      0x04\n      add\n      tag_264\n      swap4\n      swap3\n      swap2\n      swap1\n      tag_265\n      jump\t// in\n    tag_264:\n      mload(0x40)\n      dup1\n      swap2\n      sub\n      swap1\n      revert\n        /* \"@openzeppelin/contracts/token/ERC20/ERC20.sol\":10881:11011  if (currentAllowance < value) {... */\n    tag_263:\n        /* \"@openzeppelin/contracts/token/ERC20/ERC20.sol\":11052:11109  _approve(owner, spender, currentAllowance - value, false) */\n      tag_266\n        /* \"@openzeppelin/contracts/token/ERC20/ERC20.sol\":11061:11066  owner */\n      dup5\n        /* \"@openzeppelin/contracts/token/ERC20/ERC20.sol\":11068:11075  spender */\n      dup5\n        /* \"@openzeppelin/contracts/token/ERC20/ERC20.sol\":11096:11101  value */\n      dup5\n        /* \"@openzeppelin/contracts/token/ERC20/ERC20.sol\":11077:11093  currentAllowance */\n      dup5\n        /* \"@openzeppelin/contracts/token/ERC20/ERC20.sol\":11077:11101  currentAllowance - value */\n      sub\n        /* \"@openzeppelin/contracts/token/ERC20/ERC20.sol\":11103:11108  false */\n      0x00\n        /* \"@openzeppelin/contracts/token/ERC20/ERC20.sol\":11052:11060  _approve */\n      tag_259\n        /* \"@openzeppelin/contracts/token/ERC20/ERC20.sol\":11052:11109  _approve(owner, spender, currentAllowance - value, false) */\n      jump\t// in\n    tag_266:\n        /* \"@openzeppelin/contracts/token/ERC20/ERC20.sol\":10824:11134  if (currentAllowance != type(uint256).max) {... */\n    tag_262:\n        /* \"@openzeppelin/contracts/token/ERC20/ERC20.sol\":10752:11140  {... */\n      pop\n        /* \"@openzeppelin/contracts/token/ERC20/ERC20.sol\":10663:11140  function _spendAllowance(address owner, address spender, uint256 value) internal virtual {... */\n      pop\n      pop\n      pop\n      jump\t// out\n        /* \"@openzeppelin/contracts/token/ERC20/ERC20.sol\":5656:5956  function _transfer(address from, address to, uint256 value) internal {... */\n    tag_126:\n        /* \"@openzeppelin/contracts/token/ERC20/ERC20.sol\":5755:5756  0 */\n      0x00\n        /* \"@openzeppelin/contracts/token/ERC20/ERC20.sol\":5739:5757  from == address(0) */\n      0xffffffffffffffffffffffffffffffffffffffff\n      and\n        /* \"@openzeppelin/contracts/token/ERC20/ERC20.sol\":5739:5743  from */\n      dup4\n        /* \"@openzeppelin/contracts/token/ERC20/ERC20.sol\":5739:5757  from == address(0) */\n      0xffffffffffffffffffffffffffffffffffffffff\n      and\n      sub\n        /* \"@openzeppelin/contracts/token/ERC20/ERC20.sol\":5735:5821  if (from == address(0)) {... */\n      tag_268\n      jumpi\n        /* \"@openzeppelin/contracts/token/ERC20/ERC20.sol\":5807:5808  0 */\n      0x00\n        /* \"@openzeppelin/contracts/token/ERC20/ERC20.sol\":5780:5810  ERC20InvalidSender(address(0)) */\n      mload(0x40)\n      0x96c6fd1e00000000000000000000000000000000000000000000000000000000\n      dup2\n      mstore\n      0x04\n      add\n      tag_269\n      swap2\n      swap1\n      tag_133\n      jump\t// in\n    tag_269:\n      mload(0x40)\n      dup1\n      swap2\n      sub\n      swap1\n      revert\n        /* \"@openzeppelin/contracts/token/ERC20/ERC20.sol\":5735:5821  if (from == address(0)) {... */\n    tag_268:\n        /* \"@openzeppelin/contracts/token/ERC20/ERC20.sol\":5848:5849  0 */\n      0x00\n        /* \"@openzeppelin/contracts/token/ERC20/ERC20.sol\":5834:5850  to == address(0) */\n      0xffffffffffffffffffffffffffffffffffffffff\n      and\n        /* \"@openzeppelin/contracts/token/ERC20/ERC20.sol\":5834:5836  to */\n      dup3\n        /* \"@openzeppelin/contracts/token/ERC20/ERC20.sol\":5834:5850  to == address(0) */\n      0xffffffffffffffffffffffffffffffffffffffff\n      and\n      sub\n        /* \"@openzeppelin/contracts/token/ERC20/ERC20.sol\":5830:5916  if (to == address(0)) {... */\n      tag_270\n      jumpi\n        /* \"@openzeppelin/contracts/token/ERC20/ERC20.sol\":5902:5903  0 */\n      0x00\n        /* \"@openzeppelin/contracts/token/ERC20/ERC20.sol\":5873:5905  ERC20InvalidReceiver(address(0)) */\n      mload(0x40)\n      0xec442f0500000000000000000000000000000000000000000000000000000000\n      dup2\n      mstore\n      0x04\n      add\n      tag_271\n      swap2\n      swap1\n      tag_133\n      jump\t// in\n    tag_271:\n      mload(0x40)\n      dup1\n      swap2\n      sub\n      swap1\n      revert\n        /* \"@openzeppelin/contracts/token/ERC20/ERC20.sol\":5830:5916  if (to == address(0)) {... */\n    tag_270:\n        /* \"@openzeppelin/contracts/token/ERC20/ERC20.sol\":5925:5949  _update(from, to, value) */\n      tag_272\n        /* \"@openzeppelin/contracts/token/ERC20/ERC20.sol\":5933:5937  from */\n      dup4\n        /* \"@openzeppelin/contracts/token/ERC20/ERC20.sol\":5939:5941  to */\n      dup4\n        /* \"@openzeppelin/contracts/token/ERC20/ERC20.sol\":5943:5948  value */\n      dup4\n        /* \"@openzeppelin/contracts/token/ERC20/ERC20.sol\":5925:5932  _update */\n      tag_273\n        /* \"@openzeppelin/contracts/token/ERC20/ERC20.sol\":5925:5949  _update(from, to, value) */\n      jump\t// in\n    tag_272:\n        /* \"@openzeppelin/contracts/token/ERC20/ERC20.sol\":5656:5956  function _transfer(address from, address to, uint256 value) internal {... */\n      pop\n      pop\n      pop\n      jump\t// out\n        /* \"@openzeppelin/contracts/token/ERC20/ERC20.sol\":8247:8453  function _burn(address account, uint256 value) internal {... */\n    tag_201:\n        /* \"@openzeppelin/contracts/token/ERC20/ERC20.sol\":8336:8337  0 */\n      0x00\n        /* \"@openzeppelin/contracts/token/ERC20/ERC20.sol\":8317:8338  account == address(0) */\n      0xffffffffffffffffffffffffffffffffffffffff\n      and\n        /* \"@openzeppelin/contracts/token/ERC20/ERC20.sol\":8317:8324  account */\n      dup3\n        /* \"@openzeppelin/contracts/token/ERC20/ERC20.sol\":8317:8338  account == address(0) */\n      0xffffffffffffffffffffffffffffffffffffffff\n      and\n      sub\n        /* \"@openzeppelin/contracts/token/ERC20/ERC20.sol\":8313:8402  if (account == address(0)) {... */\n      tag_275\n      jumpi\n        /* \"@openzeppelin/contracts/token/ERC20/ERC20.sol\":8388:8389  0 */\n      0x00\n        /* \"@openzeppelin/contracts/token/ERC20/ERC20.sol\":8361:8391  ERC20InvalidSender(address(0)) */\n      mload(0x40)\n      0x96c6fd1e00000000000000000000000000000000000000000000000000000000\n      dup2\n      mstore\n      0x04\n      add\n      tag_276\n      swap2\n      swap1\n      tag_133\n      jump\t// in\n    tag_276:\n      mload(0x40)\n      dup1\n      swap2\n      sub\n      swap1\n      revert\n        /* \"@openzeppelin/contracts/token/ERC20/ERC20.sol\":8313:8402  if (account == address(0)) {... */\n    tag_275:\n        /* \"@openzeppelin/contracts/token/ERC20/ERC20.sol\":8411:8446  _update(account, address(0), value) */\n      tag_277\n        /* \"@openzeppelin/contracts/token/ERC20/ERC20.sol\":8419:8426  account */\n      dup3\n        /* \"@openzeppelin/contracts/token/ERC20/ERC20.sol\":8436:8437  0 */\n      0x00\n        /* \"@openzeppelin/contracts/token/ERC20/ERC20.sol\":8440:8445  value */\n      dup4\n        /* \"@openzeppelin/contracts/token/ERC20/ERC20.sol\":8411:8418  _update */\n      tag_273\n        /* \"@openzeppelin/contracts/token/ERC20/ERC20.sol\":8411:8446  _update(account, address(0), value) */\n      jump\t// in\n    tag_277:\n        /* \"@openzeppelin/contracts/token/ERC20/ERC20.sol\":8247:8453  function _burn(address account, uint256 value) internal {... */\n      pop\n      pop\n      jump\t// out\n        /* \"56_DEX/SimpleSwap.sol\":914:1223  function sqrt(uint y)  internal pure returns (uint z) {... */\n    tag_232:\n        /* \"56_DEX/SimpleSwap.sol\":960:966  uint z */\n      0x00\n        /* \"56_DEX/SimpleSwap.sol\":987:988  3 */\n      0x03\n        /* \"56_DEX/SimpleSwap.sol\":983:984  y */\n      dup3\n        /* \"56_DEX/SimpleSwap.sol\":983:988  y > 3 */\n      gt\n        /* \"56_DEX/SimpleSwap.sol\":979:1216  if (y > 3) {... */\n      iszero\n      tag_279\n      jumpi\n        /* \"56_DEX/SimpleSwap.sol\":1009:1010  y */\n      dup2\n        /* \"56_DEX/SimpleSwap.sol\":1005:1010  z = y */\n      swap1\n      pop\n        /* \"56_DEX/SimpleSwap.sol\":1025:1031  uint x */\n      0x00\n        /* \"56_DEX/SimpleSwap.sol\":1044:1045  1 */\n      0x01\n        /* \"56_DEX/SimpleSwap.sol\":1039:1040  2 */\n      0x02\n        /* \"56_DEX/SimpleSwap.sol\":1035:1036  y */\n      dup5\n        /* \"56_DEX/SimpleSwap.sol\":1035:1040  y / 2 */\n      tag_280\n      swap2\n      swap1\n      tag_107\n      jump\t// in\n    tag_280:\n        /* \"56_DEX/SimpleSwap.sol\":1034:1045  (y / 2) + 1 */\n      tag_281\n      swap2\n      swap1\n      tag_103\n      jump\t// in\n    tag_281:\n        /* \"56_DEX/SimpleSwap.sol\":1025:1045  uint x = (y / 2) + 1 */\n      swap1\n      pop\n        /* \"56_DEX/SimpleSwap.sol\":1060:1154  while (x < z) {... */\n    tag_282:\n        /* \"56_DEX/SimpleSwap.sol\":1071:1072  z */\n      dup2\n        /* \"56_DEX/SimpleSwap.sol\":1067:1068  x */\n      dup2\n        /* \"56_DEX/SimpleSwap.sol\":1067:1072  x < z */\n      lt\n        /* \"56_DEX/SimpleSwap.sol\":1060:1154  while (x < z) {... */\n      iszero\n      tag_283\n      jumpi\n        /* \"56_DEX/SimpleSwap.sol\":1097:1098  x */\n      dup1\n        /* \"56_DEX/SimpleSwap.sol\":1093:1098  z = x */\n      swap2\n      pop\n        /* \"56_DEX/SimpleSwap.sol\":1137:1138  2 */\n      0x02\n        /* \"56_DEX/SimpleSwap.sol\":1132:1133  x */\n      dup2\n        /* \"56_DEX/SimpleSwap.sol\":1127:1128  x */\n      dup3\n        /* \"56_DEX/SimpleSwap.sol\":1123:1124  y */\n      dup6\n        /* \"56_DEX/SimpleSwap.sol\":1123:1128  y / x */\n      tag_284\n      swap2\n      swap1\n      tag_107\n      jump\t// in\n    tag_284:\n        /* \"56_DEX/SimpleSwap.sol\":1122:1133  (y / x) + x */\n      tag_285\n      swap2\n      swap1\n      tag_103\n      jump\t// in\n    tag_285:\n        /* \"56_DEX/SimpleSwap.sol\":1121:1138  ((y / x) + x) / 2 */\n      tag_286\n      swap2\n      swap1\n      tag_107\n      jump\t// in\n    tag_286:\n        /* \"56_DEX/SimpleSwap.sol\":1117:1138  x = ((y / x) + x) / 2 */\n      swap1\n      pop\n        /* \"56_DEX/SimpleSwap.sol\":1060:1154  while (x < z) {... */\n      jump(tag_282)\n    tag_283:\n        /* \"56_DEX/SimpleSwap.sol\":990:1166  {... */\n      pop\n        /* \"56_DEX/SimpleSwap.sol\":979:1216  if (y > 3) {... */\n      jump(tag_287)\n    tag_279:\n        /* \"56_DEX/SimpleSwap.sol\":1180:1181  0 */\n      0x00\n        /* \"56_DEX/SimpleSwap.sol\":1175:1176  y */\n      dup3\n        /* \"56_DEX/SimpleSwap.sol\":1175:1181  y != 0 */\n      eq\n        /* \"56_DEX/SimpleSwap.sol\":1171:1216  if (y != 0) {... */\n      tag_288\n      jumpi\n        /* \"56_DEX/SimpleSwap.sol\":1202:1203  1 */\n      0x01\n        /* \"56_DEX/SimpleSwap.sol\":1198:1203  z = 1 */\n      swap1\n      pop\n        /* \"56_DEX/SimpleSwap.sol\":1171:1216  if (y != 0) {... */\n    tag_288:\n        /* \"56_DEX/SimpleSwap.sol\":979:1216  if (y > 3) {... */\n    tag_287:\n        /* \"56_DEX/SimpleSwap.sol\":914:1223  function sqrt(uint y)  internal pure returns (uint z) {... */\n      swap2\n      swap1\n      pop\n      jump\t// out\n        /* \"56_DEX/SimpleSwap.sol\":812:907  function min(uint x,uint y) internal pure returns(uint z) {... */\n    tag_239:\n        /* \"56_DEX/SimpleSwap.sol\":862:868  uint z */\n      0x00\n        /* \"56_DEX/SimpleSwap.sol\":889:890  y */\n      dup2\n        /* \"56_DEX/SimpleSwap.sol\":885:886  x */\n      dup4\n        /* \"56_DEX/SimpleSwap.sol\":885:890  x > y */\n      gt\n        /* \"56_DEX/SimpleSwap.sol\":885:898  x > y ? y : x */\n      tag_290\n      jumpi\n        /* \"56_DEX/SimpleSwap.sol\":897:898  x */\n      dup3\n        /* \"56_DEX/SimpleSwap.sol\":885:898  x > y ? y : x */\n      jump(tag_291)\n    tag_290:\n        /* \"56_DEX/SimpleSwap.sol\":893:894  y */\n      dup2\n        /* \"56_DEX/SimpleSwap.sol\":885:898  x > y ? y : x */\n    tag_291:\n        /* \"56_DEX/SimpleSwap.sol\":881:898  z = x > y ? y : x */\n      swap1\n      pop\n        /* \"56_DEX/SimpleSwap.sol\":812:907  function min(uint x,uint y) internal pure returns(uint z) {... */\n      swap3\n      swap2\n      pop\n      pop\n      jump\t// out\n        /* \"@openzeppelin/contracts/token/ERC20/ERC20.sol\":7721:7929  function _mint(address account, uint256 value) internal {... */\n    tag_250:\n        /* \"@openzeppelin/contracts/token/ERC20/ERC20.sol\":7810:7811  0 */\n      0x00\n        /* \"@openzeppelin/contracts/token/ERC20/ERC20.sol\":7791:7812  account == address(0) */\n      0xffffffffffffffffffffffffffffffffffffffff\n      and\n        /* \"@openzeppelin/contracts/token/ERC20/ERC20.sol\":7791:7798  account */\n      dup3\n        /* \"@openzeppelin/contracts/token/ERC20/ERC20.sol\":7791:7812  account == address(0) */\n      0xffffffffffffffffffffffffffffffffffffffff\n      and\n      sub\n        /* \"@openzeppelin/contracts/token/ERC20/ERC20.sol\":7787:7878  if (account == address(0)) {... */\n      tag_293\n      jumpi\n        /* \"@openzeppelin/contracts/token/ERC20/ERC20.sol\":7864:7865  0 */\n      0x00\n        /* \"@openzeppelin/contracts/token/ERC20/ERC20.sol\":7835:7867  ERC20InvalidReceiver(address(0)) */\n      mload(0x40)\n      0xec442f0500000000000000000000000000000000000000000000000000000000\n      dup2\n      mstore\n      0x04\n      add\n      tag_294\n      swap2\n      swap1\n      tag_133\n      jump\t// in\n    tag_294:\n      mload(0x40)\n      dup1\n      swap2\n      sub\n      swap1\n      revert\n        /* \"@openzeppelin/contracts/token/ERC20/ERC20.sol\":7787:7878  if (account == address(0)) {... */\n    tag_293:\n        /* \"@openzeppelin/contracts/token/ERC20/ERC20.sol\":7887:7922  _update(address(0), account, value) */\n      tag_295\n        /* \"@openzeppelin/contracts/token/ERC20/ERC20.sol\":7903:7904  0 */\n      0x00\n        /* \"@openzeppelin/contracts/token/ERC20/ERC20.sol\":7907:7914  account */\n      dup4\n        /* \"@openzeppelin/contracts/token/ERC20/ERC20.sol\":7916:7921  value */\n      dup4\n        /* \"@openzeppelin/contracts/token/ERC20/ERC20.sol\":7887:7894  _update */\n      tag_273\n        /* \"@openzeppelin/contracts/token/ERC20/ERC20.sol\":7887:7922  _update(address(0), account, value) */\n      jump\t// in\n    tag_295:\n        /* \"@openzeppelin/contracts/token/ERC20/ERC20.sol\":7721:7929  function _mint(address account, uint256 value) internal {... */\n      pop\n      pop\n      jump\t// out\n        /* \"@openzeppelin/contracts/token/ERC20/ERC20.sol\":9949:10381  function _approve(address owner, address spender, uint256 value, bool emitEvent) internal virtual {... */\n    tag_259:\n        /* \"@openzeppelin/contracts/token/ERC20/ERC20.sol\":10078:10079  0 */\n      0x00\n        /* \"@openzeppelin/contracts/token/ERC20/ERC20.sol\":10061:10080  owner == address(0) */\n      0xffffffffffffffffffffffffffffffffffffffff\n      and\n        /* \"@openzeppelin/contracts/token/ERC20/ERC20.sol\":10061:10066  owner */\n      dup5\n        /* \"@openzeppelin/contracts/token/ERC20/ERC20.sol\":10061:10080  owner == address(0) */\n      0xffffffffffffffffffffffffffffffffffffffff\n      and\n      sub\n        /* \"@openzeppelin/contracts/token/ERC20/ERC20.sol\":10057:10146  if (owner == address(0)) {... */\n      tag_297\n      jumpi\n        /* \"@openzeppelin/contracts/token/ERC20/ERC20.sol\":10132:10133  0 */\n      0x00\n        /* \"@openzeppelin/contracts/token/ERC20/ERC20.sol\":10103:10135  ERC20InvalidApprover(address(0)) */\n      mload(0x40)\n      0xe602df0500000000000000000000000000000000000000000000000000000000\n      dup2\n      mstore\n      0x04\n      add\n      tag_298\n      swap2\n      swap1\n      tag_133\n      jump\t// in\n    tag_298:\n      mload(0x40)\n      dup1\n      swap2\n      sub\n      swap1\n      revert\n        /* \"@openzeppelin/contracts/token/ERC20/ERC20.sol\":10057:10146  if (owner == address(0)) {... */\n    tag_297:\n        /* \"@openzeppelin/contracts/token/ERC20/ERC20.sol\":10178:10179  0 */\n      0x00\n        /* \"@openzeppelin/contracts/token/ERC20/ERC20.sol\":10159:10180  spender == address(0) */\n      0xffffffffffffffffffffffffffffffffffffffff\n      and\n        /* \"@openzeppelin/contracts/token/ERC20/ERC20.sol\":10159:10166  spender */\n      dup4\n        /* \"@openzeppelin/contracts/token/ERC20/ERC20.sol\":10159:10180  spender == address(0) */\n      0xffffffffffffffffffffffffffffffffffffffff\n      and\n      sub\n        /* \"@openzeppelin/contracts/token/ERC20/ERC20.sol\":10155:10245  if (spender == address(0)) {... */\n      tag_299\n      jumpi\n        /* \"@openzeppelin/contracts/token/ERC20/ERC20.sol\":10231:10232  0 */\n      0x00\n        /* \"@openzeppelin/contracts/token/ERC20/ERC20.sol\":10203:10234  ERC20InvalidSpender(address(0)) */\n      mload(0x40)\n      0x94280d6200000000000000000000000000000000000000000000000000000000\n      dup2\n      mstore\n      0x04\n      add\n      tag_300\n      swap2\n      swap1\n      tag_133\n      jump\t// in\n    tag_300:\n      mload(0x40)\n      dup1\n      swap2\n      sub\n      swap1\n      revert\n        /* \"@openzeppelin/contracts/token/ERC20/ERC20.sol\":10155:10245  if (spender == address(0)) {... */\n    tag_299:\n        /* \"@openzeppelin/contracts/token/ERC20/ERC20.sol\":10284:10289  value */\n      dup2\n        /* \"@openzeppelin/contracts/token/ERC20/ERC20.sol\":10254:10265  _allowances */\n      0x01\n        /* \"@openzeppelin/contracts/token/ERC20/ERC20.sol\":10254:10272  _allowances[owner] */\n      0x00\n        /* \"@openzeppelin/contracts/token/ERC20/ERC20.sol\":10266:10271  owner */\n      dup7\n        /* \"@openzeppelin/contracts/token/ERC20/ERC20.sol\":10254:10272  _allowances[owner] */\n      0xffffffffffffffffffffffffffffffffffffffff\n      and\n      0xffffffffffffffffffffffffffffffffffffffff\n      and\n      dup2\n      mstore\n      0x20\n      add\n      swap1\n      dup2\n      mstore\n      0x20\n      add\n      0x00\n      keccak256\n        /* \"@openzeppelin/contracts/token/ERC20/ERC20.sol\":10254:10281  _allowances[owner][spender] */\n      0x00\n        /* \"@openzeppelin/contracts/token/ERC20/ERC20.sol\":10273:10280  spender */\n      dup6\n        /* \"@openzeppelin/contracts/token/ERC20/ERC20.sol\":10254:10281  _allowances[owner][spender] */\n      0xffffffffffffffffffffffffffffffffffffffff\n      and\n      0xffffffffffffffffffffffffffffffffffffffff\n      and\n      dup2\n      mstore\n      0x20\n      add\n      swap1\n      dup2\n      mstore\n      0x20\n      add\n      0x00\n      keccak256\n        /* \"@openzeppelin/contracts/token/ERC20/ERC20.sol\":10254:10289  _allowances[owner][spender] = value */\n      dup2\n      swap1\n      sstore\n      pop\n        /* \"@openzeppelin/contracts/token/ERC20/ERC20.sol\":10303:10312  emitEvent */\n      dup1\n        /* \"@openzeppelin/contracts/token/ERC20/ERC20.sol\":10299:10375  if (emitEvent) {... */\n      iszero\n      tag_301\n      jumpi\n        /* \"@openzeppelin/contracts/token/ERC20/ERC20.sol\":10349:10356  spender */\n      dup3\n        /* \"@openzeppelin/contracts/token/ERC20/ERC20.sol\":10333:10364  Approval(owner, spender, value) */\n      0xffffffffffffffffffffffffffffffffffffffff\n      and\n        /* \"@openzeppelin/contracts/token/ERC20/ERC20.sol\":10342:10347  owner */\n      dup5\n        /* \"@openzeppelin/contracts/token/ERC20/ERC20.sol\":10333:10364  Approval(owner, spender, value) */\n      0xffffffffffffffffffffffffffffffffffffffff\n      and\n      0x8c5be1e5ebec7d5bd14f71427d1e84f3dd0314c0f7b2291e5b200ac8c7c3b925\n        /* \"@openzeppelin/contracts/token/ERC20/ERC20.sol\":10358:10363  value */\n      dup5\n        /* \"@openzeppelin/contracts/token/ERC20/ERC20.sol\":10333:10364  Approval(owner, spender, value) */\n      mload(0x40)\n      tag_302\n      swap2\n      swap1\n      tag_28\n      jump\t// in\n    tag_302:\n      mload(0x40)\n      dup1\n      swap2\n      sub\n      swap1\n      log3\n        /* \"@openzeppelin/contracts/token/ERC20/ERC20.sol\":10299:10375  if (emitEvent) {... */\n    tag_301:\n        /* \"@openzeppelin/contracts/token/ERC20/ERC20.sol\":9949:10381  function _approve(address owner, address spender, uint256 value, bool emitEvent) internal virtual {... */\n      pop\n      pop\n      pop\n      pop\n      jump\t// out\n        /* \"@openzeppelin/contracts/token/ERC20/ERC20.sol\":6271:7378  function _update(address from, address to, uint256 value) internal virtual {... */\n    tag_273:\n        /* \"@openzeppelin/contracts/token/ERC20/ERC20.sol\":6376:6377  0 */\n      0x00\n        /* \"@openzeppelin/contracts/token/ERC20/ERC20.sol\":6360:6378  from == address(0) */\n      0xffffffffffffffffffffffffffffffffffffffff\n      and\n        /* \"@openzeppelin/contracts/token/ERC20/ERC20.sol\":6360:6364  from */\n      dup4\n        /* \"@openzeppelin/contracts/token/ERC20/ERC20.sol\":6360:6378  from == address(0) */\n      0xffffffffffffffffffffffffffffffffffffffff\n      and\n      sub\n        /* \"@openzeppelin/contracts/token/ERC20/ERC20.sol\":6356:6896  if (from == address(0)) {... */\n      tag_304\n      jumpi\n        /* \"@openzeppelin/contracts/token/ERC20/ERC20.sol\":6512:6517  value */\n      dup1\n        /* \"@openzeppelin/contracts/token/ERC20/ERC20.sol\":6496:6508  _totalSupply */\n      0x02\n      0x00\n        /* \"@openzeppelin/contracts/token/ERC20/ERC20.sol\":6496:6517  _totalSupply += value */\n      dup3\n      dup3\n      sload\n      tag_305\n      swap2\n      swap1\n      tag_103\n      jump\t// in\n    tag_305:\n      swap3\n      pop\n      pop\n      dup2\n      swap1\n      sstore\n      pop\n        /* \"@openzeppelin/contracts/token/ERC20/ERC20.sol\":6356:6896  if (from == address(0)) {... */\n      jump(tag_306)\n    tag_304:\n        /* \"@openzeppelin/contracts/token/ERC20/ERC20.sol\":6548:6567  uint256 fromBalance */\n      0x00\n        /* \"@openzeppelin/contracts/token/ERC20/ERC20.sol\":6570:6579  _balances */\n      dup1\n        /* \"@openzeppelin/contracts/token/ERC20/ERC20.sol\":6570:6585  _balances[from] */\n      0x00\n        /* \"@openzeppelin/contracts/token/ERC20/ERC20.sol\":6580:6584  from */\n      dup6\n        /* \"@openzeppelin/contracts/token/ERC20/ERC20.sol\":6570:6585  _balances[from] */\n      0xffffffffffffffffffffffffffffffffffffffff\n      and\n      0xffffffffffffffffffffffffffffffffffffffff\n      and\n      dup2\n      mstore\n      0x20\n      add\n      swap1\n      dup2\n      mstore\n      0x20\n      add\n      0x00\n      keccak256\n      sload\n        /* \"@openzeppelin/contracts/token/ERC20/ERC20.sol\":6548:6585  uint256 fromBalance = _balances[from] */\n      swap1\n      pop\n        /* \"@openzeppelin/contracts/token/ERC20/ERC20.sol\":6617:6622  value */\n      dup2\n        /* \"@openzeppelin/contracts/token/ERC20/ERC20.sol\":6603:6614  fromBalance */\n      dup2\n        /* \"@openzeppelin/contracts/token/ERC20/ERC20.sol\":6603:6622  fromBalance < value */\n      lt\n        /* \"@openzeppelin/contracts/token/ERC20/ERC20.sol\":6599:6714  if (fromBalance < value) {... */\n      iszero\n      tag_307\n      jumpi\n        /* \"@openzeppelin/contracts/token/ERC20/ERC20.sol\":6674:6678  from */\n      dup4\n        /* \"@openzeppelin/contracts/token/ERC20/ERC20.sol\":6680:6691  fromBalance */\n      dup2\n        /* \"@openzeppelin/contracts/token/ERC20/ERC20.sol\":6693:6698  value */\n      dup4\n        /* \"@openzeppelin/contracts/token/ERC20/ERC20.sol\":6649:6699  ERC20InsufficientBalance(from, fromBalance, value) */\n      mload(0x40)\n      0xe450d38c00000000000000000000000000000000000000000000000000000000\n      dup2\n      mstore\n      0x04\n      add\n      tag_308\n      swap4\n      swap3\n      swap2\n      swap1\n      tag_265\n      jump\t// in\n    tag_308:\n      mload(0x40)\n      dup1\n      swap2\n      sub\n      swap1\n      revert\n        /* \"@openzeppelin/contracts/token/ERC20/ERC20.sol\":6599:6714  if (fromBalance < value) {... */\n    tag_307:\n        /* \"@openzeppelin/contracts/token/ERC20/ERC20.sol\":6866:6871  value */\n      dup2\n        /* \"@openzeppelin/contracts/token/ERC20/ERC20.sol\":6852:6863  fromBalance */\n      dup2\n        /* \"@openzeppelin/contracts/token/ERC20/ERC20.sol\":6852:6871  fromBalance - value */\n      sub\n        /* \"@openzeppelin/contracts/token/ERC20/ERC20.sol\":6834:6843  _balances */\n      0x00\n        /* \"@openzeppelin/contracts/token/ERC20/ERC20.sol\":6834:6849  _balances[from] */\n      dup1\n        /* \"@openzeppelin/contracts/token/ERC20/ERC20.sol\":6844:6848  from */\n      dup7\n        /* \"@openzeppelin/contracts/token/ERC20/ERC20.sol\":6834:6849  _balances[from] */\n      0xffffffffffffffffffffffffffffffffffffffff\n      and\n      0xffffffffffffffffffffffffffffffffffffffff\n      and\n      dup2\n      mstore\n      0x20\n      add\n      swap1\n      dup2\n      mstore\n      0x20\n      add\n      0x00\n      keccak256\n        /* \"@openzeppelin/contracts/token/ERC20/ERC20.sol\":6834:6871  _balances[from] = fromBalance - value */\n      dup2\n      swap1\n      sstore\n      pop\n        /* \"@openzeppelin/contracts/token/ERC20/ERC20.sol\":6534:6896  {... */\n      pop\n        /* \"@openzeppelin/contracts/token/ERC20/ERC20.sol\":6356:6896  if (from == address(0)) {... */\n    tag_306:\n        /* \"@openzeppelin/contracts/token/ERC20/ERC20.sol\":6924:6925  0 */\n      0x00\n        /* \"@openzeppelin/contracts/token/ERC20/ERC20.sol\":6910:6926  to == address(0) */\n      0xffffffffffffffffffffffffffffffffffffffff\n      and\n        /* \"@openzeppelin/contracts/token/ERC20/ERC20.sol\":6910:6912  to */\n      dup3\n        /* \"@openzeppelin/contracts/token/ERC20/ERC20.sol\":6910:6926  to == address(0) */\n      0xffffffffffffffffffffffffffffffffffffffff\n      and\n      sub\n        /* \"@openzeppelin/contracts/token/ERC20/ERC20.sol\":6906:7331  if (to == address(0)) {... */\n      tag_309\n      jumpi\n        /* \"@openzeppelin/contracts/token/ERC20/ERC20.sol\":7089:7094  value */\n      dup1\n        /* \"@openzeppelin/contracts/token/ERC20/ERC20.sol\":7073:7085  _totalSupply */\n      0x02\n      0x00\n        /* \"@openzeppelin/contracts/token/ERC20/ERC20.sol\":7073:7094  _totalSupply -= value */\n      dup3\n      dup3\n      sload\n      sub\n      swap3\n      pop\n      pop\n      dup2\n      swap1\n      sstore\n      pop\n        /* \"@openzeppelin/contracts/token/ERC20/ERC20.sol\":6906:7331  if (to == address(0)) {... */\n      jump(tag_310)\n    tag_309:\n        /* \"@openzeppelin/contracts/token/ERC20/ERC20.sol\":7301:7306  value */\n      dup1\n        /* \"@openzeppelin/contracts/token/ERC20/ERC20.sol\":7284:7293  _balances */\n      0x00\n        /* \"@openzeppelin/contracts/token/ERC20/ERC20.sol\":7284:7297  _balances[to] */\n      dup1\n        /* \"@openzeppelin/contracts/token/ERC20/ERC20.sol\":7294:7296  to */\n      dup5\n        /* \"@openzeppelin/contracts/token/ERC20/ERC20.sol\":7284:7297  _balances[to] */\n      0xffffffffffffffffffffffffffffffffffffffff\n      and\n      0xffffffffffffffffffffffffffffffffffffffff\n      and\n      dup2\n      mstore\n      0x20\n      add\n      swap1\n      dup2\n      mstore\n      0x20\n      add\n      0x00\n      keccak256\n      0x00\n        /* \"@openzeppelin/contracts/token/ERC20/ERC20.sol\":7284:7306  _balances[to] += value */\n      dup3\n      dup3\n      sload\n      add\n      swap3\n      pop\n      pop\n      dup2\n      swap1\n      sstore\n      pop\n        /* \"@openzeppelin/contracts/token/ERC20/ERC20.sol\":6906:7331  if (to == address(0)) {... */\n    tag_310:\n        /* \"@openzeppelin/contracts/token/ERC20/ERC20.sol\":7361:7363  to */\n      dup2\n        /* \"@openzeppelin/contracts/token/ERC20/ERC20.sol\":7346:7371  Transfer(from, to, value) */\n      0xffffffffffffffffffffffffffffffffffffffff\n      and\n        /* \"@openzeppelin/contracts/token/ERC20/ERC20.sol\":7355:7359  from */\n      dup4\n        /* \"@openzeppelin/contracts/token/ERC20/ERC20.sol\":7346:7371  Transfer(from, to, value) */\n      0xffffffffffffffffffffffffffffffffffffffff\n      and\n      0xddf252ad1be2c89b69c2b068fc378daa952ba7f163c4a11628f55a4df523b3ef\n        /* \"@openzeppelin/contracts/token/ERC20/ERC20.sol\":7365:7370  value */\n      dup4\n        /* \"@openzeppelin/contracts/token/ERC20/ERC20.sol\":7346:7371  Transfer(from, to, value) */\n      mload(0x40)\n      tag_311\n      swap2\n      swap1\n      tag_28\n      jump\t// in\n    tag_311:\n      mload(0x40)\n      dup1\n      swap2\n      sub\n      swap1\n      log3\n        /* \"@openzeppelin/contracts/token/ERC20/ERC20.sol\":6271:7378  function _update(address from, address to, uint256 value) internal virtual {... */\n      pop\n      pop\n      pop\n      jump\t// out\n        /* \"#utility.yul\":88:205   */\n    tag_313:\n        /* \"#utility.yul\":197:198   */\n      0x00\n        /* \"#utility.yul\":194:195   */\n      dup1\n        /* \"#utility.yul\":187:199   */\n      revert\n        /* \"#utility.yul\":334:411   */\n    tag_315:\n        /* \"#utility.yul\":371:378   */\n      0x00\n        /* \"#utility.yul\":400:405   */\n      dup2\n        /* \"#utility.yul\":389:405   */\n      swap1\n      pop\n        /* \"#utility.yul\":334:411   */\n      swap2\n      swap1\n      pop\n      jump\t// out\n        /* \"#utility.yul\":417:539   */\n    tag_316:\n        /* \"#utility.yul\":490:514   */\n      tag_353\n        /* \"#utility.yul\":508:513   */\n      dup2\n        /* \"#utility.yul\":490:514   */\n      tag_315\n      jump\t// in\n    tag_353:\n        /* \"#utility.yul\":483:488   */\n      dup2\n        /* \"#utility.yul\":480:515   */\n      eq\n        /* \"#utility.yul\":470:533   */\n      tag_354\n      jumpi\n        /* \"#utility.yul\":529:530   */\n      0x00\n        /* \"#utility.yul\":526:527   */\n      dup1\n        /* \"#utility.yul\":519:531   */\n      revert\n        /* \"#utility.yul\":470:533   */\n    tag_354:\n        /* \"#utility.yul\":417:539   */\n      pop\n      jump\t// out\n        /* \"#utility.yul\":545:684   */\n    tag_317:\n        /* \"#utility.yul\":591:596   */\n      0x00\n        /* \"#utility.yul\":629:635   */\n      dup2\n        /* \"#utility.yul\":616:636   */\n      calldataload\n        /* \"#utility.yul\":607:636   */\n      swap1\n      pop\n        /* \"#utility.yul\":645:678   */\n      tag_356\n        /* \"#utility.yul\":672:677   */\n      dup2\n        /* \"#utility.yul\":645:678   */\n      tag_316\n      jump\t// in\n    tag_356:\n        /* \"#utility.yul\":545:684   */\n      swap3\n      swap2\n      pop\n      pop\n      jump\t// out\n        /* \"#utility.yul\":690:1309   */\n    tag_25:\n        /* \"#utility.yul\":767:773   */\n      0x00\n        /* \"#utility.yul\":775:781   */\n      dup1\n        /* \"#utility.yul\":783:789   */\n      0x00\n        /* \"#utility.yul\":832:834   */\n      0x60\n        /* \"#utility.yul\":820:829   */\n      dup5\n        /* \"#utility.yul\":811:818   */\n      dup7\n        /* \"#utility.yul\":807:830   */\n      sub\n        /* \"#utility.yul\":803:835   */\n      slt\n        /* \"#utility.yul\":800:919   */\n      iszero\n      tag_358\n      jumpi\n        /* \"#utility.yul\":838:917   */\n      tag_359\n      tag_313\n      jump\t// in\n    tag_359:\n        /* \"#utility.yul\":800:919   */\n    tag_358:\n        /* \"#utility.yul\":958:959   */\n      0x00\n        /* \"#utility.yul\":983:1036   */\n      tag_360\n        /* \"#utility.yul\":1028:1035   */\n      dup7\n        /* \"#utility.yul\":1019:1025   */\n      dup3\n        /* \"#utility.yul\":1008:1017   */\n      dup8\n        /* \"#utility.yul\":1004:1026   */\n      add\n        /* \"#utility.yul\":983:1036   */\n      tag_317\n      jump\t// in\n    tag_360:\n        /* \"#utility.yul\":973:1036   */\n      swap4\n      pop\n        /* \"#utility.yul\":929:1046   */\n      pop\n        /* \"#utility.yul\":1085:1087   */\n      0x20\n        /* \"#utility.yul\":1111:1164   */\n      tag_361\n        /* \"#utility.yul\":1156:1163   */\n      dup7\n        /* \"#utility.yul\":1147:1153   */\n      dup3\n        /* \"#utility.yul\":1136:1145   */\n      dup8\n        /* \"#utility.yul\":1132:1154   */\n      add\n        /* \"#utility.yul\":1111:1164   */\n      tag_317\n      jump\t// in\n    tag_361:\n        /* \"#utility.yul\":1101:1164   */\n      swap3\n      pop\n        /* \"#utility.yul\":1056:1174   */\n      pop\n        /* \"#utility.yul\":1213:1215   */\n      0x40\n        /* \"#utility.yul\":1239:1292   */\n      tag_362\n        /* \"#utility.yul\":1284:1291   */\n      dup7\n        /* \"#utility.yul\":1275:1281   */\n      dup3\n        /* \"#utility.yul\":1264:1273   */\n      dup8\n        /* \"#utility.yul\":1260:1282   */\n      add\n        /* \"#utility.yul\":1239:1292   */\n      tag_317\n      jump\t// in\n    tag_362:\n        /* \"#utility.yul\":1229:1292   */\n      swap2\n      pop\n        /* \"#utility.yul\":1184:1302   */\n      pop\n        /* \"#utility.yul\":690:1309   */\n      swap3\n      pop\n      swap3\n      pop\n      swap3\n      jump\t// out\n        /* \"#utility.yul\":1315:1433   */\n    tag_318:\n        /* \"#utility.yul\":1402:1426   */\n      tag_364\n        /* \"#utility.yul\":1420:1425   */\n      dup2\n        /* \"#utility.yul\":1402:1426   */\n      tag_315\n      jump\t// in\n    tag_364:\n        /* \"#utility.yul\":1397:1400   */\n      dup3\n        /* \"#utility.yul\":1390:1427   */\n      mstore\n        /* \"#utility.yul\":1315:1433   */\n      pop\n      pop\n      jump\t// out\n        /* \"#utility.yul\":1439:1661   */\n    tag_28:\n        /* \"#utility.yul\":1532:1536   */\n      0x00\n        /* \"#utility.yul\":1570:1572   */\n      0x20\n        /* \"#utility.yul\":1559:1568   */\n      dup3\n        /* \"#utility.yul\":1555:1573   */\n      add\n        /* \"#utility.yul\":1547:1573   */\n      swap1\n      pop\n        /* \"#utility.yul\":1583:1654   */\n      tag_366\n        /* \"#utility.yul\":1651:1652   */\n      0x00\n        /* \"#utility.yul\":1640:1649   */\n      dup4\n        /* \"#utility.yul\":1636:1653   */\n      add\n        /* \"#utility.yul\":1627:1633   */\n      dup5\n        /* \"#utility.yul\":1583:1654   */\n      tag_318\n      jump\t// in\n    tag_366:\n        /* \"#utility.yul\":1439:1661   */\n      swap3\n      swap2\n      pop\n      pop\n      jump\t// out\n        /* \"#utility.yul\":1667:1766   */\n    tag_319:\n        /* \"#utility.yul\":1719:1725   */\n      0x00\n        /* \"#utility.yul\":1753:1758   */\n      dup2\n        /* \"#utility.yul\":1747:1759   */\n      mload\n        /* \"#utility.yul\":1737:1759   */\n      swap1\n      pop\n        /* \"#utility.yul\":1667:1766   */\n      swap2\n      swap1\n      pop\n      jump\t// out\n        /* \"#utility.yul\":1772:1941   */\n    tag_320:\n        /* \"#utility.yul\":1856:1867   */\n      0x00\n        /* \"#utility.yul\":1890:1896   */\n      dup3\n        /* \"#utility.yul\":1885:1888   */\n      dup3\n        /* \"#utility.yul\":1878:1897   */\n      mstore\n        /* \"#utility.yul\":1930:1934   */\n      0x20\n        /* \"#utility.yul\":1925:1928   */\n      dup3\n        /* \"#utility.yul\":1921:1935   */\n      add\n        /* \"#utility.yul\":1906:1935   */\n      swap1\n      pop\n        /* \"#utility.yul\":1772:1941   */\n      swap3\n      swap2\n      pop\n      pop\n      jump\t// out\n        /* \"#utility.yul\":1947:2086   */\n    tag_321:\n        /* \"#utility.yul\":2036:2042   */\n      dup3\n        /* \"#utility.yul\":2031:2034   */\n      dup2\n        /* \"#utility.yul\":2026:2029   */\n      dup4\n        /* \"#utility.yul\":2020:2043   */\n      mcopy\n        /* \"#utility.yul\":2077:2078   */\n      0x00\n        /* \"#utility.yul\":2068:2074   */\n      dup4\n        /* \"#utility.yul\":2063:2066   */\n      dup4\n        /* \"#utility.yul\":2059:2075   */\n      add\n        /* \"#utility.yul\":2052:2079   */\n      mstore\n        /* \"#utility.yul\":1947:2086   */\n      pop\n      pop\n      pop\n      jump\t// out\n        /* \"#utility.yul\":2092:2194   */\n    tag_322:\n        /* \"#utility.yul\":2133:2139   */\n      0x00\n        /* \"#utility.yul\":2184:2186   */\n      0x1f\n        /* \"#utility.yul\":2180:2187   */\n      not\n        /* \"#utility.yul\":2175:2177   */\n      0x1f\n        /* \"#utility.yul\":2168:2173   */\n      dup4\n        /* \"#utility.yul\":2164:2178   */\n      add\n        /* \"#utility.yul\":2160:2188   */\n      and\n        /* \"#utility.yul\":2150:2188   */\n      swap1\n      pop\n        /* \"#utility.yul\":2092:2194   */\n      swap2\n      swap1\n      pop\n      jump\t// out\n        /* \"#utility.yul\":2200:2577   */\n    tag_323:\n        /* \"#utility.yul\":2288:2291   */\n      0x00\n        /* \"#utility.yul\":2316:2355   */\n      tag_372\n        /* \"#utility.yul\":2349:2354   */\n      dup3\n        /* \"#utility.yul\":2316:2355   */\n      tag_319\n      jump\t// in\n    tag_372:\n        /* \"#utility.yul\":2371:2442   */\n      tag_373\n        /* \"#utility.yul\":2435:2441   */\n      dup2\n        /* \"#utility.yul\":2430:2433   */\n      dup6\n        /* \"#utility.yul\":2371:2442   */\n      tag_320\n      jump\t// in\n    tag_373:\n        /* \"#utility.yul\":2364:2442   */\n      swap4\n      pop\n        /* \"#utility.yul\":2451:2516   */\n      tag_374\n        /* \"#utility.yul\":2509:2515   */\n      dup2\n        /* \"#utility.yul\":2504:2507   */\n      dup6\n        /* \"#utility.yul\":2497:2501   */\n      0x20\n        /* \"#utility.yul\":2490:2495   */\n      dup7\n        /* \"#utility.yul\":2486:2502   */\n      add\n        /* \"#utility.yul\":2451:2516   */\n      tag_321\n      jump\t// in\n    tag_374:\n        /* \"#utility.yul\":2541:2570   */\n      tag_375\n        /* \"#utility.yul\":2563:2569   */\n      dup2\n        /* \"#utility.yul\":2541:2570   */\n      tag_322\n      jump\t// in\n    tag_375:\n        /* \"#utility.yul\":2536:2539   */\n      dup5\n        /* \"#utility.yul\":2532:2571   */\n      add\n        /* \"#utility.yul\":2525:2571   */\n      swap2\n      pop\n        /* \"#utility.yul\":2292:2577   */\n      pop\n        /* \"#utility.yul\":2200:2577   */\n      swap3\n      swap2\n      pop\n      pop\n      jump\t// out\n        /* \"#utility.yul\":2583:2896   */\n    tag_32:\n        /* \"#utility.yul\":2696:2700   */\n      0x00\n        /* \"#utility.yul\":2734:2736   */\n      0x20\n        /* \"#utility.yul\":2723:2732   */\n      dup3\n        /* \"#utility.yul\":2719:2737   */\n      add\n        /* \"#utility.yul\":2711:2737   */\n      swap1\n      pop\n        /* \"#utility.yul\":2783:2792   */\n      dup2\n        /* \"#utility.yul\":2777:2781   */\n      dup2\n        /* \"#utility.yul\":2773:2793   */\n      sub\n        /* \"#utility.yul\":2769:2770   */\n      0x00\n        /* \"#utility.yul\":2758:2767   */\n      dup4\n        /* \"#utility.yul\":2754:2771   */\n      add\n        /* \"#utility.yul\":2747:2794   */\n      mstore\n        /* \"#utility.yul\":2811:2889   */\n      tag_377\n        /* \"#utility.yul\":2884:2888   */\n      dup2\n        /* \"#utility.yul\":2875:2881   */\n      dup5\n        /* \"#utility.yul\":2811:2889   */\n      tag_323\n      jump\t// in\n    tag_377:\n        /* \"#utility.yul\":2803:2889   */\n      swap1\n      pop\n        /* \"#utility.yul\":2583:2896   */\n      swap3\n      swap2\n      pop\n      pop\n      jump\t// out\n        /* \"#utility.yul\":2902:3028   */\n    tag_324:\n        /* \"#utility.yul\":2939:2946   */\n      0x00\n        /* \"#utility.yul\":2979:3021   */\n      0xffffffffffffffffffffffffffffffffffffffff\n        /* \"#utility.yul\":2972:2977   */\n      dup3\n        /* \"#utility.yul\":2968:3022   */\n      and\n        /* \"#utility.yul\":2957:3022   */\n      swap1\n      pop\n        /* \"#utility.yul\":2902:3028   */\n      swap2\n      swap1\n      pop\n      jump\t// out\n        /* \"#utility.yul\":3034:3130   */\n    tag_325:\n        /* \"#utility.yul\":3071:3078   */\n      0x00\n        /* \"#utility.yul\":3100:3124   */\n      tag_380\n        /* \"#utility.yul\":3118:3123   */\n      dup3\n        /* \"#utility.yul\":3100:3124   */\n      tag_324\n      jump\t// in\n    tag_380:\n        /* \"#utility.yul\":3089:3124   */\n      swap1\n      pop\n        /* \"#utility.yul\":3034:3130   */\n      swap2\n      swap1\n      pop\n      jump\t// out\n        /* \"#utility.yul\":3136:3258   */\n    tag_326:\n        /* \"#utility.yul\":3209:3233   */\n      tag_382\n        /* \"#utility.yul\":3227:3232   */\n      dup2\n        /* \"#utility.yul\":3209:3233   */\n      tag_325\n      jump\t// in\n    tag_382:\n        /* \"#utility.yul\":3202:3207   */\n      dup2\n        /* \"#utility.yul\":3199:3234   */\n      eq\n        /* \"#utility.yul\":3189:3252   */\n      tag_383\n      jumpi\n        /* \"#utility.yul\":3248:3249   */\n      0x00\n        /* \"#utility.yul\":3245:3246   */\n      dup1\n        /* \"#utility.yul\":3238:3250   */\n      revert\n        /* \"#utility.yul\":3189:3252   */\n    tag_383:\n        /* \"#utility.yul\":3136:3258   */\n      pop\n      jump\t// out\n        /* \"#utility.yul\":3264:3403   */\n    tag_327:\n        /* \"#utility.yul\":3310:3315   */\n      0x00\n        /* \"#utility.yul\":3348:3354   */\n      dup2\n        /* \"#utility.yul\":3335:3355   */\n      calldataload\n        /* \"#utility.yul\":3326:3355   */\n      swap1\n      pop\n        /* \"#utility.yul\":3364:3397   */\n      tag_385\n        /* \"#utility.yul\":3391:3396   */\n      dup2\n        /* \"#utility.yul\":3364:3397   */\n      tag_326\n      jump\t// in\n    tag_385:\n        /* \"#utility.yul\":3264:3403   */\n      swap3\n      swap2\n      pop\n      pop\n      jump\t// out\n        /* \"#utility.yul\":3409:3883   */\n    tag_35:\n        /* \"#utility.yul\":3477:3483   */\n      0x00\n        /* \"#utility.yul\":3485:3491   */\n      dup1\n        /* \"#utility.yul\":3534:3536   */\n      0x40\n        /* \"#utility.yul\":3522:3531   */\n      dup4\n        /* \"#utility.yul\":3513:3520   */\n      dup6\n        /* \"#utility.yul\":3509:3532   */\n      sub\n        /* \"#utility.yul\":3505:3537   */\n      slt\n        /* \"#utility.yul\":3502:3621   */\n      iszero\n      tag_387\n      jumpi\n        /* \"#utility.yul\":3540:3619   */\n      tag_388\n      tag_313\n      jump\t// in\n    tag_388:\n        /* \"#utility.yul\":3502:3621   */\n    tag_387:\n        /* \"#utility.yul\":3660:3661   */\n      0x00\n        /* \"#utility.yul\":3685:3738   */\n      tag_389\n        /* \"#utility.yul\":3730:3737   */\n      dup6\n        /* \"#utility.yul\":3721:3727   */\n      dup3\n        /* \"#utility.yul\":3710:3719   */\n      dup7\n        /* \"#utility.yul\":3706:3728   */\n      add\n        /* \"#utility.yul\":3685:3738   */\n      tag_327\n      jump\t// in\n    tag_389:\n        /* \"#utility.yul\":3675:3738   */\n      swap3\n      pop\n        /* \"#utility.yul\":3631:3748   */\n      pop\n        /* \"#utility.yul\":3787:3789   */\n      0x20\n        /* \"#utility.yul\":3813:3866   */\n      tag_390\n        /* \"#utility.yul\":3858:3865   */\n      dup6\n        /* \"#utility.yul\":3849:3855   */\n      dup3\n        /* \"#utility.yul\":3838:3847   */\n      dup7\n        /* \"#utility.yul\":3834:3856   */\n      add\n        /* \"#utility.yul\":3813:3866   */\n      tag_317\n      jump\t// in\n    tag_390:\n        /* \"#utility.yul\":3803:3866   */\n      swap2\n      pop\n        /* \"#utility.yul\":3758:3876   */\n      pop\n        /* \"#utility.yul\":3409:3883   */\n      swap3\n      pop\n      swap3\n      swap1\n      pop\n      jump\t// out\n        /* \"#utility.yul\":3889:3979   */\n    tag_328:\n        /* \"#utility.yul\":3923:3930   */\n      0x00\n        /* \"#utility.yul\":3966:3971   */\n      dup2\n        /* \"#utility.yul\":3959:3972   */\n      iszero\n        /* \"#utility.yul\":3952:3973   */\n      iszero\n        /* \"#utility.yul\":3941:3973   */\n      swap1\n      pop\n        /* \"#utility.yul\":3889:3979   */\n      swap2\n      swap1\n      pop\n      jump\t// out\n        /* \"#utility.yul\":3985:4094   */\n    tag_329:\n        /* \"#utility.yul\":4066:4087   */\n      tag_393\n        /* \"#utility.yul\":4081:4086   */\n      dup2\n        /* \"#utility.yul\":4066:4087   */\n      tag_328\n      jump\t// in\n    tag_393:\n        /* \"#utility.yul\":4061:4064   */\n      dup3\n        /* \"#utility.yul\":4054:4088   */\n      mstore\n        /* \"#utility.yul\":3985:4094   */\n      pop\n      pop\n      jump\t// out\n        /* \"#utility.yul\":4100:4310   */\n    tag_38:\n        /* \"#utility.yul\":4187:4191   */\n      0x00\n        /* \"#utility.yul\":4225:4227   */\n      0x20\n        /* \"#utility.yul\":4214:4223   */\n      dup3\n        /* \"#utility.yul\":4210:4228   */\n      add\n        /* \"#utility.yul\":4202:4228   */\n      swap1\n      pop\n        /* \"#utility.yul\":4238:4303   */\n      tag_395\n        /* \"#utility.yul\":4300:4301   */\n      0x00\n        /* \"#utility.yul\":4289:4298   */\n      dup4\n        /* \"#utility.yul\":4285:4302   */\n      add\n        /* \"#utility.yul\":4276:4282   */\n      dup5\n        /* \"#utility.yul\":4238:4303   */\n      tag_329\n      jump\t// in\n    tag_395:\n        /* \"#utility.yul\":4100:4310   */\n      swap3\n      swap2\n      pop\n      pop\n      jump\t// out\n        /* \"#utility.yul\":4316:4376   */\n    tag_330:\n        /* \"#utility.yul\":4344:4347   */\n      0x00\n        /* \"#utility.yul\":4365:4370   */\n      dup2\n        /* \"#utility.yul\":4358:4370   */\n      swap1\n      pop\n        /* \"#utility.yul\":4316:4376   */\n      swap2\n      swap1\n      pop\n      jump\t// out\n        /* \"#utility.yul\":4382:4524   */\n    tag_331:\n        /* \"#utility.yul\":4432:4441   */\n      0x00\n        /* \"#utility.yul\":4465:4518   */\n      tag_398\n        /* \"#utility.yul\":4483:4517   */\n      tag_399\n        /* \"#utility.yul\":4492:4516   */\n      tag_400\n        /* \"#utility.yul\":4510:4515   */\n      dup5\n        /* \"#utility.yul\":4492:4516   */\n      tag_324\n      jump\t// in\n    tag_400:\n        /* \"#utility.yul\":4483:4517   */\n      tag_330\n      jump\t// in\n    tag_399:\n        /* \"#utility.yul\":4465:4518   */\n      tag_324\n      jump\t// in\n    tag_398:\n        /* \"#utility.yul\":4452:4518   */\n      swap1\n      pop\n        /* \"#utility.yul\":4382:4524   */\n      swap2\n      swap1\n      pop\n      jump\t// out\n        /* \"#utility.yul\":4530:4656   */\n    tag_332:\n        /* \"#utility.yul\":4580:4589   */\n      0x00\n        /* \"#utility.yul\":4613:4650   */\n      tag_402\n        /* \"#utility.yul\":4644:4649   */\n      dup3\n        /* \"#utility.yul\":4613:4650   */\n      tag_331\n      jump\t// in\n    tag_402:\n        /* \"#utility.yul\":4600:4650   */\n      swap1\n      pop\n        /* \"#utility.yul\":4530:4656   */\n      swap2\n      swap1\n      pop\n      jump\t// out\n        /* \"#utility.yul\":4662:4803   */\n    tag_333:\n        /* \"#utility.yul\":4727:4736   */\n      0x00\n        /* \"#utility.yul\":4760:4797   */\n      tag_404\n        /* \"#utility.yul\":4791:4796   */\n      dup3\n        /* \"#utility.yul\":4760:4797   */\n      tag_332\n      jump\t// in\n    tag_404:\n        /* \"#utility.yul\":4747:4797   */\n      swap1\n      pop\n        /* \"#utility.yul\":4662:4803   */\n      swap2\n      swap1\n      pop\n      jump\t// out\n        /* \"#utility.yul\":4809:4970   */\n    tag_334:\n        /* \"#utility.yul\":4911:4963   */\n      tag_406\n        /* \"#utility.yul\":4957:4962   */\n      dup2\n        /* \"#utility.yul\":4911:4963   */\n      tag_333\n      jump\t// in\n    tag_406:\n        /* \"#utility.yul\":4906:4909   */\n      dup3\n        /* \"#utility.yul\":4899:4964   */\n      mstore\n        /* \"#utility.yul\":4809:4970   */\n      pop\n      pop\n      jump\t// out\n        /* \"#utility.yul\":4976:5228   */\n    tag_42:\n        /* \"#utility.yul\":5084:5088   */\n      0x00\n        /* \"#utility.yul\":5122:5124   */\n      0x20\n        /* \"#utility.yul\":5111:5120   */\n      dup3\n        /* \"#utility.yul\":5107:5125   */\n      add\n        /* \"#utility.yul\":5099:5125   */\n      swap1\n      pop\n        /* \"#utility.yul\":5135:5221   */\n      tag_408\n        /* \"#utility.yul\":5218:5219   */\n      0x00\n        /* \"#utility.yul\":5207:5216   */\n      dup4\n        /* \"#utility.yul\":5203:5220   */\n      add\n        /* \"#utility.yul\":5194:5200   */\n      dup5\n        /* \"#utility.yul\":5135:5221   */\n      tag_334\n      jump\t// in\n    tag_408:\n        /* \"#utility.yul\":4976:5228   */\n      swap3\n      swap2\n      pop\n      pop\n      jump\t// out\n        /* \"#utility.yul\":5234:5853   */\n    tag_48:\n        /* \"#utility.yul\":5311:5317   */\n      0x00\n        /* \"#utility.yul\":5319:5325   */\n      dup1\n        /* \"#utility.yul\":5327:5333   */\n      0x00\n        /* \"#utility.yul\":5376:5378   */\n      0x60\n        /* \"#utility.yul\":5364:5373   */\n      dup5\n        /* \"#utility.yul\":5355:5362   */\n      dup7\n        /* \"#utility.yul\":5351:5374   */\n      sub\n        /* \"#utility.yul\":5347:5379   */\n      slt\n        /* \"#utility.yul\":5344:5463   */\n      iszero\n      tag_410\n      jumpi\n        /* \"#utility.yul\":5382:5461   */\n      tag_411\n      tag_313\n      jump\t// in\n    tag_411:\n        /* \"#utility.yul\":5344:5463   */\n    tag_410:\n        /* \"#utility.yul\":5502:5503   */\n      0x00\n        /* \"#utility.yul\":5527:5580   */\n      tag_412\n        /* \"#utility.yul\":5572:5579   */\n      dup7\n        /* \"#utility.yul\":5563:5569   */\n      dup3\n        /* \"#utility.yul\":5552:5561   */\n      dup8\n        /* \"#utility.yul\":5548:5570   */\n      add\n        /* \"#utility.yul\":5527:5580   */\n      tag_327\n      jump\t// in\n    tag_412:\n        /* \"#utility.yul\":5517:5580   */\n      swap4\n      pop\n        /* \"#utility.yul\":5473:5590   */\n      pop\n        /* \"#utility.yul\":5629:5631   */\n      0x20\n        /* \"#utility.yul\":5655:5708   */\n      tag_413\n        /* \"#utility.yul\":5700:5707   */\n      dup7\n        /* \"#utility.yul\":5691:5697   */\n      dup3\n        /* \"#utility.yul\":5680:5689   */\n      dup8\n        /* \"#utility.yul\":5676:5698   */\n      add\n        /* \"#utility.yul\":5655:5708   */\n      tag_327\n      jump\t// in\n    tag_413:\n        /* \"#utility.yul\":5645:5708   */\n      swap3\n      pop\n        /* \"#utility.yul\":5600:5718   */\n      pop\n        /* \"#utility.yul\":5757:5759   */\n      0x40\n        /* \"#utility.yul\":5783:5836   */\n      tag_414\n        /* \"#utility.yul\":5828:5835   */\n      dup7\n        /* \"#utility.yul\":5819:5825   */\n      dup3\n        /* \"#utility.yul\":5808:5817   */\n      dup8\n        /* \"#utility.yul\":5804:5826   */\n      add\n        /* \"#utility.yul\":5783:5836   */\n      tag_317\n      jump\t// in\n    tag_414:\n        /* \"#utility.yul\":5773:5836   */\n      swap2\n      pop\n        /* \"#utility.yul\":5728:5846   */\n      pop\n        /* \"#utility.yul\":5234:5853   */\n      swap3\n      pop\n      swap3\n      pop\n      swap3\n      jump\t// out\n        /* \"#utility.yul\":5859:5945   */\n    tag_335:\n        /* \"#utility.yul\":5894:5901   */\n      0x00\n        /* \"#utility.yul\":5934:5938   */\n      0xff\n        /* \"#utility.yul\":5927:5932   */\n      dup3\n        /* \"#utility.yul\":5923:5939   */\n      and\n        /* \"#utility.yul\":5912:5939   */\n      swap1\n      pop\n        /* \"#utility.yul\":5859:5945   */\n      swap2\n      swap1\n      pop\n      jump\t// out\n        /* \"#utility.yul\":5951:6063   */\n    tag_336:\n        /* \"#utility.yul\":6034:6056   */\n      tag_417\n        /* \"#utility.yul\":6050:6055   */\n      dup2\n        /* \"#utility.yul\":6034:6056   */\n      tag_335\n      jump\t// in\n    tag_417:\n        /* \"#utility.yul\":6029:6032   */\n      dup3\n        /* \"#utility.yul\":6022:6057   */\n      mstore\n        /* \"#utility.yul\":5951:6063   */\n      pop\n      pop\n      jump\t// out\n        /* \"#utility.yul\":6069:6283   */\n    tag_54:\n        /* \"#utility.yul\":6158:6162   */\n      0x00\n        /* \"#utility.yul\":6196:6198   */\n      0x20\n        /* \"#utility.yul\":6185:6194   */\n      dup3\n        /* \"#utility.yul\":6181:6199   */\n      add\n        /* \"#utility.yul\":6173:6199   */\n      swap1\n      pop\n        /* \"#utility.yul\":6209:6276   */\n      tag_419\n        /* \"#utility.yul\":6273:6274   */\n      0x00\n        /* \"#utility.yul\":6262:6271   */\n      dup4\n        /* \"#utility.yul\":6258:6275   */\n      add\n        /* \"#utility.yul\":6249:6255   */\n      dup5\n        /* \"#utility.yul\":6209:6276   */\n      tag_336\n      jump\t// in\n    tag_419:\n        /* \"#utility.yul\":6069:6283   */\n      swap3\n      swap2\n      pop\n      pop\n      jump\t// out\n        /* \"#utility.yul\":6289:6400   */\n    tag_337:\n        /* \"#utility.yul\":6341:6348   */\n      0x00\n        /* \"#utility.yul\":6370:6394   */\n      tag_421\n        /* \"#utility.yul\":6388:6393   */\n      dup3\n        /* \"#utility.yul\":6370:6394   */\n      tag_325\n      jump\t// in\n    tag_421:\n        /* \"#utility.yul\":6359:6394   */\n      swap1\n      pop\n        /* \"#utility.yul\":6289:6400   */\n      swap2\n      swap1\n      pop\n      jump\t// out\n        /* \"#utility.yul\":6406:6558   */\n    tag_338:\n        /* \"#utility.yul\":6494:6533   */\n      tag_423\n        /* \"#utility.yul\":6527:6532   */\n      dup2\n        /* \"#utility.yul\":6494:6533   */\n      tag_337\n      jump\t// in\n    tag_423:\n        /* \"#utility.yul\":6487:6492   */\n      dup2\n        /* \"#utility.yul\":6484:6534   */\n      eq\n        /* \"#utility.yul\":6474:6552   */\n      tag_424\n      jumpi\n        /* \"#utility.yul\":6548:6549   */\n      0x00\n        /* \"#utility.yul\":6545:6546   */\n      dup1\n        /* \"#utility.yul\":6538:6550   */\n      revert\n        /* \"#utility.yul\":6474:6552   */\n    tag_424:\n        /* \"#utility.yul\":6406:6558   */\n      pop\n      jump\t// out\n        /* \"#utility.yul\":6564:6733   */\n    tag_339:\n        /* \"#utility.yul\":6625:6630   */\n      0x00\n        /* \"#utility.yul\":6663:6669   */\n      dup2\n        /* \"#utility.yul\":6650:6670   */\n      calldataload\n        /* \"#utility.yul\":6641:6670   */\n      swap1\n      pop\n        /* \"#utility.yul\":6679:6727   */\n      tag_426\n        /* \"#utility.yul\":6721:6726   */\n      dup2\n        /* \"#utility.yul\":6679:6727   */\n      tag_338\n      jump\t// in\n    tag_426:\n        /* \"#utility.yul\":6564:6733   */\n      swap3\n      swap2\n      pop\n      pop\n      jump\t// out\n        /* \"#utility.yul\":6739:7388   */\n    tag_57:\n        /* \"#utility.yul\":6831:6837   */\n      0x00\n        /* \"#utility.yul\":6839:6845   */\n      dup1\n        /* \"#utility.yul\":6847:6853   */\n      0x00\n        /* \"#utility.yul\":6896:6898   */\n      0x60\n        /* \"#utility.yul\":6884:6893   */\n      dup5\n        /* \"#utility.yul\":6875:6882   */\n      dup7\n        /* \"#utility.yul\":6871:6894   */\n      sub\n        /* \"#utility.yul\":6867:6899   */\n      slt\n        /* \"#utility.yul\":6864:6983   */\n      iszero\n      tag_428\n      jumpi\n        /* \"#utility.yul\":6902:6981   */\n      tag_429\n      tag_313\n      jump\t// in\n    tag_429:\n        /* \"#utility.yul\":6864:6983   */\n    tag_428:\n        /* \"#utility.yul\":7022:7023   */\n      0x00\n        /* \"#utility.yul\":7047:7100   */\n      tag_430\n        /* \"#utility.yul\":7092:7099   */\n      dup7\n        /* \"#utility.yul\":7083:7089   */\n      dup3\n        /* \"#utility.yul\":7072:7081   */\n      dup8\n        /* \"#utility.yul\":7068:7090   */\n      add\n        /* \"#utility.yul\":7047:7100   */\n      tag_317\n      jump\t// in\n    tag_430:\n        /* \"#utility.yul\":7037:7100   */\n      swap4\n      pop\n        /* \"#utility.yul\":6993:7110   */\n      pop\n        /* \"#utility.yul\":7149:7151   */\n      0x20\n        /* \"#utility.yul\":7175:7243   */\n      tag_431\n        /* \"#utility.yul\":7235:7242   */\n      dup7\n        /* \"#utility.yul\":7226:7232   */\n      dup3\n        /* \"#utility.yul\":7215:7224   */\n      dup8\n        /* \"#utility.yul\":7211:7233   */\n      add\n        /* \"#utility.yul\":7175:7243   */\n      tag_339\n      jump\t// in\n    tag_431:\n        /* \"#utility.yul\":7165:7243   */\n      swap3\n      pop\n        /* \"#utility.yul\":7120:7253   */\n      pop\n        /* \"#utility.yul\":7292:7294   */\n      0x40\n        /* \"#utility.yul\":7318:7371   */\n      tag_432\n        /* \"#utility.yul\":7363:7370   */\n      dup7\n        /* \"#utility.yul\":7354:7360   */\n      dup3\n        /* \"#utility.yul\":7343:7352   */\n      dup8\n        /* \"#utility.yul\":7339:7361   */\n      add\n        /* \"#utility.yul\":7318:7371   */\n      tag_317\n      jump\t// in\n    tag_432:\n        /* \"#utility.yul\":7308:7371   */\n      swap2\n      pop\n        /* \"#utility.yul\":7263:7381   */\n      pop\n        /* \"#utility.yul\":6739:7388   */\n      swap3\n      pop\n      swap3\n      pop\n      swap3\n      jump\t// out\n        /* \"#utility.yul\":7394:7756   */\n    tag_60:\n        /* \"#utility.yul\":7530:7534   */\n      0x00\n        /* \"#utility.yul\":7568:7570   */\n      0x40\n        /* \"#utility.yul\":7557:7566   */\n      dup3\n        /* \"#utility.yul\":7553:7571   */\n      add\n        /* \"#utility.yul\":7545:7571   */\n      swap1\n      pop\n        /* \"#utility.yul\":7581:7652   */\n      tag_434\n        /* \"#utility.yul\":7649:7650   */\n      0x00\n        /* \"#utility.yul\":7638:7647   */\n      dup4\n        /* \"#utility.yul\":7634:7651   */\n      add\n        /* \"#utility.yul\":7625:7631   */\n      dup6\n        /* \"#utility.yul\":7581:7652   */\n      tag_318\n      jump\t// in\n    tag_434:\n        /* \"#utility.yul\":7662:7749   */\n      tag_435\n        /* \"#utility.yul\":7745:7747   */\n      0x20\n        /* \"#utility.yul\":7734:7743   */\n      dup4\n        /* \"#utility.yul\":7730:7748   */\n      add\n        /* \"#utility.yul\":7721:7727   */\n      dup5\n        /* \"#utility.yul\":7662:7749   */\n      tag_334\n      jump\t// in\n    tag_435:\n        /* \"#utility.yul\":7394:7756   */\n      swap4\n      swap3\n      pop\n      pop\n      pop\n      jump\t// out\n        /* \"#utility.yul\":7762:8091   */\n    tag_66:\n        /* \"#utility.yul\":7821:7827   */\n      0x00\n        /* \"#utility.yul\":7870:7872   */\n      0x20\n        /* \"#utility.yul\":7858:7867   */\n      dup3\n        /* \"#utility.yul\":7849:7856   */\n      dup5\n        /* \"#utility.yul\":7845:7868   */\n      sub\n        /* \"#utility.yul\":7841:7873   */\n      slt\n        /* \"#utility.yul\":7838:7957   */\n      iszero\n      tag_437\n      jumpi\n        /* \"#utility.yul\":7876:7955   */\n      tag_438\n      tag_313\n      jump\t// in\n    tag_438:\n        /* \"#utility.yul\":7838:7957   */\n    tag_437:\n        /* \"#utility.yul\":7996:7997   */\n      0x00\n        /* \"#utility.yul\":8021:8074   */\n      tag_439\n        /* \"#utility.yul\":8066:8073   */\n      dup5\n        /* \"#utility.yul\":8057:8063   */\n      dup3\n        /* \"#utility.yul\":8046:8055   */\n      dup6\n        /* \"#utility.yul\":8042:8064   */\n      add\n        /* \"#utility.yul\":8021:8074   */\n      tag_327\n      jump\t// in\n    tag_439:\n        /* \"#utility.yul\":8011:8074   */\n      swap2\n      pop\n        /* \"#utility.yul\":7967:8084   */\n      pop\n        /* \"#utility.yul\":7762:8091   */\n      swap3\n      swap2\n      pop\n      pop\n      jump\t// out\n        /* \"#utility.yul\":8097:8426   */\n    tag_74:\n        /* \"#utility.yul\":8156:8162   */\n      0x00\n        /* \"#utility.yul\":8205:8207   */\n      0x20\n        /* \"#utility.yul\":8193:8202   */\n      dup3\n        /* \"#utility.yul\":8184:8191   */\n      dup5\n        /* \"#utility.yul\":8180:8203   */\n      sub\n        /* \"#utility.yul\":8176:8208   */\n      slt\n        /* \"#utility.yul\":8173:8292   */\n      iszero\n      tag_441\n      jumpi\n        /* \"#utility.yul\":8211:8290   */\n      tag_442\n      tag_313\n      jump\t// in\n    tag_442:\n        /* \"#utility.yul\":8173:8292   */\n    tag_441:\n        /* \"#utility.yul\":8331:8332   */\n      0x00\n        /* \"#utility.yul\":8356:8409   */\n      tag_443\n        /* \"#utility.yul\":8401:8408   */\n      dup5\n        /* \"#utility.yul\":8392:8398   */\n      dup3\n        /* \"#utility.yul\":8381:8390   */\n      dup6\n        /* \"#utility.yul\":8377:8399   */\n      add\n        /* \"#utility.yul\":8356:8409   */\n      tag_317\n      jump\t// in\n    tag_443:\n        /* \"#utility.yul\":8346:8409   */\n      swap2\n      pop\n        /* \"#utility.yul\":8302:8419   */\n      pop\n        /* \"#utility.yul\":8097:8426   */\n      swap3\n      swap2\n      pop\n      pop\n      jump\t// out\n        /* \"#utility.yul\":8432:8764   */\n    tag_77:\n        /* \"#utility.yul\":8553:8557   */\n      0x00\n        /* \"#utility.yul\":8591:8593   */\n      0x40\n        /* \"#utility.yul\":8580:8589   */\n      dup3\n        /* \"#utility.yul\":8576:8594   */\n      add\n        /* \"#utility.yul\":8568:8594   */\n      swap1\n      pop\n        /* \"#utility.yul\":8604:8675   */\n      tag_445\n        /* \"#utility.yul\":8672:8673   */\n      0x00\n        /* \"#utility.yul\":8661:8670   */\n      dup4\n        /* \"#utility.yul\":8657:8674   */\n      add\n        /* \"#utility.yul\":8648:8654   */\n      dup6\n        /* \"#utility.yul\":8604:8675   */\n      tag_318\n      jump\t// in\n    tag_445:\n        /* \"#utility.yul\":8685:8757   */\n      tag_446\n        /* \"#utility.yul\":8753:8755   */\n      0x20\n        /* \"#utility.yul\":8742:8751   */\n      dup4\n        /* \"#utility.yul\":8738:8756   */\n      add\n        /* \"#utility.yul\":8729:8735   */\n      dup5\n        /* \"#utility.yul\":8685:8757   */\n      tag_318\n      jump\t// in\n    tag_446:\n        /* \"#utility.yul\":8432:8764   */\n      swap4\n      swap3\n      pop\n      pop\n      pop\n      jump\t// out\n        /* \"#utility.yul\":8770:9244   */\n    tag_80:\n        /* \"#utility.yul\":8838:8844   */\n      0x00\n        /* \"#utility.yul\":8846:8852   */\n      dup1\n        /* \"#utility.yul\":8895:8897   */\n      0x40\n        /* \"#utility.yul\":8883:8892   */\n      dup4\n        /* \"#utility.yul\":8874:8881   */\n      dup6\n        /* \"#utility.yul\":8870:8893   */\n      sub\n        /* \"#utility.yul\":8866:8898   */\n      slt\n        /* \"#utility.yul\":8863:8982   */\n      iszero\n      tag_448\n      jumpi\n        /* \"#utility.yul\":8901:8980   */\n      tag_449\n      tag_313\n      jump\t// in\n    tag_449:\n        /* \"#utility.yul\":8863:8982   */\n    tag_448:\n        /* \"#utility.yul\":9021:9022   */\n      0x00\n        /* \"#utility.yul\":9046:9099   */\n      tag_450\n        /* \"#utility.yul\":9091:9098   */\n      dup6\n        /* \"#utility.yul\":9082:9088   */\n      dup3\n        /* \"#utility.yul\":9071:9080   */\n      dup7\n        /* \"#utility.yul\":9067:9089   */\n      add\n        /* \"#utility.yul\":9046:9099   */\n      tag_317\n      jump\t// in\n    tag_450:\n        /* \"#utility.yul\":9036:9099   */\n      swap3\n      pop\n        /* \"#utility.yul\":8992:9109   */\n      pop\n        /* \"#utility.yul\":9148:9150   */\n      0x20\n        /* \"#utility.yul\":9174:9227   */\n      tag_451\n        /* \"#utility.yul\":9219:9226   */\n      dup6\n        /* \"#utility.yul\":9210:9216   */\n      dup3\n        /* \"#utility.yul\":9199:9208   */\n      dup7\n        /* \"#utility.yul\":9195:9217   */\n      add\n        /* \"#utility.yul\":9174:9227   */\n      tag_317\n      jump\t// in\n    tag_451:\n        /* \"#utility.yul\":9164:9227   */\n      swap2\n      pop\n        /* \"#utility.yul\":9119:9237   */\n      pop\n        /* \"#utility.yul\":8770:9244   */\n      swap3\n      pop\n      swap3\n      swap1\n      pop\n      jump\t// out\n        /* \"#utility.yul\":9250:9724   */\n    tag_92:\n        /* \"#utility.yul\":9318:9324   */\n      0x00\n        /* \"#utility.yul\":9326:9332   */\n      dup1\n        /* \"#utility.yul\":9375:9377   */\n      0x40\n        /* \"#utility.yul\":9363:9372   */\n      dup4\n        /* \"#utility.yul\":9354:9361   */\n      dup6\n        /* \"#utility.yul\":9350:9373   */\n      sub\n        /* \"#utility.yul\":9346:9378   */\n      slt\n        /* \"#utility.yul\":9343:9462   */\n      iszero\n      tag_453\n      jumpi\n        /* \"#utility.yul\":9381:9460   */\n      tag_454\n      tag_313\n      jump\t// in\n    tag_454:\n        /* \"#utility.yul\":9343:9462   */\n    tag_453:\n        /* \"#utility.yul\":9501:9502   */\n      0x00\n        /* \"#utility.yul\":9526:9579   */\n      tag_455\n        /* \"#utility.yul\":9571:9578   */\n      dup6\n        /* \"#utility.yul\":9562:9568   */\n      dup3\n        /* \"#utility.yul\":9551:9560   */\n      dup7\n        /* \"#utility.yul\":9547:9569   */\n      add\n        /* \"#utility.yul\":9526:9579   */\n      tag_327\n      jump\t// in\n    tag_455:\n        /* \"#utility.yul\":9516:9579   */\n      swap3\n      pop\n        /* \"#utility.yul\":9472:9589   */\n      pop\n        /* \"#utility.yul\":9628:9630   */\n      0x20\n        /* \"#utility.yul\":9654:9707   */\n      tag_456\n        /* \"#utility.yul\":9699:9706   */\n      dup6\n        /* \"#utility.yul\":9690:9696   */\n      dup3\n        /* \"#utility.yul\":9679:9688   */\n      dup7\n        /* \"#utility.yul\":9675:9697   */\n      add\n        /* \"#utility.yul\":9654:9707   */\n      tag_327\n      jump\t// in\n    tag_456:\n        /* \"#utility.yul\":9644:9707   */\n      swap2\n      pop\n        /* \"#utility.yul\":9599:9717   */\n      pop\n        /* \"#utility.yul\":9250:9724   */\n      swap3\n      pop\n      swap3\n      swap1\n      pop\n      jump\t// out\n        /* \"#utility.yul\":9730:9910   */\n    tag_340:\n        /* \"#utility.yul\":9778:9855   */\n      0x4e487b7100000000000000000000000000000000000000000000000000000000\n        /* \"#utility.yul\":9775:9776   */\n      0x00\n        /* \"#utility.yul\":9768:9856   */\n      mstore\n        /* \"#utility.yul\":9875:9879   */\n      0x11\n        /* \"#utility.yul\":9872:9873   */\n      0x04\n        /* \"#utility.yul\":9865:9880   */\n      mstore\n        /* \"#utility.yul\":9899:9903   */\n      0x24\n        /* \"#utility.yul\":9896:9897   */\n      0x00\n        /* \"#utility.yul\":9889:9904   */\n      revert\n        /* \"#utility.yul\":9916:10107   */\n    tag_103:\n        /* \"#utility.yul\":9956:9959   */\n      0x00\n        /* \"#utility.yul\":9975:9995   */\n      tag_459\n        /* \"#utility.yul\":9993:9994   */\n      dup3\n        /* \"#utility.yul\":9975:9995   */\n      tag_315\n      jump\t// in\n    tag_459:\n        /* \"#utility.yul\":9970:9995   */\n      swap2\n      pop\n        /* \"#utility.yul\":10009:10029   */\n      tag_460\n        /* \"#utility.yul\":10027:10028   */\n      dup4\n        /* \"#utility.yul\":10009:10029   */\n      tag_315\n      jump\t// in\n    tag_460:\n        /* \"#utility.yul\":10004:10029   */\n      swap3\n      pop\n        /* \"#utility.yul\":10052:10053   */\n      dup3\n        /* \"#utility.yul\":10049:10050   */\n      dup3\n        /* \"#utility.yul\":10045:10054   */\n      add\n        /* \"#utility.yul\":10038:10054   */\n      swap1\n      pop\n        /* \"#utility.yul\":10073:10076   */\n      dup1\n        /* \"#utility.yul\":10070:10071   */\n      dup3\n        /* \"#utility.yul\":10067:10077   */\n      gt\n        /* \"#utility.yul\":10064:10100   */\n      iszero\n      tag_461\n      jumpi\n        /* \"#utility.yul\":10080:10098   */\n      tag_462\n      tag_340\n      jump\t// in\n    tag_462:\n        /* \"#utility.yul\":10064:10100   */\n    tag_461:\n        /* \"#utility.yul\":9916:10107   */\n      swap3\n      swap2\n      pop\n      pop\n      jump\t// out\n        /* \"#utility.yul\":10113:10523   */\n    tag_105:\n        /* \"#utility.yul\":10153:10160   */\n      0x00\n        /* \"#utility.yul\":10176:10196   */\n      tag_464\n        /* \"#utility.yul\":10194:10195   */\n      dup3\n        /* \"#utility.yul\":10176:10196   */\n      tag_315\n      jump\t// in\n    tag_464:\n        /* \"#utility.yul\":10171:10196   */\n      swap2\n      pop\n        /* \"#utility.yul\":10210:10230   */\n      tag_465\n        /* \"#utility.yul\":10228:10229   */\n      dup4\n        /* \"#utility.yul\":10210:10230   */\n      tag_315\n      jump\t// in\n    tag_465:\n        /* \"#utility.yul\":10205:10230   */\n      swap3\n      pop\n        /* \"#utility.yul\":10265:10266   */\n      dup3\n        /* \"#utility.yul\":10262:10263   */\n      dup3\n        /* \"#utility.yul\":10258:10267   */\n      mul\n        /* \"#utility.yul\":10287:10317   */\n      tag_466\n        /* \"#utility.yul\":10305:10316   */\n      dup2\n        /* \"#utility.yul\":10287:10317   */\n      tag_315\n      jump\t// in\n    tag_466:\n        /* \"#utility.yul\":10276:10317   */\n      swap2\n      pop\n        /* \"#utility.yul\":10466:10467   */\n      dup3\n        /* \"#utility.yul\":10457:10464   */\n      dup3\n        /* \"#utility.yul\":10453:10468   */\n      div\n        /* \"#utility.yul\":10450:10451   */\n      dup5\n        /* \"#utility.yul\":10447:10469   */\n      eq\n        /* \"#utility.yul\":10427:10428   */\n      dup4\n        /* \"#utility.yul\":10420:10429   */\n      iszero\n        /* \"#utility.yul\":10400:10483   */\n      or\n        /* \"#utility.yul\":10377:10516   */\n      tag_467\n      jumpi\n        /* \"#utility.yul\":10496:10514   */\n      tag_468\n      tag_340\n      jump\t// in\n    tag_468:\n        /* \"#utility.yul\":10377:10516   */\n    tag_467:\n        /* \"#utility.yul\":10161:10523   */\n      pop\n        /* \"#utility.yul\":10113:10523   */\n      swap3\n      swap2\n      pop\n      pop\n      jump\t// out\n        /* \"#utility.yul\":10529:10709   */\n    tag_341:\n        /* \"#utility.yul\":10577:10654   */\n      0x4e487b7100000000000000000000000000000000000000000000000000000000\n        /* \"#utility.yul\":10574:10575   */\n      0x00\n        /* \"#utility.yul\":10567:10655   */\n      mstore\n        /* \"#utility.yul\":10674:10678   */\n      0x12\n        /* \"#utility.yul\":10671:10672   */\n      0x04\n        /* \"#utility.yul\":10664:10679   */\n      mstore\n        /* \"#utility.yul\":10698:10702   */\n      0x24\n        /* \"#utility.yul\":10695:10696   */\n      0x00\n        /* \"#utility.yul\":10688:10703   */\n      revert\n        /* \"#utility.yul\":10715:10900   */\n    tag_107:\n        /* \"#utility.yul\":10755:10756   */\n      0x00\n        /* \"#utility.yul\":10772:10792   */\n      tag_471\n        /* \"#utility.yul\":10790:10791   */\n      dup3\n        /* \"#utility.yul\":10772:10792   */\n      tag_315\n      jump\t// in\n    tag_471:\n        /* \"#utility.yul\":10767:10792   */\n      swap2\n      pop\n        /* \"#utility.yul\":10806:10826   */\n      tag_472\n        /* \"#utility.yul\":10824:10825   */\n      dup4\n        /* \"#utility.yul\":10806:10826   */\n      tag_315\n      jump\t// in\n    tag_472:\n        /* \"#utility.yul\":10801:10826   */\n      swap3\n      pop\n        /* \"#utility.yul\":10845:10846   */\n      dup3\n        /* \"#utility.yul\":10835:10870   */\n      tag_473\n      jumpi\n        /* \"#utility.yul\":10850:10868   */\n      tag_474\n      tag_341\n      jump\t// in\n    tag_474:\n        /* \"#utility.yul\":10835:10870   */\n    tag_473:\n        /* \"#utility.yul\":10892:10893   */\n      dup3\n        /* \"#utility.yul\":10889:10890   */\n      dup3\n        /* \"#utility.yul\":10885:10894   */\n      div\n        /* \"#utility.yul\":10880:10894   */\n      swap1\n      pop\n        /* \"#utility.yul\":10715:10900   */\n      swap3\n      swap2\n      pop\n      pop\n      jump\t// out\n        /* \"#utility.yul\":10906:11086   */\n    tag_342:\n        /* \"#utility.yul\":10954:11031   */\n      0x4e487b7100000000000000000000000000000000000000000000000000000000\n        /* \"#utility.yul\":10951:10952   */\n      0x00\n        /* \"#utility.yul\":10944:11032   */\n      mstore\n        /* \"#utility.yul\":11051:11055   */\n      0x22\n        /* \"#utility.yul\":11048:11049   */\n      0x04\n        /* \"#utility.yul\":11041:11056   */\n      mstore\n        /* \"#utility.yul\":11075:11079   */\n      0x24\n        /* \"#utility.yul\":11072:11073   */\n      0x00\n        /* \"#utility.yul\":11065:11080   */\n      revert\n        /* \"#utility.yul\":11092:11412   */\n    tag_110:\n        /* \"#utility.yul\":11136:11142   */\n      0x00\n        /* \"#utility.yul\":11173:11174   */\n      0x02\n        /* \"#utility.yul\":11167:11171   */\n      dup3\n        /* \"#utility.yul\":11163:11175   */\n      div\n        /* \"#utility.yul\":11153:11175   */\n      swap1\n      pop\n        /* \"#utility.yul\":11220:11221   */\n      0x01\n        /* \"#utility.yul\":11214:11218   */\n      dup3\n        /* \"#utility.yul\":11210:11222   */\n      and\n        /* \"#utility.yul\":11241:11259   */\n      dup1\n        /* \"#utility.yul\":11231:11312   */\n      tag_477\n      jumpi\n        /* \"#utility.yul\":11297:11301   */\n      0x7f\n        /* \"#utility.yul\":11289:11295   */\n      dup3\n        /* \"#utility.yul\":11285:11302   */\n      and\n        /* \"#utility.yul\":11275:11302   */\n      swap2\n      pop\n        /* \"#utility.yul\":11231:11312   */\n    tag_477:\n        /* \"#utility.yul\":11359:11361   */\n      0x20\n        /* \"#utility.yul\":11351:11357   */\n      dup3\n        /* \"#utility.yul\":11348:11362   */\n      lt\n        /* \"#utility.yul\":11328:11346   */\n      dup2\n        /* \"#utility.yul\":11325:11363   */\n      sub\n        /* \"#utility.yul\":11322:11406   */\n      tag_478\n      jumpi\n        /* \"#utility.yul\":11378:11396   */\n      tag_479\n      tag_342\n      jump\t// in\n    tag_479:\n        /* \"#utility.yul\":11322:11406   */\n    tag_478:\n        /* \"#utility.yul\":11143:11412   */\n      pop\n        /* \"#utility.yul\":11092:11412   */\n      swap2\n      swap1\n      pop\n      jump\t// out\n        /* \"#utility.yul\":11418:11536   */\n    tag_343:\n        /* \"#utility.yul\":11505:11529   */\n      tag_481\n        /* \"#utility.yul\":11523:11528   */\n      dup2\n        /* \"#utility.yul\":11505:11529   */\n      tag_325\n      jump\t// in\n    tag_481:\n        /* \"#utility.yul\":11500:11503   */\n      dup3\n        /* \"#utility.yul\":11493:11530   */\n      mstore\n        /* \"#utility.yul\":11418:11536   */\n      pop\n      pop\n      jump\t// out\n        /* \"#utility.yul\":11542:11764   */\n    tag_133:\n        /* \"#utility.yul\":11635:11639   */\n      0x00\n        /* \"#utility.yul\":11673:11675   */\n      0x20\n        /* \"#utility.yul\":11662:11671   */\n      dup3\n        /* \"#utility.yul\":11658:11676   */\n      add\n        /* \"#utility.yul\":11650:11676   */\n      swap1\n      pop\n        /* \"#utility.yul\":11686:11757   */\n      tag_483\n        /* \"#utility.yul\":11754:11755   */\n      0x00\n        /* \"#utility.yul\":11743:11752   */\n      dup4\n        /* \"#utility.yul\":11739:11756   */\n      add\n        /* \"#utility.yul\":11730:11736   */\n      dup5\n        /* \"#utility.yul\":11686:11757   */\n      tag_343\n      jump\t// in\n    tag_483:\n        /* \"#utility.yul\":11542:11764   */\n      swap3\n      swap2\n      pop\n      pop\n      jump\t// out\n        /* \"#utility.yul\":11770:11913   */\n    tag_344:\n        /* \"#utility.yul\":11827:11832   */\n      0x00\n        /* \"#utility.yul\":11858:11864   */\n      dup2\n        /* \"#utility.yul\":11852:11865   */\n      mload\n        /* \"#utility.yul\":11843:11865   */\n      swap1\n      pop\n        /* \"#utility.yul\":11874:11907   */\n      tag_485\n        /* \"#utility.yul\":11901:11906   */\n      dup2\n        /* \"#utility.yul\":11874:11907   */\n      tag_316\n      jump\t// in\n    tag_485:\n        /* \"#utility.yul\":11770:11913   */\n      swap3\n      swap2\n      pop\n      pop\n      jump\t// out\n        /* \"#utility.yul\":11919:12270   */\n    tag_137:\n        /* \"#utility.yul\":11989:11995   */\n      0x00\n        /* \"#utility.yul\":12038:12040   */\n      0x20\n        /* \"#utility.yul\":12026:12035   */\n      dup3\n        /* \"#utility.yul\":12017:12024   */\n      dup5\n        /* \"#utility.yul\":12013:12036   */\n      sub\n        /* \"#utility.yul\":12009:12041   */\n      slt\n        /* \"#utility.yul\":12006:12125   */\n      iszero\n      tag_487\n      jumpi\n        /* \"#utility.yul\":12044:12123   */\n      tag_488\n      tag_313\n      jump\t// in\n    tag_488:\n        /* \"#utility.yul\":12006:12125   */\n    tag_487:\n        /* \"#utility.yul\":12164:12165   */\n      0x00\n        /* \"#utility.yul\":12189:12253   */\n      tag_489\n        /* \"#utility.yul\":12245:12252   */\n      dup5\n        /* \"#utility.yul\":12236:12242   */\n      dup3\n        /* \"#utility.yul\":12225:12234   */\n      dup6\n        /* \"#utility.yul\":12221:12243   */\n      add\n        /* \"#utility.yul\":12189:12253   */\n      tag_344\n      jump\t// in\n    tag_489:\n        /* \"#utility.yul\":12179:12253   */\n      swap2\n      pop\n        /* \"#utility.yul\":12135:12263   */\n      pop\n        /* \"#utility.yul\":11919:12270   */\n      swap3\n      swap2\n      pop\n      pop\n      jump\t// out\n        /* \"#utility.yul\":12276:12718   */\n    tag_146:\n        /* \"#utility.yul\":12425:12429   */\n      0x00\n        /* \"#utility.yul\":12463:12465   */\n      0x60\n        /* \"#utility.yul\":12452:12461   */\n      dup3\n        /* \"#utility.yul\":12448:12466   */\n      add\n        /* \"#utility.yul\":12440:12466   */\n      swap1\n      pop\n        /* \"#utility.yul\":12476:12547   */\n      tag_491\n        /* \"#utility.yul\":12544:12545   */\n      0x00\n        /* \"#utility.yul\":12533:12542   */\n      dup4\n        /* \"#utility.yul\":12529:12546   */\n      add\n        /* \"#utility.yul\":12520:12526   */\n      dup7\n        /* \"#utility.yul\":12476:12547   */\n      tag_343\n      jump\t// in\n    tag_491:\n        /* \"#utility.yul\":12557:12629   */\n      tag_492\n        /* \"#utility.yul\":12625:12627   */\n      0x20\n        /* \"#utility.yul\":12614:12623   */\n      dup4\n        /* \"#utility.yul\":12610:12628   */\n      add\n        /* \"#utility.yul\":12601:12607   */\n      dup6\n        /* \"#utility.yul\":12557:12629   */\n      tag_343\n      jump\t// in\n    tag_492:\n        /* \"#utility.yul\":12639:12711   */\n      tag_493\n        /* \"#utility.yul\":12707:12709   */\n      0x40\n        /* \"#utility.yul\":12696:12705   */\n      dup4\n        /* \"#utility.yul\":12692:12710   */\n      add\n        /* \"#utility.yul\":12683:12689   */\n      dup5\n        /* \"#utility.yul\":12639:12711   */\n      tag_318\n      jump\t// in\n    tag_493:\n        /* \"#utility.yul\":12276:12718   */\n      swap5\n      swap4\n      pop\n      pop\n      pop\n      pop\n      jump\t// out\n        /* \"#utility.yul\":12724:12840   */\n    tag_345:\n        /* \"#utility.yul\":12794:12815   */\n      tag_495\n        /* \"#utility.yul\":12809:12814   */\n      dup2\n        /* \"#utility.yul\":12794:12815   */\n      tag_328\n      jump\t// in\n    tag_495:\n        /* \"#utility.yul\":12787:12792   */\n      dup2\n        /* \"#utility.yul\":12784:12816   */\n      eq\n        /* \"#utility.yul\":12774:12834   */\n      tag_496\n      jumpi\n        /* \"#utility.yul\":12830:12831   */\n      0x00\n        /* \"#utility.yul\":12827:12828   */\n      dup1\n        /* \"#utility.yul\":12820:12832   */\n      revert\n        /* \"#utility.yul\":12774:12834   */\n    tag_496:\n        /* \"#utility.yul\":12724:12840   */\n      pop\n      jump\t// out\n        /* \"#utility.yul\":12846:12983   */\n    tag_346:\n        /* \"#utility.yul\":12900:12905   */\n      0x00\n        /* \"#utility.yul\":12931:12937   */\n      dup2\n        /* \"#utility.yul\":12925:12938   */\n      mload\n        /* \"#utility.yul\":12916:12938   */\n      swap1\n      pop\n        /* \"#utility.yul\":12947:12977   */\n      tag_498\n        /* \"#utility.yul\":12971:12976   */\n      dup2\n        /* \"#utility.yul\":12947:12977   */\n      tag_345\n      jump\t// in\n    tag_498:\n        /* \"#utility.yul\":12846:12983   */\n      swap3\n      swap2\n      pop\n      pop\n      jump\t// out\n        /* \"#utility.yul\":12989:13334   */\n    tag_150:\n        /* \"#utility.yul\":13056:13062   */\n      0x00\n        /* \"#utility.yul\":13105:13107   */\n      0x20\n        /* \"#utility.yul\":13093:13102   */\n      dup3\n        /* \"#utility.yul\":13084:13091   */\n      dup5\n        /* \"#utility.yul\":13080:13103   */\n      sub\n        /* \"#utility.yul\":13076:13108   */\n      slt\n        /* \"#utility.yul\":13073:13192   */\n      iszero\n      tag_500\n      jumpi\n        /* \"#utility.yul\":13111:13190   */\n      tag_501\n      tag_313\n      jump\t// in\n    tag_501:\n        /* \"#utility.yul\":13073:13192   */\n    tag_500:\n        /* \"#utility.yul\":13231:13232   */\n      0x00\n        /* \"#utility.yul\":13256:13317   */\n      tag_502\n        /* \"#utility.yul\":13309:13316   */\n      dup5\n        /* \"#utility.yul\":13300:13306   */\n      dup3\n        /* \"#utility.yul\":13289:13298   */\n      dup6\n        /* \"#utility.yul\":13285:13307   */\n      add\n        /* \"#utility.yul\":13256:13317   */\n      tag_346\n      jump\t// in\n    tag_502:\n        /* \"#utility.yul\":13246:13317   */\n      swap2\n      pop\n        /* \"#utility.yul\":13202:13327   */\n      pop\n        /* \"#utility.yul\":12989:13334   */\n      swap3\n      swap2\n      pop\n      pop\n      jump\t// out\n        /* \"#utility.yul\":13340:13672   */\n    tag_152:\n        /* \"#utility.yul\":13461:13465   */\n      0x00\n        /* \"#utility.yul\":13499:13501   */\n      0x40\n        /* \"#utility.yul\":13488:13497   */\n      dup3\n        /* \"#utility.yul\":13484:13502   */\n      add\n        /* \"#utility.yul\":13476:13502   */\n      swap1\n      pop\n        /* \"#utility.yul\":13512:13583   */\n      tag_504\n        /* \"#utility.yul\":13580:13581   */\n      0x00\n        /* \"#utility.yul\":13569:13578   */\n      dup4\n        /* \"#utility.yul\":13565:13582   */\n      add\n        /* \"#utility.yul\":13556:13562   */\n      dup6\n        /* \"#utility.yul\":13512:13583   */\n      tag_343\n      jump\t// in\n    tag_504:\n        /* \"#utility.yul\":13593:13665   */\n      tag_505\n        /* \"#utility.yul\":13661:13663   */\n      0x20\n        /* \"#utility.yul\":13650:13659   */\n      dup4\n        /* \"#utility.yul\":13646:13664   */\n      add\n        /* \"#utility.yul\":13637:13643   */\n      dup5\n        /* \"#utility.yul\":13593:13665   */\n      tag_318\n      jump\t// in\n    tag_505:\n        /* \"#utility.yul\":13340:13672   */\n      swap4\n      swap3\n      pop\n      pop\n      pop\n      jump\t// out\n        /* \"#utility.yul\":13678:14231   */\n    tag_176:\n        /* \"#utility.yul\":13855:13859   */\n      0x00\n        /* \"#utility.yul\":13893:13896   */\n      0x80\n        /* \"#utility.yul\":13882:13891   */\n      dup3\n        /* \"#utility.yul\":13878:13897   */\n      add\n        /* \"#utility.yul\":13870:13897   */\n      swap1\n      pop\n        /* \"#utility.yul\":13907:13978   */\n      tag_507\n        /* \"#utility.yul\":13975:13976   */\n      0x00\n        /* \"#utility.yul\":13964:13973   */\n      dup4\n        /* \"#utility.yul\":13960:13977   */\n      add\n        /* \"#utility.yul\":13951:13957   */\n      dup8\n        /* \"#utility.yul\":13907:13978   */\n      tag_318\n      jump\t// in\n    tag_507:\n        /* \"#utility.yul\":13988:14060   */\n      tag_508\n        /* \"#utility.yul\":14056:14058   */\n      0x20\n        /* \"#utility.yul\":14045:14054   */\n      dup4\n        /* \"#utility.yul\":14041:14059   */\n      add\n        /* \"#utility.yul\":14032:14038   */\n      dup7\n        /* \"#utility.yul\":13988:14060   */\n      tag_343\n      jump\t// in\n    tag_508:\n        /* \"#utility.yul\":14070:14142   */\n      tag_509\n        /* \"#utility.yul\":14138:14140   */\n      0x40\n        /* \"#utility.yul\":14127:14136   */\n      dup4\n        /* \"#utility.yul\":14123:14141   */\n      add\n        /* \"#utility.yul\":14114:14120   */\n      dup6\n        /* \"#utility.yul\":14070:14142   */\n      tag_318\n      jump\t// in\n    tag_509:\n        /* \"#utility.yul\":14152:14224   */\n      tag_510\n        /* \"#utility.yul\":14220:14222   */\n      0x60\n        /* \"#utility.yul\":14209:14218   */\n      dup4\n        /* \"#utility.yul\":14205:14223   */\n      add\n        /* \"#utility.yul\":14196:14202   */\n      dup5\n        /* \"#utility.yul\":14152:14224   */\n      tag_343\n      jump\t// in\n    tag_510:\n        /* \"#utility.yul\":13678:14231   */\n      swap6\n      swap5\n      pop\n      pop\n      pop\n      pop\n      pop\n      jump\t// out\n        /* \"#utility.yul\":14237:14679   */\n    tag_265:\n        /* \"#utility.yul\":14386:14390   */\n      0x00\n        /* \"#utility.yul\":14424:14426   */\n      0x60\n        /* \"#utility.yul\":14413:14422   */\n      dup3\n        /* \"#utility.yul\":14409:14427   */\n      add\n        /* \"#utility.yul\":14401:14427   */\n      swap1\n      pop\n        /* \"#utility.yul\":14437:14508   */\n      tag_512\n        /* \"#utility.yul\":14505:14506   */\n      0x00\n        /* \"#utility.yul\":14494:14503   */\n      dup4\n        /* \"#utility.yul\":14490:14507   */\n      add\n        /* \"#utility.yul\":14481:14487   */\n      dup7\n        /* \"#utility.yul\":14437:14508   */\n      tag_343\n      jump\t// in\n    tag_512:\n        /* \"#utility.yul\":14518:14590   */\n      tag_513\n        /* \"#utility.yul\":14586:14588   */\n      0x20\n        /* \"#utility.yul\":14575:14584   */\n      dup4\n        /* \"#utility.yul\":14571:14589   */\n      add\n        /* \"#utility.yul\":14562:14568   */\n      dup6\n        /* \"#utility.yul\":14518:14590   */\n      tag_318\n      jump\t// in\n    tag_513:\n        /* \"#utility.yul\":14600:14672   */\n      tag_514\n        /* \"#utility.yul\":14668:14670   */\n      0x40\n        /* \"#utility.yul\":14657:14666   */\n      dup4\n        /* \"#utility.yul\":14653:14671   */\n      add\n        /* \"#utility.yul\":14644:14650   */\n      dup5\n        /* \"#utility.yul\":14600:14672   */\n      tag_318\n      jump\t// in\n    tag_514:\n        /* \"#utility.yul\":14237:14679   */\n      swap5\n      swap4\n      pop\n      pop\n      pop\n      pop\n      jump\t// out\n\n    auxdata: 0xa2646970667358221220355687e0160e5326a04cbb9176f530046cddce93542fce638fd45216848759d264736f6c634300081a0033\n}\n",
				"bytecode": {
					"linkReferences": {},
					"object": "608060405234801561000f575f80fd5b506040516128b33803806128b3833981810160405281019061003191906101b5565b6040518060400160405280600a81526020017f53696d706c6553776170000000000000000000000000000000000000000000008152506040518060400160405280600281526020017f535300000000000000000000000000000000000000000000000000000000000081525081600390816100ac919061042d565b5080600490816100bc919061042d565b5050508160055f6101000a81548173ffffffffffffffffffffffffffffffffffffffff021916908373ffffffffffffffffffffffffffffffffffffffff1602179055508060065f6101000a81548173ffffffffffffffffffffffffffffffffffffffff021916908373ffffffffffffffffffffffffffffffffffffffff16021790555050506104fc565b5f80fd5b5f73ffffffffffffffffffffffffffffffffffffffff82169050919050565b5f6101738261014a565b9050919050565b5f61018482610169565b9050919050565b6101948161017a565b811461019e575f80fd5b50565b5f815190506101af8161018b565b92915050565b5f80604083850312156101cb576101ca610146565b5b5f6101d8858286016101a1565b92505060206101e9858286016101a1565b9150509250929050565b5f81519050919050565b7f4e487b71000000000000000000000000000000000000000000000000000000005f52604160045260245ffd5b7f4e487b71000000000000000000000000000000000000000000000000000000005f52602260045260245ffd5b5f600282049050600182168061026e57607f821691505b6020821081036102815761028061022a565b5b50919050565b5f819050815f5260205f209050919050565b5f6020601f8301049050919050565b5f82821b905092915050565b5f600883026102e37fffffffffffffffffffffffffffffffffffffffffffffffffffffffffffffffff826102a8565b6102ed86836102a8565b95508019841693508086168417925050509392505050565b5f819050919050565b5f819050919050565b5f61033161032c61032784610305565b61030e565b610305565b9050919050565b5f819050919050565b61034a83610317565b61035e61035682610338565b8484546102b4565b825550505050565b5f90565b610372610366565b61037d818484610341565b505050565b5b818110156103a0576103955f8261036a565b600181019050610383565b5050565b601f8211156103e5576103b681610287565b6103bf84610299565b810160208510156103ce578190505b6103e26103da85610299565b830182610382565b50505b505050565b5f82821c905092915050565b5f6104055f19846008026103ea565b1980831691505092915050565b5f61041d83836103f6565b9150826002028217905092915050565b610436826101f3565b67ffffffffffffffff81111561044f5761044e6101fd565b5b6104598254610257565b6104648282856103a4565b5f60209050601f831160018114610495575f8415610483578287015190505b61048d8582610412565b8655506104f4565b601f1984166104a386610287565b5f5b828110156104ca578489015182556001820191506020850194506020810190506104a5565b868310156104e757848901516104e3601f8916826103f6565b8355505b6001600288020188555050505b505050505050565b6123aa806105095f395ff3fe608060405234801561000f575f80fd5b5060043610610109575f3560e01c80634543c7cf116100a05780639cd441da1161006f5780639cd441da146102e3578063a9059cbb14610313578063d21220a714610343578063dd62ed3e14610361578063f000ead91461039157610109565b80634543c7cf1461024657806370a082311461026457806395d89b41146102945780639c8f9f23146102b257610109565b806318160ddd116100dc57806318160ddd146101a957806323b872dd146101c7578063313ce567146101f7578063432643491461021557610109565b8063054d50d41461010d57806306fdde031461013d578063095ea7b31461015b5780630dfe16811461018b575b5f80fd5b61012760048036038101906101229190611c13565b6103af565b6040516101349190611c72565b60405180910390f35b6101456103fc565b6040516101529190611cfb565b60405180910390f35b61017560048036038101906101709190611d75565b61048c565b6040516101829190611dcd565b60405180910390f35b6101936104ae565b6040516101a09190611e41565b60405180910390f35b6101b16104d3565b6040516101be9190611c72565b60405180910390f35b6101e160048036038101906101dc9190611e5a565b6104dc565b6040516101ee9190611dcd565b60405180910390f35b6101ff61050a565b60405161020c9190611ec5565b60405180910390f35b61022f600480360381019061022a9190611f19565b610512565b60405161023d929190611f69565b60405180910390f35b61024e610b68565b60405161025b9190611c72565b60405180910390f35b61027e60048036038101906102799190611f90565b610b6e565b60405161028b9190611c72565b60405180910390f35b61029c610bb3565b6040516102a99190611cfb565b60405180910390f35b6102cc60048036038101906102c79190611fbb565b610c43565b6040516102da929190611fe6565b60405180910390f35b6102fd60048036038101906102f8919061200d565b6110aa565b60405161030a9190611c72565b60405180910390f35b61032d60048036038101906103289190611d75565b6113fd565b60405161033a9190611dcd565b60405180910390f35b61034b61141f565b6040516103589190611e41565b60405180910390f35b61037b6004803603810190610376919061204b565b611444565b6040516103889190611c72565b60405180910390f35b6103996114c6565b6040516103a69190611c72565b60405180910390f35b5f8084116103bb575f80fd5b5f831180156103c957505f82115b6103d1575f80fd5b83836103dd91906120b6565b82856103e991906120e9565b6103f39190612157565b90509392505050565b60606003805461040b906121b4565b80601f0160208091040260200160405190810160405280929190818152602001828054610437906121b4565b80156104825780601f1061045957610100808354040283529160200191610482565b820191905f5260205f20905b81548152906001019060200180831161046557829003601f168201915b5050505050905090565b5f806104966114cc565b90506104a38185856114d3565b600191505092915050565b60055f9054906101000a900473ffffffffffffffffffffffffffffffffffffffff1681565b5f600254905090565b5f806104e66114cc565b90506104f38582856114e5565b6104fe858585611577565b60019150509392505050565b5f6012905090565b5f805f851161051f575f80fd5b60055f9054906101000a900473ffffffffffffffffffffffffffffffffffffffff1673ffffffffffffffffffffffffffffffffffffffff168473ffffffffffffffffffffffffffffffffffffffff1614806105c6575060065f9054906101000a900473ffffffffffffffffffffffffffffffffffffffff1673ffffffffffffffffffffffffffffffffffffffff168473ffffffffffffffffffffffffffffffffffffffff16145b6105ce575f80fd5b5f60055f9054906101000a900473ffffffffffffffffffffffffffffffffffffffff1673ffffffffffffffffffffffffffffffffffffffff166370a08231306040518263ffffffff1660e01b815260040161062991906121f3565b602060405180830381865afa158015610644573d5f803e3d5ffd5b505050506040513d601f19601f820116820180604052508101906106689190612220565b90505f60065f9054906101000a900473ffffffffffffffffffffffffffffffffffffffff1673ffffffffffffffffffffffffffffffffffffffff166370a08231306040518263ffffffff1660e01b81526004016106c591906121f3565b602060405180830381865afa1580156106e0573d5f803e3d5ffd5b505050506040513d601f19601f820116820180604052508101906107049190612220565b905060055f9054906101000a900473ffffffffffffffffffffffffffffffffffffffff1673ffffffffffffffffffffffffffffffffffffffff168673ffffffffffffffffffffffffffffffffffffffff16036108955760065f9054906101000a900473ffffffffffffffffffffffffffffffffffffffff1692506107898783836103af565b9350848411610796575f80fd5b8573ffffffffffffffffffffffffffffffffffffffff166323b872dd33308a6040518463ffffffff1660e01b81526004016107d39392919061224b565b6020604051808303815f875af11580156107ef573d5f803e3d5ffd5b505050506040513d601f19601f8201168201806040525081019061081391906122aa565b508273ffffffffffffffffffffffffffffffffffffffff1663a9059cbb33866040518363ffffffff1660e01b815260040161084f9291906122d5565b6020604051808303815f875af115801561086b573d5f803e3d5ffd5b505050506040513d601f19601f8201168201806040525081019061088f91906122aa565b506109cc565b60065f9054906101000a900473ffffffffffffffffffffffffffffffffffffffff1695506108c48782846103af565b93508484116108d1575f80fd5b8573ffffffffffffffffffffffffffffffffffffffff166323b872dd33308a6040518463ffffffff1660e01b815260040161090e9392919061224b565b6020604051808303815f875af115801561092a573d5f803e3d5ffd5b505050506040513d601f19601f8201168201806040525081019061094e91906122aa565b508273ffffffffffffffffffffffffffffffffffffffff1663a9059cbb33866040518363ffffffff1660e01b815260040161098a9291906122d5565b6020604051808303815f875af11580156109a6573d5f803e3d5ffd5b505050506040513d601f19601f820116820180604052508101906109ca91906122aa565b505b60055f9054906101000a900473ffffffffffffffffffffffffffffffffffffffff1673ffffffffffffffffffffffffffffffffffffffff166370a08231306040518263ffffffff1660e01b8152600401610a2691906121f3565b602060405180830381865afa158015610a41573d5f803e3d5ffd5b505050506040513d601f19601f82011682018060405250810190610a659190612220565b60078190555060065f9054906101000a900473ffffffffffffffffffffffffffffffffffffffff1673ffffffffffffffffffffffffffffffffffffffff166370a08231306040518263ffffffff1660e01b8152600401610ac591906121f3565b602060405180830381865afa158015610ae0573d5f803e3d5ffd5b505050506040513d601f19601f82011682018060405250810190610b049190612220565b6008819055503373ffffffffffffffffffffffffffffffffffffffff167f24043855bfbfea0ccea141e5a73d7116bf0bfe083ea900a791f4b407ff03e52588888787604051610b5694939291906122fc565b60405180910390a25050935093915050565b60075481565b5f805f8373ffffffffffffffffffffffffffffffffffffffff1673ffffffffffffffffffffffffffffffffffffffff1681526020019081526020015f20549050919050565b606060048054610bc2906121b4565b80601f0160208091040260200160405190810160405280929190818152602001828054610bee906121b4565b8015610c395780601f10610c1057610100808354040283529160200191610c39565b820191905f5260205f20905b815481529060010190602001808311610c1c57829003601f168201915b5050505050905090565b5f805f60055f9054906101000a900473ffffffffffffffffffffffffffffffffffffffff1673ffffffffffffffffffffffffffffffffffffffff166370a08231306040518263ffffffff1660e01b8152600401610ca091906121f3565b602060405180830381865afa158015610cbb573d5f803e3d5ffd5b505050506040513d601f19601f82011682018060405250810190610cdf9190612220565b90505f60065f9054906101000a900473ffffffffffffffffffffffffffffffffffffffff1673ffffffffffffffffffffffffffffffffffffffff166370a08231306040518263ffffffff1660e01b8152600401610d3c91906121f3565b602060405180830381865afa158015610d57573d5f803e3d5ffd5b505050506040513d601f19601f82011682018060405250810190610d7b9190612220565b90505f610d866104d3565b9050808387610d9591906120e9565b610d9f9190612157565b9450808287610dae91906120e9565b610db89190612157565b93505f85118015610dc857505f84115b610dd0575f80fd5b610dda3387611667565b60055f9054906101000a900473ffffffffffffffffffffffffffffffffffffffff1673ffffffffffffffffffffffffffffffffffffffff1663a9059cbb33876040518363ffffffff1660e01b8152600401610e369291906122d5565b6020604051808303815f875af1158015610e52573d5f803e3d5ffd5b505050506040513d601f19601f82011682018060405250810190610e7691906122aa565b5060065f9054906101000a900473ffffffffffffffffffffffffffffffffffffffff1673ffffffffffffffffffffffffffffffffffffffff1663a9059cbb33866040518363ffffffff1660e01b8152600401610ed39291906122d5565b6020604051808303815f875af1158015610eef573d5f803e3d5ffd5b505050506040513d601f19601f82011682018060405250810190610f1391906122aa565b5060055f9054906101000a900473ffffffffffffffffffffffffffffffffffffffff1673ffffffffffffffffffffffffffffffffffffffff166370a08231306040518263ffffffff1660e01b8152600401610f6e91906121f3565b602060405180830381865afa158015610f89573d5f803e3d5ffd5b505050506040513d601f19601f82011682018060405250810190610fad9190612220565b60078190555060065f9054906101000a900473ffffffffffffffffffffffffffffffffffffffff1673ffffffffffffffffffffffffffffffffffffffff166370a08231306040518263ffffffff1660e01b815260040161100d91906121f3565b602060405180830381865afa158015611028573d5f803e3d5ffd5b505050506040513d601f19601f8201168201806040525081019061104c9190612220565b6008819055503373ffffffffffffffffffffffffffffffffffffffff167f49995e5dd6158cf69ad3e9777c46755a1a826a446c6416992167462dad033b2a868660405161109a929190611fe6565b60405180910390a2505050915091565b5f60055f9054906101000a900473ffffffffffffffffffffffffffffffffffffffff1673ffffffffffffffffffffffffffffffffffffffff166323b872dd3330866040518463ffffffff1660e01b81526004016111099392919061224b565b6020604051808303815f875af1158015611125573d5f803e3d5ffd5b505050506040513d601f19601f8201168201806040525081019061114991906122aa565b5060065f9054906101000a900473ffffffffffffffffffffffffffffffffffffffff1673ffffffffffffffffffffffffffffffffffffffff166323b872dd3330856040518463ffffffff1660e01b81526004016111a89392919061224b565b6020604051808303815f875af11580156111c4573d5f803e3d5ffd5b505050506040513d601f19601f820116820180604052508101906111e891906122aa565b505f6111f26104d3565b90505f81036112165761120f838561120a91906120e9565b6116e6565b9150611253565b611250600754828661122891906120e9565b6112329190612157565b600854838661124191906120e9565b61124b9190612157565b61175d565b91505b5f821161125e575f80fd5b60055f9054906101000a900473ffffffffffffffffffffffffffffffffffffffff1673ffffffffffffffffffffffffffffffffffffffff166370a08231306040518263ffffffff1660e01b81526004016112b891906121f3565b602060405180830381865afa1580156112d3573d5f803e3d5ffd5b505050506040513d601f19601f820116820180604052508101906112f79190612220565b60078190555060065f9054906101000a900473ffffffffffffffffffffffffffffffffffffffff1673ffffffffffffffffffffffffffffffffffffffff166370a08231306040518263ffffffff1660e01b815260040161135791906121f3565b602060405180830381865afa158015611372573d5f803e3d5ffd5b505050506040513d601f19601f820116820180604052508101906113969190612220565b6008819055506113a63383611775565b3373ffffffffffffffffffffffffffffffffffffffff167f4c209b5fc8ad50758f13e2e1088ba56a560dff690a1c6fef26394f4c03821c4f85856040516113ee929190611fe6565b60405180910390a25092915050565b5f806114076114cc565b9050611414818585611577565b600191505092915050565b60065f9054906101000a900473ffffffffffffffffffffffffffffffffffffffff1681565b5f60015f8473ffffffffffffffffffffffffffffffffffffffff1673ffffffffffffffffffffffffffffffffffffffff1681526020019081526020015f205f8373ffffffffffffffffffffffffffffffffffffffff1673ffffffffffffffffffffffffffffffffffffffff1681526020019081526020015f2054905092915050565b60085481565b5f33905090565b6114e083838360016117f4565b505050565b5f6114f08484611444565b90507fffffffffffffffffffffffffffffffffffffffffffffffffffffffffffffffff81146115715781811015611562578281836040517ffb8f41b20000000000000000000000000000000000000000000000000000000081526004016115599392919061233f565b60405180910390fd5b61157084848484035f6117f4565b5b50505050565b5f73ffffffffffffffffffffffffffffffffffffffff168373ffffffffffffffffffffffffffffffffffffffff16036115e7575f6040517f96c6fd1e0000000000000000000000000000000000000000000000000000000081526004016115de91906121f3565b60405180910390fd5b5f73ffffffffffffffffffffffffffffffffffffffff168273ffffffffffffffffffffffffffffffffffffffff1603611657575f6040517fec442f0500000000000000000000000000000000000000000000000000000000815260040161164e91906121f3565b60405180910390fd5b6116628383836119c3565b505050565b5f73ffffffffffffffffffffffffffffffffffffffff168273ffffffffffffffffffffffffffffffffffffffff16036116d7575f6040517f96c6fd1e0000000000000000000000000000000000000000000000000000000081526004016116ce91906121f3565b60405180910390fd5b6116e2825f836119c3565b5050565b5f600382111561174b578190505f60016002846117039190612157565b61170d91906120b6565b90505b8181101561174557809150600281828561172a9190612157565b61173491906120b6565b61173e9190612157565b9050611710565b50611758565b5f821461175757600190505b5b919050565b5f81831161176b578261176d565b815b905092915050565b5f73ffffffffffffffffffffffffffffffffffffffff168273ffffffffffffffffffffffffffffffffffffffff16036117e5575f6040517fec442f050000000000000000000000000000000000000000000000000000000081526004016117dc91906121f3565b60405180910390fd5b6117f05f83836119c3565b5050565b5f73ffffffffffffffffffffffffffffffffffffffff168473ffffffffffffffffffffffffffffffffffffffff1603611864575f6040517fe602df0500000000000000000000000000000000000000000000000000000000815260040161185b91906121f3565b60405180910390fd5b5f73ffffffffffffffffffffffffffffffffffffffff168373ffffffffffffffffffffffffffffffffffffffff16036118d4575f6040517f94280d620000000000000000000000000000000000000000000000000000000081526004016118cb91906121f3565b60405180910390fd5b8160015f8673ffffffffffffffffffffffffffffffffffffffff1673ffffffffffffffffffffffffffffffffffffffff1681526020019081526020015f205f8573ffffffffffffffffffffffffffffffffffffffff1673ffffffffffffffffffffffffffffffffffffffff1681526020019081526020015f208190555080156119bd578273ffffffffffffffffffffffffffffffffffffffff168473ffffffffffffffffffffffffffffffffffffffff167f8c5be1e5ebec7d5bd14f71427d1e84f3dd0314c0f7b2291e5b200ac8c7c3b925846040516119b49190611c72565b60405180910390a35b50505050565b5f73ffffffffffffffffffffffffffffffffffffffff168373ffffffffffffffffffffffffffffffffffffffff1603611a13578060025f828254611a0791906120b6565b92505081905550611ae1565b5f805f8573ffffffffffffffffffffffffffffffffffffffff1673ffffffffffffffffffffffffffffffffffffffff1681526020019081526020015f2054905081811015611a9c578381836040517fe450d38c000000000000000000000000000000000000000000000000000000008152600401611a939392919061233f565b60405180910390fd5b8181035f808673ffffffffffffffffffffffffffffffffffffffff1673ffffffffffffffffffffffffffffffffffffffff1681526020019081526020015f2081905550505b5f73ffffffffffffffffffffffffffffffffffffffff168273ffffffffffffffffffffffffffffffffffffffff1603611b28578060025f8282540392505081905550611b72565b805f808473ffffffffffffffffffffffffffffffffffffffff1673ffffffffffffffffffffffffffffffffffffffff1681526020019081526020015f205f82825401925050819055505b8173ffffffffffffffffffffffffffffffffffffffff168373ffffffffffffffffffffffffffffffffffffffff167fddf252ad1be2c89b69c2b068fc378daa952ba7f163c4a11628f55a4df523b3ef83604051611bcf9190611c72565b60405180910390a3505050565b5f80fd5b5f819050919050565b611bf281611be0565b8114611bfc575f80fd5b50565b5f81359050611c0d81611be9565b92915050565b5f805f60608486031215611c2a57611c29611bdc565b5b5f611c3786828701611bff565b9350506020611c4886828701611bff565b9250506040611c5986828701611bff565b9150509250925092565b611c6c81611be0565b82525050565b5f602082019050611c855f830184611c63565b92915050565b5f81519050919050565b5f82825260208201905092915050565b8281835e5f83830152505050565b5f601f19601f8301169050919050565b5f611ccd82611c8b565b611cd78185611c95565b9350611ce7818560208601611ca5565b611cf081611cb3565b840191505092915050565b5f6020820190508181035f830152611d138184611cc3565b905092915050565b5f73ffffffffffffffffffffffffffffffffffffffff82169050919050565b5f611d4482611d1b565b9050919050565b611d5481611d3a565b8114611d5e575f80fd5b50565b5f81359050611d6f81611d4b565b92915050565b5f8060408385031215611d8b57611d8a611bdc565b5b5f611d9885828601611d61565b9250506020611da985828601611bff565b9150509250929050565b5f8115159050919050565b611dc781611db3565b82525050565b5f602082019050611de05f830184611dbe565b92915050565b5f819050919050565b5f611e09611e04611dff84611d1b565b611de6565b611d1b565b9050919050565b5f611e1a82611def565b9050919050565b5f611e2b82611e10565b9050919050565b611e3b81611e21565b82525050565b5f602082019050611e545f830184611e32565b92915050565b5f805f60608486031215611e7157611e70611bdc565b5b5f611e7e86828701611d61565b9350506020611e8f86828701611d61565b9250506040611ea086828701611bff565b9150509250925092565b5f60ff82169050919050565b611ebf81611eaa565b82525050565b5f602082019050611ed85f830184611eb6565b92915050565b5f611ee882611d3a565b9050919050565b611ef881611ede565b8114611f02575f80fd5b50565b5f81359050611f1381611eef565b92915050565b5f805f60608486031215611f3057611f2f611bdc565b5b5f611f3d86828701611bff565b9350506020611f4e86828701611f05565b9250506040611f5f86828701611bff565b9150509250925092565b5f604082019050611f7c5f830185611c63565b611f896020830184611e32565b9392505050565b5f60208284031215611fa557611fa4611bdc565b5b5f611fb284828501611d61565b91505092915050565b5f60208284031215611fd057611fcf611bdc565b5b5f611fdd84828501611bff565b91505092915050565b5f604082019050611ff95f830185611c63565b6120066020830184611c63565b9392505050565b5f806040838503121561202357612022611bdc565b5b5f61203085828601611bff565b925050602061204185828601611bff565b9150509250929050565b5f806040838503121561206157612060611bdc565b5b5f61206e85828601611d61565b925050602061207f85828601611d61565b9150509250929050565b7f4e487b71000000000000000000000000000000000000000000000000000000005f52601160045260245ffd5b5f6120c082611be0565b91506120cb83611be0565b92508282019050808211156120e3576120e2612089565b5b92915050565b5f6120f382611be0565b91506120fe83611be0565b925082820261210c81611be0565b9150828204841483151761212357612122612089565b5b5092915050565b7f4e487b71000000000000000000000000000000000000000000000000000000005f52601260045260245ffd5b5f61216182611be0565b915061216c83611be0565b92508261217c5761217b61212a565b5b828204905092915050565b7f4e487b71000000000000000000000000000000000000000000000000000000005f52602260045260245ffd5b5f60028204905060018216806121cb57607f821691505b6020821081036121de576121dd612187565b5b50919050565b6121ed81611d3a565b82525050565b5f6020820190506122065f8301846121e4565b92915050565b5f8151905061221a81611be9565b92915050565b5f6020828403121561223557612234611bdc565b5b5f6122428482850161220c565b91505092915050565b5f60608201905061225e5f8301866121e4565b61226b60208301856121e4565b6122786040830184611c63565b949350505050565b61228981611db3565b8114612293575f80fd5b50565b5f815190506122a481612280565b92915050565b5f602082840312156122bf576122be611bdc565b5b5f6122cc84828501612296565b91505092915050565b5f6040820190506122e85f8301856121e4565b6122f56020830184611c63565b9392505050565b5f60808201905061230f5f830187611c63565b61231c60208301866121e4565b6123296040830185611c63565b61233660608301846121e4565b95945050505050565b5f6060820190506123525f8301866121e4565b61235f6020830185611c63565b61236c6040830184611c63565b94935050505056fea2646970667358221220355687e0160e5326a04cbb9176f530046cddce93542fce638fd45216848759d264736f6c634300081a0033",
					"opcodes": "PUSH1 0x80 PUSH1 0x40 MSTORE CALLVALUE DUP1 ISZERO PUSH2 0xF JUMPI PUSH0 DUP1 REVERT JUMPDEST POP PUSH1 0x40 MLOAD PUSH2 0x28B3 CODESIZE SUB DUP1 PUSH2 0x28B3 DUP4 CODECOPY DUP2 DUP2 ADD PUSH1 0x40 MSTORE DUP2 ADD SWAP1 PUSH2 0x31 SWAP2 SWAP1 PUSH2 0x1B5 JUMP JUMPDEST PUSH1 0x40 MLOAD DUP1 PUSH1 0x40 ADD PUSH1 0x40 MSTORE DUP1 PUSH1 0xA DUP2 MSTORE PUSH1 0x20 ADD PUSH32 0x53696D706C655377617000000000000000000000000000000000000000000000 DUP2 MSTORE POP PUSH1 0x40 MLOAD DUP1 PUSH1 0x40 ADD PUSH1 0x40 MSTORE DUP1 PUSH1 0x2 DUP2 MSTORE PUSH1 0x20 ADD PUSH32 0x5353000000000000000000000000000000000000000000000000000000000000 DUP2 MSTORE POP DUP2 PUSH1 0x3 SWAP1 DUP2 PUSH2 0xAC SWAP2 SWAP1 PUSH2 0x42D JUMP JUMPDEST POP DUP1 PUSH1 0x4 SWAP1 DUP2 PUSH2 0xBC SWAP2 SWAP1 PUSH2 0x42D JUMP JUMPDEST POP POP POP DUP2 PUSH1 0x5 PUSH0 PUSH2 0x100 EXP DUP2 SLOAD DUP2 PUSH20 0xFFFFFFFFFFFFFFFFFFFFFFFFFFFFFFFFFFFFFFFF MUL NOT AND SWAP1 DUP4 PUSH20 0xFFFFFFFFFFFFFFFFFFFFFFFFFFFFFFFFFFFFFFFF AND MUL OR SWAP1 SSTORE POP DUP1 PUSH1 0x6 PUSH0 PUSH2 0x100 EXP DUP2 SLOAD DUP2 PUSH20 0xFFFFFFFFFFFFFFFFFFFFFFFFFFFFFFFFFFFFFFFF MUL NOT AND SWAP1 DUP4 PUSH20 0xFFFFFFFFFFFFFFFFFFFFFFFFFFFFFFFFFFFFFFFF AND MUL OR SWAP1 SSTORE POP POP POP PUSH2 0x4FC JUMP JUMPDEST PUSH0 DUP1 REVERT JUMPDEST PUSH0 PUSH20 0xFFFFFFFFFFFFFFFFFFFFFFFFFFFFFFFFFFFFFFFF DUP3 AND SWAP1 POP SWAP2 SWAP1 POP JUMP JUMPDEST PUSH0 PUSH2 0x173 DUP3 PUSH2 0x14A JUMP JUMPDEST SWAP1 POP SWAP2 SWAP1 POP JUMP JUMPDEST PUSH0 PUSH2 0x184 DUP3 PUSH2 0x169 JUMP JUMPDEST SWAP1 POP SWAP2 SWAP1 POP JUMP JUMPDEST PUSH2 0x194 DUP2 PUSH2 0x17A JUMP JUMPDEST DUP2 EQ PUSH2 0x19E JUMPI PUSH0 DUP1 REVERT JUMPDEST POP JUMP JUMPDEST PUSH0 DUP2 MLOAD SWAP1 POP PUSH2 0x1AF DUP2 PUSH2 0x18B JUMP JUMPDEST SWAP3 SWAP2 POP POP JUMP JUMPDEST PUSH0 DUP1 PUSH1 0x40 DUP4 DUP6 SUB SLT ISZERO PUSH2 0x1CB JUMPI PUSH2 0x1CA PUSH2 0x146 JUMP JUMPDEST JUMPDEST PUSH0 PUSH2 0x1D8 DUP6 DUP3 DUP7 ADD PUSH2 0x1A1 JUMP JUMPDEST SWAP3 POP POP PUSH1 0x20 PUSH2 0x1E9 DUP6 DUP3 DUP7 ADD PUSH2 0x1A1 JUMP JUMPDEST SWAP2 POP POP SWAP3 POP SWAP3 SWAP1 POP JUMP JUMPDEST PUSH0 DUP2 MLOAD SWAP1 POP SWAP2 SWAP1 POP JUMP JUMPDEST PUSH32 0x4E487B7100000000000000000000000000000000000000000000000000000000 PUSH0 MSTORE PUSH1 0x41 PUSH1 0x4 MSTORE PUSH1 0x24 PUSH0 REVERT JUMPDEST PUSH32 0x4E487B7100000000000000000000000000000000000000000000000000000000 PUSH0 MSTORE PUSH1 0x22 PUSH1 0x4 MSTORE PUSH1 0x24 PUSH0 REVERT JUMPDEST PUSH0 PUSH1 0x2 DUP3 DIV SWAP1 POP PUSH1 0x1 DUP3 AND DUP1 PUSH2 0x26E JUMPI PUSH1 0x7F DUP3 AND SWAP2 POP JUMPDEST PUSH1 0x20 DUP3 LT DUP2 SUB PUSH2 0x281 JUMPI PUSH2 0x280 PUSH2 0x22A JUMP JUMPDEST JUMPDEST POP SWAP2 SWAP1 POP JUMP JUMPDEST PUSH0 DUP2 SWAP1 POP DUP2 PUSH0 MSTORE PUSH1 0x20 PUSH0 KECCAK256 SWAP1 POP SWAP2 SWAP1 POP JUMP JUMPDEST PUSH0 PUSH1 0x20 PUSH1 0x1F DUP4 ADD DIV SWAP1 POP SWAP2 SWAP1 POP JUMP JUMPDEST PUSH0 DUP3 DUP3 SHL SWAP1 POP SWAP3 SWAP2 POP POP JUMP JUMPDEST PUSH0 PUSH1 0x8 DUP4 MUL PUSH2 0x2E3 PUSH32 0xFFFFFFFFFFFFFFFFFFFFFFFFFFFFFFFFFFFFFFFFFFFFFFFFFFFFFFFFFFFFFFFF DUP3 PUSH2 0x2A8 JUMP JUMPDEST PUSH2 0x2ED DUP7 DUP4 PUSH2 0x2A8 JUMP JUMPDEST SWAP6 POP DUP1 NOT DUP5 AND SWAP4 POP DUP1 DUP7 AND DUP5 OR SWAP3 POP POP POP SWAP4 SWAP3 POP POP POP JUMP JUMPDEST PUSH0 DUP2 SWAP1 POP SWAP2 SWAP1 POP JUMP JUMPDEST PUSH0 DUP2 SWAP1 POP SWAP2 SWAP1 POP JUMP JUMPDEST PUSH0 PUSH2 0x331 PUSH2 0x32C PUSH2 0x327 DUP5 PUSH2 0x305 JUMP JUMPDEST PUSH2 0x30E JUMP JUMPDEST PUSH2 0x305 JUMP JUMPDEST SWAP1 POP SWAP2 SWAP1 POP JUMP JUMPDEST PUSH0 DUP2 SWAP1 POP SWAP2 SWAP1 POP JUMP JUMPDEST PUSH2 0x34A DUP4 PUSH2 0x317 JUMP JUMPDEST PUSH2 0x35E PUSH2 0x356 DUP3 PUSH2 0x338 JUMP JUMPDEST DUP5 DUP5 SLOAD PUSH2 0x2B4 JUMP JUMPDEST DUP3 SSTORE POP POP POP POP JUMP JUMPDEST PUSH0 SWAP1 JUMP JUMPDEST PUSH2 0x372 PUSH2 0x366 JUMP JUMPDEST PUSH2 0x37D DUP2 DUP5 DUP5 PUSH2 0x341 JUMP JUMPDEST POP POP POP JUMP JUMPDEST JUMPDEST DUP2 DUP2 LT ISZERO PUSH2 0x3A0 JUMPI PUSH2 0x395 PUSH0 DUP3 PUSH2 0x36A JUMP JUMPDEST PUSH1 0x1 DUP2 ADD SWAP1 POP PUSH2 0x383 JUMP JUMPDEST POP POP JUMP JUMPDEST PUSH1 0x1F DUP3 GT ISZERO PUSH2 0x3E5 JUMPI PUSH2 0x3B6 DUP2 PUSH2 0x287 JUMP JUMPDEST PUSH2 0x3BF DUP5 PUSH2 0x299 JUMP JUMPDEST DUP2 ADD PUSH1 0x20 DUP6 LT ISZERO PUSH2 0x3CE JUMPI DUP2 SWAP1 POP JUMPDEST PUSH2 0x3E2 PUSH2 0x3DA DUP6 PUSH2 0x299 JUMP JUMPDEST DUP4 ADD DUP3 PUSH2 0x382 JUMP JUMPDEST POP POP JUMPDEST POP POP POP JUMP JUMPDEST PUSH0 DUP3 DUP3 SHR SWAP1 POP SWAP3 SWAP2 POP POP JUMP JUMPDEST PUSH0 PUSH2 0x405 PUSH0 NOT DUP5 PUSH1 0x8 MUL PUSH2 0x3EA JUMP JUMPDEST NOT DUP1 DUP4 AND SWAP2 POP POP SWAP3 SWAP2 POP POP JUMP JUMPDEST PUSH0 PUSH2 0x41D DUP4 DUP4 PUSH2 0x3F6 JUMP JUMPDEST SWAP2 POP DUP3 PUSH1 0x2 MUL DUP3 OR SWAP1 POP SWAP3 SWAP2 POP POP JUMP JUMPDEST PUSH2 0x436 DUP3 PUSH2 0x1F3 JUMP JUMPDEST PUSH8 0xFFFFFFFFFFFFFFFF DUP2 GT ISZERO PUSH2 0x44F JUMPI PUSH2 0x44E PUSH2 0x1FD JUMP JUMPDEST JUMPDEST PUSH2 0x459 DUP3 SLOAD PUSH2 0x257 JUMP JUMPDEST PUSH2 0x464 DUP3 DUP3 DUP6 PUSH2 0x3A4 JUMP JUMPDEST PUSH0 PUSH1 0x20 SWAP1 POP PUSH1 0x1F DUP4 GT PUSH1 0x1 DUP2 EQ PUSH2 0x495 JUMPI PUSH0 DUP5 ISZERO PUSH2 0x483 JUMPI DUP3 DUP8 ADD MLOAD SWAP1 POP JUMPDEST PUSH2 0x48D DUP6 DUP3 PUSH2 0x412 JUMP JUMPDEST DUP7 SSTORE POP PUSH2 0x4F4 JUMP JUMPDEST PUSH1 0x1F NOT DUP5 AND PUSH2 0x4A3 DUP7 PUSH2 0x287 JUMP JUMPDEST PUSH0 JUMPDEST DUP3 DUP2 LT ISZERO PUSH2 0x4CA JUMPI DUP5 DUP10 ADD MLOAD DUP3 SSTORE PUSH1 0x1 DUP3 ADD SWAP2 POP PUSH1 0x20 DUP6 ADD SWAP5 POP PUSH1 0x20 DUP2 ADD SWAP1 POP PUSH2 0x4A5 JUMP JUMPDEST DUP7 DUP4 LT ISZERO PUSH2 0x4E7 JUMPI DUP5 DUP10 ADD MLOAD PUSH2 0x4E3 PUSH1 0x1F DUP10 AND DUP3 PUSH2 0x3F6 JUMP JUMPDEST DUP4 SSTORE POP JUMPDEST PUSH1 0x1 PUSH1 0x2 DUP9 MUL ADD DUP9 SSTORE POP POP POP JUMPDEST POP POP POP POP POP POP JUMP JUMPDEST PUSH2 0x23AA DUP1 PUSH2 0x509 PUSH0 CODECOPY PUSH0 RETURN INVALID PUSH1 0x80 PUSH1 0x40 MSTORE CALLVALUE DUP1 ISZERO PUSH2 0xF JUMPI PUSH0 DUP1 REVERT JUMPDEST POP PUSH1 0x4 CALLDATASIZE LT PUSH2 0x109 JUMPI PUSH0 CALLDATALOAD PUSH1 0xE0 SHR DUP1 PUSH4 0x4543C7CF GT PUSH2 0xA0 JUMPI DUP1 PUSH4 0x9CD441DA GT PUSH2 0x6F JUMPI DUP1 PUSH4 0x9CD441DA EQ PUSH2 0x2E3 JUMPI DUP1 PUSH4 0xA9059CBB EQ PUSH2 0x313 JUMPI DUP1 PUSH4 0xD21220A7 EQ PUSH2 0x343 JUMPI DUP1 PUSH4 0xDD62ED3E EQ PUSH2 0x361 JUMPI DUP1 PUSH4 0xF000EAD9 EQ PUSH2 0x391 JUMPI PUSH2 0x109 JUMP JUMPDEST DUP1 PUSH4 0x4543C7CF EQ PUSH2 0x246 JUMPI DUP1 PUSH4 0x70A08231 EQ PUSH2 0x264 JUMPI DUP1 PUSH4 0x95D89B41 EQ PUSH2 0x294 JUMPI DUP1 PUSH4 0x9C8F9F23 EQ PUSH2 0x2B2 JUMPI PUSH2 0x109 JUMP JUMPDEST DUP1 PUSH4 0x18160DDD GT PUSH2 0xDC JUMPI DUP1 PUSH4 0x18160DDD EQ PUSH2 0x1A9 JUMPI DUP1 PUSH4 0x23B872DD EQ PUSH2 0x1C7 JUMPI DUP1 PUSH4 0x313CE567 EQ PUSH2 0x1F7 JUMPI DUP1 PUSH4 0x43264349 EQ PUSH2 0x215 JUMPI PUSH2 0x109 JUMP JUMPDEST DUP1 PUSH4 0x54D50D4 EQ PUSH2 0x10D JUMPI DUP1 PUSH4 0x6FDDE03 EQ PUSH2 0x13D JUMPI DUP1 PUSH4 0x95EA7B3 EQ PUSH2 0x15B JUMPI DUP1 PUSH4 0xDFE1681 EQ PUSH2 0x18B JUMPI JUMPDEST PUSH0 DUP1 REVERT JUMPDEST PUSH2 0x127 PUSH1 0x4 DUP1 CALLDATASIZE SUB DUP2 ADD SWAP1 PUSH2 0x122 SWAP2 SWAP1 PUSH2 0x1C13 JUMP JUMPDEST PUSH2 0x3AF JUMP JUMPDEST PUSH1 0x40 MLOAD PUSH2 0x134 SWAP2 SWAP1 PUSH2 0x1C72 JUMP JUMPDEST PUSH1 0x40 MLOAD DUP1 SWAP2 SUB SWAP1 RETURN JUMPDEST PUSH2 0x145 PUSH2 0x3FC JUMP JUMPDEST PUSH1 0x40 MLOAD PUSH2 0x152 SWAP2 SWAP1 PUSH2 0x1CFB JUMP JUMPDEST PUSH1 0x40 MLOAD DUP1 SWAP2 SUB SWAP1 RETURN JUMPDEST PUSH2 0x175 PUSH1 0x4 DUP1 CALLDATASIZE SUB DUP2 ADD SWAP1 PUSH2 0x170 SWAP2 SWAP1 PUSH2 0x1D75 JUMP JUMPDEST PUSH2 0x48C JUMP JUMPDEST PUSH1 0x40 MLOAD PUSH2 0x182 SWAP2 SWAP1 PUSH2 0x1DCD JUMP JUMPDEST PUSH1 0x40 MLOAD DUP1 SWAP2 SUB SWAP1 RETURN JUMPDEST PUSH2 0x193 PUSH2 0x4AE JUMP JUMPDEST PUSH1 0x40 MLOAD PUSH2 0x1A0 SWAP2 SWAP1 PUSH2 0x1E41 JUMP JUMPDEST PUSH1 0x40 MLOAD DUP1 SWAP2 SUB SWAP1 RETURN JUMPDEST PUSH2 0x1B1 PUSH2 0x4D3 JUMP JUMPDEST PUSH1 0x40 MLOAD PUSH2 0x1BE SWAP2 SWAP1 PUSH2 0x1C72 JUMP JUMPDEST PUSH1 0x40 MLOAD DUP1 SWAP2 SUB SWAP1 RETURN JUMPDEST PUSH2 0x1E1 PUSH1 0x4 DUP1 CALLDATASIZE SUB DUP2 ADD SWAP1 PUSH2 0x1DC SWAP2 SWAP1 PUSH2 0x1E5A JUMP JUMPDEST PUSH2 0x4DC JUMP JUMPDEST PUSH1 0x40 MLOAD PUSH2 0x1EE SWAP2 SWAP1 PUSH2 0x1DCD JUMP JUMPDEST PUSH1 0x40 MLOAD DUP1 SWAP2 SUB SWAP1 RETURN JUMPDEST PUSH2 0x1FF PUSH2 0x50A JUMP JUMPDEST PUSH1 0x40 MLOAD PUSH2 0x20C SWAP2 SWAP1 PUSH2 0x1EC5 JUMP JUMPDEST PUSH1 0x40 MLOAD DUP1 SWAP2 SUB SWAP1 RETURN JUMPDEST PUSH2 0x22F PUSH1 0x4 DUP1 CALLDATASIZE SUB DUP2 ADD SWAP1 PUSH2 0x22A SWAP2 SWAP1 PUSH2 0x1F19 JUMP JUMPDEST PUSH2 0x512 JUMP JUMPDEST PUSH1 0x40 MLOAD PUSH2 0x23D SWAP3 SWAP2 SWAP1 PUSH2 0x1F69 JUMP JUMPDEST PUSH1 0x40 MLOAD DUP1 SWAP2 SUB SWAP1 RETURN JUMPDEST PUSH2 0x24E PUSH2 0xB68 JUMP JUMPDEST PUSH1 0x40 MLOAD PUSH2 0x25B SWAP2 SWAP1 PUSH2 0x1C72 JUMP JUMPDEST PUSH1 0x40 MLOAD DUP1 SWAP2 SUB SWAP1 RETURN JUMPDEST PUSH2 0x27E PUSH1 0x4 DUP1 CALLDATASIZE SUB DUP2 ADD SWAP1 PUSH2 0x279 SWAP2 SWAP1 PUSH2 0x1F90 JUMP JUMPDEST PUSH2 0xB6E JUMP JUMPDEST PUSH1 0x40 MLOAD PUSH2 0x28B SWAP2 SWAP1 PUSH2 0x1C72 JUMP JUMPDEST PUSH1 0x40 MLOAD DUP1 SWAP2 SUB SWAP1 RETURN JUMPDEST PUSH2 0x29C PUSH2 0xBB3 JUMP JUMPDEST PUSH1 0x40 MLOAD PUSH2 0x2A9 SWAP2 SWAP1 PUSH2 0x1CFB JUMP JUMPDEST PUSH1 0x40 MLOAD DUP1 SWAP2 SUB SWAP1 RETURN JUMPDEST PUSH2 0x2CC PUSH1 0x4 DUP1 CALLDATASIZE SUB DUP2 ADD SWAP1 PUSH2 0x2C7 SWAP2 SWAP1 PUSH2 0x1FBB JUMP JUMPDEST PUSH2 0xC43 JUMP JUMPDEST PUSH1 0x40 MLOAD PUSH2 0x2DA SWAP3 SWAP2 SWAP1 PUSH2 0x1FE6 JUMP JUMPDEST PUSH1 0x40 MLOAD DUP1 SWAP2 SUB SWAP1 RETURN JUMPDEST PUSH2 0x2FD PUSH1 0x4 DUP1 CALLDATASIZE SUB DUP2 ADD SWAP1 PUSH2 0x2F8 SWAP2 SWAP1 PUSH2 0x200D JUMP JUMPDEST PUSH2 0x10AA JUMP JUMPDEST PUSH1 0x40 MLOAD PUSH2 0x30A SWAP2 SWAP1 PUSH2 0x1C72 JUMP JUMPDEST PUSH1 0x40 MLOAD DUP1 SWAP2 SUB SWAP1 RETURN JUMPDEST PUSH2 0x32D PUSH1 0x4 DUP1 CALLDATASIZE SUB DUP2 ADD SWAP1 PUSH2 0x328 SWAP2 SWAP1 PUSH2 0x1D75 JUMP JUMPDEST PUSH2 0x13FD JUMP JUMPDEST PUSH1 0x40 MLOAD PUSH2 0x33A SWAP2 SWAP1 PUSH2 0x1DCD JUMP JUMPDEST PUSH1 0x40 MLOAD DUP1 SWAP2 SUB SWAP1 RETURN JUMPDEST PUSH2 0x34B PUSH2 0x141F JUMP JUMPDEST PUSH1 0x40 MLOAD PUSH2 0x358 SWAP2 SWAP1 PUSH2 0x1E41 JUMP JUMPDEST PUSH1 0x40 MLOAD DUP1 SWAP2 SUB SWAP1 RETURN JUMPDEST PUSH2 0x37B PUSH1 0x4 DUP1 CALLDATASIZE SUB DUP2 ADD SWAP1 PUSH2 0x376 SWAP2 SWAP1 PUSH2 0x204B JUMP JUMPDEST PUSH2 0x1444 JUMP JUMPDEST PUSH1 0x40 MLOAD PUSH2 0x388 SWAP2 SWAP1 PUSH2 0x1C72 JUMP JUMPDEST PUSH1 0x40 MLOAD DUP1 SWAP2 SUB SWAP1 RETURN JUMPDEST PUSH2 0x399 PUSH2 0x14C6 JUMP JUMPDEST PUSH1 0x40 MLOAD PUSH2 0x3A6 SWAP2 SWAP1 PUSH2 0x1C72 JUMP JUMPDEST PUSH1 0x40 MLOAD DUP1 SWAP2 SUB SWAP1 RETURN JUMPDEST PUSH0 DUP1 DUP5 GT PUSH2 0x3BB JUMPI PUSH0 DUP1 REVERT JUMPDEST PUSH0 DUP4 GT DUP1 ISZERO PUSH2 0x3C9 JUMPI POP PUSH0 DUP3 GT JUMPDEST PUSH2 0x3D1 JUMPI PUSH0 DUP1 REVERT JUMPDEST DUP4 DUP4 PUSH2 0x3DD SWAP2 SWAP1 PUSH2 0x20B6 JUMP JUMPDEST DUP3 DUP6 PUSH2 0x3E9 SWAP2 SWAP1 PUSH2 0x20E9 JUMP JUMPDEST PUSH2 0x3F3 SWAP2 SWAP1 PUSH2 0x2157 JUMP JUMPDEST SWAP1 POP SWAP4 SWAP3 POP POP POP JUMP JUMPDEST PUSH1 0x60 PUSH1 0x3 DUP1 SLOAD PUSH2 0x40B SWAP1 PUSH2 0x21B4 JUMP JUMPDEST DUP1 PUSH1 0x1F ADD PUSH1 0x20 DUP1 SWAP2 DIV MUL PUSH1 0x20 ADD PUSH1 0x40 MLOAD SWAP1 DUP2 ADD PUSH1 0x40 MSTORE DUP1 SWAP3 SWAP2 SWAP1 DUP2 DUP2 MSTORE PUSH1 0x20 ADD DUP3 DUP1 SLOAD PUSH2 0x437 SWAP1 PUSH2 0x21B4 JUMP JUMPDEST DUP1 ISZERO PUSH2 0x482 JUMPI DUP1 PUSH1 0x1F LT PUSH2 0x459 JUMPI PUSH2 0x100 DUP1 DUP4 SLOAD DIV MUL DUP4 MSTORE SWAP2 PUSH1 0x20 ADD SWAP2 PUSH2 0x482 JUMP JUMPDEST DUP3 ADD SWAP2 SWAP1 PUSH0 MSTORE PUSH1 0x20 PUSH0 KECCAK256 SWAP1 JUMPDEST DUP2 SLOAD DUP2 MSTORE SWAP1 PUSH1 0x1 ADD SWAP1 PUSH1 0x20 ADD DUP1 DUP4 GT PUSH2 0x465 JUMPI DUP3 SWAP1 SUB PUSH1 0x1F AND DUP3 ADD SWAP2 JUMPDEST POP POP POP POP POP SWAP1 POP SWAP1 JUMP JUMPDEST PUSH0 DUP1 PUSH2 0x496 PUSH2 0x14CC JUMP JUMPDEST SWAP1 POP PUSH2 0x4A3 DUP2 DUP6 DUP6 PUSH2 0x14D3 JUMP JUMPDEST PUSH1 0x1 SWAP2 POP POP SWAP3 SWAP2 POP POP JUMP JUMPDEST PUSH1 0x5 PUSH0 SWAP1 SLOAD SWAP1 PUSH2 0x100 EXP SWAP1 DIV PUSH20 0xFFFFFFFFFFFFFFFFFFFFFFFFFFFFFFFFFFFFFFFF AND DUP2 JUMP JUMPDEST PUSH0 PUSH1 0x2 SLOAD SWAP1 POP SWAP1 JUMP JUMPDEST PUSH0 DUP1 PUSH2 0x4E6 PUSH2 0x14CC JUMP JUMPDEST SWAP1 POP PUSH2 0x4F3 DUP6 DUP3 DUP6 PUSH2 0x14E5 JUMP JUMPDEST PUSH2 0x4FE DUP6 DUP6 DUP6 PUSH2 0x1577 JUMP JUMPDEST PUSH1 0x1 SWAP2 POP POP SWAP4 SWAP3 POP POP POP JUMP JUMPDEST PUSH0 PUSH1 0x12 SWAP1 POP SWAP1 JUMP JUMPDEST PUSH0 DUP1 PUSH0 DUP6 GT PUSH2 0x51F JUMPI PUSH0 DUP1 REVERT JUMPDEST PUSH1 0x5 PUSH0 SWAP1 SLOAD SWAP1 PUSH2 0x100 EXP SWAP1 DIV PUSH20 0xFFFFFFFFFFFFFFFFFFFFFFFFFFFFFFFFFFFFFFFF AND PUSH20 0xFFFFFFFFFFFFFFFFFFFFFFFFFFFFFFFFFFFFFFFF AND DUP5 PUSH20 0xFFFFFFFFFFFFFFFFFFFFFFFFFFFFFFFFFFFFFFFF AND EQ DUP1 PUSH2 0x5C6 JUMPI POP PUSH1 0x6 PUSH0 SWAP1 SLOAD SWAP1 PUSH2 0x100 EXP SWAP1 DIV PUSH20 0xFFFFFFFFFFFFFFFFFFFFFFFFFFFFFFFFFFFFFFFF AND PUSH20 0xFFFFFFFFFFFFFFFFFFFFFFFFFFFFFFFFFFFFFFFF AND DUP5 PUSH20 0xFFFFFFFFFFFFFFFFFFFFFFFFFFFFFFFFFFFFFFFF AND EQ JUMPDEST PUSH2 0x5CE JUMPI PUSH0 DUP1 REVERT JUMPDEST PUSH0 PUSH1 0x5 PUSH0 SWAP1 SLOAD SWAP1 PUSH2 0x100 EXP SWAP1 DIV PUSH20 0xFFFFFFFFFFFFFFFFFFFFFFFFFFFFFFFFFFFFFFFF AND PUSH20 0xFFFFFFFFFFFFFFFFFFFFFFFFFFFFFFFFFFFFFFFF AND PUSH4 0x70A08231 ADDRESS PUSH1 0x40 MLOAD DUP3 PUSH4 0xFFFFFFFF AND PUSH1 0xE0 SHL DUP2 MSTORE PUSH1 0x4 ADD PUSH2 0x629 SWAP2 SWAP1 PUSH2 0x21F3 JUMP JUMPDEST PUSH1 0x20 PUSH1 0x40 MLOAD DUP1 DUP4 SUB DUP2 DUP7 GAS STATICCALL ISZERO DUP1 ISZERO PUSH2 0x644 JUMPI RETURNDATASIZE PUSH0 DUP1 RETURNDATACOPY RETURNDATASIZE PUSH0 REVERT JUMPDEST POP POP POP POP PUSH1 0x40 MLOAD RETURNDATASIZE PUSH1 0x1F NOT PUSH1 0x1F DUP3 ADD AND DUP3 ADD DUP1 PUSH1 0x40 MSTORE POP DUP2 ADD SWAP1 PUSH2 0x668 SWAP2 SWAP1 PUSH2 0x2220 JUMP JUMPDEST SWAP1 POP PUSH0 PUSH1 0x6 PUSH0 SWAP1 SLOAD SWAP1 PUSH2 0x100 EXP SWAP1 DIV PUSH20 0xFFFFFFFFFFFFFFFFFFFFFFFFFFFFFFFFFFFFFFFF AND PUSH20 0xFFFFFFFFFFFFFFFFFFFFFFFFFFFFFFFFFFFFFFFF AND PUSH4 0x70A08231 ADDRESS PUSH1 0x40 MLOAD DUP3 PUSH4 0xFFFFFFFF AND PUSH1 0xE0 SHL DUP2 MSTORE PUSH1 0x4 ADD PUSH2 0x6C5 SWAP2 SWAP1 PUSH2 0x21F3 JUMP JUMPDEST PUSH1 0x20 PUSH1 0x40 MLOAD DUP1 DUP4 SUB DUP2 DUP7 GAS STATICCALL ISZERO DUP1 ISZERO PUSH2 0x6E0 JUMPI RETURNDATASIZE PUSH0 DUP1 RETURNDATACOPY RETURNDATASIZE PUSH0 REVERT JUMPDEST POP POP POP POP PUSH1 0x40 MLOAD RETURNDATASIZE PUSH1 0x1F NOT PUSH1 0x1F DUP3 ADD AND DUP3 ADD DUP1 PUSH1 0x40 MSTORE POP DUP2 ADD SWAP1 PUSH2 0x704 SWAP2 SWAP1 PUSH2 0x2220 JUMP JUMPDEST SWAP1 POP PUSH1 0x5 PUSH0 SWAP1 SLOAD SWAP1 PUSH2 0x100 EXP SWAP1 DIV PUSH20 0xFFFFFFFFFFFFFFFFFFFFFFFFFFFFFFFFFFFFFFFF AND PUSH20 0xFFFFFFFFFFFFFFFFFFFFFFFFFFFFFFFFFFFFFFFF AND DUP7 PUSH20 0xFFFFFFFFFFFFFFFFFFFFFFFFFFFFFFFFFFFFFFFF AND SUB PUSH2 0x895 JUMPI PUSH1 0x6 PUSH0 SWAP1 SLOAD SWAP1 PUSH2 0x100 EXP SWAP1 DIV PUSH20 0xFFFFFFFFFFFFFFFFFFFFFFFFFFFFFFFFFFFFFFFF AND SWAP3 POP PUSH2 0x789 DUP8 DUP4 DUP4 PUSH2 0x3AF JUMP JUMPDEST SWAP4 POP DUP5 DUP5 GT PUSH2 0x796 JUMPI PUSH0 DUP1 REVERT JUMPDEST DUP6 PUSH20 0xFFFFFFFFFFFFFFFFFFFFFFFFFFFFFFFFFFFFFFFF AND PUSH4 0x23B872DD CALLER ADDRESS DUP11 PUSH1 0x40 MLOAD DUP5 PUSH4 0xFFFFFFFF AND PUSH1 0xE0 SHL DUP2 MSTORE PUSH1 0x4 ADD PUSH2 0x7D3 SWAP4 SWAP3 SWAP2 SWAP1 PUSH2 0x224B JUMP JUMPDEST PUSH1 0x20 PUSH1 0x40 MLOAD DUP1 DUP4 SUB DUP2 PUSH0 DUP8 GAS CALL ISZERO DUP1 ISZERO PUSH2 0x7EF JUMPI RETURNDATASIZE PUSH0 DUP1 RETURNDATACOPY RETURNDATASIZE PUSH0 REVERT JUMPDEST POP POP POP POP PUSH1 0x40 MLOAD RETURNDATASIZE PUSH1 0x1F NOT PUSH1 0x1F DUP3 ADD AND DUP3 ADD DUP1 PUSH1 0x40 MSTORE POP DUP2 ADD SWAP1 PUSH2 0x813 SWAP2 SWAP1 PUSH2 0x22AA JUMP JUMPDEST POP DUP3 PUSH20 0xFFFFFFFFFFFFFFFFFFFFFFFFFFFFFFFFFFFFFFFF AND PUSH4 0xA9059CBB CALLER DUP7 PUSH1 0x40 MLOAD DUP4 PUSH4 0xFFFFFFFF AND PUSH1 0xE0 SHL DUP2 MSTORE PUSH1 0x4 ADD PUSH2 0x84F SWAP3 SWAP2 SWAP1 PUSH2 0x22D5 JUMP JUMPDEST PUSH1 0x20 PUSH1 0x40 MLOAD DUP1 DUP4 SUB DUP2 PUSH0 DUP8 GAS CALL ISZERO DUP1 ISZERO PUSH2 0x86B JUMPI RETURNDATASIZE PUSH0 DUP1 RETURNDATACOPY RETURNDATASIZE PUSH0 REVERT JUMPDEST POP POP POP POP PUSH1 0x40 MLOAD RETURNDATASIZE PUSH1 0x1F NOT PUSH1 0x1F DUP3 ADD AND DUP3 ADD DUP1 PUSH1 0x40 MSTORE POP DUP2 ADD SWAP1 PUSH2 0x88F SWAP2 SWAP1 PUSH2 0x22AA JUMP JUMPDEST POP PUSH2 0x9CC JUMP JUMPDEST PUSH1 0x6 PUSH0 SWAP1 SLOAD SWAP1 PUSH2 0x100 EXP SWAP1 DIV PUSH20 0xFFFFFFFFFFFFFFFFFFFFFFFFFFFFFFFFFFFFFFFF AND SWAP6 POP PUSH2 0x8C4 DUP8 DUP3 DUP5 PUSH2 0x3AF JUMP JUMPDEST SWAP4 POP DUP5 DUP5 GT PUSH2 0x8D1 JUMPI PUSH0 DUP1 REVERT JUMPDEST DUP6 PUSH20 0xFFFFFFFFFFFFFFFFFFFFFFFFFFFFFFFFFFFFFFFF AND PUSH4 0x23B872DD CALLER ADDRESS DUP11 PUSH1 0x40 MLOAD DUP5 PUSH4 0xFFFFFFFF AND PUSH1 0xE0 SHL DUP2 MSTORE PUSH1 0x4 ADD PUSH2 0x90E SWAP4 SWAP3 SWAP2 SWAP1 PUSH2 0x224B JUMP JUMPDEST PUSH1 0x20 PUSH1 0x40 MLOAD DUP1 DUP4 SUB DUP2 PUSH0 DUP8 GAS CALL ISZERO DUP1 ISZERO PUSH2 0x92A JUMPI RETURNDATASIZE PUSH0 DUP1 RETURNDATACOPY RETURNDATASIZE PUSH0 REVERT JUMPDEST POP POP POP POP PUSH1 0x40 MLOAD RETURNDATASIZE PUSH1 0x1F NOT PUSH1 0x1F DUP3 ADD AND DUP3 ADD DUP1 PUSH1 0x40 MSTORE POP DUP2 ADD SWAP1 PUSH2 0x94E SWAP2 SWAP1 PUSH2 0x22AA JUMP JUMPDEST POP DUP3 PUSH20 0xFFFFFFFFFFFFFFFFFFFFFFFFFFFFFFFFFFFFFFFF AND PUSH4 0xA9059CBB CALLER DUP7 PUSH1 0x40 MLOAD DUP4 PUSH4 0xFFFFFFFF AND PUSH1 0xE0 SHL DUP2 MSTORE PUSH1 0x4 ADD PUSH2 0x98A SWAP3 SWAP2 SWAP1 PUSH2 0x22D5 JUMP JUMPDEST PUSH1 0x20 PUSH1 0x40 MLOAD DUP1 DUP4 SUB DUP2 PUSH0 DUP8 GAS CALL ISZERO DUP1 ISZERO PUSH2 0x9A6 JUMPI RETURNDATASIZE PUSH0 DUP1 RETURNDATACOPY RETURNDATASIZE PUSH0 REVERT JUMPDEST POP POP POP POP PUSH1 0x40 MLOAD RETURNDATASIZE PUSH1 0x1F NOT PUSH1 0x1F DUP3 ADD AND DUP3 ADD DUP1 PUSH1 0x40 MSTORE POP DUP2 ADD SWAP1 PUSH2 0x9CA SWAP2 SWAP1 PUSH2 0x22AA JUMP JUMPDEST POP JUMPDEST PUSH1 0x5 PUSH0 SWAP1 SLOAD SWAP1 PUSH2 0x100 EXP SWAP1 DIV PUSH20 0xFFFFFFFFFFFFFFFFFFFFFFFFFFFFFFFFFFFFFFFF AND PUSH20 0xFFFFFFFFFFFFFFFFFFFFFFFFFFFFFFFFFFFFFFFF AND PUSH4 0x70A08231 ADDRESS PUSH1 0x40 MLOAD DUP3 PUSH4 0xFFFFFFFF AND PUSH1 0xE0 SHL DUP2 MSTORE PUSH1 0x4 ADD PUSH2 0xA26 SWAP2 SWAP1 PUSH2 0x21F3 JUMP JUMPDEST PUSH1 0x20 PUSH1 0x40 MLOAD DUP1 DUP4 SUB DUP2 DUP7 GAS STATICCALL ISZERO DUP1 ISZERO PUSH2 0xA41 JUMPI RETURNDATASIZE PUSH0 DUP1 RETURNDATACOPY RETURNDATASIZE PUSH0 REVERT JUMPDEST POP POP POP POP PUSH1 0x40 MLOAD RETURNDATASIZE PUSH1 0x1F NOT PUSH1 0x1F DUP3 ADD AND DUP3 ADD DUP1 PUSH1 0x40 MSTORE POP DUP2 ADD SWAP1 PUSH2 0xA65 SWAP2 SWAP1 PUSH2 0x2220 JUMP JUMPDEST PUSH1 0x7 DUP2 SWAP1 SSTORE POP PUSH1 0x6 PUSH0 SWAP1 SLOAD SWAP1 PUSH2 0x100 EXP SWAP1 DIV PUSH20 0xFFFFFFFFFFFFFFFFFFFFFFFFFFFFFFFFFFFFFFFF AND PUSH20 0xFFFFFFFFFFFFFFFFFFFFFFFFFFFFFFFFFFFFFFFF AND PUSH4 0x70A08231 ADDRESS PUSH1 0x40 MLOAD DUP3 PUSH4 0xFFFFFFFF AND PUSH1 0xE0 SHL DUP2 MSTORE PUSH1 0x4 ADD PUSH2 0xAC5 SWAP2 SWAP1 PUSH2 0x21F3 JUMP JUMPDEST PUSH1 0x20 PUSH1 0x40 MLOAD DUP1 DUP4 SUB DUP2 DUP7 GAS STATICCALL ISZERO DUP1 ISZERO PUSH2 0xAE0 JUMPI RETURNDATASIZE PUSH0 DUP1 RETURNDATACOPY RETURNDATASIZE PUSH0 REVERT JUMPDEST POP POP POP POP PUSH1 0x40 MLOAD RETURNDATASIZE PUSH1 0x1F NOT PUSH1 0x1F DUP3 ADD AND DUP3 ADD DUP1 PUSH1 0x40 MSTORE POP DUP2 ADD SWAP1 PUSH2 0xB04 SWAP2 SWAP1 PUSH2 0x2220 JUMP JUMPDEST PUSH1 0x8 DUP2 SWAP1 SSTORE POP CALLER PUSH20 0xFFFFFFFFFFFFFFFFFFFFFFFFFFFFFFFFFFFFFFFF AND PUSH32 0x24043855BFBFEA0CCEA141E5A73D7116BF0BFE083EA900A791F4B407FF03E525 DUP9 DUP9 DUP8 DUP8 PUSH1 0x40 MLOAD PUSH2 0xB56 SWAP5 SWAP4 SWAP3 SWAP2 SWAP1 PUSH2 0x22FC JUMP JUMPDEST PUSH1 0x40 MLOAD DUP1 SWAP2 SUB SWAP1 LOG2 POP POP SWAP4 POP SWAP4 SWAP2 POP POP JUMP JUMPDEST PUSH1 0x7 SLOAD DUP2 JUMP JUMPDEST PUSH0 DUP1 PUSH0 DUP4 PUSH20 0xFFFFFFFFFFFFFFFFFFFFFFFFFFFFFFFFFFFFFFFF AND PUSH20 0xFFFFFFFFFFFFFFFFFFFFFFFFFFFFFFFFFFFFFFFF AND DUP2 MSTORE PUSH1 0x20 ADD SWAP1 DUP2 MSTORE PUSH1 0x20 ADD PUSH0 KECCAK256 SLOAD SWAP1 POP SWAP2 SWAP1 POP JUMP JUMPDEST PUSH1 0x60 PUSH1 0x4 DUP1 SLOAD PUSH2 0xBC2 SWAP1 PUSH2 0x21B4 JUMP JUMPDEST DUP1 PUSH1 0x1F ADD PUSH1 0x20 DUP1 SWAP2 DIV MUL PUSH1 0x20 ADD PUSH1 0x40 MLOAD SWAP1 DUP2 ADD PUSH1 0x40 MSTORE DUP1 SWAP3 SWAP2 SWAP1 DUP2 DUP2 MSTORE PUSH1 0x20 ADD DUP3 DUP1 SLOAD PUSH2 0xBEE SWAP1 PUSH2 0x21B4 JUMP JUMPDEST DUP1 ISZERO PUSH2 0xC39 JUMPI DUP1 PUSH1 0x1F LT PUSH2 0xC10 JUMPI PUSH2 0x100 DUP1 DUP4 SLOAD DIV MUL DUP4 MSTORE SWAP2 PUSH1 0x20 ADD SWAP2 PUSH2 0xC39 JUMP JUMPDEST DUP3 ADD SWAP2 SWAP1 PUSH0 MSTORE PUSH1 0x20 PUSH0 KECCAK256 SWAP1 JUMPDEST DUP2 SLOAD DUP2 MSTORE SWAP1 PUSH1 0x1 ADD SWAP1 PUSH1 0x20 ADD DUP1 DUP4 GT PUSH2 0xC1C JUMPI DUP3 SWAP1 SUB PUSH1 0x1F AND DUP3 ADD SWAP2 JUMPDEST POP POP POP POP POP SWAP1 POP SWAP1 JUMP JUMPDEST PUSH0 DUP1 PUSH0 PUSH1 0x5 PUSH0 SWAP1 SLOAD SWAP1 PUSH2 0x100 EXP SWAP1 DIV PUSH20 0xFFFFFFFFFFFFFFFFFFFFFFFFFFFFFFFFFFFFFFFF AND PUSH20 0xFFFFFFFFFFFFFFFFFFFFFFFFFFFFFFFFFFFFFFFF AND PUSH4 0x70A08231 ADDRESS PUSH1 0x40 MLOAD DUP3 PUSH4 0xFFFFFFFF AND PUSH1 0xE0 SHL DUP2 MSTORE PUSH1 0x4 ADD PUSH2 0xCA0 SWAP2 SWAP1 PUSH2 0x21F3 JUMP JUMPDEST PUSH1 0x20 PUSH1 0x40 MLOAD DUP1 DUP4 SUB DUP2 DUP7 GAS STATICCALL ISZERO DUP1 ISZERO PUSH2 0xCBB JUMPI RETURNDATASIZE PUSH0 DUP1 RETURNDATACOPY RETURNDATASIZE PUSH0 REVERT JUMPDEST POP POP POP POP PUSH1 0x40 MLOAD RETURNDATASIZE PUSH1 0x1F NOT PUSH1 0x1F DUP3 ADD AND DUP3 ADD DUP1 PUSH1 0x40 MSTORE POP DUP2 ADD SWAP1 PUSH2 0xCDF SWAP2 SWAP1 PUSH2 0x2220 JUMP JUMPDEST SWAP1 POP PUSH0 PUSH1 0x6 PUSH0 SWAP1 SLOAD SWAP1 PUSH2 0x100 EXP SWAP1 DIV PUSH20 0xFFFFFFFFFFFFFFFFFFFFFFFFFFFFFFFFFFFFFFFF AND PUSH20 0xFFFFFFFFFFFFFFFFFFFFFFFFFFFFFFFFFFFFFFFF AND PUSH4 0x70A08231 ADDRESS PUSH1 0x40 MLOAD DUP3 PUSH4 0xFFFFFFFF AND PUSH1 0xE0 SHL DUP2 MSTORE PUSH1 0x4 ADD PUSH2 0xD3C SWAP2 SWAP1 PUSH2 0x21F3 JUMP JUMPDEST PUSH1 0x20 PUSH1 0x40 MLOAD DUP1 DUP4 SUB DUP2 DUP7 GAS STATICCALL ISZERO DUP1 ISZERO PUSH2 0xD57 JUMPI RETURNDATASIZE PUSH0 DUP1 RETURNDATACOPY RETURNDATASIZE PUSH0 REVERT JUMPDEST POP POP POP POP PUSH1 0x40 MLOAD RETURNDATASIZE PUSH1 0x1F NOT PUSH1 0x1F DUP3 ADD AND DUP3 ADD DUP1 PUSH1 0x40 MSTORE POP DUP2 ADD SWAP1 PUSH2 0xD7B SWAP2 SWAP1 PUSH2 0x2220 JUMP JUMPDEST SWAP1 POP PUSH0 PUSH2 0xD86 PUSH2 0x4D3 JUMP JUMPDEST SWAP1 POP DUP1 DUP4 DUP8 PUSH2 0xD95 SWAP2 SWAP1 PUSH2 0x20E9 JUMP JUMPDEST PUSH2 0xD9F SWAP2 SWAP1 PUSH2 0x2157 JUMP JUMPDEST SWAP5 POP DUP1 DUP3 DUP8 PUSH2 0xDAE SWAP2 SWAP1 PUSH2 0x20E9 JUMP JUMPDEST PUSH2 0xDB8 SWAP2 SWAP1 PUSH2 0x2157 JUMP JUMPDEST SWAP4 POP PUSH0 DUP6 GT DUP1 ISZERO PUSH2 0xDC8 JUMPI POP PUSH0 DUP5 GT JUMPDEST PUSH2 0xDD0 JUMPI PUSH0 DUP1 REVERT JUMPDEST PUSH2 0xDDA CALLER DUP8 PUSH2 0x1667 JUMP JUMPDEST PUSH1 0x5 PUSH0 SWAP1 SLOAD SWAP1 PUSH2 0x100 EXP SWAP1 DIV PUSH20 0xFFFFFFFFFFFFFFFFFFFFFFFFFFFFFFFFFFFFFFFF AND PUSH20 0xFFFFFFFFFFFFFFFFFFFFFFFFFFFFFFFFFFFFFFFF AND PUSH4 0xA9059CBB CALLER DUP8 PUSH1 0x40 MLOAD DUP4 PUSH4 0xFFFFFFFF AND PUSH1 0xE0 SHL DUP2 MSTORE PUSH1 0x4 ADD PUSH2 0xE36 SWAP3 SWAP2 SWAP1 PUSH2 0x22D5 JUMP JUMPDEST PUSH1 0x20 PUSH1 0x40 MLOAD DUP1 DUP4 SUB DUP2 PUSH0 DUP8 GAS CALL ISZERO DUP1 ISZERO PUSH2 0xE52 JUMPI RETURNDATASIZE PUSH0 DUP1 RETURNDATACOPY RETURNDATASIZE PUSH0 REVERT JUMPDEST POP POP POP POP PUSH1 0x40 MLOAD RETURNDATASIZE PUSH1 0x1F NOT PUSH1 0x1F DUP3 ADD AND DUP3 ADD DUP1 PUSH1 0x40 MSTORE POP DUP2 ADD SWAP1 PUSH2 0xE76 SWAP2 SWAP1 PUSH2 0x22AA JUMP JUMPDEST POP PUSH1 0x6 PUSH0 SWAP1 SLOAD SWAP1 PUSH2 0x100 EXP SWAP1 DIV PUSH20 0xFFFFFFFFFFFFFFFFFFFFFFFFFFFFFFFFFFFFFFFF AND PUSH20 0xFFFFFFFFFFFFFFFFFFFFFFFFFFFFFFFFFFFFFFFF AND PUSH4 0xA9059CBB CALLER DUP7 PUSH1 0x40 MLOAD DUP4 PUSH4 0xFFFFFFFF AND PUSH1 0xE0 SHL DUP2 MSTORE PUSH1 0x4 ADD PUSH2 0xED3 SWAP3 SWAP2 SWAP1 PUSH2 0x22D5 JUMP JUMPDEST PUSH1 0x20 PUSH1 0x40 MLOAD DUP1 DUP4 SUB DUP2 PUSH0 DUP8 GAS CALL ISZERO DUP1 ISZERO PUSH2 0xEEF JUMPI RETURNDATASIZE PUSH0 DUP1 RETURNDATACOPY RETURNDATASIZE PUSH0 REVERT JUMPDEST POP POP POP POP PUSH1 0x40 MLOAD RETURNDATASIZE PUSH1 0x1F NOT PUSH1 0x1F DUP3 ADD AND DUP3 ADD DUP1 PUSH1 0x40 MSTORE POP DUP2 ADD SWAP1 PUSH2 0xF13 SWAP2 SWAP1 PUSH2 0x22AA JUMP JUMPDEST POP PUSH1 0x5 PUSH0 SWAP1 SLOAD SWAP1 PUSH2 0x100 EXP SWAP1 DIV PUSH20 0xFFFFFFFFFFFFFFFFFFFFFFFFFFFFFFFFFFFFFFFF AND PUSH20 0xFFFFFFFFFFFFFFFFFFFFFFFFFFFFFFFFFFFFFFFF AND PUSH4 0x70A08231 ADDRESS PUSH1 0x40 MLOAD DUP3 PUSH4 0xFFFFFFFF AND PUSH1 0xE0 SHL DUP2 MSTORE PUSH1 0x4 ADD PUSH2 0xF6E SWAP2 SWAP1 PUSH2 0x21F3 JUMP JUMPDEST PUSH1 0x20 PUSH1 0x40 MLOAD DUP1 DUP4 SUB DUP2 DUP7 GAS STATICCALL ISZERO DUP1 ISZERO PUSH2 0xF89 JUMPI RETURNDATASIZE PUSH0 DUP1 RETURNDATACOPY RETURNDATASIZE PUSH0 REVERT JUMPDEST POP POP POP POP PUSH1 0x40 MLOAD RETURNDATASIZE PUSH1 0x1F NOT PUSH1 0x1F DUP3 ADD AND DUP3 ADD DUP1 PUSH1 0x40 MSTORE POP DUP2 ADD SWAP1 PUSH2 0xFAD SWAP2 SWAP1 PUSH2 0x2220 JUMP JUMPDEST PUSH1 0x7 DUP2 SWAP1 SSTORE POP PUSH1 0x6 PUSH0 SWAP1 SLOAD SWAP1 PUSH2 0x100 EXP SWAP1 DIV PUSH20 0xFFFFFFFFFFFFFFFFFFFFFFFFFFFFFFFFFFFFFFFF AND PUSH20 0xFFFFFFFFFFFFFFFFFFFFFFFFFFFFFFFFFFFFFFFF AND PUSH4 0x70A08231 ADDRESS PUSH1 0x40 MLOAD DUP3 PUSH4 0xFFFFFFFF AND PUSH1 0xE0 SHL DUP2 MSTORE PUSH1 0x4 ADD PUSH2 0x100D SWAP2 SWAP1 PUSH2 0x21F3 JUMP JUMPDEST PUSH1 0x20 PUSH1 0x40 MLOAD DUP1 DUP4 SUB DUP2 DUP7 GAS STATICCALL ISZERO DUP1 ISZERO PUSH2 0x1028 JUMPI RETURNDATASIZE PUSH0 DUP1 RETURNDATACOPY RETURNDATASIZE PUSH0 REVERT JUMPDEST POP POP POP POP PUSH1 0x40 MLOAD RETURNDATASIZE PUSH1 0x1F NOT PUSH1 0x1F DUP3 ADD AND DUP3 ADD DUP1 PUSH1 0x40 MSTORE POP DUP2 ADD SWAP1 PUSH2 0x104C SWAP2 SWAP1 PUSH2 0x2220 JUMP JUMPDEST PUSH1 0x8 DUP2 SWAP1 SSTORE POP CALLER PUSH20 0xFFFFFFFFFFFFFFFFFFFFFFFFFFFFFFFFFFFFFFFF AND PUSH32 0x49995E5DD6158CF69AD3E9777C46755A1A826A446C6416992167462DAD033B2A DUP7 DUP7 PUSH1 0x40 MLOAD PUSH2 0x109A SWAP3 SWAP2 SWAP1 PUSH2 0x1FE6 JUMP JUMPDEST PUSH1 0x40 MLOAD DUP1 SWAP2 SUB SWAP1 LOG2 POP POP POP SWAP2 POP SWAP2 JUMP JUMPDEST PUSH0 PUSH1 0x5 PUSH0 SWAP1 SLOAD SWAP1 PUSH2 0x100 EXP SWAP1 DIV PUSH20 0xFFFFFFFFFFFFFFFFFFFFFFFFFFFFFFFFFFFFFFFF AND PUSH20 0xFFFFFFFFFFFFFFFFFFFFFFFFFFFFFFFFFFFFFFFF AND PUSH4 0x23B872DD CALLER ADDRESS DUP7 PUSH1 0x40 MLOAD DUP5 PUSH4 0xFFFFFFFF AND PUSH1 0xE0 SHL DUP2 MSTORE PUSH1 0x4 ADD PUSH2 0x1109 SWAP4 SWAP3 SWAP2 SWAP1 PUSH2 0x224B JUMP JUMPDEST PUSH1 0x20 PUSH1 0x40 MLOAD DUP1 DUP4 SUB DUP2 PUSH0 DUP8 GAS CALL ISZERO DUP1 ISZERO PUSH2 0x1125 JUMPI RETURNDATASIZE PUSH0 DUP1 RETURNDATACOPY RETURNDATASIZE PUSH0 REVERT JUMPDEST POP POP POP POP PUSH1 0x40 MLOAD RETURNDATASIZE PUSH1 0x1F NOT PUSH1 0x1F DUP3 ADD AND DUP3 ADD DUP1 PUSH1 0x40 MSTORE POP DUP2 ADD SWAP1 PUSH2 0x1149 SWAP2 SWAP1 PUSH2 0x22AA JUMP JUMPDEST POP PUSH1 0x6 PUSH0 SWAP1 SLOAD SWAP1 PUSH2 0x100 EXP SWAP1 DIV PUSH20 0xFFFFFFFFFFFFFFFFFFFFFFFFFFFFFFFFFFFFFFFF AND PUSH20 0xFFFFFFFFFFFFFFFFFFFFFFFFFFFFFFFFFFFFFFFF AND PUSH4 0x23B872DD CALLER ADDRESS DUP6 PUSH1 0x40 MLOAD DUP5 PUSH4 0xFFFFFFFF AND PUSH1 0xE0 SHL DUP2 MSTORE PUSH1 0x4 ADD PUSH2 0x11A8 SWAP4 SWAP3 SWAP2 SWAP1 PUSH2 0x224B JUMP JUMPDEST PUSH1 0x20 PUSH1 0x40 MLOAD DUP1 DUP4 SUB DUP2 PUSH0 DUP8 GAS CALL ISZERO DUP1 ISZERO PUSH2 0x11C4 JUMPI RETURNDATASIZE PUSH0 DUP1 RETURNDATACOPY RETURNDATASIZE PUSH0 REVERT JUMPDEST POP POP POP POP PUSH1 0x40 MLOAD RETURNDATASIZE PUSH1 0x1F NOT PUSH1 0x1F DUP3 ADD AND DUP3 ADD DUP1 PUSH1 0x40 MSTORE POP DUP2 ADD SWAP1 PUSH2 0x11E8 SWAP2 SWAP1 PUSH2 0x22AA JUMP JUMPDEST POP PUSH0 PUSH2 0x11F2 PUSH2 0x4D3 JUMP JUMPDEST SWAP1 POP PUSH0 DUP2 SUB PUSH2 0x1216 JUMPI PUSH2 0x120F DUP4 DUP6 PUSH2 0x120A SWAP2 SWAP1 PUSH2 0x20E9 JUMP JUMPDEST PUSH2 0x16E6 JUMP JUMPDEST SWAP2 POP PUSH2 0x1253 JUMP JUMPDEST PUSH2 0x1250 PUSH1 0x7 SLOAD DUP3 DUP7 PUSH2 0x1228 SWAP2 SWAP1 PUSH2 0x20E9 JUMP JUMPDEST PUSH2 0x1232 SWAP2 SWAP1 PUSH2 0x2157 JUMP JUMPDEST PUSH1 0x8 SLOAD DUP4 DUP7 PUSH2 0x1241 SWAP2 SWAP1 PUSH2 0x20E9 JUMP JUMPDEST PUSH2 0x124B SWAP2 SWAP1 PUSH2 0x2157 JUMP JUMPDEST PUSH2 0x175D JUMP JUMPDEST SWAP2 POP JUMPDEST PUSH0 DUP3 GT PUSH2 0x125E JUMPI PUSH0 DUP1 REVERT JUMPDEST PUSH1 0x5 PUSH0 SWAP1 SLOAD SWAP1 PUSH2 0x100 EXP SWAP1 DIV PUSH20 0xFFFFFFFFFFFFFFFFFFFFFFFFFFFFFFFFFFFFFFFF AND PUSH20 0xFFFFFFFFFFFFFFFFFFFFFFFFFFFFFFFFFFFFFFFF AND PUSH4 0x70A08231 ADDRESS PUSH1 0x40 MLOAD DUP3 PUSH4 0xFFFFFFFF AND PUSH1 0xE0 SHL DUP2 MSTORE PUSH1 0x4 ADD PUSH2 0x12B8 SWAP2 SWAP1 PUSH2 0x21F3 JUMP JUMPDEST PUSH1 0x20 PUSH1 0x40 MLOAD DUP1 DUP4 SUB DUP2 DUP7 GAS STATICCALL ISZERO DUP1 ISZERO PUSH2 0x12D3 JUMPI RETURNDATASIZE PUSH0 DUP1 RETURNDATACOPY RETURNDATASIZE PUSH0 REVERT JUMPDEST POP POP POP POP PUSH1 0x40 MLOAD RETURNDATASIZE PUSH1 0x1F NOT PUSH1 0x1F DUP3 ADD AND DUP3 ADD DUP1 PUSH1 0x40 MSTORE POP DUP2 ADD SWAP1 PUSH2 0x12F7 SWAP2 SWAP1 PUSH2 0x2220 JUMP JUMPDEST PUSH1 0x7 DUP2 SWAP1 SSTORE POP PUSH1 0x6 PUSH0 SWAP1 SLOAD SWAP1 PUSH2 0x100 EXP SWAP1 DIV PUSH20 0xFFFFFFFFFFFFFFFFFFFFFFFFFFFFFFFFFFFFFFFF AND PUSH20 0xFFFFFFFFFFFFFFFFFFFFFFFFFFFFFFFFFFFFFFFF AND PUSH4 0x70A08231 ADDRESS PUSH1 0x40 MLOAD DUP3 PUSH4 0xFFFFFFFF AND PUSH1 0xE0 SHL DUP2 MSTORE PUSH1 0x4 ADD PUSH2 0x1357 SWAP2 SWAP1 PUSH2 0x21F3 JUMP JUMPDEST PUSH1 0x20 PUSH1 0x40 MLOAD DUP1 DUP4 SUB DUP2 DUP7 GAS STATICCALL ISZERO DUP1 ISZERO PUSH2 0x1372 JUMPI RETURNDATASIZE PUSH0 DUP1 RETURNDATACOPY RETURNDATASIZE PUSH0 REVERT JUMPDEST POP POP POP POP PUSH1 0x40 MLOAD RETURNDATASIZE PUSH1 0x1F NOT PUSH1 0x1F DUP3 ADD AND DUP3 ADD DUP1 PUSH1 0x40 MSTORE POP DUP2 ADD SWAP1 PUSH2 0x1396 SWAP2 SWAP1 PUSH2 0x2220 JUMP JUMPDEST PUSH1 0x8 DUP2 SWAP1 SSTORE POP PUSH2 0x13A6 CALLER DUP4 PUSH2 0x1775 JUMP JUMPDEST CALLER PUSH20 0xFFFFFFFFFFFFFFFFFFFFFFFFFFFFFFFFFFFFFFFF AND PUSH32 0x4C209B5FC8AD50758F13E2E1088BA56A560DFF690A1C6FEF26394F4C03821C4F DUP6 DUP6 PUSH1 0x40 MLOAD PUSH2 0x13EE SWAP3 SWAP2 SWAP1 PUSH2 0x1FE6 JUMP JUMPDEST PUSH1 0x40 MLOAD DUP1 SWAP2 SUB SWAP1 LOG2 POP SWAP3 SWAP2 POP POP JUMP JUMPDEST PUSH0 DUP1 PUSH2 0x1407 PUSH2 0x14CC JUMP JUMPDEST SWAP1 POP PUSH2 0x1414 DUP2 DUP6 DUP6 PUSH2 0x1577 JUMP JUMPDEST PUSH1 0x1 SWAP2 POP POP SWAP3 SWAP2 POP POP JUMP JUMPDEST PUSH1 0x6 PUSH0 SWAP1 SLOAD SWAP1 PUSH2 0x100 EXP SWAP1 DIV PUSH20 0xFFFFFFFFFFFFFFFFFFFFFFFFFFFFFFFFFFFFFFFF AND DUP2 JUMP JUMPDEST PUSH0 PUSH1 0x1 PUSH0 DUP5 PUSH20 0xFFFFFFFFFFFFFFFFFFFFFFFFFFFFFFFFFFFFFFFF AND PUSH20 0xFFFFFFFFFFFFFFFFFFFFFFFFFFFFFFFFFFFFFFFF AND DUP2 MSTORE PUSH1 0x20 ADD SWAP1 DUP2 MSTORE PUSH1 0x20 ADD PUSH0 KECCAK256 PUSH0 DUP4 PUSH20 0xFFFFFFFFFFFFFFFFFFFFFFFFFFFFFFFFFFFFFFFF AND PUSH20 0xFFFFFFFFFFFFFFFFFFFFFFFFFFFFFFFFFFFFFFFF AND DUP2 MSTORE PUSH1 0x20 ADD SWAP1 DUP2 MSTORE PUSH1 0x20 ADD PUSH0 KECCAK256 SLOAD SWAP1 POP SWAP3 SWAP2 POP POP JUMP JUMPDEST PUSH1 0x8 SLOAD DUP2 JUMP JUMPDEST PUSH0 CALLER SWAP1 POP SWAP1 JUMP JUMPDEST PUSH2 0x14E0 DUP4 DUP4 DUP4 PUSH1 0x1 PUSH2 0x17F4 JUMP JUMPDEST POP POP POP JUMP JUMPDEST PUSH0 PUSH2 0x14F0 DUP5 DUP5 PUSH2 0x1444 JUMP JUMPDEST SWAP1 POP PUSH32 0xFFFFFFFFFFFFFFFFFFFFFFFFFFFFFFFFFFFFFFFFFFFFFFFFFFFFFFFFFFFFFFFF DUP2 EQ PUSH2 0x1571 JUMPI DUP2 DUP2 LT ISZERO PUSH2 0x1562 JUMPI DUP3 DUP2 DUP4 PUSH1 0x40 MLOAD PUSH32 0xFB8F41B200000000000000000000000000000000000000000000000000000000 DUP2 MSTORE PUSH1 0x4 ADD PUSH2 0x1559 SWAP4 SWAP3 SWAP2 SWAP1 PUSH2 0x233F JUMP JUMPDEST PUSH1 0x40 MLOAD DUP1 SWAP2 SUB SWAP1 REVERT JUMPDEST PUSH2 0x1570 DUP5 DUP5 DUP5 DUP5 SUB PUSH0 PUSH2 0x17F4 JUMP JUMPDEST JUMPDEST POP POP POP POP JUMP JUMPDEST PUSH0 PUSH20 0xFFFFFFFFFFFFFFFFFFFFFFFFFFFFFFFFFFFFFFFF AND DUP4 PUSH20 0xFFFFFFFFFFFFFFFFFFFFFFFFFFFFFFFFFFFFFFFF AND SUB PUSH2 0x15E7 JUMPI PUSH0 PUSH1 0x40 MLOAD PUSH32 0x96C6FD1E00000000000000000000000000000000000000000000000000000000 DUP2 MSTORE PUSH1 0x4 ADD PUSH2 0x15DE SWAP2 SWAP1 PUSH2 0x21F3 JUMP JUMPDEST PUSH1 0x40 MLOAD DUP1 SWAP2 SUB SWAP1 REVERT JUMPDEST PUSH0 PUSH20 0xFFFFFFFFFFFFFFFFFFFFFFFFFFFFFFFFFFFFFFFF AND DUP3 PUSH20 0xFFFFFFFFFFFFFFFFFFFFFFFFFFFFFFFFFFFFFFFF AND SUB PUSH2 0x1657 JUMPI PUSH0 PUSH1 0x40 MLOAD PUSH32 0xEC442F0500000000000000000000000000000000000000000000000000000000 DUP2 MSTORE PUSH1 0x4 ADD PUSH2 0x164E SWAP2 SWAP1 PUSH2 0x21F3 JUMP JUMPDEST PUSH1 0x40 MLOAD DUP1 SWAP2 SUB SWAP1 REVERT JUMPDEST PUSH2 0x1662 DUP4 DUP4 DUP4 PUSH2 0x19C3 JUMP JUMPDEST POP POP POP JUMP JUMPDEST PUSH0 PUSH20 0xFFFFFFFFFFFFFFFFFFFFFFFFFFFFFFFFFFFFFFFF AND DUP3 PUSH20 0xFFFFFFFFFFFFFFFFFFFFFFFFFFFFFFFFFFFFFFFF AND SUB PUSH2 0x16D7 JUMPI PUSH0 PUSH1 0x40 MLOAD PUSH32 0x96C6FD1E00000000000000000000000000000000000000000000000000000000 DUP2 MSTORE PUSH1 0x4 ADD PUSH2 0x16CE SWAP2 SWAP1 PUSH2 0x21F3 JUMP JUMPDEST PUSH1 0x40 MLOAD DUP1 SWAP2 SUB SWAP1 REVERT JUMPDEST PUSH2 0x16E2 DUP3 PUSH0 DUP4 PUSH2 0x19C3 JUMP JUMPDEST POP POP JUMP JUMPDEST PUSH0 PUSH1 0x3 DUP3 GT ISZERO PUSH2 0x174B JUMPI DUP2 SWAP1 POP PUSH0 PUSH1 0x1 PUSH1 0x2 DUP5 PUSH2 0x1703 SWAP2 SWAP1 PUSH2 0x2157 JUMP JUMPDEST PUSH2 0x170D SWAP2 SWAP1 PUSH2 0x20B6 JUMP JUMPDEST SWAP1 POP JUMPDEST DUP2 DUP2 LT ISZERO PUSH2 0x1745 JUMPI DUP1 SWAP2 POP PUSH1 0x2 DUP2 DUP3 DUP6 PUSH2 0x172A SWAP2 SWAP1 PUSH2 0x2157 JUMP JUMPDEST PUSH2 0x1734 SWAP2 SWAP1 PUSH2 0x20B6 JUMP JUMPDEST PUSH2 0x173E SWAP2 SWAP1 PUSH2 0x2157 JUMP JUMPDEST SWAP1 POP PUSH2 0x1710 JUMP JUMPDEST POP PUSH2 0x1758 JUMP JUMPDEST PUSH0 DUP3 EQ PUSH2 0x1757 JUMPI PUSH1 0x1 SWAP1 POP JUMPDEST JUMPDEST SWAP2 SWAP1 POP JUMP JUMPDEST PUSH0 DUP2 DUP4 GT PUSH2 0x176B JUMPI DUP3 PUSH2 0x176D JUMP JUMPDEST DUP2 JUMPDEST SWAP1 POP SWAP3 SWAP2 POP POP JUMP JUMPDEST PUSH0 PUSH20 0xFFFFFFFFFFFFFFFFFFFFFFFFFFFFFFFFFFFFFFFF AND DUP3 PUSH20 0xFFFFFFFFFFFFFFFFFFFFFFFFFFFFFFFFFFFFFFFF AND SUB PUSH2 0x17E5 JUMPI PUSH0 PUSH1 0x40 MLOAD PUSH32 0xEC442F0500000000000000000000000000000000000000000000000000000000 DUP2 MSTORE PUSH1 0x4 ADD PUSH2 0x17DC SWAP2 SWAP1 PUSH2 0x21F3 JUMP JUMPDEST PUSH1 0x40 MLOAD DUP1 SWAP2 SUB SWAP1 REVERT JUMPDEST PUSH2 0x17F0 PUSH0 DUP4 DUP4 PUSH2 0x19C3 JUMP JUMPDEST POP POP JUMP JUMPDEST PUSH0 PUSH20 0xFFFFFFFFFFFFFFFFFFFFFFFFFFFFFFFFFFFFFFFF AND DUP5 PUSH20 0xFFFFFFFFFFFFFFFFFFFFFFFFFFFFFFFFFFFFFFFF AND SUB PUSH2 0x1864 JUMPI PUSH0 PUSH1 0x40 MLOAD PUSH32 0xE602DF0500000000000000000000000000000000000000000000000000000000 DUP2 MSTORE PUSH1 0x4 ADD PUSH2 0x185B SWAP2 SWAP1 PUSH2 0x21F3 JUMP JUMPDEST PUSH1 0x40 MLOAD DUP1 SWAP2 SUB SWAP1 REVERT JUMPDEST PUSH0 PUSH20 0xFFFFFFFFFFFFFFFFFFFFFFFFFFFFFFFFFFFFFFFF AND DUP4 PUSH20 0xFFFFFFFFFFFFFFFFFFFFFFFFFFFFFFFFFFFFFFFF AND SUB PUSH2 0x18D4 JUMPI PUSH0 PUSH1 0x40 MLOAD PUSH32 0x94280D6200000000000000000000000000000000000000000000000000000000 DUP2 MSTORE PUSH1 0x4 ADD PUSH2 0x18CB SWAP2 SWAP1 PUSH2 0x21F3 JUMP JUMPDEST PUSH1 0x40 MLOAD DUP1 SWAP2 SUB SWAP1 REVERT JUMPDEST DUP2 PUSH1 0x1 PUSH0 DUP7 PUSH20 0xFFFFFFFFFFFFFFFFFFFFFFFFFFFFFFFFFFFFFFFF AND PUSH20 0xFFFFFFFFFFFFFFFFFFFFFFFFFFFFFFFFFFFFFFFF AND DUP2 MSTORE PUSH1 0x20 ADD SWAP1 DUP2 MSTORE PUSH1 0x20 ADD PUSH0 KECCAK256 PUSH0 DUP6 PUSH20 0xFFFFFFFFFFFFFFFFFFFFFFFFFFFFFFFFFFFFFFFF AND PUSH20 0xFFFFFFFFFFFFFFFFFFFFFFFFFFFFFFFFFFFFFFFF AND DUP2 MSTORE PUSH1 0x20 ADD SWAP1 DUP2 MSTORE PUSH1 0x20 ADD PUSH0 KECCAK256 DUP2 SWAP1 SSTORE POP DUP1 ISZERO PUSH2 0x19BD JUMPI DUP3 PUSH20 0xFFFFFFFFFFFFFFFFFFFFFFFFFFFFFFFFFFFFFFFF AND DUP5 PUSH20 0xFFFFFFFFFFFFFFFFFFFFFFFFFFFFFFFFFFFFFFFF AND PUSH32 0x8C5BE1E5EBEC7D5BD14F71427D1E84F3DD0314C0F7B2291E5B200AC8C7C3B925 DUP5 PUSH1 0x40 MLOAD PUSH2 0x19B4 SWAP2 SWAP1 PUSH2 0x1C72 JUMP JUMPDEST PUSH1 0x40 MLOAD DUP1 SWAP2 SUB SWAP1 LOG3 JUMPDEST POP POP POP POP JUMP JUMPDEST PUSH0 PUSH20 0xFFFFFFFFFFFFFFFFFFFFFFFFFFFFFFFFFFFFFFFF AND DUP4 PUSH20 0xFFFFFFFFFFFFFFFFFFFFFFFFFFFFFFFFFFFFFFFF AND SUB PUSH2 0x1A13 JUMPI DUP1 PUSH1 0x2 PUSH0 DUP3 DUP3 SLOAD PUSH2 0x1A07 SWAP2 SWAP1 PUSH2 0x20B6 JUMP JUMPDEST SWAP3 POP POP DUP2 SWAP1 SSTORE POP PUSH2 0x1AE1 JUMP JUMPDEST PUSH0 DUP1 PUSH0 DUP6 PUSH20 0xFFFFFFFFFFFFFFFFFFFFFFFFFFFFFFFFFFFFFFFF AND PUSH20 0xFFFFFFFFFFFFFFFFFFFFFFFFFFFFFFFFFFFFFFFF AND DUP2 MSTORE PUSH1 0x20 ADD SWAP1 DUP2 MSTORE PUSH1 0x20 ADD PUSH0 KECCAK256 SLOAD SWAP1 POP DUP2 DUP2 LT ISZERO PUSH2 0x1A9C JUMPI DUP4 DUP2 DUP4 PUSH1 0x40 MLOAD PUSH32 0xE450D38C00000000000000000000000000000000000000000000000000000000 DUP2 MSTORE PUSH1 0x4 ADD PUSH2 0x1A93 SWAP4 SWAP3 SWAP2 SWAP1 PUSH2 0x233F JUMP JUMPDEST PUSH1 0x40 MLOAD DUP1 SWAP2 SUB SWAP1 REVERT JUMPDEST DUP2 DUP2 SUB PUSH0 DUP1 DUP7 PUSH20 0xFFFFFFFFFFFFFFFFFFFFFFFFFFFFFFFFFFFFFFFF AND PUSH20 0xFFFFFFFFFFFFFFFFFFFFFFFFFFFFFFFFFFFFFFFF AND DUP2 MSTORE PUSH1 0x20 ADD SWAP1 DUP2 MSTORE PUSH1 0x20 ADD PUSH0 KECCAK256 DUP2 SWAP1 SSTORE POP POP JUMPDEST PUSH0 PUSH20 0xFFFFFFFFFFFFFFFFFFFFFFFFFFFFFFFFFFFFFFFF AND DUP3 PUSH20 0xFFFFFFFFFFFFFFFFFFFFFFFFFFFFFFFFFFFFFFFF AND SUB PUSH2 0x1B28 JUMPI DUP1 PUSH1 0x2 PUSH0 DUP3 DUP3 SLOAD SUB SWAP3 POP POP DUP2 SWAP1 SSTORE POP PUSH2 0x1B72 JUMP JUMPDEST DUP1 PUSH0 DUP1 DUP5 PUSH20 0xFFFFFFFFFFFFFFFFFFFFFFFFFFFFFFFFFFFFFFFF AND PUSH20 0xFFFFFFFFFFFFFFFFFFFFFFFFFFFFFFFFFFFFFFFF AND DUP2 MSTORE PUSH1 0x20 ADD SWAP1 DUP2 MSTORE PUSH1 0x20 ADD PUSH0 KECCAK256 PUSH0 DUP3 DUP3 SLOAD ADD SWAP3 POP POP DUP2 SWAP1 SSTORE POP JUMPDEST DUP2 PUSH20 0xFFFFFFFFFFFFFFFFFFFFFFFFFFFFFFFFFFFFFFFF AND DUP4 PUSH20 0xFFFFFFFFFFFFFFFFFFFFFFFFFFFFFFFFFFFFFFFF AND PUSH32 0xDDF252AD1BE2C89B69C2B068FC378DAA952BA7F163C4A11628F55A4DF523B3EF DUP4 PUSH1 0x40 MLOAD PUSH2 0x1BCF SWAP2 SWAP1 PUSH2 0x1C72 JUMP JUMPDEST PUSH1 0x40 MLOAD DUP1 SWAP2 SUB SWAP1 LOG3 POP POP POP JUMP JUMPDEST PUSH0 DUP1 REVERT JUMPDEST PUSH0 DUP2 SWAP1 POP SWAP2 SWAP1 POP JUMP JUMPDEST PUSH2 0x1BF2 DUP2 PUSH2 0x1BE0 JUMP JUMPDEST DUP2 EQ PUSH2 0x1BFC JUMPI PUSH0 DUP1 REVERT JUMPDEST POP JUMP JUMPDEST PUSH0 DUP2 CALLDATALOAD SWAP1 POP PUSH2 0x1C0D DUP2 PUSH2 0x1BE9 JUMP JUMPDEST SWAP3 SWAP2 POP POP JUMP JUMPDEST PUSH0 DUP1 PUSH0 PUSH1 0x60 DUP5 DUP7 SUB SLT ISZERO PUSH2 0x1C2A JUMPI PUSH2 0x1C29 PUSH2 0x1BDC JUMP JUMPDEST JUMPDEST PUSH0 PUSH2 0x1C37 DUP7 DUP3 DUP8 ADD PUSH2 0x1BFF JUMP JUMPDEST SWAP4 POP POP PUSH1 0x20 PUSH2 0x1C48 DUP7 DUP3 DUP8 ADD PUSH2 0x1BFF JUMP JUMPDEST SWAP3 POP POP PUSH1 0x40 PUSH2 0x1C59 DUP7 DUP3 DUP8 ADD PUSH2 0x1BFF JUMP JUMPDEST SWAP2 POP POP SWAP3 POP SWAP3 POP SWAP3 JUMP JUMPDEST PUSH2 0x1C6C DUP2 PUSH2 0x1BE0 JUMP JUMPDEST DUP3 MSTORE POP POP JUMP JUMPDEST PUSH0 PUSH1 0x20 DUP3 ADD SWAP1 POP PUSH2 0x1C85 PUSH0 DUP4 ADD DUP5 PUSH2 0x1C63 JUMP JUMPDEST SWAP3 SWAP2 POP POP JUMP JUMPDEST PUSH0 DUP2 MLOAD SWAP1 POP SWAP2 SWAP1 POP JUMP JUMPDEST PUSH0 DUP3 DUP3 MSTORE PUSH1 0x20 DUP3 ADD SWAP1 POP SWAP3 SWAP2 POP POP JUMP JUMPDEST DUP3 DUP2 DUP4 MCOPY PUSH0 DUP4 DUP4 ADD MSTORE POP POP POP JUMP JUMPDEST PUSH0 PUSH1 0x1F NOT PUSH1 0x1F DUP4 ADD AND SWAP1 POP SWAP2 SWAP1 POP JUMP JUMPDEST PUSH0 PUSH2 0x1CCD DUP3 PUSH2 0x1C8B JUMP JUMPDEST PUSH2 0x1CD7 DUP2 DUP6 PUSH2 0x1C95 JUMP JUMPDEST SWAP4 POP PUSH2 0x1CE7 DUP2 DUP6 PUSH1 0x20 DUP7 ADD PUSH2 0x1CA5 JUMP JUMPDEST PUSH2 0x1CF0 DUP2 PUSH2 0x1CB3 JUMP JUMPDEST DUP5 ADD SWAP2 POP POP SWAP3 SWAP2 POP POP JUMP JUMPDEST PUSH0 PUSH1 0x20 DUP3 ADD SWAP1 POP DUP2 DUP2 SUB PUSH0 DUP4 ADD MSTORE PUSH2 0x1D13 DUP2 DUP5 PUSH2 0x1CC3 JUMP JUMPDEST SWAP1 POP SWAP3 SWAP2 POP POP JUMP JUMPDEST PUSH0 PUSH20 0xFFFFFFFFFFFFFFFFFFFFFFFFFFFFFFFFFFFFFFFF DUP3 AND SWAP1 POP SWAP2 SWAP1 POP JUMP JUMPDEST PUSH0 PUSH2 0x1D44 DUP3 PUSH2 0x1D1B JUMP JUMPDEST SWAP1 POP SWAP2 SWAP1 POP JUMP JUMPDEST PUSH2 0x1D54 DUP2 PUSH2 0x1D3A JUMP JUMPDEST DUP2 EQ PUSH2 0x1D5E JUMPI PUSH0 DUP1 REVERT JUMPDEST POP JUMP JUMPDEST PUSH0 DUP2 CALLDATALOAD SWAP1 POP PUSH2 0x1D6F DUP2 PUSH2 0x1D4B JUMP JUMPDEST SWAP3 SWAP2 POP POP JUMP JUMPDEST PUSH0 DUP1 PUSH1 0x40 DUP4 DUP6 SUB SLT ISZERO PUSH2 0x1D8B JUMPI PUSH2 0x1D8A PUSH2 0x1BDC JUMP JUMPDEST JUMPDEST PUSH0 PUSH2 0x1D98 DUP6 DUP3 DUP7 ADD PUSH2 0x1D61 JUMP JUMPDEST SWAP3 POP POP PUSH1 0x20 PUSH2 0x1DA9 DUP6 DUP3 DUP7 ADD PUSH2 0x1BFF JUMP JUMPDEST SWAP2 POP POP SWAP3 POP SWAP3 SWAP1 POP JUMP JUMPDEST PUSH0 DUP2 ISZERO ISZERO SWAP1 POP SWAP2 SWAP1 POP JUMP JUMPDEST PUSH2 0x1DC7 DUP2 PUSH2 0x1DB3 JUMP JUMPDEST DUP3 MSTORE POP POP JUMP JUMPDEST PUSH0 PUSH1 0x20 DUP3 ADD SWAP1 POP PUSH2 0x1DE0 PUSH0 DUP4 ADD DUP5 PUSH2 0x1DBE JUMP JUMPDEST SWAP3 SWAP2 POP POP JUMP JUMPDEST PUSH0 DUP2 SWAP1 POP SWAP2 SWAP1 POP JUMP JUMPDEST PUSH0 PUSH2 0x1E09 PUSH2 0x1E04 PUSH2 0x1DFF DUP5 PUSH2 0x1D1B JUMP JUMPDEST PUSH2 0x1DE6 JUMP JUMPDEST PUSH2 0x1D1B JUMP JUMPDEST SWAP1 POP SWAP2 SWAP1 POP JUMP JUMPDEST PUSH0 PUSH2 0x1E1A DUP3 PUSH2 0x1DEF JUMP JUMPDEST SWAP1 POP SWAP2 SWAP1 POP JUMP JUMPDEST PUSH0 PUSH2 0x1E2B DUP3 PUSH2 0x1E10 JUMP JUMPDEST SWAP1 POP SWAP2 SWAP1 POP JUMP JUMPDEST PUSH2 0x1E3B DUP2 PUSH2 0x1E21 JUMP JUMPDEST DUP3 MSTORE POP POP JUMP JUMPDEST PUSH0 PUSH1 0x20 DUP3 ADD SWAP1 POP PUSH2 0x1E54 PUSH0 DUP4 ADD DUP5 PUSH2 0x1E32 JUMP JUMPDEST SWAP3 SWAP2 POP POP JUMP JUMPDEST PUSH0 DUP1 PUSH0 PUSH1 0x60 DUP5 DUP7 SUB SLT ISZERO PUSH2 0x1E71 JUMPI PUSH2 0x1E70 PUSH2 0x1BDC JUMP JUMPDEST JUMPDEST PUSH0 PUSH2 0x1E7E DUP7 DUP3 DUP8 ADD PUSH2 0x1D61 JUMP JUMPDEST SWAP4 POP POP PUSH1 0x20 PUSH2 0x1E8F DUP7 DUP3 DUP8 ADD PUSH2 0x1D61 JUMP JUMPDEST SWAP3 POP POP PUSH1 0x40 PUSH2 0x1EA0 DUP7 DUP3 DUP8 ADD PUSH2 0x1BFF JUMP JUMPDEST SWAP2 POP POP SWAP3 POP SWAP3 POP SWAP3 JUMP JUMPDEST PUSH0 PUSH1 0xFF DUP3 AND SWAP1 POP SWAP2 SWAP1 POP JUMP JUMPDEST PUSH2 0x1EBF DUP2 PUSH2 0x1EAA JUMP JUMPDEST DUP3 MSTORE POP POP JUMP JUMPDEST PUSH0 PUSH1 0x20 DUP3 ADD SWAP1 POP PUSH2 0x1ED8 PUSH0 DUP4 ADD DUP5 PUSH2 0x1EB6 JUMP JUMPDEST SWAP3 SWAP2 POP POP JUMP JUMPDEST PUSH0 PUSH2 0x1EE8 DUP3 PUSH2 0x1D3A JUMP JUMPDEST SWAP1 POP SWAP2 SWAP1 POP JUMP JUMPDEST PUSH2 0x1EF8 DUP2 PUSH2 0x1EDE JUMP JUMPDEST DUP2 EQ PUSH2 0x1F02 JUMPI PUSH0 DUP1 REVERT JUMPDEST POP JUMP JUMPDEST PUSH0 DUP2 CALLDATALOAD SWAP1 POP PUSH2 0x1F13 DUP2 PUSH2 0x1EEF JUMP JUMPDEST SWAP3 SWAP2 POP POP JUMP JUMPDEST PUSH0 DUP1 PUSH0 PUSH1 0x60 DUP5 DUP7 SUB SLT ISZERO PUSH2 0x1F30 JUMPI PUSH2 0x1F2F PUSH2 0x1BDC JUMP JUMPDEST JUMPDEST PUSH0 PUSH2 0x1F3D DUP7 DUP3 DUP8 ADD PUSH2 0x1BFF JUMP JUMPDEST SWAP4 POP POP PUSH1 0x20 PUSH2 0x1F4E DUP7 DUP3 DUP8 ADD PUSH2 0x1F05 JUMP JUMPDEST SWAP3 POP POP PUSH1 0x40 PUSH2 0x1F5F DUP7 DUP3 DUP8 ADD PUSH2 0x1BFF JUMP JUMPDEST SWAP2 POP POP SWAP3 POP SWAP3 POP SWAP3 JUMP JUMPDEST PUSH0 PUSH1 0x40 DUP3 ADD SWAP1 POP PUSH2 0x1F7C PUSH0 DUP4 ADD DUP6 PUSH2 0x1C63 JUMP JUMPDEST PUSH2 0x1F89 PUSH1 0x20 DUP4 ADD DUP5 PUSH2 0x1E32 JUMP JUMPDEST SWAP4 SWAP3 POP POP POP JUMP JUMPDEST PUSH0 PUSH1 0x20 DUP3 DUP5 SUB SLT ISZERO PUSH2 0x1FA5 JUMPI PUSH2 0x1FA4 PUSH2 0x1BDC JUMP JUMPDEST JUMPDEST PUSH0 PUSH2 0x1FB2 DUP5 DUP3 DUP6 ADD PUSH2 0x1D61 JUMP JUMPDEST SWAP2 POP POP SWAP3 SWAP2 POP POP JUMP JUMPDEST PUSH0 PUSH1 0x20 DUP3 DUP5 SUB SLT ISZERO PUSH2 0x1FD0 JUMPI PUSH2 0x1FCF PUSH2 0x1BDC JUMP JUMPDEST JUMPDEST PUSH0 PUSH2 0x1FDD DUP5 DUP3 DUP6 ADD PUSH2 0x1BFF JUMP JUMPDEST SWAP2 POP POP SWAP3 SWAP2 POP POP JUMP JUMPDEST PUSH0 PUSH1 0x40 DUP3 ADD SWAP1 POP PUSH2 0x1FF9 PUSH0 DUP4 ADD DUP6 PUSH2 0x1C63 JUMP JUMPDEST PUSH2 0x2006 PUSH1 0x20 DUP4 ADD DUP5 PUSH2 0x1C63 JUMP JUMPDEST SWAP4 SWAP3 POP POP POP JUMP JUMPDEST PUSH0 DUP1 PUSH1 0x40 DUP4 DUP6 SUB SLT ISZERO PUSH2 0x2023 JUMPI PUSH2 0x2022 PUSH2 0x1BDC JUMP JUMPDEST JUMPDEST PUSH0 PUSH2 0x2030 DUP6 DUP3 DUP7 ADD PUSH2 0x1BFF JUMP JUMPDEST SWAP3 POP POP PUSH1 0x20 PUSH2 0x2041 DUP6 DUP3 DUP7 ADD PUSH2 0x1BFF JUMP JUMPDEST SWAP2 POP POP SWAP3 POP SWAP3 SWAP1 POP JUMP JUMPDEST PUSH0 DUP1 PUSH1 0x40 DUP4 DUP6 SUB SLT ISZERO PUSH2 0x2061 JUMPI PUSH2 0x2060 PUSH2 0x1BDC JUMP JUMPDEST JUMPDEST PUSH0 PUSH2 0x206E DUP6 DUP3 DUP7 ADD PUSH2 0x1D61 JUMP JUMPDEST SWAP3 POP POP PUSH1 0x20 PUSH2 0x207F DUP6 DUP3 DUP7 ADD PUSH2 0x1D61 JUMP JUMPDEST SWAP2 POP POP SWAP3 POP SWAP3 SWAP1 POP JUMP JUMPDEST PUSH32 0x4E487B7100000000000000000000000000000000000000000000000000000000 PUSH0 MSTORE PUSH1 0x11 PUSH1 0x4 MSTORE PUSH1 0x24 PUSH0 REVERT JUMPDEST PUSH0 PUSH2 0x20C0 DUP3 PUSH2 0x1BE0 JUMP JUMPDEST SWAP2 POP PUSH2 0x20CB DUP4 PUSH2 0x1BE0 JUMP JUMPDEST SWAP3 POP DUP3 DUP3 ADD SWAP1 POP DUP1 DUP3 GT ISZERO PUSH2 0x20E3 JUMPI PUSH2 0x20E2 PUSH2 0x2089 JUMP JUMPDEST JUMPDEST SWAP3 SWAP2 POP POP JUMP JUMPDEST PUSH0 PUSH2 0x20F3 DUP3 PUSH2 0x1BE0 JUMP JUMPDEST SWAP2 POP PUSH2 0x20FE DUP4 PUSH2 0x1BE0 JUMP JUMPDEST SWAP3 POP DUP3 DUP3 MUL PUSH2 0x210C DUP2 PUSH2 0x1BE0 JUMP JUMPDEST SWAP2 POP DUP3 DUP3 DIV DUP5 EQ DUP4 ISZERO OR PUSH2 0x2123 JUMPI PUSH2 0x2122 PUSH2 0x2089 JUMP JUMPDEST JUMPDEST POP SWAP3 SWAP2 POP POP JUMP JUMPDEST PUSH32 0x4E487B7100000000000000000000000000000000000000000000000000000000 PUSH0 MSTORE PUSH1 0x12 PUSH1 0x4 MSTORE PUSH1 0x24 PUSH0 REVERT JUMPDEST PUSH0 PUSH2 0x2161 DUP3 PUSH2 0x1BE0 JUMP JUMPDEST SWAP2 POP PUSH2 0x216C DUP4 PUSH2 0x1BE0 JUMP JUMPDEST SWAP3 POP DUP3 PUSH2 0x217C JUMPI PUSH2 0x217B PUSH2 0x212A JUMP JUMPDEST JUMPDEST DUP3 DUP3 DIV SWAP1 POP SWAP3 SWAP2 POP POP JUMP JUMPDEST PUSH32 0x4E487B7100000000000000000000000000000000000000000000000000000000 PUSH0 MSTORE PUSH1 0x22 PUSH1 0x4 MSTORE PUSH1 0x24 PUSH0 REVERT JUMPDEST PUSH0 PUSH1 0x2 DUP3 DIV SWAP1 POP PUSH1 0x1 DUP3 AND DUP1 PUSH2 0x21CB JUMPI PUSH1 0x7F DUP3 AND SWAP2 POP JUMPDEST PUSH1 0x20 DUP3 LT DUP2 SUB PUSH2 0x21DE JUMPI PUSH2 0x21DD PUSH2 0x2187 JUMP JUMPDEST JUMPDEST POP SWAP2 SWAP1 POP JUMP JUMPDEST PUSH2 0x21ED DUP2 PUSH2 0x1D3A JUMP JUMPDEST DUP3 MSTORE POP POP JUMP JUMPDEST PUSH0 PUSH1 0x20 DUP3 ADD SWAP1 POP PUSH2 0x2206 PUSH0 DUP4 ADD DUP5 PUSH2 0x21E4 JUMP JUMPDEST SWAP3 SWAP2 POP POP JUMP JUMPDEST PUSH0 DUP2 MLOAD SWAP1 POP PUSH2 0x221A DUP2 PUSH2 0x1BE9 JUMP JUMPDEST SWAP3 SWAP2 POP POP JUMP JUMPDEST PUSH0 PUSH1 0x20 DUP3 DUP5 SUB SLT ISZERO PUSH2 0x2235 JUMPI PUSH2 0x2234 PUSH2 0x1BDC JUMP JUMPDEST JUMPDEST PUSH0 PUSH2 0x2242 DUP5 DUP3 DUP6 ADD PUSH2 0x220C JUMP JUMPDEST SWAP2 POP POP SWAP3 SWAP2 POP POP JUMP JUMPDEST PUSH0 PUSH1 0x60 DUP3 ADD SWAP1 POP PUSH2 0x225E PUSH0 DUP4 ADD DUP7 PUSH2 0x21E4 JUMP JUMPDEST PUSH2 0x226B PUSH1 0x20 DUP4 ADD DUP6 PUSH2 0x21E4 JUMP JUMPDEST PUSH2 0x2278 PUSH1 0x40 DUP4 ADD DUP5 PUSH2 0x1C63 JUMP JUMPDEST SWAP5 SWAP4 POP POP POP POP JUMP JUMPDEST PUSH2 0x2289 DUP2 PUSH2 0x1DB3 JUMP JUMPDEST DUP2 EQ PUSH2 0x2293 JUMPI PUSH0 DUP1 REVERT JUMPDEST POP JUMP JUMPDEST PUSH0 DUP2 MLOAD SWAP1 POP PUSH2 0x22A4 DUP2 PUSH2 0x2280 JUMP JUMPDEST SWAP3 SWAP2 POP POP JUMP JUMPDEST PUSH0 PUSH1 0x20 DUP3 DUP5 SUB SLT ISZERO PUSH2 0x22BF JUMPI PUSH2 0x22BE PUSH2 0x1BDC JUMP JUMPDEST JUMPDEST PUSH0 PUSH2 0x22CC DUP5 DUP3 DUP6 ADD PUSH2 0x2296 JUMP JUMPDEST SWAP2 POP POP SWAP3 SWAP2 POP POP JUMP JUMPDEST PUSH0 PUSH1 0x40 DUP3 ADD SWAP1 POP PUSH2 0x22E8 PUSH0 DUP4 ADD DUP6 PUSH2 0x21E4 JUMP JUMPDEST PUSH2 0x22F5 PUSH1 0x20 DUP4 ADD DUP5 PUSH2 0x1C63 JUMP JUMPDEST SWAP4 SWAP3 POP POP POP JUMP JUMPDEST PUSH0 PUSH1 0x80 DUP3 ADD SWAP1 POP PUSH2 0x230F PUSH0 DUP4 ADD DUP8 PUSH2 0x1C63 JUMP JUMPDEST PUSH2 0x231C PUSH1 0x20 DUP4 ADD DUP7 PUSH2 0x21E4 JUMP JUMPDEST PUSH2 0x2329 PUSH1 0x40 DUP4 ADD DUP6 PUSH2 0x1C63 JUMP JUMPDEST PUSH2 0x2336 PUSH1 0x60 DUP4 ADD DUP5 PUSH2 0x21E4 JUMP JUMPDEST SWAP6 SWAP5 POP POP POP POP POP JUMP JUMPDEST PUSH0 PUSH1 0x60 DUP3 ADD SWAP1 POP PUSH2 0x2352 PUSH0 DUP4 ADD DUP7 PUSH2 0x21E4 JUMP JUMPDEST PUSH2 0x235F PUSH1 0x20 DUP4 ADD DUP6 PUSH2 0x1C63 JUMP JUMPDEST PUSH2 0x236C PUSH1 0x40 DUP4 ADD DUP5 PUSH2 0x1C63 JUMP JUMPDEST SWAP5 SWAP4 POP POP POP POP JUMP INVALID LOG2 PUSH5 0x6970667358 0x22 SLT KECCAK256 CALLDATALOAD JUMP DUP8 0xE0 AND 0xE MSTORE8 0x26 LOG0 0x4C 0xBB SWAP2 PUSH23 0xF530046CDDCE93542FCE638FD45216848759D264736F6C PUSH4 0x4300081A STOP CALLER "
				},
				"gasEstimates": {
					"creation": {
						"codeDepositCost": "1826000",
						"executionCost": "infinite",
						"totalCost": "infinite"
					},
					"external": {
						"addLiquidity(uint256,uint256)": "infinite",
						"allowance(address,address)": "infinite",
						"approve(address,uint256)": "infinite",
						"balanceOf(address)": "2874",
						"decimals()": "405",
						"getAmountOut(uint256,uint256,uint256)": "infinite",
						"name()": "infinite",
						"removeLiquidity(uint256)": "infinite",
						"resvers0()": "2448",
						"resvers1()": "2535",
						"swap(uint256,address,uint256)": "infinite",
						"symbol()": "infinite",
						"token0()": "infinite",
						"token1()": "infinite",
						"totalSupply()": "2455",
						"transfer(address,uint256)": "infinite",
						"transferFrom(address,address,uint256)": "infinite"
					},
					"internal": {
						"min(uint256,uint256)": "63",
						"sqrt(uint256)": "infinite"
					}
				},
				"methodIdentifiers": {
					"addLiquidity(uint256,uint256)": "9cd441da",
					"allowance(address,address)": "dd62ed3e",
					"approve(address,uint256)": "095ea7b3",
					"balanceOf(address)": "70a08231",
					"decimals()": "313ce567",
					"getAmountOut(uint256,uint256,uint256)": "054d50d4",
					"name()": "06fdde03",
					"removeLiquidity(uint256)": "9c8f9f23",
					"resvers0()": "4543c7cf",
					"resvers1()": "f000ead9",
					"swap(uint256,address,uint256)": "43264349",
					"symbol()": "95d89b41",
					"token0()": "0dfe1681",
					"token1()": "d21220a7",
					"totalSupply()": "18160ddd",
					"transfer(address,uint256)": "a9059cbb",
					"transferFrom(address,address,uint256)": "23b872dd"
				}
			},
			"storageLayout": {
				"storage": [
					{
						"astId": 725,
						"contract": "56_DEX/SimpleSwap.sol:SimpleSwap",
						"label": "_balances",
						"offset": 0,
						"slot": "0",
						"type": "t_mapping(t_address,t_uint256)"
					},
					{
						"astId": 731,
						"contract": "56_DEX/SimpleSwap.sol:SimpleSwap",
						"label": "_allowances",
						"offset": 0,
						"slot": "1",
						"type": "t_mapping(t_address,t_mapping(t_address,t_uint256))"
					},
					{
						"astId": 733,
						"contract": "56_DEX/SimpleSwap.sol:SimpleSwap",
						"label": "_totalSupply",
						"offset": 0,
						"slot": "2",
						"type": "t_uint256"
					},
					{
						"astId": 735,
						"contract": "56_DEX/SimpleSwap.sol:SimpleSwap",
						"label": "_name",
						"offset": 0,
						"slot": "3",
						"type": "t_string_storage"
					},
					{
						"astId": 737,
						"contract": "56_DEX/SimpleSwap.sol:SimpleSwap",
						"label": "_symbol",
						"offset": 0,
						"slot": "4",
						"type": "t_string_storage"
					},
					{
						"astId": 7,
						"contract": "56_DEX/SimpleSwap.sol:SimpleSwap",
						"label": "token0",
						"offset": 0,
						"slot": "5",
						"type": "t_contract(IERC20)1295"
					},
					{
						"astId": 10,
						"contract": "56_DEX/SimpleSwap.sol:SimpleSwap",
						"label": "token1",
						"offset": 0,
						"slot": "6",
						"type": "t_contract(IERC20)1295"
					},
					{
						"astId": 12,
						"contract": "56_DEX/SimpleSwap.sol:SimpleSwap",
						"label": "resvers0",
						"offset": 0,
						"slot": "7",
						"type": "t_uint256"
					},
					{
						"astId": 14,
						"contract": "56_DEX/SimpleSwap.sol:SimpleSwap",
						"label": "resvers1",
						"offset": 0,
						"slot": "8",
						"type": "t_uint256"
					}
				],
				"types": {
					"t_address": {
						"encoding": "inplace",
						"label": "address",
						"numberOfBytes": "20"
					},
					"t_contract(IERC20)1295": {
						"encoding": "inplace",
						"label": "contract IERC20",
						"numberOfBytes": "20"
					},
					"t_mapping(t_address,t_mapping(t_address,t_uint256))": {
						"encoding": "mapping",
						"key": "t_address",
						"label": "mapping(address => mapping(address => uint256))",
						"numberOfBytes": "32",
						"value": "t_mapping(t_address,t_uint256)"
					},
					"t_mapping(t_address,t_uint256)": {
						"encoding": "mapping",
						"key": "t_address",
						"label": "mapping(address => uint256)",
						"numberOfBytes": "32",
						"value": "t_uint256"
					},
					"t_string_storage": {
						"encoding": "bytes",
						"label": "string",
						"numberOfBytes": "32"
					},
					"t_uint256": {
						"encoding": "inplace",
						"label": "uint256",
						"numberOfBytes": "32"
					}
				}
			},
			"userdoc": {
				"kind": "user",
				"methods": {},
				"version": 1
			}
		}
	}
}