{
	"34_ERC721/ERC721.sol": {
		"ERC721": {
			"abi": [
				{
					"inputs": [
						{
							"internalType": "string",
							"name": "_name",
							"type": "string"
						},
						{
							"internalType": "string",
							"name": "_symbol",
							"type": "string"
						}
					],
					"stateMutability": "nonpayable",
					"type": "constructor"
				},
				{
					"inputs": [
						{
							"internalType": "address",
							"name": "receiver",
							"type": "address"
						}
					],
					"name": "ERC721InvalidReceiver",
					"type": "error"
				},
				{
					"anonymous": false,
					"inputs": [
						{
							"indexed": true,
							"internalType": "address",
							"name": "owner",
							"type": "address"
						},
						{
							"indexed": true,
							"internalType": "address",
							"name": "approved",
							"type": "address"
						},
						{
							"indexed": true,
							"internalType": "uint256",
							"name": "tokenid",
							"type": "uint256"
						}
					],
					"name": "Approval",
					"type": "event"
				},
				{
					"anonymous": false,
					"inputs": [
						{
							"indexed": true,
							"internalType": "address",
							"name": "owner",
							"type": "address"
						},
						{
							"indexed": true,
							"internalType": "address",
							"name": "operator",
							"type": "address"
						},
						{
							"indexed": false,
							"internalType": "bool",
							"name": "approved",
							"type": "bool"
						}
					],
					"name": "ApprovalForAll",
					"type": "event"
				},
				{
					"anonymous": false,
					"inputs": [
						{
							"indexed": true,
							"internalType": "address",
							"name": "from",
							"type": "address"
						},
						{
							"indexed": true,
							"internalType": "address",
							"name": "to",
							"type": "address"
						},
						{
							"indexed": true,
							"internalType": "uint256",
							"name": "tokenid",
							"type": "uint256"
						}
					],
					"name": "Transfer",
					"type": "event"
				},
				{
					"inputs": [
						{
							"internalType": "address",
							"name": "to",
							"type": "address"
						},
						{
							"internalType": "uint256",
							"name": "tokenid",
							"type": "uint256"
						}
					],
					"name": "approve",
					"outputs": [],
					"stateMutability": "nonpayable",
					"type": "function"
				},
				{
					"inputs": [
						{
							"internalType": "address",
							"name": "owner",
							"type": "address"
						}
					],
					"name": "balanceOf",
					"outputs": [
						{
							"internalType": "uint256",
							"name": "",
							"type": "uint256"
						}
					],
					"stateMutability": "view",
					"type": "function"
				},
				{
					"inputs": [
						{
							"internalType": "uint256",
							"name": "tokenId",
							"type": "uint256"
						}
					],
					"name": "getApproved",
					"outputs": [
						{
							"internalType": "address",
							"name": "",
							"type": "address"
						}
					],
					"stateMutability": "view",
					"type": "function"
				},
				{
					"inputs": [
						{
							"internalType": "address",
							"name": "owner",
							"type": "address"
						},
						{
							"internalType": "address",
							"name": "operator",
							"type": "address"
						}
					],
					"name": "isApprovalForAll",
					"outputs": [
						{
							"internalType": "bool",
							"name": "",
							"type": "bool"
						}
					],
					"stateMutability": "view",
					"type": "function"
				},
				{
					"inputs": [],
					"name": "name",
					"outputs": [
						{
							"internalType": "string",
							"name": "",
							"type": "string"
						}
					],
					"stateMutability": "view",
					"type": "function"
				},
				{
					"inputs": [
						{
							"internalType": "uint256",
							"name": "tokenid",
							"type": "uint256"
						}
					],
					"name": "ownerOf",
					"outputs": [
						{
							"internalType": "address",
							"name": "owner",
							"type": "address"
						}
					],
					"stateMutability": "view",
					"type": "function"
				},
				{
					"inputs": [
						{
							"internalType": "address",
							"name": "from",
							"type": "address"
						},
						{
							"internalType": "address",
							"name": "to",
							"type": "address"
						},
						{
							"internalType": "uint256",
							"name": "tokenId",
							"type": "uint256"
						}
					],
					"name": "safeTransferFrom",
					"outputs": [],
					"stateMutability": "nonpayable",
					"type": "function"
				},
				{
					"inputs": [
						{
							"internalType": "address",
							"name": "from",
							"type": "address"
						},
						{
							"internalType": "address",
							"name": "to",
							"type": "address"
						},
						{
							"internalType": "uint256",
							"name": "tokenid",
							"type": "uint256"
						},
						{
							"internalType": "bytes",
							"name": "data",
							"type": "bytes"
						}
					],
					"name": "safeTransferFrom",
					"outputs": [],
					"stateMutability": "nonpayable",
					"type": "function"
				},
				{
					"inputs": [
						{
							"internalType": "address",
							"name": "operator",
							"type": "address"
						},
						{
							"internalType": "bool",
							"name": "approved",
							"type": "bool"
						}
					],
					"name": "setApprovalForAll",
					"outputs": [],
					"stateMutability": "nonpayable",
					"type": "function"
				},
				{
					"inputs": [
						{
							"internalType": "bytes4",
							"name": "interfaceId",
							"type": "bytes4"
						}
					],
					"name": "supportsInterface",
					"outputs": [
						{
							"internalType": "bool",
							"name": "",
							"type": "bool"
						}
					],
					"stateMutability": "pure",
					"type": "function"
				},
				{
					"inputs": [],
					"name": "symbol",
					"outputs": [
						{
							"internalType": "string",
							"name": "",
							"type": "string"
						}
					],
					"stateMutability": "view",
					"type": "function"
				},
				{
					"inputs": [
						{
							"internalType": "uint256",
							"name": "tokenId",
							"type": "uint256"
						}
					],
					"name": "tokenURI",
					"outputs": [
						{
							"internalType": "string",
							"name": "",
							"type": "string"
						}
					],
					"stateMutability": "view",
					"type": "function"
				},
				{
					"inputs": [
						{
							"internalType": "address",
							"name": "from",
							"type": "address"
						},
						{
							"internalType": "address",
							"name": "to",
							"type": "address"
						},
						{
							"internalType": "uint256",
							"name": "tokenid",
							"type": "uint256"
						}
					],
					"name": "transferFrom",
					"outputs": [],
					"stateMutability": "nonpayable",
					"type": "function"
				}
			],
			"devdoc": {
				"kind": "dev",
				"methods": {},
				"version": 1
			},
			"evm": {
				"assembly": "    /* \"34_ERC721/ERC721.sol\":201:7303  contract ERC721 is IERC721,IERC721Metadata{... */\n  mstore(0x40, 0x80)\n    /* \"34_ERC721/ERC721.sol\":880:994  constructor (string memory _name,string memory _symbol) {... */\n  callvalue\n  dup1\n  iszero\n  tag_1\n  jumpi\n  0x00\n  dup1\n  revert\ntag_1:\n  pop\n  mload(0x40)\n  sub(codesize, bytecodeSize)\n  dup1\n  bytecodeSize\n  dup4\n  codecopy\n  dup2\n  dup2\n  add\n  0x40\n  mstore\n  dup2\n  add\n  swap1\n  tag_2\n  swap2\n  swap1\n  tag_3\n  jump\t// in\ntag_2:\n    /* \"34_ERC721/ERC721.sol\":954:959  _name */\n  dup2\n    /* \"34_ERC721/ERC721.sol\":947:951  name */\n  0x00\n    /* \"34_ERC721/ERC721.sol\":947:959  name = _name */\n  swap1\n  dup2\n  tag_6\n  swap2\n  swap1\n  tag_7\n  jump\t// in\ntag_6:\n  pop\n    /* \"34_ERC721/ERC721.sol\":979:986  _symbol */\n  dup1\n    /* \"34_ERC721/ERC721.sol\":970:976  symbol */\n  0x01\n    /* \"34_ERC721/ERC721.sol\":970:986  symbol = _symbol */\n  swap1\n  dup2\n  tag_8\n  swap2\n  swap1\n  tag_7\n  jump\t// in\ntag_8:\n  pop\n    /* \"34_ERC721/ERC721.sol\":880:994  constructor (string memory _name,string memory _symbol) {... */\n  pop\n  pop\n    /* \"34_ERC721/ERC721.sol\":201:7303  contract ERC721 is IERC721,IERC721Metadata{... */\n  jump(tag_9)\n    /* \"#utility.yul\":7:82   */\ntag_10:\n    /* \"#utility.yul\":40:46   */\n  0x00\n    /* \"#utility.yul\":73:75   */\n  0x40\n    /* \"#utility.yul\":67:76   */\n  mload\n    /* \"#utility.yul\":57:76   */\n  swap1\n  pop\n    /* \"#utility.yul\":7:82   */\n  swap1\n  jump\t// out\n    /* \"#utility.yul\":88:205   */\ntag_11:\n    /* \"#utility.yul\":197:198   */\n  0x00\n    /* \"#utility.yul\":194:195   */\n  dup1\n    /* \"#utility.yul\":187:199   */\n  revert\n    /* \"#utility.yul\":211:328   */\ntag_12:\n    /* \"#utility.yul\":320:321   */\n  0x00\n    /* \"#utility.yul\":317:318   */\n  dup1\n    /* \"#utility.yul\":310:322   */\n  revert\n    /* \"#utility.yul\":334:451   */\ntag_13:\n    /* \"#utility.yul\":443:444   */\n  0x00\n    /* \"#utility.yul\":440:441   */\n  dup1\n    /* \"#utility.yul\":433:445   */\n  revert\n    /* \"#utility.yul\":457:574   */\ntag_14:\n    /* \"#utility.yul\":566:567   */\n  0x00\n    /* \"#utility.yul\":563:564   */\n  dup1\n    /* \"#utility.yul\":556:568   */\n  revert\n    /* \"#utility.yul\":580:682   */\ntag_15:\n    /* \"#utility.yul\":621:627   */\n  0x00\n    /* \"#utility.yul\":672:674   */\n  0x1f\n    /* \"#utility.yul\":668:675   */\n  not\n    /* \"#utility.yul\":663:665   */\n  0x1f\n    /* \"#utility.yul\":656:661   */\n  dup4\n    /* \"#utility.yul\":652:666   */\n  add\n    /* \"#utility.yul\":648:676   */\n  and\n    /* \"#utility.yul\":638:676   */\n  swap1\n  pop\n    /* \"#utility.yul\":580:682   */\n  swap2\n  swap1\n  pop\n  jump\t// out\n    /* \"#utility.yul\":688:868   */\ntag_16:\n    /* \"#utility.yul\":736:813   */\n  0x4e487b7100000000000000000000000000000000000000000000000000000000\n    /* \"#utility.yul\":733:734   */\n  0x00\n    /* \"#utility.yul\":726:814   */\n  mstore\n    /* \"#utility.yul\":833:837   */\n  0x41\n    /* \"#utility.yul\":830:831   */\n  0x04\n    /* \"#utility.yul\":823:838   */\n  mstore\n    /* \"#utility.yul\":857:861   */\n  0x24\n    /* \"#utility.yul\":854:855   */\n  0x00\n    /* \"#utility.yul\":847:862   */\n  revert\n    /* \"#utility.yul\":874:1155   */\ntag_17:\n    /* \"#utility.yul\":957:984   */\n  tag_51\n    /* \"#utility.yul\":979:983   */\n  dup3\n    /* \"#utility.yul\":957:984   */\n  tag_15\n  jump\t// in\ntag_51:\n    /* \"#utility.yul\":949:955   */\n  dup2\n    /* \"#utility.yul\":945:985   */\n  add\n    /* \"#utility.yul\":1087:1093   */\n  dup2\n    /* \"#utility.yul\":1075:1085   */\n  dup2\n    /* \"#utility.yul\":1072:1094   */\n  lt\n    /* \"#utility.yul\":1051:1069   */\n  0xffffffffffffffff\n    /* \"#utility.yul\":1039:1049   */\n  dup3\n    /* \"#utility.yul\":1036:1070   */\n  gt\n    /* \"#utility.yul\":1033:1095   */\n  or\n    /* \"#utility.yul\":1030:1118   */\n  iszero\n  tag_52\n  jumpi\n    /* \"#utility.yul\":1098:1116   */\n  tag_53\n  tag_16\n  jump\t// in\ntag_53:\n    /* \"#utility.yul\":1030:1118   */\ntag_52:\n    /* \"#utility.yul\":1138:1148   */\n  dup1\n    /* \"#utility.yul\":1134:1136   */\n  0x40\n    /* \"#utility.yul\":1127:1149   */\n  mstore\n    /* \"#utility.yul\":917:1155   */\n  pop\n    /* \"#utility.yul\":874:1155   */\n  pop\n  pop\n  jump\t// out\n    /* \"#utility.yul\":1161:1290   */\ntag_18:\n    /* \"#utility.yul\":1195:1201   */\n  0x00\n    /* \"#utility.yul\":1222:1242   */\n  tag_55\n  tag_10\n  jump\t// in\ntag_55:\n    /* \"#utility.yul\":1212:1242   */\n  swap1\n  pop\n    /* \"#utility.yul\":1251:1284   */\n  tag_56\n    /* \"#utility.yul\":1279:1283   */\n  dup3\n    /* \"#utility.yul\":1271:1277   */\n  dup3\n    /* \"#utility.yul\":1251:1284   */\n  tag_17\n  jump\t// in\ntag_56:\n    /* \"#utility.yul\":1161:1290   */\n  swap2\n  swap1\n  pop\n  jump\t// out\n    /* \"#utility.yul\":1296:1604   */\ntag_19:\n    /* \"#utility.yul\":1358:1362   */\n  0x00\n    /* \"#utility.yul\":1448:1466   */\n  0xffffffffffffffff\n    /* \"#utility.yul\":1440:1446   */\n  dup3\n    /* \"#utility.yul\":1437:1467   */\n  gt\n    /* \"#utility.yul\":1434:1490   */\n  iszero\n  tag_58\n  jumpi\n    /* \"#utility.yul\":1470:1488   */\n  tag_59\n  tag_16\n  jump\t// in\ntag_59:\n    /* \"#utility.yul\":1434:1490   */\ntag_58:\n    /* \"#utility.yul\":1508:1537   */\n  tag_60\n    /* \"#utility.yul\":1530:1536   */\n  dup3\n    /* \"#utility.yul\":1508:1537   */\n  tag_15\n  jump\t// in\ntag_60:\n    /* \"#utility.yul\":1500:1537   */\n  swap1\n  pop\n    /* \"#utility.yul\":1592:1596   */\n  0x20\n    /* \"#utility.yul\":1586:1590   */\n  dup2\n    /* \"#utility.yul\":1582:1597   */\n  add\n    /* \"#utility.yul\":1574:1597   */\n  swap1\n  pop\n    /* \"#utility.yul\":1296:1604   */\n  swap2\n  swap1\n  pop\n  jump\t// out\n    /* \"#utility.yul\":1610:1749   */\ntag_20:\n    /* \"#utility.yul\":1699:1705   */\n  dup3\n    /* \"#utility.yul\":1694:1697   */\n  dup2\n    /* \"#utility.yul\":1689:1692   */\n  dup4\n    /* \"#utility.yul\":1683:1706   */\n  mcopy\n    /* \"#utility.yul\":1740:1741   */\n  0x00\n    /* \"#utility.yul\":1731:1737   */\n  dup4\n    /* \"#utility.yul\":1726:1729   */\n  dup4\n    /* \"#utility.yul\":1722:1738   */\n  add\n    /* \"#utility.yul\":1715:1742   */\n  mstore\n    /* \"#utility.yul\":1610:1749   */\n  pop\n  pop\n  pop\n  jump\t// out\n    /* \"#utility.yul\":1755:2189   */\ntag_21:\n    /* \"#utility.yul\":1844:1849   */\n  0x00\n    /* \"#utility.yul\":1869:1935   */\n  tag_63\n    /* \"#utility.yul\":1885:1934   */\n  tag_64\n    /* \"#utility.yul\":1927:1933   */\n  dup5\n    /* \"#utility.yul\":1885:1934   */\n  tag_19\n  jump\t// in\ntag_64:\n    /* \"#utility.yul\":1869:1935   */\n  tag_18\n  jump\t// in\ntag_63:\n    /* \"#utility.yul\":1860:1935   */\n  swap1\n  pop\n    /* \"#utility.yul\":1958:1964   */\n  dup3\n    /* \"#utility.yul\":1951:1956   */\n  dup2\n    /* \"#utility.yul\":1944:1965   */\n  mstore\n    /* \"#utility.yul\":1996:2000   */\n  0x20\n    /* \"#utility.yul\":1989:1994   */\n  dup2\n    /* \"#utility.yul\":1985:2001   */\n  add\n    /* \"#utility.yul\":2034:2037   */\n  dup5\n    /* \"#utility.yul\":2025:2031   */\n  dup5\n    /* \"#utility.yul\":2020:2023   */\n  dup5\n    /* \"#utility.yul\":2016:2032   */\n  add\n    /* \"#utility.yul\":2013:2038   */\n  gt\n    /* \"#utility.yul\":2010:2122   */\n  iszero\n  tag_65\n  jumpi\n    /* \"#utility.yul\":2041:2120   */\n  tag_66\n  tag_14\n  jump\t// in\ntag_66:\n    /* \"#utility.yul\":2010:2122   */\ntag_65:\n    /* \"#utility.yul\":2131:2183   */\n  tag_67\n    /* \"#utility.yul\":2176:2182   */\n  dup5\n    /* \"#utility.yul\":2171:2174   */\n  dup3\n    /* \"#utility.yul\":2166:2169   */\n  dup6\n    /* \"#utility.yul\":2131:2183   */\n  tag_20\n  jump\t// in\ntag_67:\n    /* \"#utility.yul\":1850:2189   */\n  pop\n    /* \"#utility.yul\":1755:2189   */\n  swap4\n  swap3\n  pop\n  pop\n  pop\n  jump\t// out\n    /* \"#utility.yul\":2209:2564   */\ntag_22:\n    /* \"#utility.yul\":2276:2281   */\n  0x00\n    /* \"#utility.yul\":2325:2328   */\n  dup3\n    /* \"#utility.yul\":2318:2322   */\n  0x1f\n    /* \"#utility.yul\":2310:2316   */\n  dup4\n    /* \"#utility.yul\":2306:2323   */\n  add\n    /* \"#utility.yul\":2302:2329   */\n  slt\n    /* \"#utility.yul\":2292:2414   */\n  tag_69\n  jumpi\n    /* \"#utility.yul\":2333:2412   */\n  tag_70\n  tag_13\n  jump\t// in\ntag_70:\n    /* \"#utility.yul\":2292:2414   */\ntag_69:\n    /* \"#utility.yul\":2443:2449   */\n  dup2\n    /* \"#utility.yul\":2437:2450   */\n  mload\n    /* \"#utility.yul\":2468:2558   */\n  tag_71\n    /* \"#utility.yul\":2554:2557   */\n  dup5\n    /* \"#utility.yul\":2546:2552   */\n  dup3\n    /* \"#utility.yul\":2539:2543   */\n  0x20\n    /* \"#utility.yul\":2531:2537   */\n  dup7\n    /* \"#utility.yul\":2527:2544   */\n  add\n    /* \"#utility.yul\":2468:2558   */\n  tag_21\n  jump\t// in\ntag_71:\n    /* \"#utility.yul\":2459:2558   */\n  swap2\n  pop\n    /* \"#utility.yul\":2282:2564   */\n  pop\n    /* \"#utility.yul\":2209:2564   */\n  swap3\n  swap2\n  pop\n  pop\n  jump\t// out\n    /* \"#utility.yul\":2570:3423   */\ntag_3:\n    /* \"#utility.yul\":2669:2675   */\n  0x00\n    /* \"#utility.yul\":2677:2683   */\n  dup1\n    /* \"#utility.yul\":2726:2728   */\n  0x40\n    /* \"#utility.yul\":2714:2723   */\n  dup4\n    /* \"#utility.yul\":2705:2712   */\n  dup6\n    /* \"#utility.yul\":2701:2724   */\n  sub\n    /* \"#utility.yul\":2697:2729   */\n  slt\n    /* \"#utility.yul\":2694:2813   */\n  iszero\n  tag_73\n  jumpi\n    /* \"#utility.yul\":2732:2811   */\n  tag_74\n  tag_11\n  jump\t// in\ntag_74:\n    /* \"#utility.yul\":2694:2813   */\ntag_73:\n    /* \"#utility.yul\":2873:2874   */\n  0x00\n    /* \"#utility.yul\":2862:2871   */\n  dup4\n    /* \"#utility.yul\":2858:2875   */\n  add\n    /* \"#utility.yul\":2852:2876   */\n  mload\n    /* \"#utility.yul\":2903:2921   */\n  0xffffffffffffffff\n    /* \"#utility.yul\":2895:2901   */\n  dup2\n    /* \"#utility.yul\":2892:2922   */\n  gt\n    /* \"#utility.yul\":2889:3006   */\n  iszero\n  tag_75\n  jumpi\n    /* \"#utility.yul\":2925:3004   */\n  tag_76\n  tag_12\n  jump\t// in\ntag_76:\n    /* \"#utility.yul\":2889:3006   */\ntag_75:\n    /* \"#utility.yul\":3030:3104   */\n  tag_77\n    /* \"#utility.yul\":3096:3103   */\n  dup6\n    /* \"#utility.yul\":3087:3093   */\n  dup3\n    /* \"#utility.yul\":3076:3085   */\n  dup7\n    /* \"#utility.yul\":3072:3094   */\n  add\n    /* \"#utility.yul\":3030:3104   */\n  tag_22\n  jump\t// in\ntag_77:\n    /* \"#utility.yul\":3020:3104   */\n  swap3\n  pop\n    /* \"#utility.yul\":2823:3114   */\n  pop\n    /* \"#utility.yul\":3174:3176   */\n  0x20\n    /* \"#utility.yul\":3163:3172   */\n  dup4\n    /* \"#utility.yul\":3159:3177   */\n  add\n    /* \"#utility.yul\":3153:3178   */\n  mload\n    /* \"#utility.yul\":3205:3223   */\n  0xffffffffffffffff\n    /* \"#utility.yul\":3197:3203   */\n  dup2\n    /* \"#utility.yul\":3194:3224   */\n  gt\n    /* \"#utility.yul\":3191:3308   */\n  iszero\n  tag_78\n  jumpi\n    /* \"#utility.yul\":3227:3306   */\n  tag_79\n  tag_12\n  jump\t// in\ntag_79:\n    /* \"#utility.yul\":3191:3308   */\ntag_78:\n    /* \"#utility.yul\":3332:3406   */\n  tag_80\n    /* \"#utility.yul\":3398:3405   */\n  dup6\n    /* \"#utility.yul\":3389:3395   */\n  dup3\n    /* \"#utility.yul\":3378:3387   */\n  dup7\n    /* \"#utility.yul\":3374:3396   */\n  add\n    /* \"#utility.yul\":3332:3406   */\n  tag_22\n  jump\t// in\ntag_80:\n    /* \"#utility.yul\":3322:3406   */\n  swap2\n  pop\n    /* \"#utility.yul\":3124:3416   */\n  pop\n    /* \"#utility.yul\":2570:3423   */\n  swap3\n  pop\n  swap3\n  swap1\n  pop\n  jump\t// out\n    /* \"#utility.yul\":3429:3528   */\ntag_23:\n    /* \"#utility.yul\":3481:3487   */\n  0x00\n    /* \"#utility.yul\":3515:3520   */\n  dup2\n    /* \"#utility.yul\":3509:3521   */\n  mload\n    /* \"#utility.yul\":3499:3521   */\n  swap1\n  pop\n    /* \"#utility.yul\":3429:3528   */\n  swap2\n  swap1\n  pop\n  jump\t// out\n    /* \"#utility.yul\":3534:3714   */\ntag_24:\n    /* \"#utility.yul\":3582:3659   */\n  0x4e487b7100000000000000000000000000000000000000000000000000000000\n    /* \"#utility.yul\":3579:3580   */\n  0x00\n    /* \"#utility.yul\":3572:3660   */\n  mstore\n    /* \"#utility.yul\":3679:3683   */\n  0x22\n    /* \"#utility.yul\":3676:3677   */\n  0x04\n    /* \"#utility.yul\":3669:3684   */\n  mstore\n    /* \"#utility.yul\":3703:3707   */\n  0x24\n    /* \"#utility.yul\":3700:3701   */\n  0x00\n    /* \"#utility.yul\":3693:3708   */\n  revert\n    /* \"#utility.yul\":3720:4040   */\ntag_25:\n    /* \"#utility.yul\":3764:3770   */\n  0x00\n    /* \"#utility.yul\":3801:3802   */\n  0x02\n    /* \"#utility.yul\":3795:3799   */\n  dup3\n    /* \"#utility.yul\":3791:3803   */\n  div\n    /* \"#utility.yul\":3781:3803   */\n  swap1\n  pop\n    /* \"#utility.yul\":3848:3849   */\n  0x01\n    /* \"#utility.yul\":3842:3846   */\n  dup3\n    /* \"#utility.yul\":3838:3850   */\n  and\n    /* \"#utility.yul\":3869:3887   */\n  dup1\n    /* \"#utility.yul\":3859:3940   */\n  tag_84\n  jumpi\n    /* \"#utility.yul\":3925:3929   */\n  0x7f\n    /* \"#utility.yul\":3917:3923   */\n  dup3\n    /* \"#utility.yul\":3913:3930   */\n  and\n    /* \"#utility.yul\":3903:3930   */\n  swap2\n  pop\n    /* \"#utility.yul\":3859:3940   */\ntag_84:\n    /* \"#utility.yul\":3987:3989   */\n  0x20\n    /* \"#utility.yul\":3979:3985   */\n  dup3\n    /* \"#utility.yul\":3976:3990   */\n  lt\n    /* \"#utility.yul\":3956:3974   */\n  dup2\n    /* \"#utility.yul\":3953:3991   */\n  sub\n    /* \"#utility.yul\":3950:4034   */\n  tag_85\n  jumpi\n    /* \"#utility.yul\":4006:4024   */\n  tag_86\n  tag_24\n  jump\t// in\ntag_86:\n    /* \"#utility.yul\":3950:4034   */\ntag_85:\n    /* \"#utility.yul\":3771:4040   */\n  pop\n    /* \"#utility.yul\":3720:4040   */\n  swap2\n  swap1\n  pop\n  jump\t// out\n    /* \"#utility.yul\":4046:4187   */\ntag_26:\n    /* \"#utility.yul\":4095:4099   */\n  0x00\n    /* \"#utility.yul\":4118:4121   */\n  dup2\n    /* \"#utility.yul\":4110:4121   */\n  swap1\n  pop\n    /* \"#utility.yul\":4141:4144   */\n  dup2\n    /* \"#utility.yul\":4138:4139   */\n  0x00\n    /* \"#utility.yul\":4131:4145   */\n  mstore\n    /* \"#utility.yul\":4175:4179   */\n  0x20\n    /* \"#utility.yul\":4172:4173   */\n  0x00\n    /* \"#utility.yul\":4162:4180   */\n  keccak256\n    /* \"#utility.yul\":4154:4180   */\n  swap1\n  pop\n    /* \"#utility.yul\":4046:4187   */\n  swap2\n  swap1\n  pop\n  jump\t// out\n    /* \"#utility.yul\":4193:4286   */\ntag_27:\n    /* \"#utility.yul\":4230:4236   */\n  0x00\n    /* \"#utility.yul\":4277:4279   */\n  0x20\n    /* \"#utility.yul\":4272:4274   */\n  0x1f\n    /* \"#utility.yul\":4265:4270   */\n  dup4\n    /* \"#utility.yul\":4261:4275   */\n  add\n    /* \"#utility.yul\":4257:4280   */\n  div\n    /* \"#utility.yul\":4247:4280   */\n  swap1\n  pop\n    /* \"#utility.yul\":4193:4286   */\n  swap2\n  swap1\n  pop\n  jump\t// out\n    /* \"#utility.yul\":4292:4399   */\ntag_28:\n    /* \"#utility.yul\":4336:4344   */\n  0x00\n    /* \"#utility.yul\":4386:4391   */\n  dup3\n    /* \"#utility.yul\":4380:4384   */\n  dup3\n    /* \"#utility.yul\":4376:4392   */\n  shl\n    /* \"#utility.yul\":4355:4392   */\n  swap1\n  pop\n    /* \"#utility.yul\":4292:4399   */\n  swap3\n  swap2\n  pop\n  pop\n  jump\t// out\n    /* \"#utility.yul\":4405:4798   */\ntag_29:\n    /* \"#utility.yul\":4474:4480   */\n  0x00\n    /* \"#utility.yul\":4524:4525   */\n  0x08\n    /* \"#utility.yul\":4512:4522   */\n  dup4\n    /* \"#utility.yul\":4508:4526   */\n  mul\n    /* \"#utility.yul\":4547:4644   */\n  tag_91\n    /* \"#utility.yul\":4577:4643   */\n  0xffffffffffffffffffffffffffffffffffffffffffffffffffffffffffffffff\n    /* \"#utility.yul\":4566:4575   */\n  dup3\n    /* \"#utility.yul\":4547:4644   */\n  tag_28\n  jump\t// in\ntag_91:\n    /* \"#utility.yul\":4665:4704   */\n  tag_92\n    /* \"#utility.yul\":4695:4703   */\n  dup7\n    /* \"#utility.yul\":4684:4693   */\n  dup4\n    /* \"#utility.yul\":4665:4704   */\n  tag_28\n  jump\t// in\ntag_92:\n    /* \"#utility.yul\":4653:4704   */\n  swap6\n  pop\n    /* \"#utility.yul\":4737:4741   */\n  dup1\n    /* \"#utility.yul\":4733:4742   */\n  not\n    /* \"#utility.yul\":4726:4731   */\n  dup5\n    /* \"#utility.yul\":4722:4743   */\n  and\n    /* \"#utility.yul\":4713:4743   */\n  swap4\n  pop\n    /* \"#utility.yul\":4786:4790   */\n  dup1\n    /* \"#utility.yul\":4776:4784   */\n  dup7\n    /* \"#utility.yul\":4772:4791   */\n  and\n    /* \"#utility.yul\":4765:4770   */\n  dup5\n    /* \"#utility.yul\":4762:4792   */\n  or\n    /* \"#utility.yul\":4752:4792   */\n  swap3\n  pop\n    /* \"#utility.yul\":4481:4798   */\n  pop\n  pop\n    /* \"#utility.yul\":4405:4798   */\n  swap4\n  swap3\n  pop\n  pop\n  pop\n  jump\t// out\n    /* \"#utility.yul\":4804:4881   */\ntag_30:\n    /* \"#utility.yul\":4841:4848   */\n  0x00\n    /* \"#utility.yul\":4870:4875   */\n  dup2\n    /* \"#utility.yul\":4859:4875   */\n  swap1\n  pop\n    /* \"#utility.yul\":4804:4881   */\n  swap2\n  swap1\n  pop\n  jump\t// out\n    /* \"#utility.yul\":4887:4947   */\ntag_31:\n    /* \"#utility.yul\":4915:4918   */\n  0x00\n    /* \"#utility.yul\":4936:4941   */\n  dup2\n    /* \"#utility.yul\":4929:4941   */\n  swap1\n  pop\n    /* \"#utility.yul\":4887:4947   */\n  swap2\n  swap1\n  pop\n  jump\t// out\n    /* \"#utility.yul\":4953:5095   */\ntag_32:\n    /* \"#utility.yul\":5003:5012   */\n  0x00\n    /* \"#utility.yul\":5036:5089   */\n  tag_96\n    /* \"#utility.yul\":5054:5088   */\n  tag_97\n    /* \"#utility.yul\":5063:5087   */\n  tag_98\n    /* \"#utility.yul\":5081:5086   */\n  dup5\n    /* \"#utility.yul\":5063:5087   */\n  tag_30\n  jump\t// in\ntag_98:\n    /* \"#utility.yul\":5054:5088   */\n  tag_31\n  jump\t// in\ntag_97:\n    /* \"#utility.yul\":5036:5089   */\n  tag_30\n  jump\t// in\ntag_96:\n    /* \"#utility.yul\":5023:5089   */\n  swap1\n  pop\n    /* \"#utility.yul\":4953:5095   */\n  swap2\n  swap1\n  pop\n  jump\t// out\n    /* \"#utility.yul\":5101:5176   */\ntag_33:\n    /* \"#utility.yul\":5144:5147   */\n  0x00\n    /* \"#utility.yul\":5165:5170   */\n  dup2\n    /* \"#utility.yul\":5158:5170   */\n  swap1\n  pop\n    /* \"#utility.yul\":5101:5176   */\n  swap2\n  swap1\n  pop\n  jump\t// out\n    /* \"#utility.yul\":5182:5451   */\ntag_34:\n    /* \"#utility.yul\":5292:5331   */\n  tag_101\n    /* \"#utility.yul\":5323:5330   */\n  dup4\n    /* \"#utility.yul\":5292:5331   */\n  tag_32\n  jump\t// in\ntag_101:\n    /* \"#utility.yul\":5353:5444   */\n  tag_102\n    /* \"#utility.yul\":5402:5443   */\n  tag_103\n    /* \"#utility.yul\":5426:5442   */\n  dup3\n    /* \"#utility.yul\":5402:5443   */\n  tag_33\n  jump\t// in\ntag_103:\n    /* \"#utility.yul\":5394:5400   */\n  dup5\n    /* \"#utility.yul\":5387:5391   */\n  dup5\n    /* \"#utility.yul\":5381:5392   */\n  sload\n    /* \"#utility.yul\":5353:5444   */\n  tag_29\n  jump\t// in\ntag_102:\n    /* \"#utility.yul\":5347:5351   */\n  dup3\n    /* \"#utility.yul\":5340:5445   */\n  sstore\n    /* \"#utility.yul\":5258:5451   */\n  pop\n    /* \"#utility.yul\":5182:5451   */\n  pop\n  pop\n  pop\n  jump\t// out\n    /* \"#utility.yul\":5457:5530   */\ntag_35:\n    /* \"#utility.yul\":5502:5505   */\n  0x00\n    /* \"#utility.yul\":5457:5530   */\n  swap1\n  jump\t// out\n    /* \"#utility.yul\":5536:5725   */\ntag_36:\n    /* \"#utility.yul\":5613:5645   */\n  tag_106\n  tag_35\n  jump\t// in\ntag_106:\n    /* \"#utility.yul\":5654:5719   */\n  tag_107\n    /* \"#utility.yul\":5712:5718   */\n  dup2\n    /* \"#utility.yul\":5704:5710   */\n  dup5\n    /* \"#utility.yul\":5698:5702   */\n  dup5\n    /* \"#utility.yul\":5654:5719   */\n  tag_34\n  jump\t// in\ntag_107:\n    /* \"#utility.yul\":5589:5725   */\n  pop\n    /* \"#utility.yul\":5536:5725   */\n  pop\n  pop\n  jump\t// out\n    /* \"#utility.yul\":5731:5917   */\ntag_37:\n    /* \"#utility.yul\":5791:5911   */\ntag_109:\n    /* \"#utility.yul\":5808:5811   */\n  dup2\n    /* \"#utility.yul\":5801:5806   */\n  dup2\n    /* \"#utility.yul\":5798:5812   */\n  lt\n    /* \"#utility.yul\":5791:5911   */\n  iszero\n  tag_111\n  jumpi\n    /* \"#utility.yul\":5862:5901   */\n  tag_112\n    /* \"#utility.yul\":5899:5900   */\n  0x00\n    /* \"#utility.yul\":5892:5897   */\n  dup3\n    /* \"#utility.yul\":5862:5901   */\n  tag_36\n  jump\t// in\ntag_112:\n    /* \"#utility.yul\":5835:5836   */\n  0x01\n    /* \"#utility.yul\":5828:5833   */\n  dup2\n    /* \"#utility.yul\":5824:5837   */\n  add\n    /* \"#utility.yul\":5815:5837   */\n  swap1\n  pop\n    /* \"#utility.yul\":5791:5911   */\n  jump(tag_109)\ntag_111:\n    /* \"#utility.yul\":5731:5917   */\n  pop\n  pop\n  jump\t// out\n    /* \"#utility.yul\":5923:6466   */\ntag_38:\n    /* \"#utility.yul\":6024:6026   */\n  0x1f\n    /* \"#utility.yul\":6019:6022   */\n  dup3\n    /* \"#utility.yul\":6016:6027   */\n  gt\n    /* \"#utility.yul\":6013:6459   */\n  iszero\n  tag_114\n  jumpi\n    /* \"#utility.yul\":6058:6096   */\n  tag_115\n    /* \"#utility.yul\":6090:6095   */\n  dup2\n    /* \"#utility.yul\":6058:6096   */\n  tag_26\n  jump\t// in\ntag_115:\n    /* \"#utility.yul\":6142:6171   */\n  tag_116\n    /* \"#utility.yul\":6160:6170   */\n  dup5\n    /* \"#utility.yul\":6142:6171   */\n  tag_27\n  jump\t// in\ntag_116:\n    /* \"#utility.yul\":6132:6140   */\n  dup2\n    /* \"#utility.yul\":6128:6172   */\n  add\n    /* \"#utility.yul\":6325:6327   */\n  0x20\n    /* \"#utility.yul\":6313:6323   */\n  dup6\n    /* \"#utility.yul\":6310:6328   */\n  lt\n    /* \"#utility.yul\":6307:6356   */\n  iszero\n  tag_117\n  jumpi\n    /* \"#utility.yul\":6346:6354   */\n  dup2\n    /* \"#utility.yul\":6331:6354   */\n  swap1\n  pop\n    /* \"#utility.yul\":6307:6356   */\ntag_117:\n    /* \"#utility.yul\":6369:6449   */\n  tag_118\n    /* \"#utility.yul\":6425:6447   */\n  tag_119\n    /* \"#utility.yul\":6443:6446   */\n  dup6\n    /* \"#utility.yul\":6425:6447   */\n  tag_27\n  jump\t// in\ntag_119:\n    /* \"#utility.yul\":6415:6423   */\n  dup4\n    /* \"#utility.yul\":6411:6448   */\n  add\n    /* \"#utility.yul\":6398:6409   */\n  dup3\n    /* \"#utility.yul\":6369:6449   */\n  tag_37\n  jump\t// in\ntag_118:\n    /* \"#utility.yul\":6028:6459   */\n  pop\n  pop\n    /* \"#utility.yul\":6013:6459   */\ntag_114:\n    /* \"#utility.yul\":5923:6466   */\n  pop\n  pop\n  pop\n  jump\t// out\n    /* \"#utility.yul\":6472:6589   */\ntag_39:\n    /* \"#utility.yul\":6526:6534   */\n  0x00\n    /* \"#utility.yul\":6576:6581   */\n  dup3\n    /* \"#utility.yul\":6570:6574   */\n  dup3\n    /* \"#utility.yul\":6566:6582   */\n  shr\n    /* \"#utility.yul\":6545:6582   */\n  swap1\n  pop\n    /* \"#utility.yul\":6472:6589   */\n  swap3\n  swap2\n  pop\n  pop\n  jump\t// out\n    /* \"#utility.yul\":6595:6764   */\ntag_40:\n    /* \"#utility.yul\":6639:6645   */\n  0x00\n    /* \"#utility.yul\":6672:6723   */\n  tag_122\n    /* \"#utility.yul\":6720:6721   */\n  0x00\n    /* \"#utility.yul\":6716:6722   */\n  not\n    /* \"#utility.yul\":6708:6713   */\n  dup5\n    /* \"#utility.yul\":6705:6706   */\n  0x08\n    /* \"#utility.yul\":6701:6714   */\n  mul\n    /* \"#utility.yul\":6672:6723   */\n  tag_39\n  jump\t// in\ntag_122:\n    /* \"#utility.yul\":6668:6724   */\n  not\n    /* \"#utility.yul\":6753:6757   */\n  dup1\n    /* \"#utility.yul\":6747:6751   */\n  dup4\n    /* \"#utility.yul\":6743:6758   */\n  and\n    /* \"#utility.yul\":6733:6758   */\n  swap2\n  pop\n    /* \"#utility.yul\":6646:6764   */\n  pop\n    /* \"#utility.yul\":6595:6764   */\n  swap3\n  swap2\n  pop\n  pop\n  jump\t// out\n    /* \"#utility.yul\":6769:7064   */\ntag_41:\n    /* \"#utility.yul\":6845:6849   */\n  0x00\n    /* \"#utility.yul\":6991:7020   */\n  tag_124\n    /* \"#utility.yul\":7016:7019   */\n  dup4\n    /* \"#utility.yul\":7010:7014   */\n  dup4\n    /* \"#utility.yul\":6991:7020   */\n  tag_40\n  jump\t// in\ntag_124:\n    /* \"#utility.yul\":6983:7020   */\n  swap2\n  pop\n    /* \"#utility.yul\":7053:7056   */\n  dup3\n    /* \"#utility.yul\":7050:7051   */\n  0x02\n    /* \"#utility.yul\":7046:7057   */\n  mul\n    /* \"#utility.yul\":7040:7044   */\n  dup3\n    /* \"#utility.yul\":7037:7058   */\n  or\n    /* \"#utility.yul\":7029:7058   */\n  swap1\n  pop\n    /* \"#utility.yul\":6769:7064   */\n  swap3\n  swap2\n  pop\n  pop\n  jump\t// out\n    /* \"#utility.yul\":7069:8464   */\ntag_7:\n    /* \"#utility.yul\":7186:7223   */\n  tag_126\n    /* \"#utility.yul\":7219:7222   */\n  dup3\n    /* \"#utility.yul\":7186:7223   */\n  tag_23\n  jump\t// in\ntag_126:\n    /* \"#utility.yul\":7288:7306   */\n  0xffffffffffffffff\n    /* \"#utility.yul\":7280:7286   */\n  dup2\n    /* \"#utility.yul\":7277:7307   */\n  gt\n    /* \"#utility.yul\":7274:7330   */\n  iszero\n  tag_127\n  jumpi\n    /* \"#utility.yul\":7310:7328   */\n  tag_128\n  tag_16\n  jump\t// in\ntag_128:\n    /* \"#utility.yul\":7274:7330   */\ntag_127:\n    /* \"#utility.yul\":7354:7392   */\n  tag_129\n    /* \"#utility.yul\":7386:7390   */\n  dup3\n    /* \"#utility.yul\":7380:7391   */\n  sload\n    /* \"#utility.yul\":7354:7392   */\n  tag_25\n  jump\t// in\ntag_129:\n    /* \"#utility.yul\":7439:7506   */\n  tag_130\n    /* \"#utility.yul\":7499:7505   */\n  dup3\n    /* \"#utility.yul\":7491:7497   */\n  dup3\n    /* \"#utility.yul\":7485:7489   */\n  dup6\n    /* \"#utility.yul\":7439:7506   */\n  tag_38\n  jump\t// in\ntag_130:\n    /* \"#utility.yul\":7533:7534   */\n  0x00\n    /* \"#utility.yul\":7557:7561   */\n  0x20\n    /* \"#utility.yul\":7544:7561   */\n  swap1\n  pop\n    /* \"#utility.yul\":7589:7591   */\n  0x1f\n    /* \"#utility.yul\":7581:7587   */\n  dup4\n    /* \"#utility.yul\":7578:7592   */\n  gt\n    /* \"#utility.yul\":7606:7607   */\n  0x01\n    /* \"#utility.yul\":7601:8219   */\n  dup2\n  eq\n  tag_132\n  jumpi\n    /* \"#utility.yul\":8263:8264   */\n  0x00\n    /* \"#utility.yul\":8280:8286   */\n  dup5\n    /* \"#utility.yul\":8277:8354   */\n  iszero\n  tag_133\n  jumpi\n    /* \"#utility.yul\":8329:8338   */\n  dup3\n    /* \"#utility.yul\":8324:8327   */\n  dup8\n    /* \"#utility.yul\":8320:8339   */\n  add\n    /* \"#utility.yul\":8314:8340   */\n  mload\n    /* \"#utility.yul\":8305:8340   */\n  swap1\n  pop\n    /* \"#utility.yul\":8277:8354   */\ntag_133:\n    /* \"#utility.yul\":8380:8447   */\n  tag_134\n    /* \"#utility.yul\":8440:8446   */\n  dup6\n    /* \"#utility.yul\":8433:8438   */\n  dup3\n    /* \"#utility.yul\":8380:8447   */\n  tag_41\n  jump\t// in\ntag_134:\n    /* \"#utility.yul\":8374:8378   */\n  dup7\n    /* \"#utility.yul\":8367:8448   */\n  sstore\n    /* \"#utility.yul\":8236:8458   */\n  pop\n    /* \"#utility.yul\":7571:8458   */\n  jump(tag_131)\n    /* \"#utility.yul\":7601:8219   */\ntag_132:\n    /* \"#utility.yul\":7653:7657   */\n  0x1f\n    /* \"#utility.yul\":7649:7658   */\n  not\n    /* \"#utility.yul\":7641:7647   */\n  dup5\n    /* \"#utility.yul\":7637:7659   */\n  and\n    /* \"#utility.yul\":7687:7724   */\n  tag_135\n    /* \"#utility.yul\":7719:7723   */\n  dup7\n    /* \"#utility.yul\":7687:7724   */\n  tag_26\n  jump\t// in\ntag_135:\n    /* \"#utility.yul\":7746:7747   */\n  0x00\n    /* \"#utility.yul\":7760:7968   */\ntag_136:\n    /* \"#utility.yul\":7774:7781   */\n  dup3\n    /* \"#utility.yul\":7771:7772   */\n  dup2\n    /* \"#utility.yul\":7768:7782   */\n  lt\n    /* \"#utility.yul\":7760:7968   */\n  iszero\n  tag_138\n  jumpi\n    /* \"#utility.yul\":7853:7862   */\n  dup5\n    /* \"#utility.yul\":7848:7851   */\n  dup10\n    /* \"#utility.yul\":7844:7863   */\n  add\n    /* \"#utility.yul\":7838:7864   */\n  mload\n    /* \"#utility.yul\":7830:7836   */\n  dup3\n    /* \"#utility.yul\":7823:7865   */\n  sstore\n    /* \"#utility.yul\":7904:7905   */\n  0x01\n    /* \"#utility.yul\":7896:7902   */\n  dup3\n    /* \"#utility.yul\":7892:7906   */\n  add\n    /* \"#utility.yul\":7882:7906   */\n  swap2\n  pop\n    /* \"#utility.yul\":7951:7953   */\n  0x20\n    /* \"#utility.yul\":7940:7949   */\n  dup6\n    /* \"#utility.yul\":7936:7954   */\n  add\n    /* \"#utility.yul\":7923:7954   */\n  swap5\n  pop\n    /* \"#utility.yul\":7797:7801   */\n  0x20\n    /* \"#utility.yul\":7794:7795   */\n  dup2\n    /* \"#utility.yul\":7790:7802   */\n  add\n    /* \"#utility.yul\":7785:7802   */\n  swap1\n  pop\n    /* \"#utility.yul\":7760:7968   */\n  jump(tag_136)\ntag_138:\n    /* \"#utility.yul\":7996:8002   */\n  dup7\n    /* \"#utility.yul\":7987:7994   */\n  dup4\n    /* \"#utility.yul\":7984:8003   */\n  lt\n    /* \"#utility.yul\":7981:8160   */\n  iszero\n  tag_139\n  jumpi\n    /* \"#utility.yul\":8054:8063   */\n  dup5\n    /* \"#utility.yul\":8049:8052   */\n  dup10\n    /* \"#utility.yul\":8045:8064   */\n  add\n    /* \"#utility.yul\":8039:8065   */\n  mload\n    /* \"#utility.yul\":8097:8145   */\n  tag_140\n    /* \"#utility.yul\":8139:8143   */\n  0x1f\n    /* \"#utility.yul\":8131:8137   */\n  dup10\n    /* \"#utility.yul\":8127:8144   */\n  and\n    /* \"#utility.yul\":8116:8125   */\n  dup3\n    /* \"#utility.yul\":8097:8145   */\n  tag_40\n  jump\t// in\ntag_140:\n    /* \"#utility.yul\":8089:8095   */\n  dup4\n    /* \"#utility.yul\":8082:8146   */\n  sstore\n    /* \"#utility.yul\":8004:8160   */\n  pop\n    /* \"#utility.yul\":7981:8160   */\ntag_139:\n    /* \"#utility.yul\":8206:8207   */\n  0x01\n    /* \"#utility.yul\":8202:8203   */\n  0x02\n    /* \"#utility.yul\":8194:8200   */\n  dup9\n    /* \"#utility.yul\":8190:8204   */\n  mul\n    /* \"#utility.yul\":8186:8208   */\n  add\n    /* \"#utility.yul\":8180:8184   */\n  dup9\n    /* \"#utility.yul\":8173:8209   */\n  sstore\n    /* \"#utility.yul\":7608:8219   */\n  pop\n  pop\n  pop\n    /* \"#utility.yul\":7571:8458   */\ntag_131:\n  pop\n    /* \"#utility.yul\":7161:8464   */\n  pop\n  pop\n  pop\n    /* \"#utility.yul\":7069:8464   */\n  pop\n  pop\n  jump\t// out\n    /* \"34_ERC721/ERC721.sol\":201:7303  contract ERC721 is IERC721,IERC721Metadata{... */\ntag_9:\n  dataSize(sub_0)\n  dup1\n  dataOffset(sub_0)\n  0x00\n  codecopy\n  0x00\n  return\nstop\n\nsub_0: assembly {\n        /* \"34_ERC721/ERC721.sol\":201:7303  contract ERC721 is IERC721,IERC721Metadata{... */\n      mstore(0x40, 0x80)\n      callvalue\n      dup1\n      iszero\n      tag_1\n      jumpi\n      0x00\n      dup1\n      revert\n    tag_1:\n      pop\n      jumpi(tag_2, lt(calldatasize, 0x04))\n      shr(0xe0, calldataload(0x00))\n      dup1\n      0x6352211e\n      gt\n      tag_16\n      jumpi\n      dup1\n      0xa22cb465\n      gt\n      tag_17\n      jumpi\n      dup1\n      0xa22cb465\n      eq\n      tag_12\n      jumpi\n      dup1\n      0xb88d4fde\n      eq\n      tag_13\n      jumpi\n      dup1\n      0xc87b56dd\n      eq\n      tag_14\n      jumpi\n      dup1\n      0xebd1d359\n      eq\n      tag_15\n      jumpi\n      jump(tag_2)\n    tag_17:\n      dup1\n      0x6352211e\n      eq\n      tag_9\n      jumpi\n      dup1\n      0x70a08231\n      eq\n      tag_10\n      jumpi\n      dup1\n      0x95d89b41\n      eq\n      tag_11\n      jumpi\n      jump(tag_2)\n    tag_16:\n      dup1\n      0x01ffc9a7\n      eq\n      tag_3\n      jumpi\n      dup1\n      0x06fdde03\n      eq\n      tag_4\n      jumpi\n      dup1\n      0x081812fc\n      eq\n      tag_5\n      jumpi\n      dup1\n      0x095ea7b3\n      eq\n      tag_6\n      jumpi\n      dup1\n      0x23b872dd\n      eq\n      tag_7\n      jumpi\n      dup1\n      0x42842e0e\n      eq\n      tag_8\n      jumpi\n    tag_2:\n      0x00\n      dup1\n      revert\n        /* \"34_ERC721/ERC721.sol\":1027:1315  function supportsInterface(bytes4 interfaceId) external pure override  returns(bool){... */\n    tag_3:\n      tag_18\n      0x04\n      dup1\n      calldatasize\n      sub\n      dup2\n      add\n      swap1\n      tag_19\n      swap2\n      swap1\n      tag_20\n      jump\t// in\n    tag_19:\n      tag_21\n      jump\t// in\n    tag_18:\n      mload(0x40)\n      tag_22\n      swap2\n      swap1\n      tag_23\n      jump\t// in\n    tag_22:\n      mload(0x40)\n      dup1\n      swap2\n      sub\n      swap1\n      return\n        /* \"34_ERC721/ERC721.sol\":301:328  string public override name */\n    tag_4:\n      tag_24\n      tag_25\n      jump\t// in\n    tag_24:\n      mload(0x40)\n      tag_26\n      swap2\n      swap1\n      tag_27\n      jump\t// in\n    tag_26:\n      mload(0x40)\n      dup1\n      swap2\n      sub\n      swap1\n      return\n        /* \"34_ERC721/ERC721.sol\":2386:2588  function getApproved(uint tokenId) external view override returns (address) {... */\n    tag_5:\n      tag_28\n      0x04\n      dup1\n      calldatasize\n      sub\n      dup2\n      add\n      swap1\n      tag_29\n      swap2\n      swap1\n      tag_30\n      jump\t// in\n    tag_29:\n      tag_31\n      jump\t// in\n    tag_28:\n      mload(0x40)\n      tag_32\n      swap2\n      swap1\n      tag_33\n      jump\t// in\n    tag_32:\n      mload(0x40)\n      dup1\n      swap2\n      sub\n      swap1\n      return\n        /* \"34_ERC721/ERC721.sol\":2807:3081  function approve(address to,uint tokenid) external override {... */\n    tag_6:\n      tag_34\n      0x04\n      dup1\n      calldatasize\n      sub\n      dup2\n      add\n      swap1\n      tag_35\n      swap2\n      swap1\n      tag_36\n      jump\t// in\n    tag_35:\n      tag_37\n      jump\t// in\n    tag_34:\n      stop\n        /* \"34_ERC721/ERC721.sol\":3852:4187  function transferFrom(... */\n    tag_7:\n      tag_38\n      0x04\n      dup1\n      calldatasize\n      sub\n      dup2\n      add\n      swap1\n      tag_39\n      swap2\n      swap1\n      tag_40\n      jump\t// in\n    tag_39:\n      tag_41\n      jump\t// in\n    tag_38:\n      stop\n        /* \"34_ERC721/ERC721.sol\":4820:4996  function safeTransferFrom(... */\n    tag_8:\n      tag_42\n      0x04\n      dup1\n      calldatasize\n      sub\n      dup2\n      add\n      swap1\n      tag_43\n      swap2\n      swap1\n      tag_40\n      jump\t// in\n    tag_43:\n      tag_44\n      jump\t// in\n    tag_42:\n      stop\n        /* \"34_ERC721/ERC721.sol\":1565:1743  function ownerOf(uint tokenid) public view override returns(address owner){... */\n    tag_9:\n      tag_45\n      0x04\n      dup1\n      calldatasize\n      sub\n      dup2\n      add\n      swap1\n      tag_46\n      swap2\n      swap1\n      tag_30\n      jump\t// in\n    tag_46:\n      tag_47\n      jump\t// in\n    tag_45:\n      mload(0x40)\n      tag_48\n      swap2\n      swap1\n      tag_33\n      jump\t// in\n    tag_48:\n      mload(0x40)\n      dup1\n      swap2\n      sub\n      swap1\n      return\n        /* \"34_ERC721/ERC721.sol\":1354:1528  function balanceOf(address owner) external view override returns(uint){... */\n    tag_10:\n      tag_49\n      0x04\n      dup1\n      calldatasize\n      sub\n      dup2\n      add\n      swap1\n      tag_50\n      swap2\n      swap1\n      tag_51\n      jump\t// in\n    tag_50:\n      tag_52\n      jump\t// in\n    tag_49:\n      mload(0x40)\n      tag_53\n      swap2\n      swap1\n      tag_54\n      jump\t// in\n    tag_53:\n      mload(0x40)\n      dup1\n      swap2\n      sub\n      swap1\n      return\n        /* \"34_ERC721/ERC721.sol\":354:383  string public override symbol */\n    tag_11:\n      tag_55\n      tag_56\n      jump\t// in\n    tag_55:\n      mload(0x40)\n      tag_57\n      swap2\n      swap1\n      tag_27\n      jump\t// in\n    tag_57:\n      mload(0x40)\n      dup1\n      swap2\n      sub\n      swap1\n      return\n        /* \"34_ERC721/ERC721.sol\":2134:2344  function setApprovalForAll(address operator,bool approved) external  override {... */\n    tag_12:\n      tag_58\n      0x04\n      dup1\n      calldatasize\n      sub\n      dup2\n      add\n      swap1\n      tag_59\n      swap2\n      swap1\n      tag_60\n      jump\t// in\n    tag_59:\n      tag_61\n      jump\t// in\n    tag_58:\n      stop\n        /* \"34_ERC721/ERC721.sol\":4518:4814  function safeTransferFrom(address from,address to,uint tokenid,bytes memory data) public   override  {... */\n    tag_13:\n      tag_62\n      0x04\n      dup1\n      calldatasize\n      sub\n      dup2\n      add\n      swap1\n      tag_63\n      swap2\n      swap1\n      tag_64\n      jump\t// in\n    tag_63:\n      tag_65\n      jump\t// in\n    tag_62:\n      stop\n        /* \"34_ERC721/ERC721.sol\":6673:6988  function tokenURI(uint256 tokenId) public view virtual override returns (string memory) {... */\n    tag_14:\n      tag_66\n      0x04\n      dup1\n      calldatasize\n      sub\n      dup2\n      add\n      swap1\n      tag_67\n      swap2\n      swap1\n      tag_30\n      jump\t// in\n    tag_67:\n      tag_68\n      jump\t// in\n    tag_66:\n      mload(0x40)\n      tag_69\n      swap2\n      swap1\n      tag_27\n      jump\t// in\n    tag_69:\n      mload(0x40)\n      dup1\n      swap2\n      sub\n      swap1\n      return\n        /* \"34_ERC721/ERC721.sol\":1894:2093  function isApprovalForAll(address owner, address operator)... */\n    tag_15:\n      tag_70\n      0x04\n      dup1\n      calldatasize\n      sub\n      dup2\n      add\n      swap1\n      tag_71\n      swap2\n      swap1\n      tag_72\n      jump\t// in\n    tag_71:\n      tag_73\n      jump\t// in\n    tag_70:\n      mload(0x40)\n      tag_74\n      swap2\n      swap1\n      tag_23\n      jump\t// in\n    tag_74:\n      mload(0x40)\n      dup1\n      swap2\n      sub\n      swap1\n      return\n        /* \"34_ERC721/ERC721.sol\":1027:1315  function supportsInterface(bytes4 interfaceId) external pure override  returns(bool){... */\n    tag_21:\n        /* \"34_ERC721/ERC721.sol\":1106:1110  bool */\n      0x00\n        /* \"34_ERC721/ERC721.sol\":1158:1183  type(IERC721).interfaceId */\n      0x82f8625100000000000000000000000000000000000000000000000000000000\n        /* \"34_ERC721/ERC721.sol\":1143:1183  interfaceId == type(IERC721).interfaceId */\n      not(0xffffffffffffffffffffffffffffffffffffffffffffffffffffffff)\n      and\n        /* \"34_ERC721/ERC721.sol\":1143:1154  interfaceId */\n      dup3\n        /* \"34_ERC721/ERC721.sol\":1143:1183  interfaceId == type(IERC721).interfaceId */\n      not(0xffffffffffffffffffffffffffffffffffffffffffffffffffffffff)\n      and\n      eq\n        /* \"34_ERC721/ERC721.sol\":1143:1241  interfaceId == type(IERC721).interfaceId || ... */\n      dup1\n      tag_76\n      jumpi\n      pop\n        /* \"34_ERC721/ERC721.sol\":1216:1241  type(IERC165).interfaceId */\n      0x01ffc9a700000000000000000000000000000000000000000000000000000000\n        /* \"34_ERC721/ERC721.sol\":1201:1241  interfaceId == type(IERC165).interfaceId */\n      not(0xffffffffffffffffffffffffffffffffffffffffffffffffffffffff)\n      and\n        /* \"34_ERC721/ERC721.sol\":1201:1212  interfaceId */\n      dup3\n        /* \"34_ERC721/ERC721.sol\":1201:1241  interfaceId == type(IERC165).interfaceId */\n      not(0xffffffffffffffffffffffffffffffffffffffffffffffffffffffff)\n      and\n      eq\n        /* \"34_ERC721/ERC721.sol\":1143:1241  interfaceId == type(IERC721).interfaceId || ... */\n    tag_76:\n        /* \"34_ERC721/ERC721.sol\":1143:1307  interfaceId == type(IERC721).interfaceId || ... */\n      dup1\n      tag_77\n      jumpi\n      pop\n        /* \"34_ERC721/ERC721.sol\":1274:1307  type(IERC721Metadata).interfaceId */\n      0x5b5e139f00000000000000000000000000000000000000000000000000000000\n        /* \"34_ERC721/ERC721.sol\":1259:1307  interfaceId == type(IERC721Metadata).interfaceId */\n      not(0xffffffffffffffffffffffffffffffffffffffffffffffffffffffff)\n      and\n        /* \"34_ERC721/ERC721.sol\":1259:1270  interfaceId */\n      dup3\n        /* \"34_ERC721/ERC721.sol\":1259:1307  interfaceId == type(IERC721Metadata).interfaceId */\n      not(0xffffffffffffffffffffffffffffffffffffffffffffffffffffffff)\n      and\n      eq\n        /* \"34_ERC721/ERC721.sol\":1143:1307  interfaceId == type(IERC721).interfaceId || ... */\n    tag_77:\n        /* \"34_ERC721/ERC721.sol\":1122:1307  return ... */\n      swap1\n      pop\n        /* \"34_ERC721/ERC721.sol\":1027:1315  function supportsInterface(bytes4 interfaceId) external pure override  returns(bool){... */\n      swap2\n      swap1\n      pop\n      jump\t// out\n        /* \"34_ERC721/ERC721.sol\":301:328  string public override name */\n    tag_25:\n      0x00\n      dup1\n      sload\n      tag_78\n      swap1\n      tag_79\n      jump\t// in\n    tag_78:\n      dup1\n      0x1f\n      add\n      0x20\n      dup1\n      swap2\n      div\n      mul\n      0x20\n      add\n      mload(0x40)\n      swap1\n      dup2\n      add\n      0x40\n      mstore\n      dup1\n      swap3\n      swap2\n      swap1\n      dup2\n      dup2\n      mstore\n      0x20\n      add\n      dup3\n      dup1\n      sload\n      tag_80\n      swap1\n      tag_79\n      jump\t// in\n    tag_80:\n      dup1\n      iszero\n      tag_81\n      jumpi\n      dup1\n      0x1f\n      lt\n      tag_82\n      jumpi\n      0x0100\n      dup1\n      dup4\n      sload\n      div\n      mul\n      dup4\n      mstore\n      swap2\n      0x20\n      add\n      swap2\n      jump(tag_81)\n    tag_82:\n      dup3\n      add\n      swap2\n      swap1\n      0x00\n      mstore\n      keccak256(0x00, 0x20)\n      swap1\n    tag_83:\n      dup2\n      sload\n      dup2\n      mstore\n      swap1\n      0x01\n      add\n      swap1\n      0x20\n      add\n      dup1\n      dup4\n      gt\n      tag_83\n      jumpi\n      dup3\n      swap1\n      sub\n      0x1f\n      and\n      dup3\n      add\n      swap2\n    tag_81:\n      pop\n      pop\n      pop\n      pop\n      pop\n      dup2\n      jump\t// out\n        /* \"34_ERC721/ERC721.sol\":2386:2588  function getApproved(uint tokenId) external view override returns (address) {... */\n    tag_31:\n        /* \"34_ERC721/ERC721.sol\":2453:2460  address */\n      0x00\n        /* \"34_ERC721/ERC721.sol\":2517:2518  0 */\n      dup1\n        /* \"34_ERC721/ERC721.sol\":2481:2519  _tokenApprovals[tokenId] != address(0) */\n      0xffffffffffffffffffffffffffffffffffffffff\n      and\n        /* \"34_ERC721/ERC721.sol\":2481:2496  _tokenApprovals */\n      0x04\n        /* \"34_ERC721/ERC721.sol\":2481:2505  _tokenApprovals[tokenId] */\n      0x00\n        /* \"34_ERC721/ERC721.sol\":2497:2504  tokenId */\n      dup5\n        /* \"34_ERC721/ERC721.sol\":2481:2505  _tokenApprovals[tokenId] */\n      dup2\n      mstore\n      0x20\n      add\n      swap1\n      dup2\n      mstore\n      0x20\n      add\n      0x00\n      keccak256\n      0x00\n      swap1\n      sload\n      swap1\n      0x0100\n      exp\n      swap1\n      div\n      0xffffffffffffffffffffffffffffffffffffffff\n      and\n        /* \"34_ERC721/ERC721.sol\":2481:2519  _tokenApprovals[tokenId] != address(0) */\n      0xffffffffffffffffffffffffffffffffffffffff\n      and\n      sub\n        /* \"34_ERC721/ERC721.sol\":2473:2538  require(_tokenApprovals[tokenId] != address(0),\"token not exist\") */\n      tag_85\n      jumpi\n      mload(0x40)\n      0x08c379a000000000000000000000000000000000000000000000000000000000\n      dup2\n      mstore\n      0x04\n      add\n      tag_86\n      swap1\n      tag_87\n      jump\t// in\n    tag_86:\n      mload(0x40)\n      dup1\n      swap2\n      sub\n      swap1\n      revert\n    tag_85:\n        /* \"34_ERC721/ERC721.sol\":2556:2571  _tokenApprovals */\n      0x04\n        /* \"34_ERC721/ERC721.sol\":2556:2580  _tokenApprovals[tokenId] */\n      0x00\n        /* \"34_ERC721/ERC721.sol\":2572:2579  tokenId */\n      dup4\n        /* \"34_ERC721/ERC721.sol\":2556:2580  _tokenApprovals[tokenId] */\n      dup2\n      mstore\n      0x20\n      add\n      swap1\n      dup2\n      mstore\n      0x20\n      add\n      0x00\n      keccak256\n      0x00\n      swap1\n      sload\n      swap1\n      0x0100\n      exp\n      swap1\n      div\n      0xffffffffffffffffffffffffffffffffffffffff\n      and\n        /* \"34_ERC721/ERC721.sol\":2549:2580  return _tokenApprovals[tokenId] */\n      swap1\n      pop\n        /* \"34_ERC721/ERC721.sol\":2386:2588  function getApproved(uint tokenId) external view override returns (address) {... */\n      swap2\n      swap1\n      pop\n      jump\t// out\n        /* \"34_ERC721/ERC721.sol\":2807:3081  function approve(address to,uint tokenid) external override {... */\n    tag_37:\n        /* \"34_ERC721/ERC721.sol\":2878:2891  address owner */\n      0x00\n        /* \"34_ERC721/ERC721.sol\":2894:2900  _owner */\n      0x02\n        /* \"34_ERC721/ERC721.sol\":2894:2909  _owner[tokenid] */\n      0x00\n        /* \"34_ERC721/ERC721.sol\":2901:2908  tokenid */\n      dup4\n        /* \"34_ERC721/ERC721.sol\":2894:2909  _owner[tokenid] */\n      dup2\n      mstore\n      0x20\n      add\n      swap1\n      dup2\n      mstore\n      0x20\n      add\n      0x00\n      keccak256\n      0x00\n      swap1\n      sload\n      swap1\n      0x0100\n      exp\n      swap1\n      div\n      0xffffffffffffffffffffffffffffffffffffffff\n      and\n        /* \"34_ERC721/ERC721.sol\":2878:2909  address owner = _owner[tokenid] */\n      swap1\n      pop\n        /* \"34_ERC721/ERC721.sol\":2942:2947  owner */\n      dup1\n        /* \"34_ERC721/ERC721.sol\":2928:2947  msg.sender == owner */\n      0xffffffffffffffffffffffffffffffffffffffff\n      and\n        /* \"34_ERC721/ERC721.sol\":2928:2938  msg.sender */\n      caller\n        /* \"34_ERC721/ERC721.sol\":2928:2947  msg.sender == owner */\n      0xffffffffffffffffffffffffffffffffffffffff\n      and\n      eq\n        /* \"34_ERC721/ERC721.sol\":2928:2988  msg.sender == owner || _operatorApprovals[owner][msg.sender] */\n      dup1\n      tag_89\n      jumpi\n      pop\n        /* \"34_ERC721/ERC721.sol\":2951:2969  _operatorApprovals */\n      0x05\n        /* \"34_ERC721/ERC721.sol\":2951:2976  _operatorApprovals[owner] */\n      0x00\n        /* \"34_ERC721/ERC721.sol\":2970:2975  owner */\n      dup3\n        /* \"34_ERC721/ERC721.sol\":2951:2976  _operatorApprovals[owner] */\n      0xffffffffffffffffffffffffffffffffffffffff\n      and\n      0xffffffffffffffffffffffffffffffffffffffff\n      and\n      dup2\n      mstore\n      0x20\n      add\n      swap1\n      dup2\n      mstore\n      0x20\n      add\n      0x00\n      keccak256\n        /* \"34_ERC721/ERC721.sol\":2951:2988  _operatorApprovals[owner][msg.sender] */\n      0x00\n        /* \"34_ERC721/ERC721.sol\":2977:2987  msg.sender */\n      caller\n        /* \"34_ERC721/ERC721.sol\":2951:2988  _operatorApprovals[owner][msg.sender] */\n      0xffffffffffffffffffffffffffffffffffffffff\n      and\n      0xffffffffffffffffffffffffffffffffffffffff\n      and\n      dup2\n      mstore\n      0x20\n      add\n      swap1\n      dup2\n      mstore\n      0x20\n      add\n      0x00\n      keccak256\n      0x00\n      swap1\n      sload\n      swap1\n      0x0100\n      exp\n      swap1\n      div\n      0xff\n      and\n        /* \"34_ERC721/ERC721.sol\":2928:2988  msg.sender == owner || _operatorApprovals[owner][msg.sender] */\n    tag_89:\n        /* \"34_ERC721/ERC721.sol\":2920:3033  require(msg.sender == owner || _operatorApprovals[owner][msg.sender],... */\n      tag_90\n      jumpi\n      mload(0x40)\n      0x08c379a000000000000000000000000000000000000000000000000000000000\n      dup2\n      mstore\n      0x04\n      add\n      tag_91\n      swap1\n      tag_92\n      jump\t// in\n    tag_91:\n      mload(0x40)\n      dup1\n      swap2\n      sub\n      swap1\n      revert\n    tag_90:\n        /* \"34_ERC721/ERC721.sol\":3045:3073  _approve(owner, to, tokenid) */\n      tag_93\n        /* \"34_ERC721/ERC721.sol\":3054:3059  owner */\n      dup2\n        /* \"34_ERC721/ERC721.sol\":3061:3063  to */\n      dup5\n        /* \"34_ERC721/ERC721.sol\":3065:3072  tokenid */\n      dup5\n        /* \"34_ERC721/ERC721.sol\":3045:3053  _approve */\n      tag_94\n        /* \"34_ERC721/ERC721.sol\":3045:3073  _approve(owner, to, tokenid) */\n      jump\t// in\n    tag_93:\n        /* \"34_ERC721/ERC721.sol\":2867:3081  {... */\n      pop\n        /* \"34_ERC721/ERC721.sol\":2807:3081  function approve(address to,uint tokenid) external override {... */\n      pop\n      pop\n      jump\t// out\n        /* \"34_ERC721/ERC721.sol\":3852:4187  function transferFrom(... */\n    tag_41:\n        /* \"34_ERC721/ERC721.sol\":3977:3990  address owner */\n      0x00\n        /* \"34_ERC721/ERC721.sol\":3993:4009  ownerOf(tokenid) */\n      tag_96\n        /* \"34_ERC721/ERC721.sol\":4001:4008  tokenid */\n      dup3\n        /* \"34_ERC721/ERC721.sol\":3993:4000  ownerOf */\n      tag_47\n        /* \"34_ERC721/ERC721.sol\":3993:4009  ownerOf(tokenid) */\n      jump\t// in\n    tag_96:\n        /* \"34_ERC721/ERC721.sol\":3977:4009  address owner = ownerOf(tokenid) */\n      swap1\n      pop\n        /* \"34_ERC721/ERC721.sol\":4042:4086  _isApprovedOrOwner(owner,msg.sender,tokenid) */\n      tag_97\n        /* \"34_ERC721/ERC721.sol\":4061:4066  owner */\n      dup2\n        /* \"34_ERC721/ERC721.sol\":4067:4077  msg.sender */\n      caller\n        /* \"34_ERC721/ERC721.sol\":4078:4085  tokenid */\n      dup5\n        /* \"34_ERC721/ERC721.sol\":4042:4060  _isApprovedOrOwner */\n      tag_98\n        /* \"34_ERC721/ERC721.sol\":4042:4086  _isApprovedOrOwner(owner,msg.sender,tokenid) */\n      jump\t// in\n    tag_97:\n        /* \"34_ERC721/ERC721.sol\":4020:4136  require(... */\n      tag_99\n      jumpi\n      mload(0x40)\n      0x08c379a000000000000000000000000000000000000000000000000000000000\n      dup2\n      mstore\n      0x04\n      add\n      tag_100\n      swap1\n      tag_101\n      jump\t// in\n    tag_100:\n      mload(0x40)\n      dup1\n      swap2\n      sub\n      swap1\n      revert\n    tag_99:\n        /* \"34_ERC721/ERC721.sol\":4147:4179  _transfer(owner,from,to,tokenid) */\n      tag_102\n        /* \"34_ERC721/ERC721.sol\":4157:4162  owner */\n      dup2\n        /* \"34_ERC721/ERC721.sol\":4163:4167  from */\n      dup6\n        /* \"34_ERC721/ERC721.sol\":4168:4170  to */\n      dup6\n        /* \"34_ERC721/ERC721.sol\":4171:4178  tokenid */\n      dup6\n        /* \"34_ERC721/ERC721.sol\":4147:4156  _transfer */\n      tag_103\n        /* \"34_ERC721/ERC721.sol\":4147:4179  _transfer(owner,from,to,tokenid) */\n      jump\t// in\n    tag_102:\n        /* \"34_ERC721/ERC721.sol\":3966:4187  {... */\n      pop\n        /* \"34_ERC721/ERC721.sol\":3852:4187  function transferFrom(... */\n      pop\n      pop\n      pop\n      jump\t// out\n        /* \"34_ERC721/ERC721.sol\":4820:4996  function safeTransferFrom(... */\n    tag_44:\n        /* \"34_ERC721/ERC721.sol\":4949:4988  safeTransferFrom(from, to, tokenId, \"\") */\n      tag_105\n        /* \"34_ERC721/ERC721.sol\":4966:4970  from */\n      dup4\n        /* \"34_ERC721/ERC721.sol\":4972:4974  to */\n      dup4\n        /* \"34_ERC721/ERC721.sol\":4976:4983  tokenId */\n      dup4\n        /* \"34_ERC721/ERC721.sol\":4949:4988  safeTransferFrom(from, to, tokenId, \"\") */\n      mload(0x40)\n      dup1\n      0x20\n      add\n      0x40\n      mstore\n      dup1\n      0x00\n      dup2\n      mstore\n      pop\n        /* \"34_ERC721/ERC721.sol\":4949:4965  safeTransferFrom */\n      tag_65\n        /* \"34_ERC721/ERC721.sol\":4949:4988  safeTransferFrom(from, to, tokenId, \"\") */\n      jump\t// in\n    tag_105:\n        /* \"34_ERC721/ERC721.sol\":4820:4996  function safeTransferFrom(... */\n      pop\n      pop\n      pop\n      jump\t// out\n        /* \"34_ERC721/ERC721.sol\":1565:1743  function ownerOf(uint tokenid) public view override returns(address owner){... */\n    tag_47:\n        /* \"34_ERC721/ERC721.sol\":1625:1638  address owner */\n      0x00\n        /* \"34_ERC721/ERC721.sol\":1658:1664  _owner */\n      0x02\n        /* \"34_ERC721/ERC721.sol\":1658:1673  _owner[tokenid] */\n      0x00\n        /* \"34_ERC721/ERC721.sol\":1665:1672  tokenid */\n      dup4\n        /* \"34_ERC721/ERC721.sol\":1658:1673  _owner[tokenid] */\n      dup2\n      mstore\n      0x20\n      add\n      swap1\n      dup2\n      mstore\n      0x20\n      add\n      0x00\n      keccak256\n      0x00\n      swap1\n      sload\n      swap1\n      0x0100\n      exp\n      swap1\n      div\n      0xffffffffffffffffffffffffffffffffffffffff\n      and\n        /* \"34_ERC721/ERC721.sol\":1650:1673  owner = _owner[tokenid] */\n      swap1\n      pop\n        /* \"34_ERC721/ERC721.sol\":1709:1710  0 */\n      0x00\n        /* \"34_ERC721/ERC721.sol\":1692:1711  owner != address(0) */\n      0xffffffffffffffffffffffffffffffffffffffff\n      and\n        /* \"34_ERC721/ERC721.sol\":1692:1697  owner */\n      dup2\n        /* \"34_ERC721/ERC721.sol\":1692:1711  owner != address(0) */\n      0xffffffffffffffffffffffffffffffffffffffff\n      and\n      sub\n        /* \"34_ERC721/ERC721.sol\":1684:1735  require(owner != address(0),\"token does not exist\") */\n      tag_107\n      jumpi\n      mload(0x40)\n      0x08c379a000000000000000000000000000000000000000000000000000000000\n      dup2\n      mstore\n      0x04\n      add\n      tag_108\n      swap1\n      tag_109\n      jump\t// in\n    tag_108:\n      mload(0x40)\n      dup1\n      swap2\n      sub\n      swap1\n      revert\n    tag_107:\n        /* \"34_ERC721/ERC721.sol\":1565:1743  function ownerOf(uint tokenid) public view override returns(address owner){... */\n      swap2\n      swap1\n      pop\n      jump\t// out\n        /* \"34_ERC721/ERC721.sol\":1354:1528  function balanceOf(address owner) external view override returns(uint){... */\n    tag_52:\n        /* \"34_ERC721/ERC721.sol\":1419:1423  uint */\n      0x00\n        /* \"34_ERC721/ERC721.sol\":1460:1461  0 */\n      dup1\n        /* \"34_ERC721/ERC721.sol\":1443:1462  owner != address(0) */\n      0xffffffffffffffffffffffffffffffffffffffff\n      and\n        /* \"34_ERC721/ERC721.sol\":1443:1448  owner */\n      dup3\n        /* \"34_ERC721/ERC721.sol\":1443:1462  owner != address(0) */\n      0xffffffffffffffffffffffffffffffffffffffff\n      and\n      sub\n        /* \"34_ERC721/ERC721.sol\":1435:1486  require(owner != address(0),\"owner = zero address\") */\n      tag_111\n      jumpi\n      mload(0x40)\n      0x08c379a000000000000000000000000000000000000000000000000000000000\n      dup2\n      mstore\n      0x04\n      add\n      tag_112\n      swap1\n      tag_113\n      jump\t// in\n    tag_112:\n      mload(0x40)\n      dup1\n      swap2\n      sub\n      swap1\n      revert\n    tag_111:\n        /* \"34_ERC721/ERC721.sol\":1504:1513  _balances */\n      0x03\n        /* \"34_ERC721/ERC721.sol\":1504:1520  _balances[owner] */\n      0x00\n        /* \"34_ERC721/ERC721.sol\":1514:1519  owner */\n      dup4\n        /* \"34_ERC721/ERC721.sol\":1504:1520  _balances[owner] */\n      0xffffffffffffffffffffffffffffffffffffffff\n      and\n      0xffffffffffffffffffffffffffffffffffffffff\n      and\n      dup2\n      mstore\n      0x20\n      add\n      swap1\n      dup2\n      mstore\n      0x20\n      add\n      0x00\n      keccak256\n      sload\n        /* \"34_ERC721/ERC721.sol\":1497:1520  return _balances[owner] */\n      swap1\n      pop\n        /* \"34_ERC721/ERC721.sol\":1354:1528  function balanceOf(address owner) external view override returns(uint){... */\n      swap2\n      swap1\n      pop\n      jump\t// out\n        /* \"34_ERC721/ERC721.sol\":354:383  string public override symbol */\n    tag_56:\n      0x01\n      dup1\n      sload\n      tag_114\n      swap1\n      tag_79\n      jump\t// in\n    tag_114:\n      dup1\n      0x1f\n      add\n      0x20\n      dup1\n      swap2\n      div\n      mul\n      0x20\n      add\n      mload(0x40)\n      swap1\n      dup2\n      add\n      0x40\n      mstore\n      dup1\n      swap3\n      swap2\n      swap1\n      dup2\n      dup2\n      mstore\n      0x20\n      add\n      dup3\n      dup1\n      sload\n      tag_115\n      swap1\n      tag_79\n      jump\t// in\n    tag_115:\n      dup1\n      iszero\n      tag_116\n      jumpi\n      dup1\n      0x1f\n      lt\n      tag_117\n      jumpi\n      0x0100\n      dup1\n      dup4\n      sload\n      div\n      mul\n      dup4\n      mstore\n      swap2\n      0x20\n      add\n      swap2\n      jump(tag_116)\n    tag_117:\n      dup3\n      add\n      swap2\n      swap1\n      0x00\n      mstore\n      keccak256(0x00, 0x20)\n      swap1\n    tag_118:\n      dup2\n      sload\n      dup2\n      mstore\n      swap1\n      0x01\n      add\n      swap1\n      0x20\n      add\n      dup1\n      dup4\n      gt\n      tag_118\n      jumpi\n      dup3\n      swap1\n      sub\n      0x1f\n      and\n      dup3\n      add\n      swap2\n    tag_116:\n      pop\n      pop\n      pop\n      pop\n      pop\n      dup2\n      jump\t// out\n        /* \"34_ERC721/ERC721.sol\":2134:2344  function setApprovalForAll(address operator,bool approved) external  override {... */\n    tag_61:\n        /* \"34_ERC721/ERC721.sol\":2266:2274  approved */\n      dup1\n        /* \"34_ERC721/ERC721.sol\":2223:2241  _operatorApprovals */\n      0x05\n        /* \"34_ERC721/ERC721.sol\":2223:2253  _operatorApprovals[msg.sender] */\n      0x00\n        /* \"34_ERC721/ERC721.sol\":2242:2252  msg.sender */\n      caller\n        /* \"34_ERC721/ERC721.sol\":2223:2253  _operatorApprovals[msg.sender] */\n      0xffffffffffffffffffffffffffffffffffffffff\n      and\n      0xffffffffffffffffffffffffffffffffffffffff\n      and\n      dup2\n      mstore\n      0x20\n      add\n      swap1\n      dup2\n      mstore\n      0x20\n      add\n      0x00\n      keccak256\n        /* \"34_ERC721/ERC721.sol\":2223:2263  _operatorApprovals[msg.sender][operator] */\n      0x00\n        /* \"34_ERC721/ERC721.sol\":2254:2262  operator */\n      dup5\n        /* \"34_ERC721/ERC721.sol\":2223:2263  _operatorApprovals[msg.sender][operator] */\n      0xffffffffffffffffffffffffffffffffffffffff\n      and\n      0xffffffffffffffffffffffffffffffffffffffff\n      and\n      dup2\n      mstore\n      0x20\n      add\n      swap1\n      dup2\n      mstore\n      0x20\n      add\n      0x00\n      keccak256\n      0x00\n        /* \"34_ERC721/ERC721.sol\":2223:2274  _operatorApprovals[msg.sender][operator] = approved */\n      0x0100\n      exp\n      dup2\n      sload\n      dup2\n      0xff\n      mul\n      not\n      and\n      swap1\n      dup4\n      iszero\n      iszero\n      mul\n      or\n      swap1\n      sstore\n      pop\n        /* \"34_ERC721/ERC721.sol\":2317:2325  operator */\n      dup2\n        /* \"34_ERC721/ERC721.sol\":2290:2336  ApprovalForAll(msg.sender, operator, approved) */\n      0xffffffffffffffffffffffffffffffffffffffff\n      and\n        /* \"34_ERC721/ERC721.sol\":2305:2315  msg.sender */\n      caller\n        /* \"34_ERC721/ERC721.sol\":2290:2336  ApprovalForAll(msg.sender, operator, approved) */\n      0xffffffffffffffffffffffffffffffffffffffff\n      and\n      0x17307eab39ab6107e8899845ad3d59bd9653f200f220920489ca2b5937696c31\n        /* \"34_ERC721/ERC721.sol\":2327:2335  approved */\n      dup4\n        /* \"34_ERC721/ERC721.sol\":2290:2336  ApprovalForAll(msg.sender, operator, approved) */\n      mload(0x40)\n      tag_120\n      swap2\n      swap1\n      tag_23\n      jump\t// in\n    tag_120:\n      mload(0x40)\n      dup1\n      swap2\n      sub\n      swap1\n      log3\n        /* \"34_ERC721/ERC721.sol\":2134:2344  function setApprovalForAll(address operator,bool approved) external  override {... */\n      pop\n      pop\n      jump\t// out\n        /* \"34_ERC721/ERC721.sol\":4518:4814  function safeTransferFrom(address from,address to,uint tokenid,bytes memory data) public   override  {... */\n    tag_65:\n        /* \"34_ERC721/ERC721.sol\":4630:4643  address owner */\n      0x00\n        /* \"34_ERC721/ERC721.sol\":4646:4662  ownerOf(tokenid) */\n      tag_122\n        /* \"34_ERC721/ERC721.sol\":4654:4661  tokenid */\n      dup4\n        /* \"34_ERC721/ERC721.sol\":4646:4653  ownerOf */\n      tag_47\n        /* \"34_ERC721/ERC721.sol\":4646:4662  ownerOf(tokenid) */\n      jump\t// in\n    tag_122:\n        /* \"34_ERC721/ERC721.sol\":4630:4662  address owner = ownerOf(tokenid) */\n      swap1\n      pop\n        /* \"34_ERC721/ERC721.sol\":4681:4725  _isApprovedOrOwner(owner,msg.sender,tokenid) */\n      tag_123\n        /* \"34_ERC721/ERC721.sol\":4700:4705  owner */\n      dup2\n        /* \"34_ERC721/ERC721.sol\":4706:4716  msg.sender */\n      caller\n        /* \"34_ERC721/ERC721.sol\":4717:4724  tokenid */\n      dup6\n        /* \"34_ERC721/ERC721.sol\":4681:4699  _isApprovedOrOwner */\n      tag_98\n        /* \"34_ERC721/ERC721.sol\":4681:4725  _isApprovedOrOwner(owner,msg.sender,tokenid) */\n      jump\t// in\n    tag_123:\n        /* \"34_ERC721/ERC721.sol\":4673:4750  require(_isApprovedOrOwner(owner,msg.sender,tokenid),\"not owner is approved\") */\n      tag_124\n      jumpi\n      mload(0x40)\n      0x08c379a000000000000000000000000000000000000000000000000000000000\n      dup2\n      mstore\n      0x04\n      add\n      tag_125\n      swap1\n      tag_126\n      jump\t// in\n    tag_125:\n      mload(0x40)\n      dup1\n      swap2\n      sub\n      swap1\n      revert\n    tag_124:\n        /* \"34_ERC721/ERC721.sol\":4762:4806  _safeTransfer(owner,from, to, tokenid, data) */\n      tag_127\n        /* \"34_ERC721/ERC721.sol\":4776:4781  owner */\n      dup2\n        /* \"34_ERC721/ERC721.sol\":4782:4786  from */\n      dup7\n        /* \"34_ERC721/ERC721.sol\":4788:4790  to */\n      dup7\n        /* \"34_ERC721/ERC721.sol\":4792:4799  tokenid */\n      dup7\n        /* \"34_ERC721/ERC721.sol\":4801:4805  data */\n      dup7\n        /* \"34_ERC721/ERC721.sol\":4762:4775  _safeTransfer */\n      tag_128\n        /* \"34_ERC721/ERC721.sol\":4762:4806  _safeTransfer(owner,from, to, tokenid, data) */\n      jump\t// in\n    tag_127:\n        /* \"34_ERC721/ERC721.sol\":4619:4814  {... */\n      pop\n        /* \"34_ERC721/ERC721.sol\":4518:4814  function safeTransferFrom(address from,address to,uint tokenid,bytes memory data) public   override  {... */\n      pop\n      pop\n      pop\n      pop\n      jump\t// out\n        /* \"34_ERC721/ERC721.sol\":6673:6988  function tokenURI(uint256 tokenId) public view virtual override returns (string memory) {... */\n    tag_68:\n        /* \"34_ERC721/ERC721.sol\":6746:6759  string memory */\n      0x60\n        /* \"34_ERC721/ERC721.sol\":6807:6808  0 */\n      0x00\n        /* \"34_ERC721/ERC721.sol\":6780:6809  _owner[tokenId] != address(0) */\n      0xffffffffffffffffffffffffffffffffffffffff\n      and\n        /* \"34_ERC721/ERC721.sol\":6780:6786  _owner */\n      0x02\n        /* \"34_ERC721/ERC721.sol\":6780:6795  _owner[tokenId] */\n      0x00\n        /* \"34_ERC721/ERC721.sol\":6787:6794  tokenId */\n      dup5\n        /* \"34_ERC721/ERC721.sol\":6780:6795  _owner[tokenId] */\n      dup2\n      mstore\n      0x20\n      add\n      swap1\n      dup2\n      mstore\n      0x20\n      add\n      0x00\n      keccak256\n      0x00\n      swap1\n      sload\n      swap1\n      0x0100\n      exp\n      swap1\n      div\n      0xffffffffffffffffffffffffffffffffffffffff\n      and\n        /* \"34_ERC721/ERC721.sol\":6780:6809  _owner[tokenId] != address(0) */\n      0xffffffffffffffffffffffffffffffffffffffff\n      and\n      sub\n        /* \"34_ERC721/ERC721.sol\":6772:6829  require(_owner[tokenId] != address(0), \"Token Not Exist\") */\n      tag_130\n      jumpi\n      mload(0x40)\n      0x08c379a000000000000000000000000000000000000000000000000000000000\n      dup2\n      mstore\n      0x04\n      add\n      tag_131\n      swap1\n      tag_132\n      jump\t// in\n    tag_131:\n      mload(0x40)\n      dup1\n      swap2\n      sub\n      swap1\n      revert\n    tag_130:\n        /* \"34_ERC721/ERC721.sol\":6842:6863  string memory baseURI */\n      0x00\n        /* \"34_ERC721/ERC721.sol\":6866:6876  _baseURI() */\n      tag_133\n        /* \"34_ERC721/ERC721.sol\":6866:6874  _baseURI */\n      tag_134\n        /* \"34_ERC721/ERC721.sol\":6866:6876  _baseURI() */\n      jump\t// in\n    tag_133:\n        /* \"34_ERC721/ERC721.sol\":6842:6876  string memory baseURI = _baseURI() */\n      swap1\n      pop\n        /* \"34_ERC721/ERC721.sol\":6918:6919  0 */\n      0x00\n        /* \"34_ERC721/ERC721.sol\":6900:6907  baseURI */\n      dup2\n        /* \"34_ERC721/ERC721.sol\":6894:6915  bytes(baseURI).length */\n      mload\n        /* \"34_ERC721/ERC721.sol\":6894:6919  bytes(baseURI).length > 0 */\n      gt\n        /* \"34_ERC721/ERC721.sol\":6894:6980  bytes(baseURI).length > 0 ? string(abi.encodePacked(baseURI, tokenId.toString())) : \"\" */\n      tag_135\n      jumpi\n      mload(0x40)\n      dup1\n      0x20\n      add\n      0x40\n      mstore\n      dup1\n      0x00\n      dup2\n      mstore\n      pop\n      jump(tag_136)\n    tag_135:\n        /* \"34_ERC721/ERC721.sol\":6946:6953  baseURI */\n      dup1\n        /* \"34_ERC721/ERC721.sol\":6955:6973  tokenId.toString() */\n      tag_137\n        /* \"34_ERC721/ERC721.sol\":6955:6962  tokenId */\n      dup5\n        /* \"34_ERC721/ERC721.sol\":6955:6971  tokenId.toString */\n      tag_138\n        /* \"34_ERC721/ERC721.sol\":6955:6973  tokenId.toString() */\n      jump\t// in\n    tag_137:\n        /* \"34_ERC721/ERC721.sol\":6929:6974  abi.encodePacked(baseURI, tokenId.toString()) */\n      add(0x20, mload(0x40))\n      tag_139\n      swap3\n      swap2\n      swap1\n      tag_140\n      jump\t// in\n    tag_139:\n      mload(0x40)\n      0x20\n      dup2\n      dup4\n      sub\n      sub\n      dup2\n      mstore\n      swap1\n      0x40\n      mstore\n        /* \"34_ERC721/ERC721.sol\":6894:6980  bytes(baseURI).length > 0 ? string(abi.encodePacked(baseURI, tokenId.toString())) : \"\" */\n    tag_136:\n        /* \"34_ERC721/ERC721.sol\":6887:6980  return bytes(baseURI).length > 0 ? string(abi.encodePacked(baseURI, tokenId.toString())) : \"\" */\n      swap2\n      pop\n      pop\n        /* \"34_ERC721/ERC721.sol\":6673:6988  function tokenURI(uint256 tokenId) public view virtual override returns (string memory) {... */\n      swap2\n      swap1\n      pop\n      jump\t// out\n        /* \"34_ERC721/ERC721.sol\":1894:2093  function isApprovalForAll(address owner, address operator)... */\n    tag_73:\n        /* \"34_ERC721/ERC721.sol\":2021:2025  bool */\n      0x00\n        /* \"34_ERC721/ERC721.sol\":2050:2068  _operatorApprovals */\n      0x05\n        /* \"34_ERC721/ERC721.sol\":2050:2075  _operatorApprovals[owner] */\n      0x00\n        /* \"34_ERC721/ERC721.sol\":2069:2074  owner */\n      dup5\n        /* \"34_ERC721/ERC721.sol\":2050:2075  _operatorApprovals[owner] */\n      0xffffffffffffffffffffffffffffffffffffffff\n      and\n      0xffffffffffffffffffffffffffffffffffffffff\n      and\n      dup2\n      mstore\n      0x20\n      add\n      swap1\n      dup2\n      mstore\n      0x20\n      add\n      0x00\n      keccak256\n        /* \"34_ERC721/ERC721.sol\":2050:2085  _operatorApprovals[owner][operator] */\n      0x00\n        /* \"34_ERC721/ERC721.sol\":2076:2084  operator */\n      dup4\n        /* \"34_ERC721/ERC721.sol\":2050:2085  _operatorApprovals[owner][operator] */\n      0xffffffffffffffffffffffffffffffffffffffff\n      and\n      0xffffffffffffffffffffffffffffffffffffffff\n      and\n      dup2\n      mstore\n      0x20\n      add\n      swap1\n      dup2\n      mstore\n      0x20\n      add\n      0x00\n      keccak256\n      0x00\n      swap1\n      sload\n      swap1\n      0x0100\n      exp\n      swap1\n      div\n      0xff\n      and\n        /* \"34_ERC721/ERC721.sol\":2043:2085  return _operatorApprovals[owner][operator] */\n      swap1\n      pop\n        /* \"34_ERC721/ERC721.sol\":1894:2093  function isApprovalForAll(address owner, address operator)... */\n      swap3\n      swap2\n      pop\n      pop\n      jump\t// out\n        /* \"34_ERC721/ERC721.sol\":2614:2769  function _approve(address owner,address to,uint tokenid) private {... */\n    tag_94:\n        /* \"34_ERC721/ERC721.sol\":2717:2719  to */\n      dup2\n        /* \"34_ERC721/ERC721.sol\":2690:2705  _tokenApprovals */\n      0x04\n        /* \"34_ERC721/ERC721.sol\":2690:2714  _tokenApprovals[tokenid] */\n      0x00\n        /* \"34_ERC721/ERC721.sol\":2706:2713  tokenid */\n      dup4\n        /* \"34_ERC721/ERC721.sol\":2690:2714  _tokenApprovals[tokenid] */\n      dup2\n      mstore\n      0x20\n      add\n      swap1\n      dup2\n      mstore\n      0x20\n      add\n      0x00\n      keccak256\n      0x00\n        /* \"34_ERC721/ERC721.sol\":2690:2719  _tokenApprovals[tokenid] = to */\n      0x0100\n      exp\n      dup2\n      sload\n      dup2\n      0xffffffffffffffffffffffffffffffffffffffff\n      mul\n      not\n      and\n      swap1\n      dup4\n      0xffffffffffffffffffffffffffffffffffffffff\n      and\n      mul\n      or\n      swap1\n      sstore\n      pop\n        /* \"34_ERC721/ERC721.sol\":2753:2760  tokenid */\n      dup1\n        /* \"34_ERC721/ERC721.sol\":2750:2752  to */\n      dup3\n        /* \"34_ERC721/ERC721.sol\":2735:2761  Approval(owner,to,tokenid) */\n      0xffffffffffffffffffffffffffffffffffffffff\n      and\n        /* \"34_ERC721/ERC721.sol\":2744:2749  owner */\n      dup5\n        /* \"34_ERC721/ERC721.sol\":2735:2761  Approval(owner,to,tokenid) */\n      0xffffffffffffffffffffffffffffffffffffffff\n      and\n      0x8c5be1e5ebec7d5bd14f71427d1e84f3dd0314c0f7b2291e5b200ac8c7c3b925\n      mload(0x40)\n      mload(0x40)\n      dup1\n      swap2\n      sub\n      swap1\n      log4\n        /* \"34_ERC721/ERC721.sol\":2614:2769  function _approve(address owner,address to,uint tokenid) private {... */\n      pop\n      pop\n      pop\n      jump\t// out\n        /* \"34_ERC721/ERC721.sol\":3138:3387  function _isApprovedOrOwner(address owner,... */\n    tag_98:\n        /* \"34_ERC721/ERC721.sol\":3244:3248  bool */\n      0x00\n        /* \"34_ERC721/ERC721.sol\":3280:3285  owner */\n      dup4\n        /* \"34_ERC721/ERC721.sol\":3269:3285  spender == owner */\n      0xffffffffffffffffffffffffffffffffffffffff\n      and\n        /* \"34_ERC721/ERC721.sol\":3269:3276  spender */\n      dup4\n        /* \"34_ERC721/ERC721.sol\":3269:3285  spender == owner */\n      0xffffffffffffffffffffffffffffffffffffffff\n      and\n      eq\n        /* \"34_ERC721/ERC721.sol\":3269:3332  spender == owner||... */\n      dup1\n      tag_144\n      jumpi\n      pop\n        /* \"34_ERC721/ERC721.sol\":3325:3332  spender */\n      dup3\n        /* \"34_ERC721/ERC721.sol\":3297:3332  _tokenApprovals[tokenid] == spender */\n      0xffffffffffffffffffffffffffffffffffffffff\n      and\n        /* \"34_ERC721/ERC721.sol\":3297:3312  _tokenApprovals */\n      0x04\n        /* \"34_ERC721/ERC721.sol\":3297:3321  _tokenApprovals[tokenid] */\n      0x00\n        /* \"34_ERC721/ERC721.sol\":3313:3320  tokenid */\n      dup5\n        /* \"34_ERC721/ERC721.sol\":3297:3321  _tokenApprovals[tokenid] */\n      dup2\n      mstore\n      0x20\n      add\n      swap1\n      dup2\n      mstore\n      0x20\n      add\n      0x00\n      keccak256\n      0x00\n      swap1\n      sload\n      swap1\n      0x0100\n      exp\n      swap1\n      div\n      0xffffffffffffffffffffffffffffffffffffffff\n      and\n        /* \"34_ERC721/ERC721.sol\":3297:3332  _tokenApprovals[tokenid] == spender */\n      0xffffffffffffffffffffffffffffffffffffffff\n      and\n      eq\n        /* \"34_ERC721/ERC721.sol\":3269:3332  spender == owner||... */\n    tag_144:\n        /* \"34_ERC721/ERC721.sol\":3269:3378  spender == owner||... */\n      dup1\n      tag_145\n      jumpi\n      pop\n        /* \"34_ERC721/ERC721.sol\":3344:3362  _operatorApprovals */\n      0x05\n        /* \"34_ERC721/ERC721.sol\":3344:3369  _operatorApprovals[owner] */\n      0x00\n        /* \"34_ERC721/ERC721.sol\":3363:3368  owner */\n      dup6\n        /* \"34_ERC721/ERC721.sol\":3344:3369  _operatorApprovals[owner] */\n      0xffffffffffffffffffffffffffffffffffffffff\n      and\n      0xffffffffffffffffffffffffffffffffffffffff\n      and\n      dup2\n      mstore\n      0x20\n      add\n      swap1\n      dup2\n      mstore\n      0x20\n      add\n      0x00\n      keccak256\n        /* \"34_ERC721/ERC721.sol\":3344:3378  _operatorApprovals[owner][spender] */\n      0x00\n        /* \"34_ERC721/ERC721.sol\":3370:3377  spender */\n      dup5\n        /* \"34_ERC721/ERC721.sol\":3344:3378  _operatorApprovals[owner][spender] */\n      0xffffffffffffffffffffffffffffffffffffffff\n      and\n      0xffffffffffffffffffffffffffffffffffffffff\n      and\n      dup2\n      mstore\n      0x20\n      add\n      swap1\n      dup2\n      mstore\n      0x20\n      add\n      0x00\n      keccak256\n      0x00\n      swap1\n      sload\n      swap1\n      0x0100\n      exp\n      swap1\n      div\n      0xff\n      and\n        /* \"34_ERC721/ERC721.sol\":3269:3378  spender == owner||... */\n    tag_145:\n        /* \"34_ERC721/ERC721.sol\":3261:3379  return (spender == owner||... */\n      swap1\n      pop\n        /* \"34_ERC721/ERC721.sol\":3138:3387  function _isApprovedOrOwner(address owner,... */\n      swap4\n      swap3\n      pop\n      pop\n      pop\n      jump\t// out\n        /* \"34_ERC721/ERC721.sol\":3413:3794  function _transfer(address owner,address from,address to,uint tokenid) private {... */\n    tag_103:\n        /* \"34_ERC721/ERC721.sol\":3519:3524  owner */\n      dup4\n        /* \"34_ERC721/ERC721.sol\":3511:3524  from == owner */\n      0xffffffffffffffffffffffffffffffffffffffff\n      and\n        /* \"34_ERC721/ERC721.sol\":3511:3515  from */\n      dup4\n        /* \"34_ERC721/ERC721.sol\":3511:3524  from == owner */\n      0xffffffffffffffffffffffffffffffffffffffff\n      and\n      eq\n        /* \"34_ERC721/ERC721.sol\":3503:3537  require(from == owner,\"not owner\") */\n      tag_147\n      jumpi\n      mload(0x40)\n      0x08c379a000000000000000000000000000000000000000000000000000000000\n      dup2\n      mstore\n      0x04\n      add\n      tag_148\n      swap1\n      tag_149\n      jump\t// in\n    tag_148:\n      mload(0x40)\n      dup1\n      swap2\n      sub\n      swap1\n      revert\n    tag_147:\n        /* \"34_ERC721/ERC721.sol\":3570:3571  0 */\n      0x00\n        /* \"34_ERC721/ERC721.sol\":3556:3572  to != address(0) */\n      0xffffffffffffffffffffffffffffffffffffffff\n      and\n        /* \"34_ERC721/ERC721.sol\":3556:3558  to */\n      dup3\n        /* \"34_ERC721/ERC721.sol\":3556:3572  to != address(0) */\n      0xffffffffffffffffffffffffffffffffffffffff\n      and\n      sub\n        /* \"34_ERC721/ERC721.sol\":3548:3604  require(to != address(0),\"transfer to the zero address\") */\n      tag_150\n      jumpi\n      mload(0x40)\n      0x08c379a000000000000000000000000000000000000000000000000000000000\n      dup2\n      mstore\n      0x04\n      add\n      tag_151\n      swap1\n      tag_152\n      jump\t// in\n    tag_151:\n      mload(0x40)\n      dup1\n      swap2\n      sub\n      swap1\n      revert\n    tag_150:\n        /* \"34_ERC721/ERC721.sol\":3617:3652  _approve(owner,address(0), tokenid) */\n      tag_153\n        /* \"34_ERC721/ERC721.sol\":3626:3631  owner */\n      dup5\n        /* \"34_ERC721/ERC721.sol\":3640:3641  0 */\n      0x00\n        /* \"34_ERC721/ERC721.sol\":3644:3651  tokenid */\n      dup4\n        /* \"34_ERC721/ERC721.sol\":3617:3625  _approve */\n      tag_94\n        /* \"34_ERC721/ERC721.sol\":3617:3652  _approve(owner,address(0), tokenid) */\n      jump\t// in\n    tag_153:\n        /* \"34_ERC721/ERC721.sol\":3682:3683  1 */\n      0x01\n        /* \"34_ERC721/ERC721.sol\":3663:3672  _balances */\n      0x03\n        /* \"34_ERC721/ERC721.sol\":3663:3678  _balances[from] */\n      0x00\n        /* \"34_ERC721/ERC721.sol\":3673:3677  from */\n      dup6\n        /* \"34_ERC721/ERC721.sol\":3663:3678  _balances[from] */\n      0xffffffffffffffffffffffffffffffffffffffff\n      and\n      0xffffffffffffffffffffffffffffffffffffffff\n      and\n      dup2\n      mstore\n      0x20\n      add\n      swap1\n      dup2\n      mstore\n      0x20\n      add\n      0x00\n      keccak256\n      0x00\n        /* \"34_ERC721/ERC721.sol\":3663:3683  _balances[from] -= 1 */\n      dup3\n      dup3\n      sload\n      tag_154\n      swap2\n      swap1\n      tag_155\n      jump\t// in\n    tag_154:\n      swap3\n      pop\n      pop\n      dup2\n      swap1\n      sstore\n      pop\n        /* \"34_ERC721/ERC721.sol\":3711:3712  1 */\n      0x01\n        /* \"34_ERC721/ERC721.sol\":3694:3703  _balances */\n      0x03\n        /* \"34_ERC721/ERC721.sol\":3694:3707  _balances[to] */\n      0x00\n        /* \"34_ERC721/ERC721.sol\":3704:3706  to */\n      dup5\n        /* \"34_ERC721/ERC721.sol\":3694:3707  _balances[to] */\n      0xffffffffffffffffffffffffffffffffffffffff\n      and\n      0xffffffffffffffffffffffffffffffffffffffff\n      and\n      dup2\n      mstore\n      0x20\n      add\n      swap1\n      dup2\n      mstore\n      0x20\n      add\n      0x00\n      keccak256\n      0x00\n        /* \"34_ERC721/ERC721.sol\":3694:3712  _balances[to] += 1 */\n      dup3\n      dup3\n      sload\n      tag_156\n      swap2\n      swap1\n      tag_157\n      jump\t// in\n    tag_156:\n      swap3\n      pop\n      pop\n      dup2\n      swap1\n      sstore\n      pop\n        /* \"34_ERC721/ERC721.sol\":3741:3743  to */\n      dup2\n        /* \"34_ERC721/ERC721.sol\":3723:3729  _owner */\n      0x02\n        /* \"34_ERC721/ERC721.sol\":3723:3738  _owner[tokenid] */\n      0x00\n        /* \"34_ERC721/ERC721.sol\":3730:3737  tokenid */\n      dup4\n        /* \"34_ERC721/ERC721.sol\":3723:3738  _owner[tokenid] */\n      dup2\n      mstore\n      0x20\n      add\n      swap1\n      dup2\n      mstore\n      0x20\n      add\n      0x00\n      keccak256\n      0x00\n        /* \"34_ERC721/ERC721.sol\":3723:3743  _owner[tokenid] = to */\n      0x0100\n      exp\n      dup2\n      sload\n      dup2\n      0xffffffffffffffffffffffffffffffffffffffff\n      mul\n      not\n      and\n      swap1\n      dup4\n      0xffffffffffffffffffffffffffffffffffffffff\n      and\n      mul\n      or\n      swap1\n      sstore\n      pop\n        /* \"34_ERC721/ERC721.sol\":3778:3785  tokenid */\n      dup1\n        /* \"34_ERC721/ERC721.sol\":3774:3776  to */\n      dup3\n        /* \"34_ERC721/ERC721.sol\":3759:3786  Transfer(from, to, tokenid) */\n      0xffffffffffffffffffffffffffffffffffffffff\n      and\n        /* \"34_ERC721/ERC721.sol\":3768:3772  from */\n      dup5\n        /* \"34_ERC721/ERC721.sol\":3759:3786  Transfer(from, to, tokenid) */\n      0xffffffffffffffffffffffffffffffffffffffff\n      and\n      0xddf252ad1be2c89b69c2b068fc378daa952ba7f163c4a11628f55a4df523b3ef\n      mload(0x40)\n      mload(0x40)\n      dup1\n      swap2\n      sub\n      swap1\n      log4\n        /* \"34_ERC721/ERC721.sol\":3413:3794  function _transfer(address owner,address from,address to,uint tokenid) private {... */\n      pop\n      pop\n      pop\n      pop\n      jump\t// out\n        /* \"34_ERC721/ERC721.sol\":4213:4479  function _safeTransfer(... */\n    tag_128:\n        /* \"34_ERC721/ERC721.sol\":4381:4413  _transfer(owner,from,to,tokenid) */\n      tag_159\n        /* \"34_ERC721/ERC721.sol\":4391:4396  owner */\n      dup6\n        /* \"34_ERC721/ERC721.sol\":4397:4401  from */\n      dup6\n        /* \"34_ERC721/ERC721.sol\":4402:4404  to */\n      dup6\n        /* \"34_ERC721/ERC721.sol\":4405:4412  tokenid */\n      dup6\n        /* \"34_ERC721/ERC721.sol\":4381:4390  _transfer */\n      tag_103\n        /* \"34_ERC721/ERC721.sol\":4381:4413  _transfer(owner,from,to,tokenid) */\n      jump\t// in\n    tag_159:\n        /* \"34_ERC721/ERC721.sol\":4424:4471  _checkOnERC721Received(from, to, tokenid, data) */\n      tag_160\n        /* \"34_ERC721/ERC721.sol\":4447:4451  from */\n      dup5\n        /* \"34_ERC721/ERC721.sol\":4453:4455  to */\n      dup5\n        /* \"34_ERC721/ERC721.sol\":4457:4464  tokenid */\n      dup5\n        /* \"34_ERC721/ERC721.sol\":4466:4470  data */\n      dup5\n        /* \"34_ERC721/ERC721.sol\":4424:4446  _checkOnERC721Received */\n      tag_161\n        /* \"34_ERC721/ERC721.sol\":4424:4471  _checkOnERC721Received(from, to, tokenid, data) */\n      jump\t// in\n    tag_160:\n        /* \"34_ERC721/ERC721.sol\":4213:4479  function _safeTransfer(... */\n      pop\n      pop\n      pop\n      pop\n      pop\n      jump\t// out\n        /* \"34_ERC721/ERC721.sol\":7206:7300  function _baseURI() internal view virtual returns (string memory) {... */\n    tag_134:\n        /* \"34_ERC721/ERC721.sol\":7257:7270  string memory */\n      0x60\n        /* \"34_ERC721/ERC721.sol\":7283:7292  return \"\" */\n      mload(0x40)\n      dup1\n      0x20\n      add\n      0x40\n      mstore\n      dup1\n      0x00\n      dup2\n      mstore\n      pop\n      swap1\n      pop\n        /* \"34_ERC721/ERC721.sol\":7206:7300  function _baseURI() internal view virtual returns (string memory) {... */\n      swap1\n      jump\t// out\n        /* \"34_ERC721/String.sol\":198:806  function toString(uint256 value) internal pure returns(string memory){... */\n    tag_138:\n        /* \"34_ERC721/String.sol\":253:266  string memory */\n      0x60\n        /* \"34_ERC721/String.sol\":291:292  0 */\n      0x00\n        /* \"34_ERC721/String.sol\":282:287  value */\n      dup3\n        /* \"34_ERC721/String.sol\":282:292  value == 0 */\n      sub\n        /* \"34_ERC721/String.sol\":278:330  if (value == 0){... */\n      tag_164\n      jumpi\n        /* \"34_ERC721/String.sol\":308:318  return \"0\" */\n      mload(0x40)\n      dup1\n      0x40\n      add\n      0x40\n      mstore\n      dup1\n      0x01\n      dup2\n      mstore\n      0x20\n      add\n      0x3000000000000000000000000000000000000000000000000000000000000000\n      dup2\n      mstore\n      pop\n      swap1\n      pop\n      jump(tag_163)\n        /* \"34_ERC721/String.sol\":278:330  if (value == 0){... */\n    tag_164:\n        /* \"34_ERC721/String.sol\":340:352  uint256 temp */\n      0x00\n        /* \"34_ERC721/String.sol\":355:360  value */\n      dup3\n        /* \"34_ERC721/String.sol\":340:360  uint256 temp = value */\n      swap1\n      pop\n        /* \"34_ERC721/String.sol\":371:384  uint256 digit */\n      0x00\n        /* \"34_ERC721/String.sol\":395:468  while(temp!=0){... */\n    tag_165:\n        /* \"34_ERC721/String.sol\":407:408  0 */\n      0x00\n        /* \"34_ERC721/String.sol\":401:405  temp */\n      dup3\n        /* \"34_ERC721/String.sol\":401:408  temp!=0 */\n      eq\n        /* \"34_ERC721/String.sol\":395:468  while(temp!=0){... */\n      tag_166\n      jumpi\n        /* \"34_ERC721/String.sol\":424:431  digit++ */\n      dup1\n      dup1\n      tag_167\n      swap1\n      tag_168\n      jump\t// in\n    tag_167:\n      swap2\n      pop\n      pop\n        /* \"34_ERC721/String.sol\":454:456  10 */\n      0x0a\n        /* \"34_ERC721/String.sol\":446:456  temp /= 10 */\n      dup3\n      tag_169\n      swap2\n      swap1\n      tag_170\n      jump\t// in\n    tag_169:\n      swap2\n      pop\n        /* \"34_ERC721/String.sol\":395:468  while(temp!=0){... */\n      jump(tag_165)\n    tag_166:\n        /* \"34_ERC721/String.sol\":478:497  bytes memory buffer */\n      0x00\n        /* \"34_ERC721/String.sol\":510:515  digit */\n      dup2\n        /* \"34_ERC721/String.sol\":500:516  new bytes(digit) */\n      0xffffffffffffffff\n      dup2\n      gt\n      iszero\n      tag_171\n      jumpi\n      tag_172\n      tag_173\n      jump\t// in\n    tag_172:\n    tag_171:\n      mload(0x40)\n      swap1\n      dup1\n      dup3\n      mstore\n      dup1\n      0x1f\n      add\n      not(0x1f)\n      and\n      0x20\n      add\n      dup3\n      add\n      0x40\n      mstore\n      dup1\n      iszero\n      tag_174\n      jumpi\n      dup2\n      0x20\n      add\n      0x01\n      dup3\n      mul\n      dup1\n      calldatasize\n      dup4\n      calldatacopy\n      dup1\n      dup3\n      add\n      swap2\n      pop\n      pop\n      swap1\n      pop\n    tag_174:\n      pop\n        /* \"34_ERC721/String.sol\":478:516  bytes memory buffer = new bytes(digit) */\n      swap1\n      pop\n        /* \"34_ERC721/String.sol\":527:767  while(value != 0){... */\n    tag_175:\n        /* \"34_ERC721/String.sol\":542:543  0 */\n      0x00\n        /* \"34_ERC721/String.sol\":533:538  value */\n      dup6\n        /* \"34_ERC721/String.sol\":533:543  value != 0 */\n      eq\n        /* \"34_ERC721/String.sol\":527:767  while(value != 0){... */\n      tag_176\n      jumpi\n        /* \"34_ERC721/String.sol\":559:566  digit-- */\n      dup2\n      dup1\n      tag_177\n      swap1\n      tag_178\n      jump\t// in\n    tag_177:\n      swap3\n      pop\n      pop\n        /* \"34_ERC721/String.sol\":724:726  10 */\n      0x0a\n        /* \"34_ERC721/String.sol\":718:723  value */\n      dup6\n        /* \"34_ERC721/String.sol\":718:726  value%10 */\n      tag_179\n      swap2\n      swap1\n      tag_180\n      jump\t// in\n    tag_179:\n        /* \"34_ERC721/String.sol\":707:709  48 */\n      0x30\n        /* \"34_ERC721/String.sol\":707:727  48+uint256(value%10) */\n      tag_181\n      swap2\n      swap1\n      tag_157\n      jump\t// in\n    tag_181:\n        /* \"34_ERC721/String.sol\":694:729  bytes1(uint8(48+uint256(value%10))) */\n      0xf8\n      shl\n        /* \"34_ERC721/String.sol\":678:684  buffer */\n      dup2\n        /* \"34_ERC721/String.sol\":685:690  digit */\n      dup4\n        /* \"34_ERC721/String.sol\":678:691  buffer[digit] */\n      dup2\n      mload\n      dup2\n      lt\n      tag_182\n      jumpi\n      tag_183\n      tag_184\n      jump\t// in\n    tag_183:\n    tag_182:\n      0x20\n      add\n      add\n        /* \"34_ERC721/String.sol\":678:729  buffer[digit] = bytes1(uint8(48+uint256(value%10))) */\n      swap1\n      not(0xffffffffffffffffffffffffffffffffffffffffffffffffffffffffffffff)\n      and\n      swap1\n      dup2\n      0x00\n      byte\n      swap1\n      mstore8\n      pop\n        /* \"34_ERC721/String.sol\":753:755  10 */\n      0x0a\n        /* \"34_ERC721/String.sol\":744:755  value /= 10 */\n      dup6\n      tag_185\n      swap2\n      swap1\n      tag_170\n      jump\t// in\n    tag_185:\n      swap5\n      pop\n        /* \"34_ERC721/String.sol\":527:767  while(value != 0){... */\n      jump(tag_175)\n    tag_176:\n        /* \"34_ERC721/String.sol\":791:797  buffer */\n      dup1\n        /* \"34_ERC721/String.sol\":777:798  return string(buffer) */\n      swap4\n      pop\n      pop\n      pop\n      pop\n        /* \"34_ERC721/String.sol\":198:806  function toString(uint256 value) internal pure returns(string memory){... */\n    tag_163:\n      swap2\n      swap1\n      pop\n      jump\t// out\n        /* \"34_ERC721/ERC721.sol\":5736:6582  function _checkOnERC721Received(address from,address to,uint256 tokenid,bytes memory data) private {... */\n    tag_161:\n        /* \"34_ERC721/ERC721.sol\":5933:5934  0 */\n      0x00\n        /* \"34_ERC721/ERC721.sol\":5916:5918  to */\n      dup4\n        /* \"34_ERC721/ERC721.sol\":5916:5930  to.code.length */\n      0xffffffffffffffffffffffffffffffffffffffff\n      and\n      extcodesize\n        /* \"34_ERC721/ERC721.sol\":5916:5934  to.code.length > 0 */\n      gt\n        /* \"34_ERC721/ERC721.sol\":5912:6575  if (to.code.length > 0){... */\n      iszero\n      tag_187\n      jumpi\n        /* \"34_ERC721/ERC721.sol\":5970:5972  to */\n      dup3\n        /* \"34_ERC721/ERC721.sol\":5954:5990  IERC721Receiver(to).onERC721Received */\n      0xffffffffffffffffffffffffffffffffffffffff\n      and\n      0x150b7a02\n        /* \"34_ERC721/ERC721.sol\":5991:6001  msg.sender */\n      caller\n        /* \"34_ERC721/ERC721.sol\":6002:6006  from */\n      dup7\n        /* \"34_ERC721/ERC721.sol\":6007:6014  tokenid */\n      dup6\n        /* \"34_ERC721/ERC721.sol\":6015:6019  data */\n      dup6\n        /* \"34_ERC721/ERC721.sol\":5954:6020  IERC721Receiver(to).onERC721Received(msg.sender,from,tokenid,data) */\n      mload(0x40)\n      dup6\n      0xffffffff\n      and\n      0xe0\n      shl\n      dup2\n      mstore\n      0x04\n      add\n      tag_188\n      swap5\n      swap4\n      swap3\n      swap2\n      swap1\n      tag_189\n      jump\t// in\n    tag_188:\n      0x20\n      mload(0x40)\n      dup1\n      dup4\n      sub\n      dup2\n      0x00\n      dup8\n      gas\n      call\n      swap3\n      pop\n      pop\n      pop\n      dup1\n      iszero\n      tag_190\n      jumpi\n      pop\n      mload(0x40)\n      returndatasize\n      not(0x1f)\n      0x1f\n      dup3\n      add\n      and\n      dup3\n      add\n      dup1\n      0x40\n      mstore\n      pop\n      dup2\n      add\n      swap1\n      tag_191\n      swap2\n      swap1\n      tag_192\n      jump\t// in\n    tag_191:\n      0x01\n    tag_190:\n        /* \"34_ERC721/ERC721.sol\":5950:6564  try IERC721Receiver(to).onERC721Received(msg.sender,from,tokenid,data) returns (bytes4 result){... */\n      tag_193\n      jumpi\n      returndatasize\n      dup1\n      0x00\n      dup2\n      eq\n      tag_198\n      jumpi\n      mload(0x40)\n      swap2\n      pop\n      and(add(returndatasize, 0x3f), not(0x1f))\n      dup3\n      add\n      0x40\n      mstore\n      returndatasize\n      dup3\n      mstore\n      returndatasize\n      0x00\n      0x20\n      dup5\n      add\n      returndatacopy\n      jump(tag_197)\n    tag_198:\n      0x60\n      swap2\n      pop\n    tag_197:\n      pop\n        /* \"34_ERC721/ERC721.sol\":6273:6274  0 */\n      0x00\n        /* \"34_ERC721/ERC721.sol\":6258:6264  reason */\n      dup2\n        /* \"34_ERC721/ERC721.sol\":6258:6271  reason.length */\n      mload\n        /* \"34_ERC721/ERC721.sol\":6258:6274  reason.length==0 */\n      sub\n        /* \"34_ERC721/ERC721.sol\":6254:6549  if (reason.length==0){... */\n      tag_199\n      jumpi\n        /* \"34_ERC721/ERC721.sol\":6327:6329  to */\n      dup4\n        /* \"34_ERC721/ERC721.sol\":6305:6330  ERC721InvalidReceiver(to) */\n      mload(0x40)\n      0x64a0ae9200000000000000000000000000000000000000000000000000000000\n      dup2\n      mstore\n      0x04\n      add\n      tag_200\n      swap2\n      swap1\n      tag_33\n      jump\t// in\n    tag_200:\n      mload(0x40)\n      dup1\n      swap2\n      sub\n      swap1\n      revert\n        /* \"34_ERC721/ERC721.sol\":6254:6549  if (reason.length==0){... */\n    tag_199:\n        /* \"34_ERC721/ERC721.sol\":6499:6505  reason */\n      dup1\n        /* \"34_ERC721/ERC721.sol\":6493:6506  mload(reason) */\n      mload\n        /* \"34_ERC721/ERC721.sol\":6484:6490  reason */\n      dup2\n        /* \"34_ERC721/ERC721.sol\":6480:6482  32 */\n      0x20\n        /* \"34_ERC721/ERC721.sol\":6476:6491  add(32, reason) */\n      add\n        /* \"34_ERC721/ERC721.sol\":6469:6507  revert(add(32, reason), mload(reason)) */\n      revert\n        /* \"34_ERC721/ERC721.sol\":5950:6564  try IERC721Receiver(to).onERC721Received(msg.sender,from,tokenid,data) returns (bytes4 result){... */\n    tag_193:\n        /* \"34_ERC721/ERC721.sol\":6076:6117  IERC721Receiver.onERC721Received.selector */\n      shl(0xe0, 0x150b7a02)\n        /* \"34_ERC721/ERC721.sol\":6067:6117  result !=IERC721Receiver.onERC721Received.selector */\n      not(0xffffffffffffffffffffffffffffffffffffffffffffffffffffffff)\n      and\n        /* \"34_ERC721/ERC721.sol\":6067:6073  result */\n      dup2\n        /* \"34_ERC721/ERC721.sol\":6067:6117  result !=IERC721Receiver.onERC721Received.selector */\n      not(0xffffffffffffffffffffffffffffffffffffffffffffffffffffffff)\n      and\n      eq\n        /* \"34_ERC721/ERC721.sol\":6063:6193  if (result !=IERC721Receiver.onERC721Received.selector){... */\n      tag_203\n      jumpi\n        /* \"34_ERC721/ERC721.sol\":6170:6172  to */\n      dup4\n        /* \"34_ERC721/ERC721.sol\":6148:6173  ERC721InvalidReceiver(to) */\n      mload(0x40)\n      0x64a0ae9200000000000000000000000000000000000000000000000000000000\n      dup2\n      mstore\n      0x04\n      add\n      tag_204\n      swap2\n      swap1\n      tag_33\n      jump\t// in\n    tag_204:\n      mload(0x40)\n      dup1\n      swap2\n      sub\n      swap1\n      revert\n        /* \"34_ERC721/ERC721.sol\":6063:6193  if (result !=IERC721Receiver.onERC721Received.selector){... */\n    tag_203:\n        /* \"34_ERC721/ERC721.sol\":6021:6208  returns (bytes4 result){... */\n      pop\n        /* \"34_ERC721/ERC721.sol\":5912:6575  if (to.code.length > 0){... */\n    tag_187:\n        /* \"34_ERC721/ERC721.sol\":5736:6582  function _checkOnERC721Received(address from,address to,uint256 tokenid,bytes memory data) private {... */\n      pop\n      pop\n      pop\n      pop\n      jump\t// out\n        /* \"#utility.yul\":7:82   */\n    tag_205:\n        /* \"#utility.yul\":40:46   */\n      0x00\n        /* \"#utility.yul\":73:75   */\n      0x40\n        /* \"#utility.yul\":67:76   */\n      mload\n        /* \"#utility.yul\":57:76   */\n      swap1\n      pop\n        /* \"#utility.yul\":7:82   */\n      swap1\n      jump\t// out\n        /* \"#utility.yul\":88:205   */\n    tag_206:\n        /* \"#utility.yul\":197:198   */\n      0x00\n        /* \"#utility.yul\":194:195   */\n      dup1\n        /* \"#utility.yul\":187:199   */\n      revert\n        /* \"#utility.yul\":211:328   */\n    tag_207:\n        /* \"#utility.yul\":320:321   */\n      0x00\n        /* \"#utility.yul\":317:318   */\n      dup1\n        /* \"#utility.yul\":310:322   */\n      revert\n        /* \"#utility.yul\":334:483   */\n    tag_208:\n        /* \"#utility.yul\":370:377   */\n      0x00\n        /* \"#utility.yul\":410:476   */\n      0xffffffff00000000000000000000000000000000000000000000000000000000\n        /* \"#utility.yul\":403:408   */\n      dup3\n        /* \"#utility.yul\":399:477   */\n      and\n        /* \"#utility.yul\":388:477   */\n      swap1\n      pop\n        /* \"#utility.yul\":334:483   */\n      swap2\n      swap1\n      pop\n      jump\t// out\n        /* \"#utility.yul\":489:609   */\n    tag_209:\n        /* \"#utility.yul\":561:584   */\n      tag_270\n        /* \"#utility.yul\":578:583   */\n      dup2\n        /* \"#utility.yul\":561:584   */\n      tag_208\n      jump\t// in\n    tag_270:\n        /* \"#utility.yul\":554:559   */\n      dup2\n        /* \"#utility.yul\":551:585   */\n      eq\n        /* \"#utility.yul\":541:603   */\n      tag_271\n      jumpi\n        /* \"#utility.yul\":599:600   */\n      0x00\n        /* \"#utility.yul\":596:597   */\n      dup1\n        /* \"#utility.yul\":589:601   */\n      revert\n        /* \"#utility.yul\":541:603   */\n    tag_271:\n        /* \"#utility.yul\":489:609   */\n      pop\n      jump\t// out\n        /* \"#utility.yul\":615:752   */\n    tag_210:\n        /* \"#utility.yul\":660:665   */\n      0x00\n        /* \"#utility.yul\":698:704   */\n      dup2\n        /* \"#utility.yul\":685:705   */\n      calldataload\n        /* \"#utility.yul\":676:705   */\n      swap1\n      pop\n        /* \"#utility.yul\":714:746   */\n      tag_273\n        /* \"#utility.yul\":740:745   */\n      dup2\n        /* \"#utility.yul\":714:746   */\n      tag_209\n      jump\t// in\n    tag_273:\n        /* \"#utility.yul\":615:752   */\n      swap3\n      swap2\n      pop\n      pop\n      jump\t// out\n        /* \"#utility.yul\":758:1085   */\n    tag_20:\n        /* \"#utility.yul\":816:822   */\n      0x00\n        /* \"#utility.yul\":865:867   */\n      0x20\n        /* \"#utility.yul\":853:862   */\n      dup3\n        /* \"#utility.yul\":844:851   */\n      dup5\n        /* \"#utility.yul\":840:863   */\n      sub\n        /* \"#utility.yul\":836:868   */\n      slt\n        /* \"#utility.yul\":833:952   */\n      iszero\n      tag_275\n      jumpi\n        /* \"#utility.yul\":871:950   */\n      tag_276\n      tag_206\n      jump\t// in\n    tag_276:\n        /* \"#utility.yul\":833:952   */\n    tag_275:\n        /* \"#utility.yul\":991:992   */\n      0x00\n        /* \"#utility.yul\":1016:1068   */\n      tag_277\n        /* \"#utility.yul\":1060:1067   */\n      dup5\n        /* \"#utility.yul\":1051:1057   */\n      dup3\n        /* \"#utility.yul\":1040:1049   */\n      dup6\n        /* \"#utility.yul\":1036:1058   */\n      add\n        /* \"#utility.yul\":1016:1068   */\n      tag_210\n      jump\t// in\n    tag_277:\n        /* \"#utility.yul\":1006:1068   */\n      swap2\n      pop\n        /* \"#utility.yul\":962:1078   */\n      pop\n        /* \"#utility.yul\":758:1085   */\n      swap3\n      swap2\n      pop\n      pop\n      jump\t// out\n        /* \"#utility.yul\":1091:1181   */\n    tag_211:\n        /* \"#utility.yul\":1125:1132   */\n      0x00\n        /* \"#utility.yul\":1168:1173   */\n      dup2\n        /* \"#utility.yul\":1161:1174   */\n      iszero\n        /* \"#utility.yul\":1154:1175   */\n      iszero\n        /* \"#utility.yul\":1143:1175   */\n      swap1\n      pop\n        /* \"#utility.yul\":1091:1181   */\n      swap2\n      swap1\n      pop\n      jump\t// out\n        /* \"#utility.yul\":1187:1296   */\n    tag_212:\n        /* \"#utility.yul\":1268:1289   */\n      tag_280\n        /* \"#utility.yul\":1283:1288   */\n      dup2\n        /* \"#utility.yul\":1268:1289   */\n      tag_211\n      jump\t// in\n    tag_280:\n        /* \"#utility.yul\":1263:1266   */\n      dup3\n        /* \"#utility.yul\":1256:1290   */\n      mstore\n        /* \"#utility.yul\":1187:1296   */\n      pop\n      pop\n      jump\t// out\n        /* \"#utility.yul\":1302:1512   */\n    tag_23:\n        /* \"#utility.yul\":1389:1393   */\n      0x00\n        /* \"#utility.yul\":1427:1429   */\n      0x20\n        /* \"#utility.yul\":1416:1425   */\n      dup3\n        /* \"#utility.yul\":1412:1430   */\n      add\n        /* \"#utility.yul\":1404:1430   */\n      swap1\n      pop\n        /* \"#utility.yul\":1440:1505   */\n      tag_282\n        /* \"#utility.yul\":1502:1503   */\n      0x00\n        /* \"#utility.yul\":1491:1500   */\n      dup4\n        /* \"#utility.yul\":1487:1504   */\n      add\n        /* \"#utility.yul\":1478:1484   */\n      dup5\n        /* \"#utility.yul\":1440:1505   */\n      tag_212\n      jump\t// in\n    tag_282:\n        /* \"#utility.yul\":1302:1512   */\n      swap3\n      swap2\n      pop\n      pop\n      jump\t// out\n        /* \"#utility.yul\":1518:1617   */\n    tag_213:\n        /* \"#utility.yul\":1570:1576   */\n      0x00\n        /* \"#utility.yul\":1604:1609   */\n      dup2\n        /* \"#utility.yul\":1598:1610   */\n      mload\n        /* \"#utility.yul\":1588:1610   */\n      swap1\n      pop\n        /* \"#utility.yul\":1518:1617   */\n      swap2\n      swap1\n      pop\n      jump\t// out\n        /* \"#utility.yul\":1623:1792   */\n    tag_214:\n        /* \"#utility.yul\":1707:1718   */\n      0x00\n        /* \"#utility.yul\":1741:1747   */\n      dup3\n        /* \"#utility.yul\":1736:1739   */\n      dup3\n        /* \"#utility.yul\":1729:1748   */\n      mstore\n        /* \"#utility.yul\":1781:1785   */\n      0x20\n        /* \"#utility.yul\":1776:1779   */\n      dup3\n        /* \"#utility.yul\":1772:1786   */\n      add\n        /* \"#utility.yul\":1757:1786   */\n      swap1\n      pop\n        /* \"#utility.yul\":1623:1792   */\n      swap3\n      swap2\n      pop\n      pop\n      jump\t// out\n        /* \"#utility.yul\":1798:1937   */\n    tag_215:\n        /* \"#utility.yul\":1887:1893   */\n      dup3\n        /* \"#utility.yul\":1882:1885   */\n      dup2\n        /* \"#utility.yul\":1877:1880   */\n      dup4\n        /* \"#utility.yul\":1871:1894   */\n      mcopy\n        /* \"#utility.yul\":1928:1929   */\n      0x00\n        /* \"#utility.yul\":1919:1925   */\n      dup4\n        /* \"#utility.yul\":1914:1917   */\n      dup4\n        /* \"#utility.yul\":1910:1926   */\n      add\n        /* \"#utility.yul\":1903:1930   */\n      mstore\n        /* \"#utility.yul\":1798:1937   */\n      pop\n      pop\n      pop\n      jump\t// out\n        /* \"#utility.yul\":1943:2045   */\n    tag_216:\n        /* \"#utility.yul\":1984:1990   */\n      0x00\n        /* \"#utility.yul\":2035:2037   */\n      0x1f\n        /* \"#utility.yul\":2031:2038   */\n      not\n        /* \"#utility.yul\":2026:2028   */\n      0x1f\n        /* \"#utility.yul\":2019:2024   */\n      dup4\n        /* \"#utility.yul\":2015:2029   */\n      add\n        /* \"#utility.yul\":2011:2039   */\n      and\n        /* \"#utility.yul\":2001:2039   */\n      swap1\n      pop\n        /* \"#utility.yul\":1943:2045   */\n      swap2\n      swap1\n      pop\n      jump\t// out\n        /* \"#utility.yul\":2051:2428   */\n    tag_217:\n        /* \"#utility.yul\":2139:2142   */\n      0x00\n        /* \"#utility.yul\":2167:2206   */\n      tag_288\n        /* \"#utility.yul\":2200:2205   */\n      dup3\n        /* \"#utility.yul\":2167:2206   */\n      tag_213\n      jump\t// in\n    tag_288:\n        /* \"#utility.yul\":2222:2293   */\n      tag_289\n        /* \"#utility.yul\":2286:2292   */\n      dup2\n        /* \"#utility.yul\":2281:2284   */\n      dup6\n        /* \"#utility.yul\":2222:2293   */\n      tag_214\n      jump\t// in\n    tag_289:\n        /* \"#utility.yul\":2215:2293   */\n      swap4\n      pop\n        /* \"#utility.yul\":2302:2367   */\n      tag_290\n        /* \"#utility.yul\":2360:2366   */\n      dup2\n        /* \"#utility.yul\":2355:2358   */\n      dup6\n        /* \"#utility.yul\":2348:2352   */\n      0x20\n        /* \"#utility.yul\":2341:2346   */\n      dup7\n        /* \"#utility.yul\":2337:2353   */\n      add\n        /* \"#utility.yul\":2302:2367   */\n      tag_215\n      jump\t// in\n    tag_290:\n        /* \"#utility.yul\":2392:2421   */\n      tag_291\n        /* \"#utility.yul\":2414:2420   */\n      dup2\n        /* \"#utility.yul\":2392:2421   */\n      tag_216\n      jump\t// in\n    tag_291:\n        /* \"#utility.yul\":2387:2390   */\n      dup5\n        /* \"#utility.yul\":2383:2422   */\n      add\n        /* \"#utility.yul\":2376:2422   */\n      swap2\n      pop\n        /* \"#utility.yul\":2143:2428   */\n      pop\n        /* \"#utility.yul\":2051:2428   */\n      swap3\n      swap2\n      pop\n      pop\n      jump\t// out\n        /* \"#utility.yul\":2434:2747   */\n    tag_27:\n        /* \"#utility.yul\":2547:2551   */\n      0x00\n        /* \"#utility.yul\":2585:2587   */\n      0x20\n        /* \"#utility.yul\":2574:2583   */\n      dup3\n        /* \"#utility.yul\":2570:2588   */\n      add\n        /* \"#utility.yul\":2562:2588   */\n      swap1\n      pop\n        /* \"#utility.yul\":2634:2643   */\n      dup2\n        /* \"#utility.yul\":2628:2632   */\n      dup2\n        /* \"#utility.yul\":2624:2644   */\n      sub\n        /* \"#utility.yul\":2620:2621   */\n      0x00\n        /* \"#utility.yul\":2609:2618   */\n      dup4\n        /* \"#utility.yul\":2605:2622   */\n      add\n        /* \"#utility.yul\":2598:2645   */\n      mstore\n        /* \"#utility.yul\":2662:2740   */\n      tag_293\n        /* \"#utility.yul\":2735:2739   */\n      dup2\n        /* \"#utility.yul\":2726:2732   */\n      dup5\n        /* \"#utility.yul\":2662:2740   */\n      tag_217\n      jump\t// in\n    tag_293:\n        /* \"#utility.yul\":2654:2740   */\n      swap1\n      pop\n        /* \"#utility.yul\":2434:2747   */\n      swap3\n      swap2\n      pop\n      pop\n      jump\t// out\n        /* \"#utility.yul\":2753:2830   */\n    tag_218:\n        /* \"#utility.yul\":2790:2797   */\n      0x00\n        /* \"#utility.yul\":2819:2824   */\n      dup2\n        /* \"#utility.yul\":2808:2824   */\n      swap1\n      pop\n        /* \"#utility.yul\":2753:2830   */\n      swap2\n      swap1\n      pop\n      jump\t// out\n        /* \"#utility.yul\":2836:2958   */\n    tag_219:\n        /* \"#utility.yul\":2909:2933   */\n      tag_296\n        /* \"#utility.yul\":2927:2932   */\n      dup2\n        /* \"#utility.yul\":2909:2933   */\n      tag_218\n      jump\t// in\n    tag_296:\n        /* \"#utility.yul\":2902:2907   */\n      dup2\n        /* \"#utility.yul\":2899:2934   */\n      eq\n        /* \"#utility.yul\":2889:2952   */\n      tag_297\n      jumpi\n        /* \"#utility.yul\":2948:2949   */\n      0x00\n        /* \"#utility.yul\":2945:2946   */\n      dup1\n        /* \"#utility.yul\":2938:2950   */\n      revert\n        /* \"#utility.yul\":2889:2952   */\n    tag_297:\n        /* \"#utility.yul\":2836:2958   */\n      pop\n      jump\t// out\n        /* \"#utility.yul\":2964:3103   */\n    tag_220:\n        /* \"#utility.yul\":3010:3015   */\n      0x00\n        /* \"#utility.yul\":3048:3054   */\n      dup2\n        /* \"#utility.yul\":3035:3055   */\n      calldataload\n        /* \"#utility.yul\":3026:3055   */\n      swap1\n      pop\n        /* \"#utility.yul\":3064:3097   */\n      tag_299\n        /* \"#utility.yul\":3091:3096   */\n      dup2\n        /* \"#utility.yul\":3064:3097   */\n      tag_219\n      jump\t// in\n    tag_299:\n        /* \"#utility.yul\":2964:3103   */\n      swap3\n      swap2\n      pop\n      pop\n      jump\t// out\n        /* \"#utility.yul\":3109:3438   */\n    tag_30:\n        /* \"#utility.yul\":3168:3174   */\n      0x00\n        /* \"#utility.yul\":3217:3219   */\n      0x20\n        /* \"#utility.yul\":3205:3214   */\n      dup3\n        /* \"#utility.yul\":3196:3203   */\n      dup5\n        /* \"#utility.yul\":3192:3215   */\n      sub\n        /* \"#utility.yul\":3188:3220   */\n      slt\n        /* \"#utility.yul\":3185:3304   */\n      iszero\n      tag_301\n      jumpi\n        /* \"#utility.yul\":3223:3302   */\n      tag_302\n      tag_206\n      jump\t// in\n    tag_302:\n        /* \"#utility.yul\":3185:3304   */\n    tag_301:\n        /* \"#utility.yul\":3343:3344   */\n      0x00\n        /* \"#utility.yul\":3368:3421   */\n      tag_303\n        /* \"#utility.yul\":3413:3420   */\n      dup5\n        /* \"#utility.yul\":3404:3410   */\n      dup3\n        /* \"#utility.yul\":3393:3402   */\n      dup6\n        /* \"#utility.yul\":3389:3411   */\n      add\n        /* \"#utility.yul\":3368:3421   */\n      tag_220\n      jump\t// in\n    tag_303:\n        /* \"#utility.yul\":3358:3421   */\n      swap2\n      pop\n        /* \"#utility.yul\":3314:3431   */\n      pop\n        /* \"#utility.yul\":3109:3438   */\n      swap3\n      swap2\n      pop\n      pop\n      jump\t// out\n        /* \"#utility.yul\":3444:3570   */\n    tag_221:\n        /* \"#utility.yul\":3481:3488   */\n      0x00\n        /* \"#utility.yul\":3521:3563   */\n      0xffffffffffffffffffffffffffffffffffffffff\n        /* \"#utility.yul\":3514:3519   */\n      dup3\n        /* \"#utility.yul\":3510:3564   */\n      and\n        /* \"#utility.yul\":3499:3564   */\n      swap1\n      pop\n        /* \"#utility.yul\":3444:3570   */\n      swap2\n      swap1\n      pop\n      jump\t// out\n        /* \"#utility.yul\":3576:3672   */\n    tag_222:\n        /* \"#utility.yul\":3613:3620   */\n      0x00\n        /* \"#utility.yul\":3642:3666   */\n      tag_306\n        /* \"#utility.yul\":3660:3665   */\n      dup3\n        /* \"#utility.yul\":3642:3666   */\n      tag_221\n      jump\t// in\n    tag_306:\n        /* \"#utility.yul\":3631:3666   */\n      swap1\n      pop\n        /* \"#utility.yul\":3576:3672   */\n      swap2\n      swap1\n      pop\n      jump\t// out\n        /* \"#utility.yul\":3678:3796   */\n    tag_223:\n        /* \"#utility.yul\":3765:3789   */\n      tag_308\n        /* \"#utility.yul\":3783:3788   */\n      dup2\n        /* \"#utility.yul\":3765:3789   */\n      tag_222\n      jump\t// in\n    tag_308:\n        /* \"#utility.yul\":3760:3763   */\n      dup3\n        /* \"#utility.yul\":3753:3790   */\n      mstore\n        /* \"#utility.yul\":3678:3796   */\n      pop\n      pop\n      jump\t// out\n        /* \"#utility.yul\":3802:4024   */\n    tag_33:\n        /* \"#utility.yul\":3895:3899   */\n      0x00\n        /* \"#utility.yul\":3933:3935   */\n      0x20\n        /* \"#utility.yul\":3922:3931   */\n      dup3\n        /* \"#utility.yul\":3918:3936   */\n      add\n        /* \"#utility.yul\":3910:3936   */\n      swap1\n      pop\n        /* \"#utility.yul\":3946:4017   */\n      tag_310\n        /* \"#utility.yul\":4014:4015   */\n      0x00\n        /* \"#utility.yul\":4003:4012   */\n      dup4\n        /* \"#utility.yul\":3999:4016   */\n      add\n        /* \"#utility.yul\":3990:3996   */\n      dup5\n        /* \"#utility.yul\":3946:4017   */\n      tag_223\n      jump\t// in\n    tag_310:\n        /* \"#utility.yul\":3802:4024   */\n      swap3\n      swap2\n      pop\n      pop\n      jump\t// out\n        /* \"#utility.yul\":4030:4152   */\n    tag_224:\n        /* \"#utility.yul\":4103:4127   */\n      tag_312\n        /* \"#utility.yul\":4121:4126   */\n      dup2\n        /* \"#utility.yul\":4103:4127   */\n      tag_222\n      jump\t// in\n    tag_312:\n        /* \"#utility.yul\":4096:4101   */\n      dup2\n        /* \"#utility.yul\":4093:4128   */\n      eq\n        /* \"#utility.yul\":4083:4146   */\n      tag_313\n      jumpi\n        /* \"#utility.yul\":4142:4143   */\n      0x00\n        /* \"#utility.yul\":4139:4140   */\n      dup1\n        /* \"#utility.yul\":4132:4144   */\n      revert\n        /* \"#utility.yul\":4083:4146   */\n    tag_313:\n        /* \"#utility.yul\":4030:4152   */\n      pop\n      jump\t// out\n        /* \"#utility.yul\":4158:4297   */\n    tag_225:\n        /* \"#utility.yul\":4204:4209   */\n      0x00\n        /* \"#utility.yul\":4242:4248   */\n      dup2\n        /* \"#utility.yul\":4229:4249   */\n      calldataload\n        /* \"#utility.yul\":4220:4249   */\n      swap1\n      pop\n        /* \"#utility.yul\":4258:4291   */\n      tag_315\n        /* \"#utility.yul\":4285:4290   */\n      dup2\n        /* \"#utility.yul\":4258:4291   */\n      tag_224\n      jump\t// in\n    tag_315:\n        /* \"#utility.yul\":4158:4297   */\n      swap3\n      swap2\n      pop\n      pop\n      jump\t// out\n        /* \"#utility.yul\":4303:4777   */\n    tag_36:\n        /* \"#utility.yul\":4371:4377   */\n      0x00\n        /* \"#utility.yul\":4379:4385   */\n      dup1\n        /* \"#utility.yul\":4428:4430   */\n      0x40\n        /* \"#utility.yul\":4416:4425   */\n      dup4\n        /* \"#utility.yul\":4407:4414   */\n      dup6\n        /* \"#utility.yul\":4403:4426   */\n      sub\n        /* \"#utility.yul\":4399:4431   */\n      slt\n        /* \"#utility.yul\":4396:4515   */\n      iszero\n      tag_317\n      jumpi\n        /* \"#utility.yul\":4434:4513   */\n      tag_318\n      tag_206\n      jump\t// in\n    tag_318:\n        /* \"#utility.yul\":4396:4515   */\n    tag_317:\n        /* \"#utility.yul\":4554:4555   */\n      0x00\n        /* \"#utility.yul\":4579:4632   */\n      tag_319\n        /* \"#utility.yul\":4624:4631   */\n      dup6\n        /* \"#utility.yul\":4615:4621   */\n      dup3\n        /* \"#utility.yul\":4604:4613   */\n      dup7\n        /* \"#utility.yul\":4600:4622   */\n      add\n        /* \"#utility.yul\":4579:4632   */\n      tag_225\n      jump\t// in\n    tag_319:\n        /* \"#utility.yul\":4569:4632   */\n      swap3\n      pop\n        /* \"#utility.yul\":4525:4642   */\n      pop\n        /* \"#utility.yul\":4681:4683   */\n      0x20\n        /* \"#utility.yul\":4707:4760   */\n      tag_320\n        /* \"#utility.yul\":4752:4759   */\n      dup6\n        /* \"#utility.yul\":4743:4749   */\n      dup3\n        /* \"#utility.yul\":4732:4741   */\n      dup7\n        /* \"#utility.yul\":4728:4750   */\n      add\n        /* \"#utility.yul\":4707:4760   */\n      tag_220\n      jump\t// in\n    tag_320:\n        /* \"#utility.yul\":4697:4760   */\n      swap2\n      pop\n        /* \"#utility.yul\":4652:4770   */\n      pop\n        /* \"#utility.yul\":4303:4777   */\n      swap3\n      pop\n      swap3\n      swap1\n      pop\n      jump\t// out\n        /* \"#utility.yul\":4783:5402   */\n    tag_40:\n        /* \"#utility.yul\":4860:4866   */\n      0x00\n        /* \"#utility.yul\":4868:4874   */\n      dup1\n        /* \"#utility.yul\":4876:4882   */\n      0x00\n        /* \"#utility.yul\":4925:4927   */\n      0x60\n        /* \"#utility.yul\":4913:4922   */\n      dup5\n        /* \"#utility.yul\":4904:4911   */\n      dup7\n        /* \"#utility.yul\":4900:4923   */\n      sub\n        /* \"#utility.yul\":4896:4928   */\n      slt\n        /* \"#utility.yul\":4893:5012   */\n      iszero\n      tag_322\n      jumpi\n        /* \"#utility.yul\":4931:5010   */\n      tag_323\n      tag_206\n      jump\t// in\n    tag_323:\n        /* \"#utility.yul\":4893:5012   */\n    tag_322:\n        /* \"#utility.yul\":5051:5052   */\n      0x00\n        /* \"#utility.yul\":5076:5129   */\n      tag_324\n        /* \"#utility.yul\":5121:5128   */\n      dup7\n        /* \"#utility.yul\":5112:5118   */\n      dup3\n        /* \"#utility.yul\":5101:5110   */\n      dup8\n        /* \"#utility.yul\":5097:5119   */\n      add\n        /* \"#utility.yul\":5076:5129   */\n      tag_225\n      jump\t// in\n    tag_324:\n        /* \"#utility.yul\":5066:5129   */\n      swap4\n      pop\n        /* \"#utility.yul\":5022:5139   */\n      pop\n        /* \"#utility.yul\":5178:5180   */\n      0x20\n        /* \"#utility.yul\":5204:5257   */\n      tag_325\n        /* \"#utility.yul\":5249:5256   */\n      dup7\n        /* \"#utility.yul\":5240:5246   */\n      dup3\n        /* \"#utility.yul\":5229:5238   */\n      dup8\n        /* \"#utility.yul\":5225:5247   */\n      add\n        /* \"#utility.yul\":5204:5257   */\n      tag_225\n      jump\t// in\n    tag_325:\n        /* \"#utility.yul\":5194:5257   */\n      swap3\n      pop\n        /* \"#utility.yul\":5149:5267   */\n      pop\n        /* \"#utility.yul\":5306:5308   */\n      0x40\n        /* \"#utility.yul\":5332:5385   */\n      tag_326\n        /* \"#utility.yul\":5377:5384   */\n      dup7\n        /* \"#utility.yul\":5368:5374   */\n      dup3\n        /* \"#utility.yul\":5357:5366   */\n      dup8\n        /* \"#utility.yul\":5353:5375   */\n      add\n        /* \"#utility.yul\":5332:5385   */\n      tag_220\n      jump\t// in\n    tag_326:\n        /* \"#utility.yul\":5322:5385   */\n      swap2\n      pop\n        /* \"#utility.yul\":5277:5395   */\n      pop\n        /* \"#utility.yul\":4783:5402   */\n      swap3\n      pop\n      swap3\n      pop\n      swap3\n      jump\t// out\n        /* \"#utility.yul\":5408:5737   */\n    tag_51:\n        /* \"#utility.yul\":5467:5473   */\n      0x00\n        /* \"#utility.yul\":5516:5518   */\n      0x20\n        /* \"#utility.yul\":5504:5513   */\n      dup3\n        /* \"#utility.yul\":5495:5502   */\n      dup5\n        /* \"#utility.yul\":5491:5514   */\n      sub\n        /* \"#utility.yul\":5487:5519   */\n      slt\n        /* \"#utility.yul\":5484:5603   */\n      iszero\n      tag_328\n      jumpi\n        /* \"#utility.yul\":5522:5601   */\n      tag_329\n      tag_206\n      jump\t// in\n    tag_329:\n        /* \"#utility.yul\":5484:5603   */\n    tag_328:\n        /* \"#utility.yul\":5642:5643   */\n      0x00\n        /* \"#utility.yul\":5667:5720   */\n      tag_330\n        /* \"#utility.yul\":5712:5719   */\n      dup5\n        /* \"#utility.yul\":5703:5709   */\n      dup3\n        /* \"#utility.yul\":5692:5701   */\n      dup6\n        /* \"#utility.yul\":5688:5710   */\n      add\n        /* \"#utility.yul\":5667:5720   */\n      tag_225\n      jump\t// in\n    tag_330:\n        /* \"#utility.yul\":5657:5720   */\n      swap2\n      pop\n        /* \"#utility.yul\":5613:5730   */\n      pop\n        /* \"#utility.yul\":5408:5737   */\n      swap3\n      swap2\n      pop\n      pop\n      jump\t// out\n        /* \"#utility.yul\":5743:5861   */\n    tag_226:\n        /* \"#utility.yul\":5830:5854   */\n      tag_332\n        /* \"#utility.yul\":5848:5853   */\n      dup2\n        /* \"#utility.yul\":5830:5854   */\n      tag_218\n      jump\t// in\n    tag_332:\n        /* \"#utility.yul\":5825:5828   */\n      dup3\n        /* \"#utility.yul\":5818:5855   */\n      mstore\n        /* \"#utility.yul\":5743:5861   */\n      pop\n      pop\n      jump\t// out\n        /* \"#utility.yul\":5867:6089   */\n    tag_54:\n        /* \"#utility.yul\":5960:5964   */\n      0x00\n        /* \"#utility.yul\":5998:6000   */\n      0x20\n        /* \"#utility.yul\":5987:5996   */\n      dup3\n        /* \"#utility.yul\":5983:6001   */\n      add\n        /* \"#utility.yul\":5975:6001   */\n      swap1\n      pop\n        /* \"#utility.yul\":6011:6082   */\n      tag_334\n        /* \"#utility.yul\":6079:6080   */\n      0x00\n        /* \"#utility.yul\":6068:6077   */\n      dup4\n        /* \"#utility.yul\":6064:6081   */\n      add\n        /* \"#utility.yul\":6055:6061   */\n      dup5\n        /* \"#utility.yul\":6011:6082   */\n      tag_226\n      jump\t// in\n    tag_334:\n        /* \"#utility.yul\":5867:6089   */\n      swap3\n      swap2\n      pop\n      pop\n      jump\t// out\n        /* \"#utility.yul\":6095:6211   */\n    tag_227:\n        /* \"#utility.yul\":6165:6186   */\n      tag_336\n        /* \"#utility.yul\":6180:6185   */\n      dup2\n        /* \"#utility.yul\":6165:6186   */\n      tag_211\n      jump\t// in\n    tag_336:\n        /* \"#utility.yul\":6158:6163   */\n      dup2\n        /* \"#utility.yul\":6155:6187   */\n      eq\n        /* \"#utility.yul\":6145:6205   */\n      tag_337\n      jumpi\n        /* \"#utility.yul\":6201:6202   */\n      0x00\n        /* \"#utility.yul\":6198:6199   */\n      dup1\n        /* \"#utility.yul\":6191:6203   */\n      revert\n        /* \"#utility.yul\":6145:6205   */\n    tag_337:\n        /* \"#utility.yul\":6095:6211   */\n      pop\n      jump\t// out\n        /* \"#utility.yul\":6217:6350   */\n    tag_228:\n        /* \"#utility.yul\":6260:6265   */\n      0x00\n        /* \"#utility.yul\":6298:6304   */\n      dup2\n        /* \"#utility.yul\":6285:6305   */\n      calldataload\n        /* \"#utility.yul\":6276:6305   */\n      swap1\n      pop\n        /* \"#utility.yul\":6314:6344   */\n      tag_339\n        /* \"#utility.yul\":6338:6343   */\n      dup2\n        /* \"#utility.yul\":6314:6344   */\n      tag_227\n      jump\t// in\n    tag_339:\n        /* \"#utility.yul\":6217:6350   */\n      swap3\n      swap2\n      pop\n      pop\n      jump\t// out\n        /* \"#utility.yul\":6356:6824   */\n    tag_60:\n        /* \"#utility.yul\":6421:6427   */\n      0x00\n        /* \"#utility.yul\":6429:6435   */\n      dup1\n        /* \"#utility.yul\":6478:6480   */\n      0x40\n        /* \"#utility.yul\":6466:6475   */\n      dup4\n        /* \"#utility.yul\":6457:6464   */\n      dup6\n        /* \"#utility.yul\":6453:6476   */\n      sub\n        /* \"#utility.yul\":6449:6481   */\n      slt\n        /* \"#utility.yul\":6446:6565   */\n      iszero\n      tag_341\n      jumpi\n        /* \"#utility.yul\":6484:6563   */\n      tag_342\n      tag_206\n      jump\t// in\n    tag_342:\n        /* \"#utility.yul\":6446:6565   */\n    tag_341:\n        /* \"#utility.yul\":6604:6605   */\n      0x00\n        /* \"#utility.yul\":6629:6682   */\n      tag_343\n        /* \"#utility.yul\":6674:6681   */\n      dup6\n        /* \"#utility.yul\":6665:6671   */\n      dup3\n        /* \"#utility.yul\":6654:6663   */\n      dup7\n        /* \"#utility.yul\":6650:6672   */\n      add\n        /* \"#utility.yul\":6629:6682   */\n      tag_225\n      jump\t// in\n    tag_343:\n        /* \"#utility.yul\":6619:6682   */\n      swap3\n      pop\n        /* \"#utility.yul\":6575:6692   */\n      pop\n        /* \"#utility.yul\":6731:6733   */\n      0x20\n        /* \"#utility.yul\":6757:6807   */\n      tag_344\n        /* \"#utility.yul\":6799:6806   */\n      dup6\n        /* \"#utility.yul\":6790:6796   */\n      dup3\n        /* \"#utility.yul\":6779:6788   */\n      dup7\n        /* \"#utility.yul\":6775:6797   */\n      add\n        /* \"#utility.yul\":6757:6807   */\n      tag_228\n      jump\t// in\n    tag_344:\n        /* \"#utility.yul\":6747:6807   */\n      swap2\n      pop\n        /* \"#utility.yul\":6702:6817   */\n      pop\n        /* \"#utility.yul\":6356:6824   */\n      swap3\n      pop\n      swap3\n      swap1\n      pop\n      jump\t// out\n        /* \"#utility.yul\":6830:6947   */\n    tag_229:\n        /* \"#utility.yul\":6939:6940   */\n      0x00\n        /* \"#utility.yul\":6936:6937   */\n      dup1\n        /* \"#utility.yul\":6929:6941   */\n      revert\n        /* \"#utility.yul\":6953:7070   */\n    tag_230:\n        /* \"#utility.yul\":7062:7063   */\n      0x00\n        /* \"#utility.yul\":7059:7060   */\n      dup1\n        /* \"#utility.yul\":7052:7064   */\n      revert\n        /* \"#utility.yul\":7076:7256   */\n    tag_173:\n        /* \"#utility.yul\":7124:7201   */\n      0x4e487b7100000000000000000000000000000000000000000000000000000000\n        /* \"#utility.yul\":7121:7122   */\n      0x00\n        /* \"#utility.yul\":7114:7202   */\n      mstore\n        /* \"#utility.yul\":7221:7225   */\n      0x41\n        /* \"#utility.yul\":7218:7219   */\n      0x04\n        /* \"#utility.yul\":7211:7226   */\n      mstore\n        /* \"#utility.yul\":7245:7249   */\n      0x24\n        /* \"#utility.yul\":7242:7243   */\n      0x00\n        /* \"#utility.yul\":7235:7250   */\n      revert\n        /* \"#utility.yul\":7262:7543   */\n    tag_231:\n        /* \"#utility.yul\":7345:7372   */\n      tag_349\n        /* \"#utility.yul\":7367:7371   */\n      dup3\n        /* \"#utility.yul\":7345:7372   */\n      tag_216\n      jump\t// in\n    tag_349:\n        /* \"#utility.yul\":7337:7343   */\n      dup2\n        /* \"#utility.yul\":7333:7373   */\n      add\n        /* \"#utility.yul\":7475:7481   */\n      dup2\n        /* \"#utility.yul\":7463:7473   */\n      dup2\n        /* \"#utility.yul\":7460:7482   */\n      lt\n        /* \"#utility.yul\":7439:7457   */\n      0xffffffffffffffff\n        /* \"#utility.yul\":7427:7437   */\n      dup3\n        /* \"#utility.yul\":7424:7458   */\n      gt\n        /* \"#utility.yul\":7421:7483   */\n      or\n        /* \"#utility.yul\":7418:7506   */\n      iszero\n      tag_350\n      jumpi\n        /* \"#utility.yul\":7486:7504   */\n      tag_351\n      tag_173\n      jump\t// in\n    tag_351:\n        /* \"#utility.yul\":7418:7506   */\n    tag_350:\n        /* \"#utility.yul\":7526:7536   */\n      dup1\n        /* \"#utility.yul\":7522:7524   */\n      0x40\n        /* \"#utility.yul\":7515:7537   */\n      mstore\n        /* \"#utility.yul\":7305:7543   */\n      pop\n        /* \"#utility.yul\":7262:7543   */\n      pop\n      pop\n      jump\t// out\n        /* \"#utility.yul\":7549:7678   */\n    tag_232:\n        /* \"#utility.yul\":7583:7589   */\n      0x00\n        /* \"#utility.yul\":7610:7630   */\n      tag_353\n      tag_205\n      jump\t// in\n    tag_353:\n        /* \"#utility.yul\":7600:7630   */\n      swap1\n      pop\n        /* \"#utility.yul\":7639:7672   */\n      tag_354\n        /* \"#utility.yul\":7667:7671   */\n      dup3\n        /* \"#utility.yul\":7659:7665   */\n      dup3\n        /* \"#utility.yul\":7639:7672   */\n      tag_231\n      jump\t// in\n    tag_354:\n        /* \"#utility.yul\":7549:7678   */\n      swap2\n      swap1\n      pop\n      jump\t// out\n        /* \"#utility.yul\":7684:7991   */\n    tag_233:\n        /* \"#utility.yul\":7745:7749   */\n      0x00\n        /* \"#utility.yul\":7835:7853   */\n      0xffffffffffffffff\n        /* \"#utility.yul\":7827:7833   */\n      dup3\n        /* \"#utility.yul\":7824:7854   */\n      gt\n        /* \"#utility.yul\":7821:7877   */\n      iszero\n      tag_356\n      jumpi\n        /* \"#utility.yul\":7857:7875   */\n      tag_357\n      tag_173\n      jump\t// in\n    tag_357:\n        /* \"#utility.yul\":7821:7877   */\n    tag_356:\n        /* \"#utility.yul\":7895:7924   */\n      tag_358\n        /* \"#utility.yul\":7917:7923   */\n      dup3\n        /* \"#utility.yul\":7895:7924   */\n      tag_216\n      jump\t// in\n    tag_358:\n        /* \"#utility.yul\":7887:7924   */\n      swap1\n      pop\n        /* \"#utility.yul\":7979:7983   */\n      0x20\n        /* \"#utility.yul\":7973:7977   */\n      dup2\n        /* \"#utility.yul\":7969:7984   */\n      add\n        /* \"#utility.yul\":7961:7984   */\n      swap1\n      pop\n        /* \"#utility.yul\":7684:7991   */\n      swap2\n      swap1\n      pop\n      jump\t// out\n        /* \"#utility.yul\":7997:8145   */\n    tag_234:\n        /* \"#utility.yul\":8095:8101   */\n      dup3\n        /* \"#utility.yul\":8090:8093   */\n      dup2\n        /* \"#utility.yul\":8085:8088   */\n      dup4\n        /* \"#utility.yul\":8072:8102   */\n      calldatacopy\n        /* \"#utility.yul\":8136:8137   */\n      0x00\n        /* \"#utility.yul\":8127:8133   */\n      dup4\n        /* \"#utility.yul\":8122:8125   */\n      dup4\n        /* \"#utility.yul\":8118:8134   */\n      add\n        /* \"#utility.yul\":8111:8138   */\n      mstore\n        /* \"#utility.yul\":7997:8145   */\n      pop\n      pop\n      pop\n      jump\t// out\n        /* \"#utility.yul\":8151:8574   */\n    tag_235:\n        /* \"#utility.yul\":8228:8233   */\n      0x00\n        /* \"#utility.yul\":8253:8318   */\n      tag_361\n        /* \"#utility.yul\":8269:8317   */\n      tag_362\n        /* \"#utility.yul\":8310:8316   */\n      dup5\n        /* \"#utility.yul\":8269:8317   */\n      tag_233\n      jump\t// in\n    tag_362:\n        /* \"#utility.yul\":8253:8318   */\n      tag_232\n      jump\t// in\n    tag_361:\n        /* \"#utility.yul\":8244:8318   */\n      swap1\n      pop\n        /* \"#utility.yul\":8341:8347   */\n      dup3\n        /* \"#utility.yul\":8334:8339   */\n      dup2\n        /* \"#utility.yul\":8327:8348   */\n      mstore\n        /* \"#utility.yul\":8379:8383   */\n      0x20\n        /* \"#utility.yul\":8372:8377   */\n      dup2\n        /* \"#utility.yul\":8368:8384   */\n      add\n        /* \"#utility.yul\":8417:8420   */\n      dup5\n        /* \"#utility.yul\":8408:8414   */\n      dup5\n        /* \"#utility.yul\":8403:8406   */\n      dup5\n        /* \"#utility.yul\":8399:8415   */\n      add\n        /* \"#utility.yul\":8396:8421   */\n      gt\n        /* \"#utility.yul\":8393:8505   */\n      iszero\n      tag_363\n      jumpi\n        /* \"#utility.yul\":8424:8503   */\n      tag_364\n      tag_230\n      jump\t// in\n    tag_364:\n        /* \"#utility.yul\":8393:8505   */\n    tag_363:\n        /* \"#utility.yul\":8514:8568   */\n      tag_365\n        /* \"#utility.yul\":8561:8567   */\n      dup5\n        /* \"#utility.yul\":8556:8559   */\n      dup3\n        /* \"#utility.yul\":8551:8554   */\n      dup6\n        /* \"#utility.yul\":8514:8568   */\n      tag_234\n      jump\t// in\n    tag_365:\n        /* \"#utility.yul\":8234:8574   */\n      pop\n        /* \"#utility.yul\":8151:8574   */\n      swap4\n      swap3\n      pop\n      pop\n      pop\n      jump\t// out\n        /* \"#utility.yul\":8593:8931   */\n    tag_236:\n        /* \"#utility.yul\":8648:8653   */\n      0x00\n        /* \"#utility.yul\":8697:8700   */\n      dup3\n        /* \"#utility.yul\":8690:8694   */\n      0x1f\n        /* \"#utility.yul\":8682:8688   */\n      dup4\n        /* \"#utility.yul\":8678:8695   */\n      add\n        /* \"#utility.yul\":8674:8701   */\n      slt\n        /* \"#utility.yul\":8664:8786   */\n      tag_367\n      jumpi\n        /* \"#utility.yul\":8705:8784   */\n      tag_368\n      tag_229\n      jump\t// in\n    tag_368:\n        /* \"#utility.yul\":8664:8786   */\n    tag_367:\n        /* \"#utility.yul\":8822:8828   */\n      dup2\n        /* \"#utility.yul\":8809:8829   */\n      calldataload\n        /* \"#utility.yul\":8847:8925   */\n      tag_369\n        /* \"#utility.yul\":8921:8924   */\n      dup5\n        /* \"#utility.yul\":8913:8919   */\n      dup3\n        /* \"#utility.yul\":8906:8910   */\n      0x20\n        /* \"#utility.yul\":8898:8904   */\n      dup7\n        /* \"#utility.yul\":8894:8911   */\n      add\n        /* \"#utility.yul\":8847:8925   */\n      tag_235\n      jump\t// in\n    tag_369:\n        /* \"#utility.yul\":8838:8925   */\n      swap2\n      pop\n        /* \"#utility.yul\":8654:8931   */\n      pop\n        /* \"#utility.yul\":8593:8931   */\n      swap3\n      swap2\n      pop\n      pop\n      jump\t// out\n        /* \"#utility.yul\":8937:9880   */\n    tag_64:\n        /* \"#utility.yul\":9032:9038   */\n      0x00\n        /* \"#utility.yul\":9040:9046   */\n      dup1\n        /* \"#utility.yul\":9048:9054   */\n      0x00\n        /* \"#utility.yul\":9056:9062   */\n      dup1\n        /* \"#utility.yul\":9105:9108   */\n      0x80\n        /* \"#utility.yul\":9093:9102   */\n      dup6\n        /* \"#utility.yul\":9084:9091   */\n      dup8\n        /* \"#utility.yul\":9080:9103   */\n      sub\n        /* \"#utility.yul\":9076:9109   */\n      slt\n        /* \"#utility.yul\":9073:9193   */\n      iszero\n      tag_371\n      jumpi\n        /* \"#utility.yul\":9112:9191   */\n      tag_372\n      tag_206\n      jump\t// in\n    tag_372:\n        /* \"#utility.yul\":9073:9193   */\n    tag_371:\n        /* \"#utility.yul\":9232:9233   */\n      0x00\n        /* \"#utility.yul\":9257:9310   */\n      tag_373\n        /* \"#utility.yul\":9302:9309   */\n      dup8\n        /* \"#utility.yul\":9293:9299   */\n      dup3\n        /* \"#utility.yul\":9282:9291   */\n      dup9\n        /* \"#utility.yul\":9278:9300   */\n      add\n        /* \"#utility.yul\":9257:9310   */\n      tag_225\n      jump\t// in\n    tag_373:\n        /* \"#utility.yul\":9247:9310   */\n      swap5\n      pop\n        /* \"#utility.yul\":9203:9320   */\n      pop\n        /* \"#utility.yul\":9359:9361   */\n      0x20\n        /* \"#utility.yul\":9385:9438   */\n      tag_374\n        /* \"#utility.yul\":9430:9437   */\n      dup8\n        /* \"#utility.yul\":9421:9427   */\n      dup3\n        /* \"#utility.yul\":9410:9419   */\n      dup9\n        /* \"#utility.yul\":9406:9428   */\n      add\n        /* \"#utility.yul\":9385:9438   */\n      tag_225\n      jump\t// in\n    tag_374:\n        /* \"#utility.yul\":9375:9438   */\n      swap4\n      pop\n        /* \"#utility.yul\":9330:9448   */\n      pop\n        /* \"#utility.yul\":9487:9489   */\n      0x40\n        /* \"#utility.yul\":9513:9566   */\n      tag_375\n        /* \"#utility.yul\":9558:9565   */\n      dup8\n        /* \"#utility.yul\":9549:9555   */\n      dup3\n        /* \"#utility.yul\":9538:9547   */\n      dup9\n        /* \"#utility.yul\":9534:9556   */\n      add\n        /* \"#utility.yul\":9513:9566   */\n      tag_220\n      jump\t// in\n    tag_375:\n        /* \"#utility.yul\":9503:9566   */\n      swap3\n      pop\n        /* \"#utility.yul\":9458:9576   */\n      pop\n        /* \"#utility.yul\":9643:9645   */\n      0x60\n        /* \"#utility.yul\":9632:9641   */\n      dup6\n        /* \"#utility.yul\":9628:9646   */\n      add\n        /* \"#utility.yul\":9615:9647   */\n      calldataload\n        /* \"#utility.yul\":9674:9692   */\n      0xffffffffffffffff\n        /* \"#utility.yul\":9666:9672   */\n      dup2\n        /* \"#utility.yul\":9663:9693   */\n      gt\n        /* \"#utility.yul\":9660:9777   */\n      iszero\n      tag_376\n      jumpi\n        /* \"#utility.yul\":9696:9775   */\n      tag_377\n      tag_207\n      jump\t// in\n    tag_377:\n        /* \"#utility.yul\":9660:9777   */\n    tag_376:\n        /* \"#utility.yul\":9801:9863   */\n      tag_378\n        /* \"#utility.yul\":9855:9862   */\n      dup8\n        /* \"#utility.yul\":9846:9852   */\n      dup3\n        /* \"#utility.yul\":9835:9844   */\n      dup9\n        /* \"#utility.yul\":9831:9853   */\n      add\n        /* \"#utility.yul\":9801:9863   */\n      tag_236\n      jump\t// in\n    tag_378:\n        /* \"#utility.yul\":9791:9863   */\n      swap2\n      pop\n        /* \"#utility.yul\":9586:9873   */\n      pop\n        /* \"#utility.yul\":8937:9880   */\n      swap3\n      swap6\n      swap2\n      swap5\n      pop\n      swap3\n      pop\n      jump\t// out\n        /* \"#utility.yul\":9886:10360   */\n    tag_72:\n        /* \"#utility.yul\":9954:9960   */\n      0x00\n        /* \"#utility.yul\":9962:9968   */\n      dup1\n        /* \"#utility.yul\":10011:10013   */\n      0x40\n        /* \"#utility.yul\":9999:10008   */\n      dup4\n        /* \"#utility.yul\":9990:9997   */\n      dup6\n        /* \"#utility.yul\":9986:10009   */\n      sub\n        /* \"#utility.yul\":9982:10014   */\n      slt\n        /* \"#utility.yul\":9979:10098   */\n      iszero\n      tag_380\n      jumpi\n        /* \"#utility.yul\":10017:10096   */\n      tag_381\n      tag_206\n      jump\t// in\n    tag_381:\n        /* \"#utility.yul\":9979:10098   */\n    tag_380:\n        /* \"#utility.yul\":10137:10138   */\n      0x00\n        /* \"#utility.yul\":10162:10215   */\n      tag_382\n        /* \"#utility.yul\":10207:10214   */\n      dup6\n        /* \"#utility.yul\":10198:10204   */\n      dup3\n        /* \"#utility.yul\":10187:10196   */\n      dup7\n        /* \"#utility.yul\":10183:10205   */\n      add\n        /* \"#utility.yul\":10162:10215   */\n      tag_225\n      jump\t// in\n    tag_382:\n        /* \"#utility.yul\":10152:10215   */\n      swap3\n      pop\n        /* \"#utility.yul\":10108:10225   */\n      pop\n        /* \"#utility.yul\":10264:10266   */\n      0x20\n        /* \"#utility.yul\":10290:10343   */\n      tag_383\n        /* \"#utility.yul\":10335:10342   */\n      dup6\n        /* \"#utility.yul\":10326:10332   */\n      dup3\n        /* \"#utility.yul\":10315:10324   */\n      dup7\n        /* \"#utility.yul\":10311:10333   */\n      add\n        /* \"#utility.yul\":10290:10343   */\n      tag_225\n      jump\t// in\n    tag_383:\n        /* \"#utility.yul\":10280:10343   */\n      swap2\n      pop\n        /* \"#utility.yul\":10235:10353   */\n      pop\n        /* \"#utility.yul\":9886:10360   */\n      swap3\n      pop\n      swap3\n      swap1\n      pop\n      jump\t// out\n        /* \"#utility.yul\":10366:10546   */\n    tag_237:\n        /* \"#utility.yul\":10414:10491   */\n      0x4e487b7100000000000000000000000000000000000000000000000000000000\n        /* \"#utility.yul\":10411:10412   */\n      0x00\n        /* \"#utility.yul\":10404:10492   */\n      mstore\n        /* \"#utility.yul\":10511:10515   */\n      0x22\n        /* \"#utility.yul\":10508:10509   */\n      0x04\n        /* \"#utility.yul\":10501:10516   */\n      mstore\n        /* \"#utility.yul\":10535:10539   */\n      0x24\n        /* \"#utility.yul\":10532:10533   */\n      0x00\n        /* \"#utility.yul\":10525:10540   */\n      revert\n        /* \"#utility.yul\":10552:10872   */\n    tag_79:\n        /* \"#utility.yul\":10596:10602   */\n      0x00\n        /* \"#utility.yul\":10633:10634   */\n      0x02\n        /* \"#utility.yul\":10627:10631   */\n      dup3\n        /* \"#utility.yul\":10623:10635   */\n      div\n        /* \"#utility.yul\":10613:10635   */\n      swap1\n      pop\n        /* \"#utility.yul\":10680:10681   */\n      0x01\n        /* \"#utility.yul\":10674:10678   */\n      dup3\n        /* \"#utility.yul\":10670:10682   */\n      and\n        /* \"#utility.yul\":10701:10719   */\n      dup1\n        /* \"#utility.yul\":10691:10772   */\n      tag_386\n      jumpi\n        /* \"#utility.yul\":10757:10761   */\n      0x7f\n        /* \"#utility.yul\":10749:10755   */\n      dup3\n        /* \"#utility.yul\":10745:10762   */\n      and\n        /* \"#utility.yul\":10735:10762   */\n      swap2\n      pop\n        /* \"#utility.yul\":10691:10772   */\n    tag_386:\n        /* \"#utility.yul\":10819:10821   */\n      0x20\n        /* \"#utility.yul\":10811:10817   */\n      dup3\n        /* \"#utility.yul\":10808:10822   */\n      lt\n        /* \"#utility.yul\":10788:10806   */\n      dup2\n        /* \"#utility.yul\":10785:10823   */\n      sub\n        /* \"#utility.yul\":10782:10866   */\n      tag_387\n      jumpi\n        /* \"#utility.yul\":10838:10856   */\n      tag_388\n      tag_237\n      jump\t// in\n    tag_388:\n        /* \"#utility.yul\":10782:10866   */\n    tag_387:\n        /* \"#utility.yul\":10603:10872   */\n      pop\n        /* \"#utility.yul\":10552:10872   */\n      swap2\n      swap1\n      pop\n      jump\t// out\n        /* \"#utility.yul\":10878:11043   */\n    tag_238:\n        /* \"#utility.yul\":11018:11035   */\n      0x746f6b656e206e6f742065786973740000000000000000000000000000000000\n        /* \"#utility.yul\":11014:11015   */\n      0x00\n        /* \"#utility.yul\":11006:11012   */\n      dup3\n        /* \"#utility.yul\":11002:11016   */\n      add\n        /* \"#utility.yul\":10995:11036   */\n      mstore\n        /* \"#utility.yul\":10878:11043   */\n      pop\n      jump\t// out\n        /* \"#utility.yul\":11049:11415   */\n    tag_239:\n        /* \"#utility.yul\":11191:11194   */\n      0x00\n        /* \"#utility.yul\":11212:11279   */\n      tag_391\n        /* \"#utility.yul\":11276:11278   */\n      0x0f\n        /* \"#utility.yul\":11271:11274   */\n      dup4\n        /* \"#utility.yul\":11212:11279   */\n      tag_214\n      jump\t// in\n    tag_391:\n        /* \"#utility.yul\":11205:11279   */\n      swap2\n      pop\n        /* \"#utility.yul\":11288:11381   */\n      tag_392\n        /* \"#utility.yul\":11377:11380   */\n      dup3\n        /* \"#utility.yul\":11288:11381   */\n      tag_238\n      jump\t// in\n    tag_392:\n        /* \"#utility.yul\":11406:11408   */\n      0x20\n        /* \"#utility.yul\":11401:11404   */\n      dup3\n        /* \"#utility.yul\":11397:11409   */\n      add\n        /* \"#utility.yul\":11390:11409   */\n      swap1\n      pop\n        /* \"#utility.yul\":11049:11415   */\n      swap2\n      swap1\n      pop\n      jump\t// out\n        /* \"#utility.yul\":11421:11840   */\n    tag_87:\n        /* \"#utility.yul\":11587:11591   */\n      0x00\n        /* \"#utility.yul\":11625:11627   */\n      0x20\n        /* \"#utility.yul\":11614:11623   */\n      dup3\n        /* \"#utility.yul\":11610:11628   */\n      add\n        /* \"#utility.yul\":11602:11628   */\n      swap1\n      pop\n        /* \"#utility.yul\":11674:11683   */\n      dup2\n        /* \"#utility.yul\":11668:11672   */\n      dup2\n        /* \"#utility.yul\":11664:11684   */\n      sub\n        /* \"#utility.yul\":11660:11661   */\n      0x00\n        /* \"#utility.yul\":11649:11658   */\n      dup4\n        /* \"#utility.yul\":11645:11662   */\n      add\n        /* \"#utility.yul\":11638:11685   */\n      mstore\n        /* \"#utility.yul\":11702:11833   */\n      tag_394\n        /* \"#utility.yul\":11828:11832   */\n      dup2\n        /* \"#utility.yul\":11702:11833   */\n      tag_239\n      jump\t// in\n    tag_394:\n        /* \"#utility.yul\":11694:11833   */\n      swap1\n      pop\n        /* \"#utility.yul\":11421:11840   */\n      swap2\n      swap1\n      pop\n      jump\t// out\n        /* \"#utility.yul\":11846:12026   */\n    tag_240:\n        /* \"#utility.yul\":11986:12018   */\n      0x6e6f74206f776e6572206e6f7220617070726f76656420666f7220616c6c0000\n        /* \"#utility.yul\":11982:11983   */\n      0x00\n        /* \"#utility.yul\":11974:11980   */\n      dup3\n        /* \"#utility.yul\":11970:11984   */\n      add\n        /* \"#utility.yul\":11963:12019   */\n      mstore\n        /* \"#utility.yul\":11846:12026   */\n      pop\n      jump\t// out\n        /* \"#utility.yul\":12032:12398   */\n    tag_241:\n        /* \"#utility.yul\":12174:12177   */\n      0x00\n        /* \"#utility.yul\":12195:12262   */\n      tag_397\n        /* \"#utility.yul\":12259:12261   */\n      0x1e\n        /* \"#utility.yul\":12254:12257   */\n      dup4\n        /* \"#utility.yul\":12195:12262   */\n      tag_214\n      jump\t// in\n    tag_397:\n        /* \"#utility.yul\":12188:12262   */\n      swap2\n      pop\n        /* \"#utility.yul\":12271:12364   */\n      tag_398\n        /* \"#utility.yul\":12360:12363   */\n      dup3\n        /* \"#utility.yul\":12271:12364   */\n      tag_240\n      jump\t// in\n    tag_398:\n        /* \"#utility.yul\":12389:12391   */\n      0x20\n        /* \"#utility.yul\":12384:12387   */\n      dup3\n        /* \"#utility.yul\":12380:12392   */\n      add\n        /* \"#utility.yul\":12373:12392   */\n      swap1\n      pop\n        /* \"#utility.yul\":12032:12398   */\n      swap2\n      swap1\n      pop\n      jump\t// out\n        /* \"#utility.yul\":12404:12823   */\n    tag_92:\n        /* \"#utility.yul\":12570:12574   */\n      0x00\n        /* \"#utility.yul\":12608:12610   */\n      0x20\n        /* \"#utility.yul\":12597:12606   */\n      dup3\n        /* \"#utility.yul\":12593:12611   */\n      add\n        /* \"#utility.yul\":12585:12611   */\n      swap1\n      pop\n        /* \"#utility.yul\":12657:12666   */\n      dup2\n        /* \"#utility.yul\":12651:12655   */\n      dup2\n        /* \"#utility.yul\":12647:12667   */\n      sub\n        /* \"#utility.yul\":12643:12644   */\n      0x00\n        /* \"#utility.yul\":12632:12641   */\n      dup4\n        /* \"#utility.yul\":12628:12645   */\n      add\n        /* \"#utility.yul\":12621:12668   */\n      mstore\n        /* \"#utility.yul\":12685:12816   */\n      tag_400\n        /* \"#utility.yul\":12811:12815   */\n      dup2\n        /* \"#utility.yul\":12685:12816   */\n      tag_241\n      jump\t// in\n    tag_400:\n        /* \"#utility.yul\":12677:12816   */\n      swap1\n      pop\n        /* \"#utility.yul\":12404:12823   */\n      swap2\n      swap1\n      pop\n      jump\t// out\n        /* \"#utility.yul\":12829:13001   */\n    tag_242:\n        /* \"#utility.yul\":12969:12993   */\n      0x6e6f74206f776e6572206e6f7220617070726f76656400000000000000000000\n        /* \"#utility.yul\":12965:12966   */\n      0x00\n        /* \"#utility.yul\":12957:12963   */\n      dup3\n        /* \"#utility.yul\":12953:12967   */\n      add\n        /* \"#utility.yul\":12946:12994   */\n      mstore\n        /* \"#utility.yul\":12829:13001   */\n      pop\n      jump\t// out\n        /* \"#utility.yul\":13007:13373   */\n    tag_243:\n        /* \"#utility.yul\":13149:13152   */\n      0x00\n        /* \"#utility.yul\":13170:13237   */\n      tag_403\n        /* \"#utility.yul\":13234:13236   */\n      0x16\n        /* \"#utility.yul\":13229:13232   */\n      dup4\n        /* \"#utility.yul\":13170:13237   */\n      tag_214\n      jump\t// in\n    tag_403:\n        /* \"#utility.yul\":13163:13237   */\n      swap2\n      pop\n        /* \"#utility.yul\":13246:13339   */\n      tag_404\n        /* \"#utility.yul\":13335:13338   */\n      dup3\n        /* \"#utility.yul\":13246:13339   */\n      tag_242\n      jump\t// in\n    tag_404:\n        /* \"#utility.yul\":13364:13366   */\n      0x20\n        /* \"#utility.yul\":13359:13362   */\n      dup3\n        /* \"#utility.yul\":13355:13367   */\n      add\n        /* \"#utility.yul\":13348:13367   */\n      swap1\n      pop\n        /* \"#utility.yul\":13007:13373   */\n      swap2\n      swap1\n      pop\n      jump\t// out\n        /* \"#utility.yul\":13379:13798   */\n    tag_101:\n        /* \"#utility.yul\":13545:13549   */\n      0x00\n        /* \"#utility.yul\":13583:13585   */\n      0x20\n        /* \"#utility.yul\":13572:13581   */\n      dup3\n        /* \"#utility.yul\":13568:13586   */\n      add\n        /* \"#utility.yul\":13560:13586   */\n      swap1\n      pop\n        /* \"#utility.yul\":13632:13641   */\n      dup2\n        /* \"#utility.yul\":13626:13630   */\n      dup2\n        /* \"#utility.yul\":13622:13642   */\n      sub\n        /* \"#utility.yul\":13618:13619   */\n      0x00\n        /* \"#utility.yul\":13607:13616   */\n      dup4\n        /* \"#utility.yul\":13603:13620   */\n      add\n        /* \"#utility.yul\":13596:13643   */\n      mstore\n        /* \"#utility.yul\":13660:13791   */\n      tag_406\n        /* \"#utility.yul\":13786:13790   */\n      dup2\n        /* \"#utility.yul\":13660:13791   */\n      tag_243\n      jump\t// in\n    tag_406:\n        /* \"#utility.yul\":13652:13791   */\n      swap1\n      pop\n        /* \"#utility.yul\":13379:13798   */\n      swap2\n      swap1\n      pop\n      jump\t// out\n        /* \"#utility.yul\":13804:13974   */\n    tag_244:\n        /* \"#utility.yul\":13944:13966   */\n      0x746f6b656e20646f6573206e6f74206578697374000000000000000000000000\n        /* \"#utility.yul\":13940:13941   */\n      0x00\n        /* \"#utility.yul\":13932:13938   */\n      dup3\n        /* \"#utility.yul\":13928:13942   */\n      add\n        /* \"#utility.yul\":13921:13967   */\n      mstore\n        /* \"#utility.yul\":13804:13974   */\n      pop\n      jump\t// out\n        /* \"#utility.yul\":13980:14346   */\n    tag_245:\n        /* \"#utility.yul\":14122:14125   */\n      0x00\n        /* \"#utility.yul\":14143:14210   */\n      tag_409\n        /* \"#utility.yul\":14207:14209   */\n      0x14\n        /* \"#utility.yul\":14202:14205   */\n      dup4\n        /* \"#utility.yul\":14143:14210   */\n      tag_214\n      jump\t// in\n    tag_409:\n        /* \"#utility.yul\":14136:14210   */\n      swap2\n      pop\n        /* \"#utility.yul\":14219:14312   */\n      tag_410\n        /* \"#utility.yul\":14308:14311   */\n      dup3\n        /* \"#utility.yul\":14219:14312   */\n      tag_244\n      jump\t// in\n    tag_410:\n        /* \"#utility.yul\":14337:14339   */\n      0x20\n        /* \"#utility.yul\":14332:14335   */\n      dup3\n        /* \"#utility.yul\":14328:14340   */\n      add\n        /* \"#utility.yul\":14321:14340   */\n      swap1\n      pop\n        /* \"#utility.yul\":13980:14346   */\n      swap2\n      swap1\n      pop\n      jump\t// out\n        /* \"#utility.yul\":14352:14771   */\n    tag_109:\n        /* \"#utility.yul\":14518:14522   */\n      0x00\n        /* \"#utility.yul\":14556:14558   */\n      0x20\n        /* \"#utility.yul\":14545:14554   */\n      dup3\n        /* \"#utility.yul\":14541:14559   */\n      add\n        /* \"#utility.yul\":14533:14559   */\n      swap1\n      pop\n        /* \"#utility.yul\":14605:14614   */\n      dup2\n        /* \"#utility.yul\":14599:14603   */\n      dup2\n        /* \"#utility.yul\":14595:14615   */\n      sub\n        /* \"#utility.yul\":14591:14592   */\n      0x00\n        /* \"#utility.yul\":14580:14589   */\n      dup4\n        /* \"#utility.yul\":14576:14593   */\n      add\n        /* \"#utility.yul\":14569:14616   */\n      mstore\n        /* \"#utility.yul\":14633:14764   */\n      tag_412\n        /* \"#utility.yul\":14759:14763   */\n      dup2\n        /* \"#utility.yul\":14633:14764   */\n      tag_245\n      jump\t// in\n    tag_412:\n        /* \"#utility.yul\":14625:14764   */\n      swap1\n      pop\n        /* \"#utility.yul\":14352:14771   */\n      swap2\n      swap1\n      pop\n      jump\t// out\n        /* \"#utility.yul\":14777:14947   */\n    tag_246:\n        /* \"#utility.yul\":14917:14939   */\n      0x6f776e6572203d207a65726f2061646472657373000000000000000000000000\n        /* \"#utility.yul\":14913:14914   */\n      0x00\n        /* \"#utility.yul\":14905:14911   */\n      dup3\n        /* \"#utility.yul\":14901:14915   */\n      add\n        /* \"#utility.yul\":14894:14940   */\n      mstore\n        /* \"#utility.yul\":14777:14947   */\n      pop\n      jump\t// out\n        /* \"#utility.yul\":14953:15319   */\n    tag_247:\n        /* \"#utility.yul\":15095:15098   */\n      0x00\n        /* \"#utility.yul\":15116:15183   */\n      tag_415\n        /* \"#utility.yul\":15180:15182   */\n      0x14\n        /* \"#utility.yul\":15175:15178   */\n      dup4\n        /* \"#utility.yul\":15116:15183   */\n      tag_214\n      jump\t// in\n    tag_415:\n        /* \"#utility.yul\":15109:15183   */\n      swap2\n      pop\n        /* \"#utility.yul\":15192:15285   */\n      tag_416\n        /* \"#utility.yul\":15281:15284   */\n      dup3\n        /* \"#utility.yul\":15192:15285   */\n      tag_246\n      jump\t// in\n    tag_416:\n        /* \"#utility.yul\":15310:15312   */\n      0x20\n        /* \"#utility.yul\":15305:15308   */\n      dup3\n        /* \"#utility.yul\":15301:15313   */\n      add\n        /* \"#utility.yul\":15294:15313   */\n      swap1\n      pop\n        /* \"#utility.yul\":14953:15319   */\n      swap2\n      swap1\n      pop\n      jump\t// out\n        /* \"#utility.yul\":15325:15744   */\n    tag_113:\n        /* \"#utility.yul\":15491:15495   */\n      0x00\n        /* \"#utility.yul\":15529:15531   */\n      0x20\n        /* \"#utility.yul\":15518:15527   */\n      dup3\n        /* \"#utility.yul\":15514:15532   */\n      add\n        /* \"#utility.yul\":15506:15532   */\n      swap1\n      pop\n        /* \"#utility.yul\":15578:15587   */\n      dup2\n        /* \"#utility.yul\":15572:15576   */\n      dup2\n        /* \"#utility.yul\":15568:15588   */\n      sub\n        /* \"#utility.yul\":15564:15565   */\n      0x00\n        /* \"#utility.yul\":15553:15562   */\n      dup4\n        /* \"#utility.yul\":15549:15566   */\n      add\n        /* \"#utility.yul\":15542:15589   */\n      mstore\n        /* \"#utility.yul\":15606:15737   */\n      tag_418\n        /* \"#utility.yul\":15732:15736   */\n      dup2\n        /* \"#utility.yul\":15606:15737   */\n      tag_247\n      jump\t// in\n    tag_418:\n        /* \"#utility.yul\":15598:15737   */\n      swap1\n      pop\n        /* \"#utility.yul\":15325:15744   */\n      swap2\n      swap1\n      pop\n      jump\t// out\n        /* \"#utility.yul\":15750:15921   */\n    tag_248:\n        /* \"#utility.yul\":15890:15913   */\n      0x6e6f74206f776e657220697320617070726f7665640000000000000000000000\n        /* \"#utility.yul\":15886:15887   */\n      0x00\n        /* \"#utility.yul\":15878:15884   */\n      dup3\n        /* \"#utility.yul\":15874:15888   */\n      add\n        /* \"#utility.yul\":15867:15914   */\n      mstore\n        /* \"#utility.yul\":15750:15921   */\n      pop\n      jump\t// out\n        /* \"#utility.yul\":15927:16293   */\n    tag_249:\n        /* \"#utility.yul\":16069:16072   */\n      0x00\n        /* \"#utility.yul\":16090:16157   */\n      tag_421\n        /* \"#utility.yul\":16154:16156   */\n      0x15\n        /* \"#utility.yul\":16149:16152   */\n      dup4\n        /* \"#utility.yul\":16090:16157   */\n      tag_214\n      jump\t// in\n    tag_421:\n        /* \"#utility.yul\":16083:16157   */\n      swap2\n      pop\n        /* \"#utility.yul\":16166:16259   */\n      tag_422\n        /* \"#utility.yul\":16255:16258   */\n      dup3\n        /* \"#utility.yul\":16166:16259   */\n      tag_248\n      jump\t// in\n    tag_422:\n        /* \"#utility.yul\":16284:16286   */\n      0x20\n        /* \"#utility.yul\":16279:16282   */\n      dup3\n        /* \"#utility.yul\":16275:16287   */\n      add\n        /* \"#utility.yul\":16268:16287   */\n      swap1\n      pop\n        /* \"#utility.yul\":15927:16293   */\n      swap2\n      swap1\n      pop\n      jump\t// out\n        /* \"#utility.yul\":16299:16718   */\n    tag_126:\n        /* \"#utility.yul\":16465:16469   */\n      0x00\n        /* \"#utility.yul\":16503:16505   */\n      0x20\n        /* \"#utility.yul\":16492:16501   */\n      dup3\n        /* \"#utility.yul\":16488:16506   */\n      add\n        /* \"#utility.yul\":16480:16506   */\n      swap1\n      pop\n        /* \"#utility.yul\":16552:16561   */\n      dup2\n        /* \"#utility.yul\":16546:16550   */\n      dup2\n        /* \"#utility.yul\":16542:16562   */\n      sub\n        /* \"#utility.yul\":16538:16539   */\n      0x00\n        /* \"#utility.yul\":16527:16536   */\n      dup4\n        /* \"#utility.yul\":16523:16540   */\n      add\n        /* \"#utility.yul\":16516:16563   */\n      mstore\n        /* \"#utility.yul\":16580:16711   */\n      tag_424\n        /* \"#utility.yul\":16706:16710   */\n      dup2\n        /* \"#utility.yul\":16580:16711   */\n      tag_249\n      jump\t// in\n    tag_424:\n        /* \"#utility.yul\":16572:16711   */\n      swap1\n      pop\n        /* \"#utility.yul\":16299:16718   */\n      swap2\n      swap1\n      pop\n      jump\t// out\n        /* \"#utility.yul\":16724:16889   */\n    tag_250:\n        /* \"#utility.yul\":16864:16881   */\n      0x546f6b656e204e6f742045786973740000000000000000000000000000000000\n        /* \"#utility.yul\":16860:16861   */\n      0x00\n        /* \"#utility.yul\":16852:16858   */\n      dup3\n        /* \"#utility.yul\":16848:16862   */\n      add\n        /* \"#utility.yul\":16841:16882   */\n      mstore\n        /* \"#utility.yul\":16724:16889   */\n      pop\n      jump\t// out\n        /* \"#utility.yul\":16895:17261   */\n    tag_251:\n        /* \"#utility.yul\":17037:17040   */\n      0x00\n        /* \"#utility.yul\":17058:17125   */\n      tag_427\n        /* \"#utility.yul\":17122:17124   */\n      0x0f\n        /* \"#utility.yul\":17117:17120   */\n      dup4\n        /* \"#utility.yul\":17058:17125   */\n      tag_214\n      jump\t// in\n    tag_427:\n        /* \"#utility.yul\":17051:17125   */\n      swap2\n      pop\n        /* \"#utility.yul\":17134:17227   */\n      tag_428\n        /* \"#utility.yul\":17223:17226   */\n      dup3\n        /* \"#utility.yul\":17134:17227   */\n      tag_250\n      jump\t// in\n    tag_428:\n        /* \"#utility.yul\":17252:17254   */\n      0x20\n        /* \"#utility.yul\":17247:17250   */\n      dup3\n        /* \"#utility.yul\":17243:17255   */\n      add\n        /* \"#utility.yul\":17236:17255   */\n      swap1\n      pop\n        /* \"#utility.yul\":16895:17261   */\n      swap2\n      swap1\n      pop\n      jump\t// out\n        /* \"#utility.yul\":17267:17686   */\n    tag_132:\n        /* \"#utility.yul\":17433:17437   */\n      0x00\n        /* \"#utility.yul\":17471:17473   */\n      0x20\n        /* \"#utility.yul\":17460:17469   */\n      dup3\n        /* \"#utility.yul\":17456:17474   */\n      add\n        /* \"#utility.yul\":17448:17474   */\n      swap1\n      pop\n        /* \"#utility.yul\":17520:17529   */\n      dup2\n        /* \"#utility.yul\":17514:17518   */\n      dup2\n        /* \"#utility.yul\":17510:17530   */\n      sub\n        /* \"#utility.yul\":17506:17507   */\n      0x00\n        /* \"#utility.yul\":17495:17504   */\n      dup4\n        /* \"#utility.yul\":17491:17508   */\n      add\n        /* \"#utility.yul\":17484:17531   */\n      mstore\n        /* \"#utility.yul\":17548:17679   */\n      tag_430\n        /* \"#utility.yul\":17674:17678   */\n      dup2\n        /* \"#utility.yul\":17548:17679   */\n      tag_251\n      jump\t// in\n    tag_430:\n        /* \"#utility.yul\":17540:17679   */\n      swap1\n      pop\n        /* \"#utility.yul\":17267:17686   */\n      swap2\n      swap1\n      pop\n      jump\t// out\n        /* \"#utility.yul\":17692:17840   */\n    tag_252:\n        /* \"#utility.yul\":17794:17805   */\n      0x00\n        /* \"#utility.yul\":17831:17834   */\n      dup2\n        /* \"#utility.yul\":17816:17834   */\n      swap1\n      pop\n        /* \"#utility.yul\":17692:17840   */\n      swap3\n      swap2\n      pop\n      pop\n      jump\t// out\n        /* \"#utility.yul\":17846:18236   */\n    tag_253:\n        /* \"#utility.yul\":17952:17955   */\n      0x00\n        /* \"#utility.yul\":17980:18019   */\n      tag_433\n        /* \"#utility.yul\":18013:18018   */\n      dup3\n        /* \"#utility.yul\":17980:18019   */\n      tag_213\n      jump\t// in\n    tag_433:\n        /* \"#utility.yul\":18035:18124   */\n      tag_434\n        /* \"#utility.yul\":18117:18123   */\n      dup2\n        /* \"#utility.yul\":18112:18115   */\n      dup6\n        /* \"#utility.yul\":18035:18124   */\n      tag_252\n      jump\t// in\n    tag_434:\n        /* \"#utility.yul\":18028:18124   */\n      swap4\n      pop\n        /* \"#utility.yul\":18133:18198   */\n      tag_435\n        /* \"#utility.yul\":18191:18197   */\n      dup2\n        /* \"#utility.yul\":18186:18189   */\n      dup6\n        /* \"#utility.yul\":18179:18183   */\n      0x20\n        /* \"#utility.yul\":18172:18177   */\n      dup7\n        /* \"#utility.yul\":18168:18184   */\n      add\n        /* \"#utility.yul\":18133:18198   */\n      tag_215\n      jump\t// in\n    tag_435:\n        /* \"#utility.yul\":18223:18229   */\n      dup1\n        /* \"#utility.yul\":18218:18221   */\n      dup5\n        /* \"#utility.yul\":18214:18230   */\n      add\n        /* \"#utility.yul\":18207:18230   */\n      swap2\n      pop\n        /* \"#utility.yul\":17956:18236   */\n      pop\n        /* \"#utility.yul\":17846:18236   */\n      swap3\n      swap2\n      pop\n      pop\n      jump\t// out\n        /* \"#utility.yul\":18242:18677   */\n    tag_140:\n        /* \"#utility.yul\":18422:18425   */\n      0x00\n        /* \"#utility.yul\":18444:18539   */\n      tag_437\n        /* \"#utility.yul\":18535:18538   */\n      dup3\n        /* \"#utility.yul\":18526:18532   */\n      dup6\n        /* \"#utility.yul\":18444:18539   */\n      tag_253\n      jump\t// in\n    tag_437:\n        /* \"#utility.yul\":18437:18539   */\n      swap2\n      pop\n        /* \"#utility.yul\":18556:18651   */\n      tag_438\n        /* \"#utility.yul\":18647:18650   */\n      dup3\n        /* \"#utility.yul\":18638:18644   */\n      dup5\n        /* \"#utility.yul\":18556:18651   */\n      tag_253\n      jump\t// in\n    tag_438:\n        /* \"#utility.yul\":18549:18651   */\n      swap2\n      pop\n        /* \"#utility.yul\":18668:18671   */\n      dup2\n        /* \"#utility.yul\":18661:18671   */\n      swap1\n      pop\n        /* \"#utility.yul\":18242:18677   */\n      swap4\n      swap3\n      pop\n      pop\n      pop\n      jump\t// out\n        /* \"#utility.yul\":18683:18842   */\n    tag_254:\n        /* \"#utility.yul\":18823:18834   */\n      0x6e6f74206f776e65720000000000000000000000000000000000000000000000\n        /* \"#utility.yul\":18819:18820   */\n      0x00\n        /* \"#utility.yul\":18811:18817   */\n      dup3\n        /* \"#utility.yul\":18807:18821   */\n      add\n        /* \"#utility.yul\":18800:18835   */\n      mstore\n        /* \"#utility.yul\":18683:18842   */\n      pop\n      jump\t// out\n        /* \"#utility.yul\":18848:19213   */\n    tag_255:\n        /* \"#utility.yul\":18990:18993   */\n      0x00\n        /* \"#utility.yul\":19011:19077   */\n      tag_441\n        /* \"#utility.yul\":19075:19076   */\n      0x09\n        /* \"#utility.yul\":19070:19073   */\n      dup4\n        /* \"#utility.yul\":19011:19077   */\n      tag_214\n      jump\t// in\n    tag_441:\n        /* \"#utility.yul\":19004:19077   */\n      swap2\n      pop\n        /* \"#utility.yul\":19086:19179   */\n      tag_442\n        /* \"#utility.yul\":19175:19178   */\n      dup3\n        /* \"#utility.yul\":19086:19179   */\n      tag_254\n      jump\t// in\n    tag_442:\n        /* \"#utility.yul\":19204:19206   */\n      0x20\n        /* \"#utility.yul\":19199:19202   */\n      dup3\n        /* \"#utility.yul\":19195:19207   */\n      add\n        /* \"#utility.yul\":19188:19207   */\n      swap1\n      pop\n        /* \"#utility.yul\":18848:19213   */\n      swap2\n      swap1\n      pop\n      jump\t// out\n        /* \"#utility.yul\":19219:19638   */\n    tag_149:\n        /* \"#utility.yul\":19385:19389   */\n      0x00\n        /* \"#utility.yul\":19423:19425   */\n      0x20\n        /* \"#utility.yul\":19412:19421   */\n      dup3\n        /* \"#utility.yul\":19408:19426   */\n      add\n        /* \"#utility.yul\":19400:19426   */\n      swap1\n      pop\n        /* \"#utility.yul\":19472:19481   */\n      dup2\n        /* \"#utility.yul\":19466:19470   */\n      dup2\n        /* \"#utility.yul\":19462:19482   */\n      sub\n        /* \"#utility.yul\":19458:19459   */\n      0x00\n        /* \"#utility.yul\":19447:19456   */\n      dup4\n        /* \"#utility.yul\":19443:19460   */\n      add\n        /* \"#utility.yul\":19436:19483   */\n      mstore\n        /* \"#utility.yul\":19500:19631   */\n      tag_444\n        /* \"#utility.yul\":19626:19630   */\n      dup2\n        /* \"#utility.yul\":19500:19631   */\n      tag_255\n      jump\t// in\n    tag_444:\n        /* \"#utility.yul\":19492:19631   */\n      swap1\n      pop\n        /* \"#utility.yul\":19219:19638   */\n      swap2\n      swap1\n      pop\n      jump\t// out\n        /* \"#utility.yul\":19644:19822   */\n    tag_256:\n        /* \"#utility.yul\":19784:19814   */\n      0x7472616e7366657220746f20746865207a65726f206164647265737300000000\n        /* \"#utility.yul\":19780:19781   */\n      0x00\n        /* \"#utility.yul\":19772:19778   */\n      dup3\n        /* \"#utility.yul\":19768:19782   */\n      add\n        /* \"#utility.yul\":19761:19815   */\n      mstore\n        /* \"#utility.yul\":19644:19822   */\n      pop\n      jump\t// out\n        /* \"#utility.yul\":19828:20194   */\n    tag_257:\n        /* \"#utility.yul\":19970:19973   */\n      0x00\n        /* \"#utility.yul\":19991:20058   */\n      tag_447\n        /* \"#utility.yul\":20055:20057   */\n      0x1c\n        /* \"#utility.yul\":20050:20053   */\n      dup4\n        /* \"#utility.yul\":19991:20058   */\n      tag_214\n      jump\t// in\n    tag_447:\n        /* \"#utility.yul\":19984:20058   */\n      swap2\n      pop\n        /* \"#utility.yul\":20067:20160   */\n      tag_448\n        /* \"#utility.yul\":20156:20159   */\n      dup3\n        /* \"#utility.yul\":20067:20160   */\n      tag_256\n      jump\t// in\n    tag_448:\n        /* \"#utility.yul\":20185:20187   */\n      0x20\n        /* \"#utility.yul\":20180:20183   */\n      dup3\n        /* \"#utility.yul\":20176:20188   */\n      add\n        /* \"#utility.yul\":20169:20188   */\n      swap1\n      pop\n        /* \"#utility.yul\":19828:20194   */\n      swap2\n      swap1\n      pop\n      jump\t// out\n        /* \"#utility.yul\":20200:20619   */\n    tag_152:\n        /* \"#utility.yul\":20366:20370   */\n      0x00\n        /* \"#utility.yul\":20404:20406   */\n      0x20\n        /* \"#utility.yul\":20393:20402   */\n      dup3\n        /* \"#utility.yul\":20389:20407   */\n      add\n        /* \"#utility.yul\":20381:20407   */\n      swap1\n      pop\n        /* \"#utility.yul\":20453:20462   */\n      dup2\n        /* \"#utility.yul\":20447:20451   */\n      dup2\n        /* \"#utility.yul\":20443:20463   */\n      sub\n        /* \"#utility.yul\":20439:20440   */\n      0x00\n        /* \"#utility.yul\":20428:20437   */\n      dup4\n        /* \"#utility.yul\":20424:20441   */\n      add\n        /* \"#utility.yul\":20417:20464   */\n      mstore\n        /* \"#utility.yul\":20481:20612   */\n      tag_450\n        /* \"#utility.yul\":20607:20611   */\n      dup2\n        /* \"#utility.yul\":20481:20612   */\n      tag_257\n      jump\t// in\n    tag_450:\n        /* \"#utility.yul\":20473:20612   */\n      swap1\n      pop\n        /* \"#utility.yul\":20200:20619   */\n      swap2\n      swap1\n      pop\n      jump\t// out\n        /* \"#utility.yul\":20625:20805   */\n    tag_258:\n        /* \"#utility.yul\":20673:20750   */\n      0x4e487b7100000000000000000000000000000000000000000000000000000000\n        /* \"#utility.yul\":20670:20671   */\n      0x00\n        /* \"#utility.yul\":20663:20751   */\n      mstore\n        /* \"#utility.yul\":20770:20774   */\n      0x11\n        /* \"#utility.yul\":20767:20768   */\n      0x04\n        /* \"#utility.yul\":20760:20775   */\n      mstore\n        /* \"#utility.yul\":20794:20798   */\n      0x24\n        /* \"#utility.yul\":20791:20792   */\n      0x00\n        /* \"#utility.yul\":20784:20799   */\n      revert\n        /* \"#utility.yul\":20811:21005   */\n    tag_155:\n        /* \"#utility.yul\":20851:20855   */\n      0x00\n        /* \"#utility.yul\":20871:20891   */\n      tag_453\n        /* \"#utility.yul\":20889:20890   */\n      dup3\n        /* \"#utility.yul\":20871:20891   */\n      tag_218\n      jump\t// in\n    tag_453:\n        /* \"#utility.yul\":20866:20891   */\n      swap2\n      pop\n        /* \"#utility.yul\":20905:20925   */\n      tag_454\n        /* \"#utility.yul\":20923:20924   */\n      dup4\n        /* \"#utility.yul\":20905:20925   */\n      tag_218\n      jump\t// in\n    tag_454:\n        /* \"#utility.yul\":20900:20925   */\n      swap3\n      pop\n        /* \"#utility.yul\":20949:20950   */\n      dup3\n        /* \"#utility.yul\":20946:20947   */\n      dup3\n        /* \"#utility.yul\":20942:20951   */\n      sub\n        /* \"#utility.yul\":20934:20951   */\n      swap1\n      pop\n        /* \"#utility.yul\":20973:20974   */\n      dup2\n        /* \"#utility.yul\":20967:20971   */\n      dup2\n        /* \"#utility.yul\":20964:20975   */\n      gt\n        /* \"#utility.yul\":20961:20998   */\n      iszero\n      tag_455\n      jumpi\n        /* \"#utility.yul\":20978:20996   */\n      tag_456\n      tag_258\n      jump\t// in\n    tag_456:\n        /* \"#utility.yul\":20961:20998   */\n    tag_455:\n        /* \"#utility.yul\":20811:21005   */\n      swap3\n      swap2\n      pop\n      pop\n      jump\t// out\n        /* \"#utility.yul\":21011:21202   */\n    tag_157:\n        /* \"#utility.yul\":21051:21054   */\n      0x00\n        /* \"#utility.yul\":21070:21090   */\n      tag_458\n        /* \"#utility.yul\":21088:21089   */\n      dup3\n        /* \"#utility.yul\":21070:21090   */\n      tag_218\n      jump\t// in\n    tag_458:\n        /* \"#utility.yul\":21065:21090   */\n      swap2\n      pop\n        /* \"#utility.yul\":21104:21124   */\n      tag_459\n        /* \"#utility.yul\":21122:21123   */\n      dup4\n        /* \"#utility.yul\":21104:21124   */\n      tag_218\n      jump\t// in\n    tag_459:\n        /* \"#utility.yul\":21099:21124   */\n      swap3\n      pop\n        /* \"#utility.yul\":21147:21148   */\n      dup3\n        /* \"#utility.yul\":21144:21145   */\n      dup3\n        /* \"#utility.yul\":21140:21149   */\n      add\n        /* \"#utility.yul\":21133:21149   */\n      swap1\n      pop\n        /* \"#utility.yul\":21168:21171   */\n      dup1\n        /* \"#utility.yul\":21165:21166   */\n      dup3\n        /* \"#utility.yul\":21162:21172   */\n      gt\n        /* \"#utility.yul\":21159:21195   */\n      iszero\n      tag_460\n      jumpi\n        /* \"#utility.yul\":21175:21193   */\n      tag_461\n      tag_258\n      jump\t// in\n    tag_461:\n        /* \"#utility.yul\":21159:21195   */\n    tag_460:\n        /* \"#utility.yul\":21011:21202   */\n      swap3\n      swap2\n      pop\n      pop\n      jump\t// out\n        /* \"#utility.yul\":21208:21441   */\n    tag_168:\n        /* \"#utility.yul\":21247:21250   */\n      0x00\n        /* \"#utility.yul\":21270:21294   */\n      tag_463\n        /* \"#utility.yul\":21288:21293   */\n      dup3\n        /* \"#utility.yul\":21270:21294   */\n      tag_218\n      jump\t// in\n    tag_463:\n        /* \"#utility.yul\":21261:21294   */\n      swap2\n      pop\n        /* \"#utility.yul\":21316:21382   */\n      0xffffffffffffffffffffffffffffffffffffffffffffffffffffffffffffffff\n        /* \"#utility.yul\":21309:21314   */\n      dup3\n        /* \"#utility.yul\":21306:21383   */\n      sub\n        /* \"#utility.yul\":21303:21406   */\n      tag_464\n      jumpi\n        /* \"#utility.yul\":21386:21404   */\n      tag_465\n      tag_258\n      jump\t// in\n    tag_465:\n        /* \"#utility.yul\":21303:21406   */\n    tag_464:\n        /* \"#utility.yul\":21433:21434   */\n      0x01\n        /* \"#utility.yul\":21426:21431   */\n      dup3\n        /* \"#utility.yul\":21422:21435   */\n      add\n        /* \"#utility.yul\":21415:21435   */\n      swap1\n      pop\n        /* \"#utility.yul\":21208:21441   */\n      swap2\n      swap1\n      pop\n      jump\t// out\n        /* \"#utility.yul\":21447:21627   */\n    tag_259:\n        /* \"#utility.yul\":21495:21572   */\n      0x4e487b7100000000000000000000000000000000000000000000000000000000\n        /* \"#utility.yul\":21492:21493   */\n      0x00\n        /* \"#utility.yul\":21485:21573   */\n      mstore\n        /* \"#utility.yul\":21592:21596   */\n      0x12\n        /* \"#utility.yul\":21589:21590   */\n      0x04\n        /* \"#utility.yul\":21582:21597   */\n      mstore\n        /* \"#utility.yul\":21616:21620   */\n      0x24\n        /* \"#utility.yul\":21613:21614   */\n      0x00\n        /* \"#utility.yul\":21606:21621   */\n      revert\n        /* \"#utility.yul\":21633:21818   */\n    tag_170:\n        /* \"#utility.yul\":21673:21674   */\n      0x00\n        /* \"#utility.yul\":21690:21710   */\n      tag_468\n        /* \"#utility.yul\":21708:21709   */\n      dup3\n        /* \"#utility.yul\":21690:21710   */\n      tag_218\n      jump\t// in\n    tag_468:\n        /* \"#utility.yul\":21685:21710   */\n      swap2\n      pop\n        /* \"#utility.yul\":21724:21744   */\n      tag_469\n        /* \"#utility.yul\":21742:21743   */\n      dup4\n        /* \"#utility.yul\":21724:21744   */\n      tag_218\n      jump\t// in\n    tag_469:\n        /* \"#utility.yul\":21719:21744   */\n      swap3\n      pop\n        /* \"#utility.yul\":21763:21764   */\n      dup3\n        /* \"#utility.yul\":21753:21788   */\n      tag_470\n      jumpi\n        /* \"#utility.yul\":21768:21786   */\n      tag_471\n      tag_259\n      jump\t// in\n    tag_471:\n        /* \"#utility.yul\":21753:21788   */\n    tag_470:\n        /* \"#utility.yul\":21810:21811   */\n      dup3\n        /* \"#utility.yul\":21807:21808   */\n      dup3\n        /* \"#utility.yul\":21803:21812   */\n      div\n        /* \"#utility.yul\":21798:21812   */\n      swap1\n      pop\n        /* \"#utility.yul\":21633:21818   */\n      swap3\n      swap2\n      pop\n      pop\n      jump\t// out\n        /* \"#utility.yul\":21824:21995   */\n    tag_178:\n        /* \"#utility.yul\":21863:21866   */\n      0x00\n        /* \"#utility.yul\":21886:21910   */\n      tag_473\n        /* \"#utility.yul\":21904:21909   */\n      dup3\n        /* \"#utility.yul\":21886:21910   */\n      tag_218\n      jump\t// in\n    tag_473:\n        /* \"#utility.yul\":21877:21910   */\n      swap2\n      pop\n        /* \"#utility.yul\":21932:21936   */\n      0x00\n        /* \"#utility.yul\":21925:21930   */\n      dup3\n        /* \"#utility.yul\":21922:21937   */\n      sub\n        /* \"#utility.yul\":21919:21960   */\n      tag_474\n      jumpi\n        /* \"#utility.yul\":21940:21958   */\n      tag_475\n      tag_258\n      jump\t// in\n    tag_475:\n        /* \"#utility.yul\":21919:21960   */\n    tag_474:\n        /* \"#utility.yul\":21987:21988   */\n      0x01\n        /* \"#utility.yul\":21980:21985   */\n      dup3\n        /* \"#utility.yul\":21976:21989   */\n      sub\n        /* \"#utility.yul\":21969:21989   */\n      swap1\n      pop\n        /* \"#utility.yul\":21824:21995   */\n      swap2\n      swap1\n      pop\n      jump\t// out\n        /* \"#utility.yul\":22001:22177   */\n    tag_180:\n        /* \"#utility.yul\":22033:22034   */\n      0x00\n        /* \"#utility.yul\":22050:22070   */\n      tag_477\n        /* \"#utility.yul\":22068:22069   */\n      dup3\n        /* \"#utility.yul\":22050:22070   */\n      tag_218\n      jump\t// in\n    tag_477:\n        /* \"#utility.yul\":22045:22070   */\n      swap2\n      pop\n        /* \"#utility.yul\":22084:22104   */\n      tag_478\n        /* \"#utility.yul\":22102:22103   */\n      dup4\n        /* \"#utility.yul\":22084:22104   */\n      tag_218\n      jump\t// in\n    tag_478:\n        /* \"#utility.yul\":22079:22104   */\n      swap3\n      pop\n        /* \"#utility.yul\":22123:22124   */\n      dup3\n        /* \"#utility.yul\":22113:22148   */\n      tag_479\n      jumpi\n        /* \"#utility.yul\":22128:22146   */\n      tag_480\n      tag_259\n      jump\t// in\n    tag_480:\n        /* \"#utility.yul\":22113:22148   */\n    tag_479:\n        /* \"#utility.yul\":22169:22170   */\n      dup3\n        /* \"#utility.yul\":22166:22167   */\n      dup3\n        /* \"#utility.yul\":22162:22171   */\n      mod\n        /* \"#utility.yul\":22157:22171   */\n      swap1\n      pop\n        /* \"#utility.yul\":22001:22177   */\n      swap3\n      swap2\n      pop\n      pop\n      jump\t// out\n        /* \"#utility.yul\":22183:22363   */\n    tag_184:\n        /* \"#utility.yul\":22231:22308   */\n      0x4e487b7100000000000000000000000000000000000000000000000000000000\n        /* \"#utility.yul\":22228:22229   */\n      0x00\n        /* \"#utility.yul\":22221:22309   */\n      mstore\n        /* \"#utility.yul\":22328:22332   */\n      0x32\n        /* \"#utility.yul\":22325:22326   */\n      0x04\n        /* \"#utility.yul\":22318:22333   */\n      mstore\n        /* \"#utility.yul\":22352:22356   */\n      0x24\n        /* \"#utility.yul\":22349:22350   */\n      0x00\n        /* \"#utility.yul\":22342:22357   */\n      revert\n        /* \"#utility.yul\":22369:22467   */\n    tag_260:\n        /* \"#utility.yul\":22420:22426   */\n      0x00\n        /* \"#utility.yul\":22454:22459   */\n      dup2\n        /* \"#utility.yul\":22448:22460   */\n      mload\n        /* \"#utility.yul\":22438:22460   */\n      swap1\n      pop\n        /* \"#utility.yul\":22369:22467   */\n      swap2\n      swap1\n      pop\n      jump\t// out\n        /* \"#utility.yul\":22473:22641   */\n    tag_261:\n        /* \"#utility.yul\":22556:22567   */\n      0x00\n        /* \"#utility.yul\":22590:22596   */\n      dup3\n        /* \"#utility.yul\":22585:22588   */\n      dup3\n        /* \"#utility.yul\":22578:22597   */\n      mstore\n        /* \"#utility.yul\":22630:22634   */\n      0x20\n        /* \"#utility.yul\":22625:22628   */\n      dup3\n        /* \"#utility.yul\":22621:22635   */\n      add\n        /* \"#utility.yul\":22606:22635   */\n      swap1\n      pop\n        /* \"#utility.yul\":22473:22641   */\n      swap3\n      swap2\n      pop\n      pop\n      jump\t// out\n        /* \"#utility.yul\":22647:23020   */\n    tag_262:\n        /* \"#utility.yul\":22733:22736   */\n      0x00\n        /* \"#utility.yul\":22761:22799   */\n      tag_485\n        /* \"#utility.yul\":22793:22798   */\n      dup3\n        /* \"#utility.yul\":22761:22799   */\n      tag_260\n      jump\t// in\n    tag_485:\n        /* \"#utility.yul\":22815:22885   */\n      tag_486\n        /* \"#utility.yul\":22878:22884   */\n      dup2\n        /* \"#utility.yul\":22873:22876   */\n      dup6\n        /* \"#utility.yul\":22815:22885   */\n      tag_261\n      jump\t// in\n    tag_486:\n        /* \"#utility.yul\":22808:22885   */\n      swap4\n      pop\n        /* \"#utility.yul\":22894:22959   */\n      tag_487\n        /* \"#utility.yul\":22952:22958   */\n      dup2\n        /* \"#utility.yul\":22947:22950   */\n      dup6\n        /* \"#utility.yul\":22940:22944   */\n      0x20\n        /* \"#utility.yul\":22933:22938   */\n      dup7\n        /* \"#utility.yul\":22929:22945   */\n      add\n        /* \"#utility.yul\":22894:22959   */\n      tag_215\n      jump\t// in\n    tag_487:\n        /* \"#utility.yul\":22984:23013   */\n      tag_488\n        /* \"#utility.yul\":23006:23012   */\n      dup2\n        /* \"#utility.yul\":22984:23013   */\n      tag_216\n      jump\t// in\n    tag_488:\n        /* \"#utility.yul\":22979:22982   */\n      dup5\n        /* \"#utility.yul\":22975:23014   */\n      add\n        /* \"#utility.yul\":22968:23014   */\n      swap2\n      pop\n        /* \"#utility.yul\":22737:23020   */\n      pop\n        /* \"#utility.yul\":22647:23020   */\n      swap3\n      swap2\n      pop\n      pop\n      jump\t// out\n        /* \"#utility.yul\":23026:23666   */\n    tag_189:\n        /* \"#utility.yul\":23221:23225   */\n      0x00\n        /* \"#utility.yul\":23259:23262   */\n      0x80\n        /* \"#utility.yul\":23248:23257   */\n      dup3\n        /* \"#utility.yul\":23244:23263   */\n      add\n        /* \"#utility.yul\":23236:23263   */\n      swap1\n      pop\n        /* \"#utility.yul\":23273:23344   */\n      tag_490\n        /* \"#utility.yul\":23341:23342   */\n      0x00\n        /* \"#utility.yul\":23330:23339   */\n      dup4\n        /* \"#utility.yul\":23326:23343   */\n      add\n        /* \"#utility.yul\":23317:23323   */\n      dup8\n        /* \"#utility.yul\":23273:23344   */\n      tag_223\n      jump\t// in\n    tag_490:\n        /* \"#utility.yul\":23354:23426   */\n      tag_491\n        /* \"#utility.yul\":23422:23424   */\n      0x20\n        /* \"#utility.yul\":23411:23420   */\n      dup4\n        /* \"#utility.yul\":23407:23425   */\n      add\n        /* \"#utility.yul\":23398:23404   */\n      dup7\n        /* \"#utility.yul\":23354:23426   */\n      tag_223\n      jump\t// in\n    tag_491:\n        /* \"#utility.yul\":23436:23508   */\n      tag_492\n        /* \"#utility.yul\":23504:23506   */\n      0x40\n        /* \"#utility.yul\":23493:23502   */\n      dup4\n        /* \"#utility.yul\":23489:23507   */\n      add\n        /* \"#utility.yul\":23480:23486   */\n      dup6\n        /* \"#utility.yul\":23436:23508   */\n      tag_226\n      jump\t// in\n    tag_492:\n        /* \"#utility.yul\":23555:23564   */\n      dup2\n        /* \"#utility.yul\":23549:23553   */\n      dup2\n        /* \"#utility.yul\":23545:23565   */\n      sub\n        /* \"#utility.yul\":23540:23542   */\n      0x60\n        /* \"#utility.yul\":23529:23538   */\n      dup4\n        /* \"#utility.yul\":23525:23543   */\n      add\n        /* \"#utility.yul\":23518:23566   */\n      mstore\n        /* \"#utility.yul\":23583:23659   */\n      tag_493\n        /* \"#utility.yul\":23654:23658   */\n      dup2\n        /* \"#utility.yul\":23645:23651   */\n      dup5\n        /* \"#utility.yul\":23583:23659   */\n      tag_262\n      jump\t// in\n    tag_493:\n        /* \"#utility.yul\":23575:23659   */\n      swap1\n      pop\n        /* \"#utility.yul\":23026:23666   */\n      swap6\n      swap5\n      pop\n      pop\n      pop\n      pop\n      pop\n      jump\t// out\n        /* \"#utility.yul\":23672:23813   */\n    tag_263:\n        /* \"#utility.yul\":23728:23733   */\n      0x00\n        /* \"#utility.yul\":23759:23765   */\n      dup2\n        /* \"#utility.yul\":23753:23766   */\n      mload\n        /* \"#utility.yul\":23744:23766   */\n      swap1\n      pop\n        /* \"#utility.yul\":23775:23807   */\n      tag_495\n        /* \"#utility.yul\":23801:23806   */\n      dup2\n        /* \"#utility.yul\":23775:23807   */\n      tag_209\n      jump\t// in\n    tag_495:\n        /* \"#utility.yul\":23672:23813   */\n      swap3\n      swap2\n      pop\n      pop\n      jump\t// out\n        /* \"#utility.yul\":23819:24168   */\n    tag_192:\n        /* \"#utility.yul\":23888:23894   */\n      0x00\n        /* \"#utility.yul\":23937:23939   */\n      0x20\n        /* \"#utility.yul\":23925:23934   */\n      dup3\n        /* \"#utility.yul\":23916:23923   */\n      dup5\n        /* \"#utility.yul\":23912:23935   */\n      sub\n        /* \"#utility.yul\":23908:23940   */\n      slt\n        /* \"#utility.yul\":23905:24024   */\n      iszero\n      tag_497\n      jumpi\n        /* \"#utility.yul\":23943:24022   */\n      tag_498\n      tag_206\n      jump\t// in\n    tag_498:\n        /* \"#utility.yul\":23905:24024   */\n    tag_497:\n        /* \"#utility.yul\":24063:24064   */\n      0x00\n        /* \"#utility.yul\":24088:24151   */\n      tag_499\n        /* \"#utility.yul\":24143:24150   */\n      dup5\n        /* \"#utility.yul\":24134:24140   */\n      dup3\n        /* \"#utility.yul\":24123:24132   */\n      dup6\n        /* \"#utility.yul\":24119:24141   */\n      add\n        /* \"#utility.yul\":24088:24151   */\n      tag_263\n      jump\t// in\n    tag_499:\n        /* \"#utility.yul\":24078:24151   */\n      swap2\n      pop\n        /* \"#utility.yul\":24034:24161   */\n      pop\n        /* \"#utility.yul\":23819:24168   */\n      swap3\n      swap2\n      pop\n      pop\n      jump\t// out\n\n    auxdata: 0xa264697066735822122089f1337f4783405024a7eabd3166218fb1a3b8edd33278c806db720116a5bab964736f6c634300081a0033\n}\n",
				"bytecode": {
					"linkReferences": {},
					"object": "608060405234801561000f575f80fd5b506040516124d33803806124d3833981810160405281019061003191906101a4565b815f908161003f9190610427565b50806001908161004f9190610427565b5050506104f6565b5f604051905090565b5f80fd5b5f80fd5b5f80fd5b5f80fd5b5f601f19601f8301169050919050565b7f4e487b71000000000000000000000000000000000000000000000000000000005f52604160045260245ffd5b6100b682610070565b810181811067ffffffffffffffff821117156100d5576100d4610080565b5b80604052505050565b5f6100e7610057565b90506100f382826100ad565b919050565b5f67ffffffffffffffff82111561011257610111610080565b5b61011b82610070565b9050602081019050919050565b8281835e5f83830152505050565b5f610148610143846100f8565b6100de565b9050828152602081018484840111156101645761016361006c565b5b61016f848285610128565b509392505050565b5f82601f83011261018b5761018a610068565b5b815161019b848260208601610136565b91505092915050565b5f80604083850312156101ba576101b9610060565b5b5f83015167ffffffffffffffff8111156101d7576101d6610064565b5b6101e385828601610177565b925050602083015167ffffffffffffffff81111561020457610203610064565b5b61021085828601610177565b9150509250929050565b5f81519050919050565b7f4e487b71000000000000000000000000000000000000000000000000000000005f52602260045260245ffd5b5f600282049050600182168061026857607f821691505b60208210810361027b5761027a610224565b5b50919050565b5f819050815f5260205f209050919050565b5f6020601f8301049050919050565b5f82821b905092915050565b5f600883026102dd7fffffffffffffffffffffffffffffffffffffffffffffffffffffffffffffffff826102a2565b6102e786836102a2565b95508019841693508086168417925050509392505050565b5f819050919050565b5f819050919050565b5f61032b610326610321846102ff565b610308565b6102ff565b9050919050565b5f819050919050565b61034483610311565b61035861035082610332565b8484546102ae565b825550505050565b5f90565b61036c610360565b61037781848461033b565b505050565b5b8181101561039a5761038f5f82610364565b60018101905061037d565b5050565b601f8211156103df576103b081610281565b6103b984610293565b810160208510156103c8578190505b6103dc6103d485610293565b83018261037c565b50505b505050565b5f82821c905092915050565b5f6103ff5f19846008026103e4565b1980831691505092915050565b5f61041783836103f0565b9150826002028217905092915050565b6104308261021a565b67ffffffffffffffff81111561044957610448610080565b5b6104538254610251565b61045e82828561039e565b5f60209050601f83116001811461048f575f841561047d578287015190505b610487858261040c565b8655506104ee565b601f19841661049d86610281565b5f5b828110156104c45784890151825560018201915060208501945060208101905061049f565b868310156104e157848901516104dd601f8916826103f0565b8355505b6001600288020188555050505b505050505050565b611fd0806105035f395ff3fe608060405234801561000f575f80fd5b50600436106100cd575f3560e01c80636352211e1161008a578063a22cb46511610064578063a22cb46514610221578063b88d4fde1461023d578063c87b56dd14610259578063ebd1d35914610289576100cd565b80636352211e146101a357806370a08231146101d357806395d89b4114610203576100cd565b806301ffc9a7146100d157806306fdde0314610101578063081812fc1461011f578063095ea7b31461014f57806323b872dd1461016b57806342842e0e14610187575b5f80fd5b6100eb60048036038101906100e691906113a1565b6102b9565b6040516100f891906113e6565b60405180910390f35b6101096103f2565b604051610116919061146f565b60405180910390f35b610139600480360381019061013491906114c2565b61047d565b604051610146919061152c565b60405180910390f35b6101696004803603810190610164919061156f565b610554565b005b610185600480360381019061018091906115ad565b610692565b005b6101a1600480360381019061019c91906115ad565b6106fa565b005b6101bd60048036038101906101b891906114c2565b610719565b6040516101ca919061152c565b60405180910390f35b6101ed60048036038101906101e891906115fd565b6107c0565b6040516101fa9190611637565b60405180910390f35b61020b610874565b604051610218919061146f565b60405180910390f35b61023b6004803603810190610236919061167a565b610900565b005b610257600480360381019061025291906117e4565b6109f8565b005b610273600480360381019061026e91906114c2565b610a62565b604051610280919061146f565b60405180910390f35b6102a3600480360381019061029e9190611864565b610b5c565b6040516102b091906113e6565b60405180910390f35b5f7f82f86251000000000000000000000000000000000000000000000000000000007bffffffffffffffffffffffffffffffffffffffffffffffffffffffff1916827bffffffffffffffffffffffffffffffffffffffffffffffffffffffff1916148061038357507f01ffc9a7000000000000000000000000000000000000000000000000000000007bffffffffffffffffffffffffffffffffffffffffffffffffffffffff1916827bffffffffffffffffffffffffffffffffffffffffffffffffffffffff1916145b806103eb57507f5b5e139f000000000000000000000000000000000000000000000000000000007bffffffffffffffffffffffffffffffffffffffffffffffffffffffff1916827bffffffffffffffffffffffffffffffffffffffffffffffffffffffff1916145b9050919050565b5f80546103fe906118cf565b80601f016020809104026020016040519081016040528092919081815260200182805461042a906118cf565b80156104755780601f1061044c57610100808354040283529160200191610475565b820191905f5260205f20905b81548152906001019060200180831161045857829003601f168201915b505050505081565b5f8073ffffffffffffffffffffffffffffffffffffffff1660045f8481526020019081526020015f205f9054906101000a900473ffffffffffffffffffffffffffffffffffffffff1673ffffffffffffffffffffffffffffffffffffffff160361051c576040517f08c379a000000000000000000000000000000000000000000000000000000000815260040161051390611949565b60405180910390fd5b60045f8381526020019081526020015f205f9054906101000a900473ffffffffffffffffffffffffffffffffffffffff169050919050565b5f60025f8381526020019081526020015f205f9054906101000a900473ffffffffffffffffffffffffffffffffffffffff1690508073ffffffffffffffffffffffffffffffffffffffff163373ffffffffffffffffffffffffffffffffffffffff161480610643575060055f8273ffffffffffffffffffffffffffffffffffffffff1673ffffffffffffffffffffffffffffffffffffffff1681526020019081526020015f205f3373ffffffffffffffffffffffffffffffffffffffff1673ffffffffffffffffffffffffffffffffffffffff1681526020019081526020015f205f9054906101000a900460ff165b610682576040517f08c379a0000000000000000000000000000000000000000000000000000000008152600401610679906119b1565b60405180910390fd5b61068d818484610bea565b505050565b5f61069c82610719565b90506106a9813384610c99565b6106e8576040517f08c379a00000000000000000000000000000000000000000000000000000000081526004016106df90611a19565b60405180910390fd5b6106f481858585610dc4565b50505050565b61071483838360405180602001604052805f8152506109f8565b505050565b5f60025f8381526020019081526020015f205f9054906101000a900473ffffffffffffffffffffffffffffffffffffffff1690505f73ffffffffffffffffffffffffffffffffffffffff168173ffffffffffffffffffffffffffffffffffffffff16036107bb576040517f08c379a00000000000000000000000000000000000000000000000000000000081526004016107b290611a81565b60405180910390fd5b919050565b5f8073ffffffffffffffffffffffffffffffffffffffff168273ffffffffffffffffffffffffffffffffffffffff160361082f576040517f08c379a000000000000000000000000000000000000000000000000000000000815260040161082690611ae9565b60405180910390fd5b60035f8373ffffffffffffffffffffffffffffffffffffffff1673ffffffffffffffffffffffffffffffffffffffff1681526020019081526020015f20549050919050565b60018054610881906118cf565b80601f01602080910402602001604051908101604052809291908181526020018280546108ad906118cf565b80156108f85780601f106108cf576101008083540402835291602001916108f8565b820191905f5260205f20905b8154815290600101906020018083116108db57829003601f168201915b505050505081565b8060055f3373ffffffffffffffffffffffffffffffffffffffff1673ffffffffffffffffffffffffffffffffffffffff1681526020019081526020015f205f8473ffffffffffffffffffffffffffffffffffffffff1673ffffffffffffffffffffffffffffffffffffffff1681526020019081526020015f205f6101000a81548160ff0219169083151502179055508173ffffffffffffffffffffffffffffffffffffffff163373ffffffffffffffffffffffffffffffffffffffff167f17307eab39ab6107e8899845ad3d59bd9653f200f220920489ca2b5937696c31836040516109ec91906113e6565b60405180910390a35050565b5f610a0283610719565b9050610a0f813385610c99565b610a4e576040517f08c379a0000000000000000000000000000000000000000000000000000000008152600401610a4590611b51565b60405180910390fd5b610a5b8186868686611003565b5050505050565b60605f73ffffffffffffffffffffffffffffffffffffffff1660025f8481526020019081526020015f205f9054906101000a900473ffffffffffffffffffffffffffffffffffffffff1673ffffffffffffffffffffffffffffffffffffffff1603610b02576040517f08c379a0000000000000000000000000000000000000000000000000000000008152600401610af990611bb9565b60405180910390fd5b5f610b0b611022565b90505f815111610b295760405180602001604052805f815250610b54565b80610b3384611038565b604051602001610b44929190611c11565b6040516020818303038152906040525b915050919050565b5f60055f8473ffffffffffffffffffffffffffffffffffffffff1673ffffffffffffffffffffffffffffffffffffffff1681526020019081526020015f205f8373ffffffffffffffffffffffffffffffffffffffff1673ffffffffffffffffffffffffffffffffffffffff1681526020019081526020015f205f9054906101000a900460ff16905092915050565b8160045f8381526020019081526020015f205f6101000a81548173ffffffffffffffffffffffffffffffffffffffff021916908373ffffffffffffffffffffffffffffffffffffffff160217905550808273ffffffffffffffffffffffffffffffffffffffff168473ffffffffffffffffffffffffffffffffffffffff167f8c5be1e5ebec7d5bd14f71427d1e84f3dd0314c0f7b2291e5b200ac8c7c3b92560405160405180910390a4505050565b5f8373ffffffffffffffffffffffffffffffffffffffff168373ffffffffffffffffffffffffffffffffffffffff161480610d2f57508273ffffffffffffffffffffffffffffffffffffffff1660045f8481526020019081526020015f205f9054906101000a900473ffffffffffffffffffffffffffffffffffffffff1673ffffffffffffffffffffffffffffffffffffffff16145b80610dbb575060055f8573ffffffffffffffffffffffffffffffffffffffff1673ffffffffffffffffffffffffffffffffffffffff1681526020019081526020015f205f8473ffffffffffffffffffffffffffffffffffffffff1673ffffffffffffffffffffffffffffffffffffffff1681526020019081526020015f205f9054906101000a900460ff165b90509392505050565b8373ffffffffffffffffffffffffffffffffffffffff168373ffffffffffffffffffffffffffffffffffffffff1614610e32576040517f08c379a0000000000000000000000000000000000000000000000000000000008152600401610e2990611c7e565b60405180910390fd5b5f73ffffffffffffffffffffffffffffffffffffffff168273ffffffffffffffffffffffffffffffffffffffff1603610ea0576040517f08c379a0000000000000000000000000000000000000000000000000000000008152600401610e9790611ce6565b60405180910390fd5b610eab845f83610bea565b600160035f8573ffffffffffffffffffffffffffffffffffffffff1673ffffffffffffffffffffffffffffffffffffffff1681526020019081526020015f205f828254610ef89190611d31565b92505081905550600160035f8473ffffffffffffffffffffffffffffffffffffffff1673ffffffffffffffffffffffffffffffffffffffff1681526020019081526020015f205f828254610f4c9190611d64565b925050819055508160025f8381526020019081526020015f205f6101000a81548173ffffffffffffffffffffffffffffffffffffffff021916908373ffffffffffffffffffffffffffffffffffffffff160217905550808273ffffffffffffffffffffffffffffffffffffffff168473ffffffffffffffffffffffffffffffffffffffff167fddf252ad1be2c89b69c2b068fc378daa952ba7f163c4a11628f55a4df523b3ef60405160405180910390a450505050565b61100f85858585610dc4565b61101b84848484611190565b5050505050565b606060405180602001604052805f815250905090565b60605f820361107e576040518060400160405280600181526020017f3000000000000000000000000000000000000000000000000000000000000000815250905061118b565b5f8290505f5b5f82146110ad57808061109690611d97565b915050600a826110a69190611e0b565b9150611084565b5f8167ffffffffffffffff8111156110c8576110c76116c0565b5b6040519080825280601f01601f1916602001820160405280156110fa5781602001600182028036833780820191505090505b5090505b5f851461118457818061111090611e3b565b925050600a856111209190611e62565b603061112c9190611d64565b60f81b81838151811061114257611141611e92565b5b60200101907effffffffffffffffffffffffffffffffffffffffffffffffffffffffffffff191690815f1a905350600a8561117d9190611e0b565b94506110fe565b8093505050505b919050565b5f8373ffffffffffffffffffffffffffffffffffffffff163b1115611335578273ffffffffffffffffffffffffffffffffffffffff1663150b7a02338685856040518563ffffffff1660e01b81526004016111ee9493929190611f11565b6020604051808303815f875af192505050801561122957506040513d601f19601f820116820180604052508101906112269190611f6f565b60015b6112aa573d805f8114611257576040519150601f19603f3d011682016040523d82523d5f602084013e61125c565b606091505b505f8151036112a257836040517f64a0ae92000000000000000000000000000000000000000000000000000000008152600401611299919061152c565b60405180910390fd5b805181602001fd5b63150b7a0260e01b7bffffffffffffffffffffffffffffffffffffffffffffffffffffffff1916817bffffffffffffffffffffffffffffffffffffffffffffffffffffffff19161461133357836040517f64a0ae9200000000000000000000000000000000000000000000000000000000815260040161132a919061152c565b60405180910390fd5b505b50505050565b5f604051905090565b5f80fd5b5f80fd5b5f7fffffffff0000000000000000000000000000000000000000000000000000000082169050919050565b6113808161134c565b811461138a575f80fd5b50565b5f8135905061139b81611377565b92915050565b5f602082840312156113b6576113b5611344565b5b5f6113c38482850161138d565b91505092915050565b5f8115159050919050565b6113e0816113cc565b82525050565b5f6020820190506113f95f8301846113d7565b92915050565b5f81519050919050565b5f82825260208201905092915050565b8281835e5f83830152505050565b5f601f19601f8301169050919050565b5f611441826113ff565b61144b8185611409565b935061145b818560208601611419565b61146481611427565b840191505092915050565b5f6020820190508181035f8301526114878184611437565b905092915050565b5f819050919050565b6114a18161148f565b81146114ab575f80fd5b50565b5f813590506114bc81611498565b92915050565b5f602082840312156114d7576114d6611344565b5b5f6114e4848285016114ae565b91505092915050565b5f73ffffffffffffffffffffffffffffffffffffffff82169050919050565b5f611516826114ed565b9050919050565b6115268161150c565b82525050565b5f60208201905061153f5f83018461151d565b92915050565b61154e8161150c565b8114611558575f80fd5b50565b5f8135905061156981611545565b92915050565b5f806040838503121561158557611584611344565b5b5f6115928582860161155b565b92505060206115a3858286016114ae565b9150509250929050565b5f805f606084860312156115c4576115c3611344565b5b5f6115d18682870161155b565b93505060206115e28682870161155b565b92505060406115f3868287016114ae565b9150509250925092565b5f6020828403121561161257611611611344565b5b5f61161f8482850161155b565b91505092915050565b6116318161148f565b82525050565b5f60208201905061164a5f830184611628565b92915050565b611659816113cc565b8114611663575f80fd5b50565b5f8135905061167481611650565b92915050565b5f80604083850312156116905761168f611344565b5b5f61169d8582860161155b565b92505060206116ae85828601611666565b9150509250929050565b5f80fd5b5f80fd5b7f4e487b71000000000000000000000000000000000000000000000000000000005f52604160045260245ffd5b6116f682611427565b810181811067ffffffffffffffff82111715611715576117146116c0565b5b80604052505050565b5f61172761133b565b905061173382826116ed565b919050565b5f67ffffffffffffffff821115611752576117516116c0565b5b61175b82611427565b9050602081019050919050565b828183375f83830152505050565b5f61178861178384611738565b61171e565b9050828152602081018484840111156117a4576117a36116bc565b5b6117af848285611768565b509392505050565b5f82601f8301126117cb576117ca6116b8565b5b81356117db848260208601611776565b91505092915050565b5f805f80608085870312156117fc576117fb611344565b5b5f6118098782880161155b565b945050602061181a8782880161155b565b935050604061182b878288016114ae565b925050606085013567ffffffffffffffff81111561184c5761184b611348565b5b611858878288016117b7565b91505092959194509250565b5f806040838503121561187a57611879611344565b5b5f6118878582860161155b565b92505060206118988582860161155b565b9150509250929050565b7f4e487b71000000000000000000000000000000000000000000000000000000005f52602260045260245ffd5b5f60028204905060018216806118e657607f821691505b6020821081036118f9576118f86118a2565b5b50919050565b7f746f6b656e206e6f7420657869737400000000000000000000000000000000005f82015250565b5f611933600f83611409565b915061193e826118ff565b602082019050919050565b5f6020820190508181035f83015261196081611927565b9050919050565b7f6e6f74206f776e6572206e6f7220617070726f76656420666f7220616c6c00005f82015250565b5f61199b601e83611409565b91506119a682611967565b602082019050919050565b5f6020820190508181035f8301526119c88161198f565b9050919050565b7f6e6f74206f776e6572206e6f7220617070726f766564000000000000000000005f82015250565b5f611a03601683611409565b9150611a0e826119cf565b602082019050919050565b5f6020820190508181035f830152611a30816119f7565b9050919050565b7f746f6b656e20646f6573206e6f742065786973740000000000000000000000005f82015250565b5f611a6b601483611409565b9150611a7682611a37565b602082019050919050565b5f6020820190508181035f830152611a9881611a5f565b9050919050565b7f6f776e6572203d207a65726f20616464726573730000000000000000000000005f82015250565b5f611ad3601483611409565b9150611ade82611a9f565b602082019050919050565b5f6020820190508181035f830152611b0081611ac7565b9050919050565b7f6e6f74206f776e657220697320617070726f76656400000000000000000000005f82015250565b5f611b3b601583611409565b9150611b4682611b07565b602082019050919050565b5f6020820190508181035f830152611b6881611b2f565b9050919050565b7f546f6b656e204e6f7420457869737400000000000000000000000000000000005f82015250565b5f611ba3600f83611409565b9150611bae82611b6f565b602082019050919050565b5f6020820190508181035f830152611bd081611b97565b9050919050565b5f81905092915050565b5f611beb826113ff565b611bf58185611bd7565b9350611c05818560208601611419565b80840191505092915050565b5f611c1c8285611be1565b9150611c288284611be1565b91508190509392505050565b7f6e6f74206f776e657200000000000000000000000000000000000000000000005f82015250565b5f611c68600983611409565b9150611c7382611c34565b602082019050919050565b5f6020820190508181035f830152611c9581611c5c565b9050919050565b7f7472616e7366657220746f20746865207a65726f2061646472657373000000005f82015250565b5f611cd0601c83611409565b9150611cdb82611c9c565b602082019050919050565b5f6020820190508181035f830152611cfd81611cc4565b9050919050565b7f4e487b71000000000000000000000000000000000000000000000000000000005f52601160045260245ffd5b5f611d3b8261148f565b9150611d468361148f565b9250828203905081811115611d5e57611d5d611d04565b5b92915050565b5f611d6e8261148f565b9150611d798361148f565b9250828201905080821115611d9157611d90611d04565b5b92915050565b5f611da18261148f565b91507fffffffffffffffffffffffffffffffffffffffffffffffffffffffffffffffff8203611dd357611dd2611d04565b5b600182019050919050565b7f4e487b71000000000000000000000000000000000000000000000000000000005f52601260045260245ffd5b5f611e158261148f565b9150611e208361148f565b925082611e3057611e2f611dde565b5b828204905092915050565b5f611e458261148f565b91505f8203611e5757611e56611d04565b5b600182039050919050565b5f611e6c8261148f565b9150611e778361148f565b925082611e8757611e86611dde565b5b828206905092915050565b7f4e487b71000000000000000000000000000000000000000000000000000000005f52603260045260245ffd5b5f81519050919050565b5f82825260208201905092915050565b5f611ee382611ebf565b611eed8185611ec9565b9350611efd818560208601611419565b611f0681611427565b840191505092915050565b5f608082019050611f245f83018761151d565b611f31602083018661151d565b611f3e6040830185611628565b8181036060830152611f508184611ed9565b905095945050505050565b5f81519050611f6981611377565b92915050565b5f60208284031215611f8457611f83611344565b5b5f611f9184828501611f5b565b9150509291505056fea264697066735822122089f1337f4783405024a7eabd3166218fb1a3b8edd33278c806db720116a5bab964736f6c634300081a0033",
					"opcodes": "PUSH1 0x80 PUSH1 0x40 MSTORE CALLVALUE DUP1 ISZERO PUSH2 0xF JUMPI PUSH0 DUP1 REVERT JUMPDEST POP PUSH1 0x40 MLOAD PUSH2 0x24D3 CODESIZE SUB DUP1 PUSH2 0x24D3 DUP4 CODECOPY DUP2 DUP2 ADD PUSH1 0x40 MSTORE DUP2 ADD SWAP1 PUSH2 0x31 SWAP2 SWAP1 PUSH2 0x1A4 JUMP JUMPDEST DUP2 PUSH0 SWAP1 DUP2 PUSH2 0x3F SWAP2 SWAP1 PUSH2 0x427 JUMP JUMPDEST POP DUP1 PUSH1 0x1 SWAP1 DUP2 PUSH2 0x4F SWAP2 SWAP1 PUSH2 0x427 JUMP JUMPDEST POP POP POP PUSH2 0x4F6 JUMP JUMPDEST PUSH0 PUSH1 0x40 MLOAD SWAP1 POP SWAP1 JUMP JUMPDEST PUSH0 DUP1 REVERT JUMPDEST PUSH0 DUP1 REVERT JUMPDEST PUSH0 DUP1 REVERT JUMPDEST PUSH0 DUP1 REVERT JUMPDEST PUSH0 PUSH1 0x1F NOT PUSH1 0x1F DUP4 ADD AND SWAP1 POP SWAP2 SWAP1 POP JUMP JUMPDEST PUSH32 0x4E487B7100000000000000000000000000000000000000000000000000000000 PUSH0 MSTORE PUSH1 0x41 PUSH1 0x4 MSTORE PUSH1 0x24 PUSH0 REVERT JUMPDEST PUSH2 0xB6 DUP3 PUSH2 0x70 JUMP JUMPDEST DUP2 ADD DUP2 DUP2 LT PUSH8 0xFFFFFFFFFFFFFFFF DUP3 GT OR ISZERO PUSH2 0xD5 JUMPI PUSH2 0xD4 PUSH2 0x80 JUMP JUMPDEST JUMPDEST DUP1 PUSH1 0x40 MSTORE POP POP POP JUMP JUMPDEST PUSH0 PUSH2 0xE7 PUSH2 0x57 JUMP JUMPDEST SWAP1 POP PUSH2 0xF3 DUP3 DUP3 PUSH2 0xAD JUMP JUMPDEST SWAP2 SWAP1 POP JUMP JUMPDEST PUSH0 PUSH8 0xFFFFFFFFFFFFFFFF DUP3 GT ISZERO PUSH2 0x112 JUMPI PUSH2 0x111 PUSH2 0x80 JUMP JUMPDEST JUMPDEST PUSH2 0x11B DUP3 PUSH2 0x70 JUMP JUMPDEST SWAP1 POP PUSH1 0x20 DUP2 ADD SWAP1 POP SWAP2 SWAP1 POP JUMP JUMPDEST DUP3 DUP2 DUP4 MCOPY PUSH0 DUP4 DUP4 ADD MSTORE POP POP POP JUMP JUMPDEST PUSH0 PUSH2 0x148 PUSH2 0x143 DUP5 PUSH2 0xF8 JUMP JUMPDEST PUSH2 0xDE JUMP JUMPDEST SWAP1 POP DUP3 DUP2 MSTORE PUSH1 0x20 DUP2 ADD DUP5 DUP5 DUP5 ADD GT ISZERO PUSH2 0x164 JUMPI PUSH2 0x163 PUSH2 0x6C JUMP JUMPDEST JUMPDEST PUSH2 0x16F DUP5 DUP3 DUP6 PUSH2 0x128 JUMP JUMPDEST POP SWAP4 SWAP3 POP POP POP JUMP JUMPDEST PUSH0 DUP3 PUSH1 0x1F DUP4 ADD SLT PUSH2 0x18B JUMPI PUSH2 0x18A PUSH2 0x68 JUMP JUMPDEST JUMPDEST DUP2 MLOAD PUSH2 0x19B DUP5 DUP3 PUSH1 0x20 DUP7 ADD PUSH2 0x136 JUMP JUMPDEST SWAP2 POP POP SWAP3 SWAP2 POP POP JUMP JUMPDEST PUSH0 DUP1 PUSH1 0x40 DUP4 DUP6 SUB SLT ISZERO PUSH2 0x1BA JUMPI PUSH2 0x1B9 PUSH2 0x60 JUMP JUMPDEST JUMPDEST PUSH0 DUP4 ADD MLOAD PUSH8 0xFFFFFFFFFFFFFFFF DUP2 GT ISZERO PUSH2 0x1D7 JUMPI PUSH2 0x1D6 PUSH2 0x64 JUMP JUMPDEST JUMPDEST PUSH2 0x1E3 DUP6 DUP3 DUP7 ADD PUSH2 0x177 JUMP JUMPDEST SWAP3 POP POP PUSH1 0x20 DUP4 ADD MLOAD PUSH8 0xFFFFFFFFFFFFFFFF DUP2 GT ISZERO PUSH2 0x204 JUMPI PUSH2 0x203 PUSH2 0x64 JUMP JUMPDEST JUMPDEST PUSH2 0x210 DUP6 DUP3 DUP7 ADD PUSH2 0x177 JUMP JUMPDEST SWAP2 POP POP SWAP3 POP SWAP3 SWAP1 POP JUMP JUMPDEST PUSH0 DUP2 MLOAD SWAP1 POP SWAP2 SWAP1 POP JUMP JUMPDEST PUSH32 0x4E487B7100000000000000000000000000000000000000000000000000000000 PUSH0 MSTORE PUSH1 0x22 PUSH1 0x4 MSTORE PUSH1 0x24 PUSH0 REVERT JUMPDEST PUSH0 PUSH1 0x2 DUP3 DIV SWAP1 POP PUSH1 0x1 DUP3 AND DUP1 PUSH2 0x268 JUMPI PUSH1 0x7F DUP3 AND SWAP2 POP JUMPDEST PUSH1 0x20 DUP3 LT DUP2 SUB PUSH2 0x27B JUMPI PUSH2 0x27A PUSH2 0x224 JUMP JUMPDEST JUMPDEST POP SWAP2 SWAP1 POP JUMP JUMPDEST PUSH0 DUP2 SWAP1 POP DUP2 PUSH0 MSTORE PUSH1 0x20 PUSH0 KECCAK256 SWAP1 POP SWAP2 SWAP1 POP JUMP JUMPDEST PUSH0 PUSH1 0x20 PUSH1 0x1F DUP4 ADD DIV SWAP1 POP SWAP2 SWAP1 POP JUMP JUMPDEST PUSH0 DUP3 DUP3 SHL SWAP1 POP SWAP3 SWAP2 POP POP JUMP JUMPDEST PUSH0 PUSH1 0x8 DUP4 MUL PUSH2 0x2DD PUSH32 0xFFFFFFFFFFFFFFFFFFFFFFFFFFFFFFFFFFFFFFFFFFFFFFFFFFFFFFFFFFFFFFFF DUP3 PUSH2 0x2A2 JUMP JUMPDEST PUSH2 0x2E7 DUP7 DUP4 PUSH2 0x2A2 JUMP JUMPDEST SWAP6 POP DUP1 NOT DUP5 AND SWAP4 POP DUP1 DUP7 AND DUP5 OR SWAP3 POP POP POP SWAP4 SWAP3 POP POP POP JUMP JUMPDEST PUSH0 DUP2 SWAP1 POP SWAP2 SWAP1 POP JUMP JUMPDEST PUSH0 DUP2 SWAP1 POP SWAP2 SWAP1 POP JUMP JUMPDEST PUSH0 PUSH2 0x32B PUSH2 0x326 PUSH2 0x321 DUP5 PUSH2 0x2FF JUMP JUMPDEST PUSH2 0x308 JUMP JUMPDEST PUSH2 0x2FF JUMP JUMPDEST SWAP1 POP SWAP2 SWAP1 POP JUMP JUMPDEST PUSH0 DUP2 SWAP1 POP SWAP2 SWAP1 POP JUMP JUMPDEST PUSH2 0x344 DUP4 PUSH2 0x311 JUMP JUMPDEST PUSH2 0x358 PUSH2 0x350 DUP3 PUSH2 0x332 JUMP JUMPDEST DUP5 DUP5 SLOAD PUSH2 0x2AE JUMP JUMPDEST DUP3 SSTORE POP POP POP POP JUMP JUMPDEST PUSH0 SWAP1 JUMP JUMPDEST PUSH2 0x36C PUSH2 0x360 JUMP JUMPDEST PUSH2 0x377 DUP2 DUP5 DUP5 PUSH2 0x33B JUMP JUMPDEST POP POP POP JUMP JUMPDEST JUMPDEST DUP2 DUP2 LT ISZERO PUSH2 0x39A JUMPI PUSH2 0x38F PUSH0 DUP3 PUSH2 0x364 JUMP JUMPDEST PUSH1 0x1 DUP2 ADD SWAP1 POP PUSH2 0x37D JUMP JUMPDEST POP POP JUMP JUMPDEST PUSH1 0x1F DUP3 GT ISZERO PUSH2 0x3DF JUMPI PUSH2 0x3B0 DUP2 PUSH2 0x281 JUMP JUMPDEST PUSH2 0x3B9 DUP5 PUSH2 0x293 JUMP JUMPDEST DUP2 ADD PUSH1 0x20 DUP6 LT ISZERO PUSH2 0x3C8 JUMPI DUP2 SWAP1 POP JUMPDEST PUSH2 0x3DC PUSH2 0x3D4 DUP6 PUSH2 0x293 JUMP JUMPDEST DUP4 ADD DUP3 PUSH2 0x37C JUMP JUMPDEST POP POP JUMPDEST POP POP POP JUMP JUMPDEST PUSH0 DUP3 DUP3 SHR SWAP1 POP SWAP3 SWAP2 POP POP JUMP JUMPDEST PUSH0 PUSH2 0x3FF PUSH0 NOT DUP5 PUSH1 0x8 MUL PUSH2 0x3E4 JUMP JUMPDEST NOT DUP1 DUP4 AND SWAP2 POP POP SWAP3 SWAP2 POP POP JUMP JUMPDEST PUSH0 PUSH2 0x417 DUP4 DUP4 PUSH2 0x3F0 JUMP JUMPDEST SWAP2 POP DUP3 PUSH1 0x2 MUL DUP3 OR SWAP1 POP SWAP3 SWAP2 POP POP JUMP JUMPDEST PUSH2 0x430 DUP3 PUSH2 0x21A JUMP JUMPDEST PUSH8 0xFFFFFFFFFFFFFFFF DUP2 GT ISZERO PUSH2 0x449 JUMPI PUSH2 0x448 PUSH2 0x80 JUMP JUMPDEST JUMPDEST PUSH2 0x453 DUP3 SLOAD PUSH2 0x251 JUMP JUMPDEST PUSH2 0x45E DUP3 DUP3 DUP6 PUSH2 0x39E JUMP JUMPDEST PUSH0 PUSH1 0x20 SWAP1 POP PUSH1 0x1F DUP4 GT PUSH1 0x1 DUP2 EQ PUSH2 0x48F JUMPI PUSH0 DUP5 ISZERO PUSH2 0x47D JUMPI DUP3 DUP8 ADD MLOAD SWAP1 POP JUMPDEST PUSH2 0x487 DUP6 DUP3 PUSH2 0x40C JUMP JUMPDEST DUP7 SSTORE POP PUSH2 0x4EE JUMP JUMPDEST PUSH1 0x1F NOT DUP5 AND PUSH2 0x49D DUP7 PUSH2 0x281 JUMP JUMPDEST PUSH0 JUMPDEST DUP3 DUP2 LT ISZERO PUSH2 0x4C4 JUMPI DUP5 DUP10 ADD MLOAD DUP3 SSTORE PUSH1 0x1 DUP3 ADD SWAP2 POP PUSH1 0x20 DUP6 ADD SWAP5 POP PUSH1 0x20 DUP2 ADD SWAP1 POP PUSH2 0x49F JUMP JUMPDEST DUP7 DUP4 LT ISZERO PUSH2 0x4E1 JUMPI DUP5 DUP10 ADD MLOAD PUSH2 0x4DD PUSH1 0x1F DUP10 AND DUP3 PUSH2 0x3F0 JUMP JUMPDEST DUP4 SSTORE POP JUMPDEST PUSH1 0x1 PUSH1 0x2 DUP9 MUL ADD DUP9 SSTORE POP POP POP JUMPDEST POP POP POP POP POP POP JUMP JUMPDEST PUSH2 0x1FD0 DUP1 PUSH2 0x503 PUSH0 CODECOPY PUSH0 RETURN INVALID PUSH1 0x80 PUSH1 0x40 MSTORE CALLVALUE DUP1 ISZERO PUSH2 0xF JUMPI PUSH0 DUP1 REVERT JUMPDEST POP PUSH1 0x4 CALLDATASIZE LT PUSH2 0xCD JUMPI PUSH0 CALLDATALOAD PUSH1 0xE0 SHR DUP1 PUSH4 0x6352211E GT PUSH2 0x8A JUMPI DUP1 PUSH4 0xA22CB465 GT PUSH2 0x64 JUMPI DUP1 PUSH4 0xA22CB465 EQ PUSH2 0x221 JUMPI DUP1 PUSH4 0xB88D4FDE EQ PUSH2 0x23D JUMPI DUP1 PUSH4 0xC87B56DD EQ PUSH2 0x259 JUMPI DUP1 PUSH4 0xEBD1D359 EQ PUSH2 0x289 JUMPI PUSH2 0xCD JUMP JUMPDEST DUP1 PUSH4 0x6352211E EQ PUSH2 0x1A3 JUMPI DUP1 PUSH4 0x70A08231 EQ PUSH2 0x1D3 JUMPI DUP1 PUSH4 0x95D89B41 EQ PUSH2 0x203 JUMPI PUSH2 0xCD JUMP JUMPDEST DUP1 PUSH4 0x1FFC9A7 EQ PUSH2 0xD1 JUMPI DUP1 PUSH4 0x6FDDE03 EQ PUSH2 0x101 JUMPI DUP1 PUSH4 0x81812FC EQ PUSH2 0x11F JUMPI DUP1 PUSH4 0x95EA7B3 EQ PUSH2 0x14F JUMPI DUP1 PUSH4 0x23B872DD EQ PUSH2 0x16B JUMPI DUP1 PUSH4 0x42842E0E EQ PUSH2 0x187 JUMPI JUMPDEST PUSH0 DUP1 REVERT JUMPDEST PUSH2 0xEB PUSH1 0x4 DUP1 CALLDATASIZE SUB DUP2 ADD SWAP1 PUSH2 0xE6 SWAP2 SWAP1 PUSH2 0x13A1 JUMP JUMPDEST PUSH2 0x2B9 JUMP JUMPDEST PUSH1 0x40 MLOAD PUSH2 0xF8 SWAP2 SWAP1 PUSH2 0x13E6 JUMP JUMPDEST PUSH1 0x40 MLOAD DUP1 SWAP2 SUB SWAP1 RETURN JUMPDEST PUSH2 0x109 PUSH2 0x3F2 JUMP JUMPDEST PUSH1 0x40 MLOAD PUSH2 0x116 SWAP2 SWAP1 PUSH2 0x146F JUMP JUMPDEST PUSH1 0x40 MLOAD DUP1 SWAP2 SUB SWAP1 RETURN JUMPDEST PUSH2 0x139 PUSH1 0x4 DUP1 CALLDATASIZE SUB DUP2 ADD SWAP1 PUSH2 0x134 SWAP2 SWAP1 PUSH2 0x14C2 JUMP JUMPDEST PUSH2 0x47D JUMP JUMPDEST PUSH1 0x40 MLOAD PUSH2 0x146 SWAP2 SWAP1 PUSH2 0x152C JUMP JUMPDEST PUSH1 0x40 MLOAD DUP1 SWAP2 SUB SWAP1 RETURN JUMPDEST PUSH2 0x169 PUSH1 0x4 DUP1 CALLDATASIZE SUB DUP2 ADD SWAP1 PUSH2 0x164 SWAP2 SWAP1 PUSH2 0x156F JUMP JUMPDEST PUSH2 0x554 JUMP JUMPDEST STOP JUMPDEST PUSH2 0x185 PUSH1 0x4 DUP1 CALLDATASIZE SUB DUP2 ADD SWAP1 PUSH2 0x180 SWAP2 SWAP1 PUSH2 0x15AD JUMP JUMPDEST PUSH2 0x692 JUMP JUMPDEST STOP JUMPDEST PUSH2 0x1A1 PUSH1 0x4 DUP1 CALLDATASIZE SUB DUP2 ADD SWAP1 PUSH2 0x19C SWAP2 SWAP1 PUSH2 0x15AD JUMP JUMPDEST PUSH2 0x6FA JUMP JUMPDEST STOP JUMPDEST PUSH2 0x1BD PUSH1 0x4 DUP1 CALLDATASIZE SUB DUP2 ADD SWAP1 PUSH2 0x1B8 SWAP2 SWAP1 PUSH2 0x14C2 JUMP JUMPDEST PUSH2 0x719 JUMP JUMPDEST PUSH1 0x40 MLOAD PUSH2 0x1CA SWAP2 SWAP1 PUSH2 0x152C JUMP JUMPDEST PUSH1 0x40 MLOAD DUP1 SWAP2 SUB SWAP1 RETURN JUMPDEST PUSH2 0x1ED PUSH1 0x4 DUP1 CALLDATASIZE SUB DUP2 ADD SWAP1 PUSH2 0x1E8 SWAP2 SWAP1 PUSH2 0x15FD JUMP JUMPDEST PUSH2 0x7C0 JUMP JUMPDEST PUSH1 0x40 MLOAD PUSH2 0x1FA SWAP2 SWAP1 PUSH2 0x1637 JUMP JUMPDEST PUSH1 0x40 MLOAD DUP1 SWAP2 SUB SWAP1 RETURN JUMPDEST PUSH2 0x20B PUSH2 0x874 JUMP JUMPDEST PUSH1 0x40 MLOAD PUSH2 0x218 SWAP2 SWAP1 PUSH2 0x146F JUMP JUMPDEST PUSH1 0x40 MLOAD DUP1 SWAP2 SUB SWAP1 RETURN JUMPDEST PUSH2 0x23B PUSH1 0x4 DUP1 CALLDATASIZE SUB DUP2 ADD SWAP1 PUSH2 0x236 SWAP2 SWAP1 PUSH2 0x167A JUMP JUMPDEST PUSH2 0x900 JUMP JUMPDEST STOP JUMPDEST PUSH2 0x257 PUSH1 0x4 DUP1 CALLDATASIZE SUB DUP2 ADD SWAP1 PUSH2 0x252 SWAP2 SWAP1 PUSH2 0x17E4 JUMP JUMPDEST PUSH2 0x9F8 JUMP JUMPDEST STOP JUMPDEST PUSH2 0x273 PUSH1 0x4 DUP1 CALLDATASIZE SUB DUP2 ADD SWAP1 PUSH2 0x26E SWAP2 SWAP1 PUSH2 0x14C2 JUMP JUMPDEST PUSH2 0xA62 JUMP JUMPDEST PUSH1 0x40 MLOAD PUSH2 0x280 SWAP2 SWAP1 PUSH2 0x146F JUMP JUMPDEST PUSH1 0x40 MLOAD DUP1 SWAP2 SUB SWAP1 RETURN JUMPDEST PUSH2 0x2A3 PUSH1 0x4 DUP1 CALLDATASIZE SUB DUP2 ADD SWAP1 PUSH2 0x29E SWAP2 SWAP1 PUSH2 0x1864 JUMP JUMPDEST PUSH2 0xB5C JUMP JUMPDEST PUSH1 0x40 MLOAD PUSH2 0x2B0 SWAP2 SWAP1 PUSH2 0x13E6 JUMP JUMPDEST PUSH1 0x40 MLOAD DUP1 SWAP2 SUB SWAP1 RETURN JUMPDEST PUSH0 PUSH32 0x82F8625100000000000000000000000000000000000000000000000000000000 PUSH28 0xFFFFFFFFFFFFFFFFFFFFFFFFFFFFFFFFFFFFFFFFFFFFFFFFFFFFFFFF NOT AND DUP3 PUSH28 0xFFFFFFFFFFFFFFFFFFFFFFFFFFFFFFFFFFFFFFFFFFFFFFFFFFFFFFFF NOT AND EQ DUP1 PUSH2 0x383 JUMPI POP PUSH32 0x1FFC9A700000000000000000000000000000000000000000000000000000000 PUSH28 0xFFFFFFFFFFFFFFFFFFFFFFFFFFFFFFFFFFFFFFFFFFFFFFFFFFFFFFFF NOT AND DUP3 PUSH28 0xFFFFFFFFFFFFFFFFFFFFFFFFFFFFFFFFFFFFFFFFFFFFFFFFFFFFFFFF NOT AND EQ JUMPDEST DUP1 PUSH2 0x3EB JUMPI POP PUSH32 0x5B5E139F00000000000000000000000000000000000000000000000000000000 PUSH28 0xFFFFFFFFFFFFFFFFFFFFFFFFFFFFFFFFFFFFFFFFFFFFFFFFFFFFFFFF NOT AND DUP3 PUSH28 0xFFFFFFFFFFFFFFFFFFFFFFFFFFFFFFFFFFFFFFFFFFFFFFFFFFFFFFFF NOT AND EQ JUMPDEST SWAP1 POP SWAP2 SWAP1 POP JUMP JUMPDEST PUSH0 DUP1 SLOAD PUSH2 0x3FE SWAP1 PUSH2 0x18CF JUMP JUMPDEST DUP1 PUSH1 0x1F ADD PUSH1 0x20 DUP1 SWAP2 DIV MUL PUSH1 0x20 ADD PUSH1 0x40 MLOAD SWAP1 DUP2 ADD PUSH1 0x40 MSTORE DUP1 SWAP3 SWAP2 SWAP1 DUP2 DUP2 MSTORE PUSH1 0x20 ADD DUP3 DUP1 SLOAD PUSH2 0x42A SWAP1 PUSH2 0x18CF JUMP JUMPDEST DUP1 ISZERO PUSH2 0x475 JUMPI DUP1 PUSH1 0x1F LT PUSH2 0x44C JUMPI PUSH2 0x100 DUP1 DUP4 SLOAD DIV MUL DUP4 MSTORE SWAP2 PUSH1 0x20 ADD SWAP2 PUSH2 0x475 JUMP JUMPDEST DUP3 ADD SWAP2 SWAP1 PUSH0 MSTORE PUSH1 0x20 PUSH0 KECCAK256 SWAP1 JUMPDEST DUP2 SLOAD DUP2 MSTORE SWAP1 PUSH1 0x1 ADD SWAP1 PUSH1 0x20 ADD DUP1 DUP4 GT PUSH2 0x458 JUMPI DUP3 SWAP1 SUB PUSH1 0x1F AND DUP3 ADD SWAP2 JUMPDEST POP POP POP POP POP DUP2 JUMP JUMPDEST PUSH0 DUP1 PUSH20 0xFFFFFFFFFFFFFFFFFFFFFFFFFFFFFFFFFFFFFFFF AND PUSH1 0x4 PUSH0 DUP5 DUP2 MSTORE PUSH1 0x20 ADD SWAP1 DUP2 MSTORE PUSH1 0x20 ADD PUSH0 KECCAK256 PUSH0 SWAP1 SLOAD SWAP1 PUSH2 0x100 EXP SWAP1 DIV PUSH20 0xFFFFFFFFFFFFFFFFFFFFFFFFFFFFFFFFFFFFFFFF AND PUSH20 0xFFFFFFFFFFFFFFFFFFFFFFFFFFFFFFFFFFFFFFFF AND SUB PUSH2 0x51C JUMPI PUSH1 0x40 MLOAD PUSH32 0x8C379A000000000000000000000000000000000000000000000000000000000 DUP2 MSTORE PUSH1 0x4 ADD PUSH2 0x513 SWAP1 PUSH2 0x1949 JUMP JUMPDEST PUSH1 0x40 MLOAD DUP1 SWAP2 SUB SWAP1 REVERT JUMPDEST PUSH1 0x4 PUSH0 DUP4 DUP2 MSTORE PUSH1 0x20 ADD SWAP1 DUP2 MSTORE PUSH1 0x20 ADD PUSH0 KECCAK256 PUSH0 SWAP1 SLOAD SWAP1 PUSH2 0x100 EXP SWAP1 DIV PUSH20 0xFFFFFFFFFFFFFFFFFFFFFFFFFFFFFFFFFFFFFFFF AND SWAP1 POP SWAP2 SWAP1 POP JUMP JUMPDEST PUSH0 PUSH1 0x2 PUSH0 DUP4 DUP2 MSTORE PUSH1 0x20 ADD SWAP1 DUP2 MSTORE PUSH1 0x20 ADD PUSH0 KECCAK256 PUSH0 SWAP1 SLOAD SWAP1 PUSH2 0x100 EXP SWAP1 DIV PUSH20 0xFFFFFFFFFFFFFFFFFFFFFFFFFFFFFFFFFFFFFFFF AND SWAP1 POP DUP1 PUSH20 0xFFFFFFFFFFFFFFFFFFFFFFFFFFFFFFFFFFFFFFFF AND CALLER PUSH20 0xFFFFFFFFFFFFFFFFFFFFFFFFFFFFFFFFFFFFFFFF AND EQ DUP1 PUSH2 0x643 JUMPI POP PUSH1 0x5 PUSH0 DUP3 PUSH20 0xFFFFFFFFFFFFFFFFFFFFFFFFFFFFFFFFFFFFFFFF AND PUSH20 0xFFFFFFFFFFFFFFFFFFFFFFFFFFFFFFFFFFFFFFFF AND DUP2 MSTORE PUSH1 0x20 ADD SWAP1 DUP2 MSTORE PUSH1 0x20 ADD PUSH0 KECCAK256 PUSH0 CALLER PUSH20 0xFFFFFFFFFFFFFFFFFFFFFFFFFFFFFFFFFFFFFFFF AND PUSH20 0xFFFFFFFFFFFFFFFFFFFFFFFFFFFFFFFFFFFFFFFF AND DUP2 MSTORE PUSH1 0x20 ADD SWAP1 DUP2 MSTORE PUSH1 0x20 ADD PUSH0 KECCAK256 PUSH0 SWAP1 SLOAD SWAP1 PUSH2 0x100 EXP SWAP1 DIV PUSH1 0xFF AND JUMPDEST PUSH2 0x682 JUMPI PUSH1 0x40 MLOAD PUSH32 0x8C379A000000000000000000000000000000000000000000000000000000000 DUP2 MSTORE PUSH1 0x4 ADD PUSH2 0x679 SWAP1 PUSH2 0x19B1 JUMP JUMPDEST PUSH1 0x40 MLOAD DUP1 SWAP2 SUB SWAP1 REVERT JUMPDEST PUSH2 0x68D DUP2 DUP5 DUP5 PUSH2 0xBEA JUMP JUMPDEST POP POP POP JUMP JUMPDEST PUSH0 PUSH2 0x69C DUP3 PUSH2 0x719 JUMP JUMPDEST SWAP1 POP PUSH2 0x6A9 DUP2 CALLER DUP5 PUSH2 0xC99 JUMP JUMPDEST PUSH2 0x6E8 JUMPI PUSH1 0x40 MLOAD PUSH32 0x8C379A000000000000000000000000000000000000000000000000000000000 DUP2 MSTORE PUSH1 0x4 ADD PUSH2 0x6DF SWAP1 PUSH2 0x1A19 JUMP JUMPDEST PUSH1 0x40 MLOAD DUP1 SWAP2 SUB SWAP1 REVERT JUMPDEST PUSH2 0x6F4 DUP2 DUP6 DUP6 DUP6 PUSH2 0xDC4 JUMP JUMPDEST POP POP POP POP JUMP JUMPDEST PUSH2 0x714 DUP4 DUP4 DUP4 PUSH1 0x40 MLOAD DUP1 PUSH1 0x20 ADD PUSH1 0x40 MSTORE DUP1 PUSH0 DUP2 MSTORE POP PUSH2 0x9F8 JUMP JUMPDEST POP POP POP JUMP JUMPDEST PUSH0 PUSH1 0x2 PUSH0 DUP4 DUP2 MSTORE PUSH1 0x20 ADD SWAP1 DUP2 MSTORE PUSH1 0x20 ADD PUSH0 KECCAK256 PUSH0 SWAP1 SLOAD SWAP1 PUSH2 0x100 EXP SWAP1 DIV PUSH20 0xFFFFFFFFFFFFFFFFFFFFFFFFFFFFFFFFFFFFFFFF AND SWAP1 POP PUSH0 PUSH20 0xFFFFFFFFFFFFFFFFFFFFFFFFFFFFFFFFFFFFFFFF AND DUP2 PUSH20 0xFFFFFFFFFFFFFFFFFFFFFFFFFFFFFFFFFFFFFFFF AND SUB PUSH2 0x7BB JUMPI PUSH1 0x40 MLOAD PUSH32 0x8C379A000000000000000000000000000000000000000000000000000000000 DUP2 MSTORE PUSH1 0x4 ADD PUSH2 0x7B2 SWAP1 PUSH2 0x1A81 JUMP JUMPDEST PUSH1 0x40 MLOAD DUP1 SWAP2 SUB SWAP1 REVERT JUMPDEST SWAP2 SWAP1 POP JUMP JUMPDEST PUSH0 DUP1 PUSH20 0xFFFFFFFFFFFFFFFFFFFFFFFFFFFFFFFFFFFFFFFF AND DUP3 PUSH20 0xFFFFFFFFFFFFFFFFFFFFFFFFFFFFFFFFFFFFFFFF AND SUB PUSH2 0x82F JUMPI PUSH1 0x40 MLOAD PUSH32 0x8C379A000000000000000000000000000000000000000000000000000000000 DUP2 MSTORE PUSH1 0x4 ADD PUSH2 0x826 SWAP1 PUSH2 0x1AE9 JUMP JUMPDEST PUSH1 0x40 MLOAD DUP1 SWAP2 SUB SWAP1 REVERT JUMPDEST PUSH1 0x3 PUSH0 DUP4 PUSH20 0xFFFFFFFFFFFFFFFFFFFFFFFFFFFFFFFFFFFFFFFF AND PUSH20 0xFFFFFFFFFFFFFFFFFFFFFFFFFFFFFFFFFFFFFFFF AND DUP2 MSTORE PUSH1 0x20 ADD SWAP1 DUP2 MSTORE PUSH1 0x20 ADD PUSH0 KECCAK256 SLOAD SWAP1 POP SWAP2 SWAP1 POP JUMP JUMPDEST PUSH1 0x1 DUP1 SLOAD PUSH2 0x881 SWAP1 PUSH2 0x18CF JUMP JUMPDEST DUP1 PUSH1 0x1F ADD PUSH1 0x20 DUP1 SWAP2 DIV MUL PUSH1 0x20 ADD PUSH1 0x40 MLOAD SWAP1 DUP2 ADD PUSH1 0x40 MSTORE DUP1 SWAP3 SWAP2 SWAP1 DUP2 DUP2 MSTORE PUSH1 0x20 ADD DUP3 DUP1 SLOAD PUSH2 0x8AD SWAP1 PUSH2 0x18CF JUMP JUMPDEST DUP1 ISZERO PUSH2 0x8F8 JUMPI DUP1 PUSH1 0x1F LT PUSH2 0x8CF JUMPI PUSH2 0x100 DUP1 DUP4 SLOAD DIV MUL DUP4 MSTORE SWAP2 PUSH1 0x20 ADD SWAP2 PUSH2 0x8F8 JUMP JUMPDEST DUP3 ADD SWAP2 SWAP1 PUSH0 MSTORE PUSH1 0x20 PUSH0 KECCAK256 SWAP1 JUMPDEST DUP2 SLOAD DUP2 MSTORE SWAP1 PUSH1 0x1 ADD SWAP1 PUSH1 0x20 ADD DUP1 DUP4 GT PUSH2 0x8DB JUMPI DUP3 SWAP1 SUB PUSH1 0x1F AND DUP3 ADD SWAP2 JUMPDEST POP POP POP POP POP DUP2 JUMP JUMPDEST DUP1 PUSH1 0x5 PUSH0 CALLER PUSH20 0xFFFFFFFFFFFFFFFFFFFFFFFFFFFFFFFFFFFFFFFF AND PUSH20 0xFFFFFFFFFFFFFFFFFFFFFFFFFFFFFFFFFFFFFFFF AND DUP2 MSTORE PUSH1 0x20 ADD SWAP1 DUP2 MSTORE PUSH1 0x20 ADD PUSH0 KECCAK256 PUSH0 DUP5 PUSH20 0xFFFFFFFFFFFFFFFFFFFFFFFFFFFFFFFFFFFFFFFF AND PUSH20 0xFFFFFFFFFFFFFFFFFFFFFFFFFFFFFFFFFFFFFFFF AND DUP2 MSTORE PUSH1 0x20 ADD SWAP1 DUP2 MSTORE PUSH1 0x20 ADD PUSH0 KECCAK256 PUSH0 PUSH2 0x100 EXP DUP2 SLOAD DUP2 PUSH1 0xFF MUL NOT AND SWAP1 DUP4 ISZERO ISZERO MUL OR SWAP1 SSTORE POP DUP2 PUSH20 0xFFFFFFFFFFFFFFFFFFFFFFFFFFFFFFFFFFFFFFFF AND CALLER PUSH20 0xFFFFFFFFFFFFFFFFFFFFFFFFFFFFFFFFFFFFFFFF AND PUSH32 0x17307EAB39AB6107E8899845AD3D59BD9653F200F220920489CA2B5937696C31 DUP4 PUSH1 0x40 MLOAD PUSH2 0x9EC SWAP2 SWAP1 PUSH2 0x13E6 JUMP JUMPDEST PUSH1 0x40 MLOAD DUP1 SWAP2 SUB SWAP1 LOG3 POP POP JUMP JUMPDEST PUSH0 PUSH2 0xA02 DUP4 PUSH2 0x719 JUMP JUMPDEST SWAP1 POP PUSH2 0xA0F DUP2 CALLER DUP6 PUSH2 0xC99 JUMP JUMPDEST PUSH2 0xA4E JUMPI PUSH1 0x40 MLOAD PUSH32 0x8C379A000000000000000000000000000000000000000000000000000000000 DUP2 MSTORE PUSH1 0x4 ADD PUSH2 0xA45 SWAP1 PUSH2 0x1B51 JUMP JUMPDEST PUSH1 0x40 MLOAD DUP1 SWAP2 SUB SWAP1 REVERT JUMPDEST PUSH2 0xA5B DUP2 DUP7 DUP7 DUP7 DUP7 PUSH2 0x1003 JUMP JUMPDEST POP POP POP POP POP JUMP JUMPDEST PUSH1 0x60 PUSH0 PUSH20 0xFFFFFFFFFFFFFFFFFFFFFFFFFFFFFFFFFFFFFFFF AND PUSH1 0x2 PUSH0 DUP5 DUP2 MSTORE PUSH1 0x20 ADD SWAP1 DUP2 MSTORE PUSH1 0x20 ADD PUSH0 KECCAK256 PUSH0 SWAP1 SLOAD SWAP1 PUSH2 0x100 EXP SWAP1 DIV PUSH20 0xFFFFFFFFFFFFFFFFFFFFFFFFFFFFFFFFFFFFFFFF AND PUSH20 0xFFFFFFFFFFFFFFFFFFFFFFFFFFFFFFFFFFFFFFFF AND SUB PUSH2 0xB02 JUMPI PUSH1 0x40 MLOAD PUSH32 0x8C379A000000000000000000000000000000000000000000000000000000000 DUP2 MSTORE PUSH1 0x4 ADD PUSH2 0xAF9 SWAP1 PUSH2 0x1BB9 JUMP JUMPDEST PUSH1 0x40 MLOAD DUP1 SWAP2 SUB SWAP1 REVERT JUMPDEST PUSH0 PUSH2 0xB0B PUSH2 0x1022 JUMP JUMPDEST SWAP1 POP PUSH0 DUP2 MLOAD GT PUSH2 0xB29 JUMPI PUSH1 0x40 MLOAD DUP1 PUSH1 0x20 ADD PUSH1 0x40 MSTORE DUP1 PUSH0 DUP2 MSTORE POP PUSH2 0xB54 JUMP JUMPDEST DUP1 PUSH2 0xB33 DUP5 PUSH2 0x1038 JUMP JUMPDEST PUSH1 0x40 MLOAD PUSH1 0x20 ADD PUSH2 0xB44 SWAP3 SWAP2 SWAP1 PUSH2 0x1C11 JUMP JUMPDEST PUSH1 0x40 MLOAD PUSH1 0x20 DUP2 DUP4 SUB SUB DUP2 MSTORE SWAP1 PUSH1 0x40 MSTORE JUMPDEST SWAP2 POP POP SWAP2 SWAP1 POP JUMP JUMPDEST PUSH0 PUSH1 0x5 PUSH0 DUP5 PUSH20 0xFFFFFFFFFFFFFFFFFFFFFFFFFFFFFFFFFFFFFFFF AND PUSH20 0xFFFFFFFFFFFFFFFFFFFFFFFFFFFFFFFFFFFFFFFF AND DUP2 MSTORE PUSH1 0x20 ADD SWAP1 DUP2 MSTORE PUSH1 0x20 ADD PUSH0 KECCAK256 PUSH0 DUP4 PUSH20 0xFFFFFFFFFFFFFFFFFFFFFFFFFFFFFFFFFFFFFFFF AND PUSH20 0xFFFFFFFFFFFFFFFFFFFFFFFFFFFFFFFFFFFFFFFF AND DUP2 MSTORE PUSH1 0x20 ADD SWAP1 DUP2 MSTORE PUSH1 0x20 ADD PUSH0 KECCAK256 PUSH0 SWAP1 SLOAD SWAP1 PUSH2 0x100 EXP SWAP1 DIV PUSH1 0xFF AND SWAP1 POP SWAP3 SWAP2 POP POP JUMP JUMPDEST DUP2 PUSH1 0x4 PUSH0 DUP4 DUP2 MSTORE PUSH1 0x20 ADD SWAP1 DUP2 MSTORE PUSH1 0x20 ADD PUSH0 KECCAK256 PUSH0 PUSH2 0x100 EXP DUP2 SLOAD DUP2 PUSH20 0xFFFFFFFFFFFFFFFFFFFFFFFFFFFFFFFFFFFFFFFF MUL NOT AND SWAP1 DUP4 PUSH20 0xFFFFFFFFFFFFFFFFFFFFFFFFFFFFFFFFFFFFFFFF AND MUL OR SWAP1 SSTORE POP DUP1 DUP3 PUSH20 0xFFFFFFFFFFFFFFFFFFFFFFFFFFFFFFFFFFFFFFFF AND DUP5 PUSH20 0xFFFFFFFFFFFFFFFFFFFFFFFFFFFFFFFFFFFFFFFF AND PUSH32 0x8C5BE1E5EBEC7D5BD14F71427D1E84F3DD0314C0F7B2291E5B200AC8C7C3B925 PUSH1 0x40 MLOAD PUSH1 0x40 MLOAD DUP1 SWAP2 SUB SWAP1 LOG4 POP POP POP JUMP JUMPDEST PUSH0 DUP4 PUSH20 0xFFFFFFFFFFFFFFFFFFFFFFFFFFFFFFFFFFFFFFFF AND DUP4 PUSH20 0xFFFFFFFFFFFFFFFFFFFFFFFFFFFFFFFFFFFFFFFF AND EQ DUP1 PUSH2 0xD2F JUMPI POP DUP3 PUSH20 0xFFFFFFFFFFFFFFFFFFFFFFFFFFFFFFFFFFFFFFFF AND PUSH1 0x4 PUSH0 DUP5 DUP2 MSTORE PUSH1 0x20 ADD SWAP1 DUP2 MSTORE PUSH1 0x20 ADD PUSH0 KECCAK256 PUSH0 SWAP1 SLOAD SWAP1 PUSH2 0x100 EXP SWAP1 DIV PUSH20 0xFFFFFFFFFFFFFFFFFFFFFFFFFFFFFFFFFFFFFFFF AND PUSH20 0xFFFFFFFFFFFFFFFFFFFFFFFFFFFFFFFFFFFFFFFF AND EQ JUMPDEST DUP1 PUSH2 0xDBB JUMPI POP PUSH1 0x5 PUSH0 DUP6 PUSH20 0xFFFFFFFFFFFFFFFFFFFFFFFFFFFFFFFFFFFFFFFF AND PUSH20 0xFFFFFFFFFFFFFFFFFFFFFFFFFFFFFFFFFFFFFFFF AND DUP2 MSTORE PUSH1 0x20 ADD SWAP1 DUP2 MSTORE PUSH1 0x20 ADD PUSH0 KECCAK256 PUSH0 DUP5 PUSH20 0xFFFFFFFFFFFFFFFFFFFFFFFFFFFFFFFFFFFFFFFF AND PUSH20 0xFFFFFFFFFFFFFFFFFFFFFFFFFFFFFFFFFFFFFFFF AND DUP2 MSTORE PUSH1 0x20 ADD SWAP1 DUP2 MSTORE PUSH1 0x20 ADD PUSH0 KECCAK256 PUSH0 SWAP1 SLOAD SWAP1 PUSH2 0x100 EXP SWAP1 DIV PUSH1 0xFF AND JUMPDEST SWAP1 POP SWAP4 SWAP3 POP POP POP JUMP JUMPDEST DUP4 PUSH20 0xFFFFFFFFFFFFFFFFFFFFFFFFFFFFFFFFFFFFFFFF AND DUP4 PUSH20 0xFFFFFFFFFFFFFFFFFFFFFFFFFFFFFFFFFFFFFFFF AND EQ PUSH2 0xE32 JUMPI PUSH1 0x40 MLOAD PUSH32 0x8C379A000000000000000000000000000000000000000000000000000000000 DUP2 MSTORE PUSH1 0x4 ADD PUSH2 0xE29 SWAP1 PUSH2 0x1C7E JUMP JUMPDEST PUSH1 0x40 MLOAD DUP1 SWAP2 SUB SWAP1 REVERT JUMPDEST PUSH0 PUSH20 0xFFFFFFFFFFFFFFFFFFFFFFFFFFFFFFFFFFFFFFFF AND DUP3 PUSH20 0xFFFFFFFFFFFFFFFFFFFFFFFFFFFFFFFFFFFFFFFF AND SUB PUSH2 0xEA0 JUMPI PUSH1 0x40 MLOAD PUSH32 0x8C379A000000000000000000000000000000000000000000000000000000000 DUP2 MSTORE PUSH1 0x4 ADD PUSH2 0xE97 SWAP1 PUSH2 0x1CE6 JUMP JUMPDEST PUSH1 0x40 MLOAD DUP1 SWAP2 SUB SWAP1 REVERT JUMPDEST PUSH2 0xEAB DUP5 PUSH0 DUP4 PUSH2 0xBEA JUMP JUMPDEST PUSH1 0x1 PUSH1 0x3 PUSH0 DUP6 PUSH20 0xFFFFFFFFFFFFFFFFFFFFFFFFFFFFFFFFFFFFFFFF AND PUSH20 0xFFFFFFFFFFFFFFFFFFFFFFFFFFFFFFFFFFFFFFFF AND DUP2 MSTORE PUSH1 0x20 ADD SWAP1 DUP2 MSTORE PUSH1 0x20 ADD PUSH0 KECCAK256 PUSH0 DUP3 DUP3 SLOAD PUSH2 0xEF8 SWAP2 SWAP1 PUSH2 0x1D31 JUMP JUMPDEST SWAP3 POP POP DUP2 SWAP1 SSTORE POP PUSH1 0x1 PUSH1 0x3 PUSH0 DUP5 PUSH20 0xFFFFFFFFFFFFFFFFFFFFFFFFFFFFFFFFFFFFFFFF AND PUSH20 0xFFFFFFFFFFFFFFFFFFFFFFFFFFFFFFFFFFFFFFFF AND DUP2 MSTORE PUSH1 0x20 ADD SWAP1 DUP2 MSTORE PUSH1 0x20 ADD PUSH0 KECCAK256 PUSH0 DUP3 DUP3 SLOAD PUSH2 0xF4C SWAP2 SWAP1 PUSH2 0x1D64 JUMP JUMPDEST SWAP3 POP POP DUP2 SWAP1 SSTORE POP DUP2 PUSH1 0x2 PUSH0 DUP4 DUP2 MSTORE PUSH1 0x20 ADD SWAP1 DUP2 MSTORE PUSH1 0x20 ADD PUSH0 KECCAK256 PUSH0 PUSH2 0x100 EXP DUP2 SLOAD DUP2 PUSH20 0xFFFFFFFFFFFFFFFFFFFFFFFFFFFFFFFFFFFFFFFF MUL NOT AND SWAP1 DUP4 PUSH20 0xFFFFFFFFFFFFFFFFFFFFFFFFFFFFFFFFFFFFFFFF AND MUL OR SWAP1 SSTORE POP DUP1 DUP3 PUSH20 0xFFFFFFFFFFFFFFFFFFFFFFFFFFFFFFFFFFFFFFFF AND DUP5 PUSH20 0xFFFFFFFFFFFFFFFFFFFFFFFFFFFFFFFFFFFFFFFF AND PUSH32 0xDDF252AD1BE2C89B69C2B068FC378DAA952BA7F163C4A11628F55A4DF523B3EF PUSH1 0x40 MLOAD PUSH1 0x40 MLOAD DUP1 SWAP2 SUB SWAP1 LOG4 POP POP POP POP JUMP JUMPDEST PUSH2 0x100F DUP6 DUP6 DUP6 DUP6 PUSH2 0xDC4 JUMP JUMPDEST PUSH2 0x101B DUP5 DUP5 DUP5 DUP5 PUSH2 0x1190 JUMP JUMPDEST POP POP POP POP POP JUMP JUMPDEST PUSH1 0x60 PUSH1 0x40 MLOAD DUP1 PUSH1 0x20 ADD PUSH1 0x40 MSTORE DUP1 PUSH0 DUP2 MSTORE POP SWAP1 POP SWAP1 JUMP JUMPDEST PUSH1 0x60 PUSH0 DUP3 SUB PUSH2 0x107E JUMPI PUSH1 0x40 MLOAD DUP1 PUSH1 0x40 ADD PUSH1 0x40 MSTORE DUP1 PUSH1 0x1 DUP2 MSTORE PUSH1 0x20 ADD PUSH32 0x3000000000000000000000000000000000000000000000000000000000000000 DUP2 MSTORE POP SWAP1 POP PUSH2 0x118B JUMP JUMPDEST PUSH0 DUP3 SWAP1 POP PUSH0 JUMPDEST PUSH0 DUP3 EQ PUSH2 0x10AD JUMPI DUP1 DUP1 PUSH2 0x1096 SWAP1 PUSH2 0x1D97 JUMP JUMPDEST SWAP2 POP POP PUSH1 0xA DUP3 PUSH2 0x10A6 SWAP2 SWAP1 PUSH2 0x1E0B JUMP JUMPDEST SWAP2 POP PUSH2 0x1084 JUMP JUMPDEST PUSH0 DUP2 PUSH8 0xFFFFFFFFFFFFFFFF DUP2 GT ISZERO PUSH2 0x10C8 JUMPI PUSH2 0x10C7 PUSH2 0x16C0 JUMP JUMPDEST JUMPDEST PUSH1 0x40 MLOAD SWAP1 DUP1 DUP3 MSTORE DUP1 PUSH1 0x1F ADD PUSH1 0x1F NOT AND PUSH1 0x20 ADD DUP3 ADD PUSH1 0x40 MSTORE DUP1 ISZERO PUSH2 0x10FA JUMPI DUP2 PUSH1 0x20 ADD PUSH1 0x1 DUP3 MUL DUP1 CALLDATASIZE DUP4 CALLDATACOPY DUP1 DUP3 ADD SWAP2 POP POP SWAP1 POP JUMPDEST POP SWAP1 POP JUMPDEST PUSH0 DUP6 EQ PUSH2 0x1184 JUMPI DUP2 DUP1 PUSH2 0x1110 SWAP1 PUSH2 0x1E3B JUMP JUMPDEST SWAP3 POP POP PUSH1 0xA DUP6 PUSH2 0x1120 SWAP2 SWAP1 PUSH2 0x1E62 JUMP JUMPDEST PUSH1 0x30 PUSH2 0x112C SWAP2 SWAP1 PUSH2 0x1D64 JUMP JUMPDEST PUSH1 0xF8 SHL DUP2 DUP4 DUP2 MLOAD DUP2 LT PUSH2 0x1142 JUMPI PUSH2 0x1141 PUSH2 0x1E92 JUMP JUMPDEST JUMPDEST PUSH1 0x20 ADD ADD SWAP1 PUSH31 0xFFFFFFFFFFFFFFFFFFFFFFFFFFFFFFFFFFFFFFFFFFFFFFFFFFFFFFFFFFFFFF NOT AND SWAP1 DUP2 PUSH0 BYTE SWAP1 MSTORE8 POP PUSH1 0xA DUP6 PUSH2 0x117D SWAP2 SWAP1 PUSH2 0x1E0B JUMP JUMPDEST SWAP5 POP PUSH2 0x10FE JUMP JUMPDEST DUP1 SWAP4 POP POP POP POP JUMPDEST SWAP2 SWAP1 POP JUMP JUMPDEST PUSH0 DUP4 PUSH20 0xFFFFFFFFFFFFFFFFFFFFFFFFFFFFFFFFFFFFFFFF AND EXTCODESIZE GT ISZERO PUSH2 0x1335 JUMPI DUP3 PUSH20 0xFFFFFFFFFFFFFFFFFFFFFFFFFFFFFFFFFFFFFFFF AND PUSH4 0x150B7A02 CALLER DUP7 DUP6 DUP6 PUSH1 0x40 MLOAD DUP6 PUSH4 0xFFFFFFFF AND PUSH1 0xE0 SHL DUP2 MSTORE PUSH1 0x4 ADD PUSH2 0x11EE SWAP5 SWAP4 SWAP3 SWAP2 SWAP1 PUSH2 0x1F11 JUMP JUMPDEST PUSH1 0x20 PUSH1 0x40 MLOAD DUP1 DUP4 SUB DUP2 PUSH0 DUP8 GAS CALL SWAP3 POP POP POP DUP1 ISZERO PUSH2 0x1229 JUMPI POP PUSH1 0x40 MLOAD RETURNDATASIZE PUSH1 0x1F NOT PUSH1 0x1F DUP3 ADD AND DUP3 ADD DUP1 PUSH1 0x40 MSTORE POP DUP2 ADD SWAP1 PUSH2 0x1226 SWAP2 SWAP1 PUSH2 0x1F6F JUMP JUMPDEST PUSH1 0x1 JUMPDEST PUSH2 0x12AA JUMPI RETURNDATASIZE DUP1 PUSH0 DUP2 EQ PUSH2 0x1257 JUMPI PUSH1 0x40 MLOAD SWAP2 POP PUSH1 0x1F NOT PUSH1 0x3F RETURNDATASIZE ADD AND DUP3 ADD PUSH1 0x40 MSTORE RETURNDATASIZE DUP3 MSTORE RETURNDATASIZE PUSH0 PUSH1 0x20 DUP5 ADD RETURNDATACOPY PUSH2 0x125C JUMP JUMPDEST PUSH1 0x60 SWAP2 POP JUMPDEST POP PUSH0 DUP2 MLOAD SUB PUSH2 0x12A2 JUMPI DUP4 PUSH1 0x40 MLOAD PUSH32 0x64A0AE9200000000000000000000000000000000000000000000000000000000 DUP2 MSTORE PUSH1 0x4 ADD PUSH2 0x1299 SWAP2 SWAP1 PUSH2 0x152C JUMP JUMPDEST PUSH1 0x40 MLOAD DUP1 SWAP2 SUB SWAP1 REVERT JUMPDEST DUP1 MLOAD DUP2 PUSH1 0x20 ADD REVERT JUMPDEST PUSH4 0x150B7A02 PUSH1 0xE0 SHL PUSH28 0xFFFFFFFFFFFFFFFFFFFFFFFFFFFFFFFFFFFFFFFFFFFFFFFFFFFFFFFF NOT AND DUP2 PUSH28 0xFFFFFFFFFFFFFFFFFFFFFFFFFFFFFFFFFFFFFFFFFFFFFFFFFFFFFFFF NOT AND EQ PUSH2 0x1333 JUMPI DUP4 PUSH1 0x40 MLOAD PUSH32 0x64A0AE9200000000000000000000000000000000000000000000000000000000 DUP2 MSTORE PUSH1 0x4 ADD PUSH2 0x132A SWAP2 SWAP1 PUSH2 0x152C JUMP JUMPDEST PUSH1 0x40 MLOAD DUP1 SWAP2 SUB SWAP1 REVERT JUMPDEST POP JUMPDEST POP POP POP POP JUMP JUMPDEST PUSH0 PUSH1 0x40 MLOAD SWAP1 POP SWAP1 JUMP JUMPDEST PUSH0 DUP1 REVERT JUMPDEST PUSH0 DUP1 REVERT JUMPDEST PUSH0 PUSH32 0xFFFFFFFF00000000000000000000000000000000000000000000000000000000 DUP3 AND SWAP1 POP SWAP2 SWAP1 POP JUMP JUMPDEST PUSH2 0x1380 DUP2 PUSH2 0x134C JUMP JUMPDEST DUP2 EQ PUSH2 0x138A JUMPI PUSH0 DUP1 REVERT JUMPDEST POP JUMP JUMPDEST PUSH0 DUP2 CALLDATALOAD SWAP1 POP PUSH2 0x139B DUP2 PUSH2 0x1377 JUMP JUMPDEST SWAP3 SWAP2 POP POP JUMP JUMPDEST PUSH0 PUSH1 0x20 DUP3 DUP5 SUB SLT ISZERO PUSH2 0x13B6 JUMPI PUSH2 0x13B5 PUSH2 0x1344 JUMP JUMPDEST JUMPDEST PUSH0 PUSH2 0x13C3 DUP5 DUP3 DUP6 ADD PUSH2 0x138D JUMP JUMPDEST SWAP2 POP POP SWAP3 SWAP2 POP POP JUMP JUMPDEST PUSH0 DUP2 ISZERO ISZERO SWAP1 POP SWAP2 SWAP1 POP JUMP JUMPDEST PUSH2 0x13E0 DUP2 PUSH2 0x13CC JUMP JUMPDEST DUP3 MSTORE POP POP JUMP JUMPDEST PUSH0 PUSH1 0x20 DUP3 ADD SWAP1 POP PUSH2 0x13F9 PUSH0 DUP4 ADD DUP5 PUSH2 0x13D7 JUMP JUMPDEST SWAP3 SWAP2 POP POP JUMP JUMPDEST PUSH0 DUP2 MLOAD SWAP1 POP SWAP2 SWAP1 POP JUMP JUMPDEST PUSH0 DUP3 DUP3 MSTORE PUSH1 0x20 DUP3 ADD SWAP1 POP SWAP3 SWAP2 POP POP JUMP JUMPDEST DUP3 DUP2 DUP4 MCOPY PUSH0 DUP4 DUP4 ADD MSTORE POP POP POP JUMP JUMPDEST PUSH0 PUSH1 0x1F NOT PUSH1 0x1F DUP4 ADD AND SWAP1 POP SWAP2 SWAP1 POP JUMP JUMPDEST PUSH0 PUSH2 0x1441 DUP3 PUSH2 0x13FF JUMP JUMPDEST PUSH2 0x144B DUP2 DUP6 PUSH2 0x1409 JUMP JUMPDEST SWAP4 POP PUSH2 0x145B DUP2 DUP6 PUSH1 0x20 DUP7 ADD PUSH2 0x1419 JUMP JUMPDEST PUSH2 0x1464 DUP2 PUSH2 0x1427 JUMP JUMPDEST DUP5 ADD SWAP2 POP POP SWAP3 SWAP2 POP POP JUMP JUMPDEST PUSH0 PUSH1 0x20 DUP3 ADD SWAP1 POP DUP2 DUP2 SUB PUSH0 DUP4 ADD MSTORE PUSH2 0x1487 DUP2 DUP5 PUSH2 0x1437 JUMP JUMPDEST SWAP1 POP SWAP3 SWAP2 POP POP JUMP JUMPDEST PUSH0 DUP2 SWAP1 POP SWAP2 SWAP1 POP JUMP JUMPDEST PUSH2 0x14A1 DUP2 PUSH2 0x148F JUMP JUMPDEST DUP2 EQ PUSH2 0x14AB JUMPI PUSH0 DUP1 REVERT JUMPDEST POP JUMP JUMPDEST PUSH0 DUP2 CALLDATALOAD SWAP1 POP PUSH2 0x14BC DUP2 PUSH2 0x1498 JUMP JUMPDEST SWAP3 SWAP2 POP POP JUMP JUMPDEST PUSH0 PUSH1 0x20 DUP3 DUP5 SUB SLT ISZERO PUSH2 0x14D7 JUMPI PUSH2 0x14D6 PUSH2 0x1344 JUMP JUMPDEST JUMPDEST PUSH0 PUSH2 0x14E4 DUP5 DUP3 DUP6 ADD PUSH2 0x14AE JUMP JUMPDEST SWAP2 POP POP SWAP3 SWAP2 POP POP JUMP JUMPDEST PUSH0 PUSH20 0xFFFFFFFFFFFFFFFFFFFFFFFFFFFFFFFFFFFFFFFF DUP3 AND SWAP1 POP SWAP2 SWAP1 POP JUMP JUMPDEST PUSH0 PUSH2 0x1516 DUP3 PUSH2 0x14ED JUMP JUMPDEST SWAP1 POP SWAP2 SWAP1 POP JUMP JUMPDEST PUSH2 0x1526 DUP2 PUSH2 0x150C JUMP JUMPDEST DUP3 MSTORE POP POP JUMP JUMPDEST PUSH0 PUSH1 0x20 DUP3 ADD SWAP1 POP PUSH2 0x153F PUSH0 DUP4 ADD DUP5 PUSH2 0x151D JUMP JUMPDEST SWAP3 SWAP2 POP POP JUMP JUMPDEST PUSH2 0x154E DUP2 PUSH2 0x150C JUMP JUMPDEST DUP2 EQ PUSH2 0x1558 JUMPI PUSH0 DUP1 REVERT JUMPDEST POP JUMP JUMPDEST PUSH0 DUP2 CALLDATALOAD SWAP1 POP PUSH2 0x1569 DUP2 PUSH2 0x1545 JUMP JUMPDEST SWAP3 SWAP2 POP POP JUMP JUMPDEST PUSH0 DUP1 PUSH1 0x40 DUP4 DUP6 SUB SLT ISZERO PUSH2 0x1585 JUMPI PUSH2 0x1584 PUSH2 0x1344 JUMP JUMPDEST JUMPDEST PUSH0 PUSH2 0x1592 DUP6 DUP3 DUP7 ADD PUSH2 0x155B JUMP JUMPDEST SWAP3 POP POP PUSH1 0x20 PUSH2 0x15A3 DUP6 DUP3 DUP7 ADD PUSH2 0x14AE JUMP JUMPDEST SWAP2 POP POP SWAP3 POP SWAP3 SWAP1 POP JUMP JUMPDEST PUSH0 DUP1 PUSH0 PUSH1 0x60 DUP5 DUP7 SUB SLT ISZERO PUSH2 0x15C4 JUMPI PUSH2 0x15C3 PUSH2 0x1344 JUMP JUMPDEST JUMPDEST PUSH0 PUSH2 0x15D1 DUP7 DUP3 DUP8 ADD PUSH2 0x155B JUMP JUMPDEST SWAP4 POP POP PUSH1 0x20 PUSH2 0x15E2 DUP7 DUP3 DUP8 ADD PUSH2 0x155B JUMP JUMPDEST SWAP3 POP POP PUSH1 0x40 PUSH2 0x15F3 DUP7 DUP3 DUP8 ADD PUSH2 0x14AE JUMP JUMPDEST SWAP2 POP POP SWAP3 POP SWAP3 POP SWAP3 JUMP JUMPDEST PUSH0 PUSH1 0x20 DUP3 DUP5 SUB SLT ISZERO PUSH2 0x1612 JUMPI PUSH2 0x1611 PUSH2 0x1344 JUMP JUMPDEST JUMPDEST PUSH0 PUSH2 0x161F DUP5 DUP3 DUP6 ADD PUSH2 0x155B JUMP JUMPDEST SWAP2 POP POP SWAP3 SWAP2 POP POP JUMP JUMPDEST PUSH2 0x1631 DUP2 PUSH2 0x148F JUMP JUMPDEST DUP3 MSTORE POP POP JUMP JUMPDEST PUSH0 PUSH1 0x20 DUP3 ADD SWAP1 POP PUSH2 0x164A PUSH0 DUP4 ADD DUP5 PUSH2 0x1628 JUMP JUMPDEST SWAP3 SWAP2 POP POP JUMP JUMPDEST PUSH2 0x1659 DUP2 PUSH2 0x13CC JUMP JUMPDEST DUP2 EQ PUSH2 0x1663 JUMPI PUSH0 DUP1 REVERT JUMPDEST POP JUMP JUMPDEST PUSH0 DUP2 CALLDATALOAD SWAP1 POP PUSH2 0x1674 DUP2 PUSH2 0x1650 JUMP JUMPDEST SWAP3 SWAP2 POP POP JUMP JUMPDEST PUSH0 DUP1 PUSH1 0x40 DUP4 DUP6 SUB SLT ISZERO PUSH2 0x1690 JUMPI PUSH2 0x168F PUSH2 0x1344 JUMP JUMPDEST JUMPDEST PUSH0 PUSH2 0x169D DUP6 DUP3 DUP7 ADD PUSH2 0x155B JUMP JUMPDEST SWAP3 POP POP PUSH1 0x20 PUSH2 0x16AE DUP6 DUP3 DUP7 ADD PUSH2 0x1666 JUMP JUMPDEST SWAP2 POP POP SWAP3 POP SWAP3 SWAP1 POP JUMP JUMPDEST PUSH0 DUP1 REVERT JUMPDEST PUSH0 DUP1 REVERT JUMPDEST PUSH32 0x4E487B7100000000000000000000000000000000000000000000000000000000 PUSH0 MSTORE PUSH1 0x41 PUSH1 0x4 MSTORE PUSH1 0x24 PUSH0 REVERT JUMPDEST PUSH2 0x16F6 DUP3 PUSH2 0x1427 JUMP JUMPDEST DUP2 ADD DUP2 DUP2 LT PUSH8 0xFFFFFFFFFFFFFFFF DUP3 GT OR ISZERO PUSH2 0x1715 JUMPI PUSH2 0x1714 PUSH2 0x16C0 JUMP JUMPDEST JUMPDEST DUP1 PUSH1 0x40 MSTORE POP POP POP JUMP JUMPDEST PUSH0 PUSH2 0x1727 PUSH2 0x133B JUMP JUMPDEST SWAP1 POP PUSH2 0x1733 DUP3 DUP3 PUSH2 0x16ED JUMP JUMPDEST SWAP2 SWAP1 POP JUMP JUMPDEST PUSH0 PUSH8 0xFFFFFFFFFFFFFFFF DUP3 GT ISZERO PUSH2 0x1752 JUMPI PUSH2 0x1751 PUSH2 0x16C0 JUMP JUMPDEST JUMPDEST PUSH2 0x175B DUP3 PUSH2 0x1427 JUMP JUMPDEST SWAP1 POP PUSH1 0x20 DUP2 ADD SWAP1 POP SWAP2 SWAP1 POP JUMP JUMPDEST DUP3 DUP2 DUP4 CALLDATACOPY PUSH0 DUP4 DUP4 ADD MSTORE POP POP POP JUMP JUMPDEST PUSH0 PUSH2 0x1788 PUSH2 0x1783 DUP5 PUSH2 0x1738 JUMP JUMPDEST PUSH2 0x171E JUMP JUMPDEST SWAP1 POP DUP3 DUP2 MSTORE PUSH1 0x20 DUP2 ADD DUP5 DUP5 DUP5 ADD GT ISZERO PUSH2 0x17A4 JUMPI PUSH2 0x17A3 PUSH2 0x16BC JUMP JUMPDEST JUMPDEST PUSH2 0x17AF DUP5 DUP3 DUP6 PUSH2 0x1768 JUMP JUMPDEST POP SWAP4 SWAP3 POP POP POP JUMP JUMPDEST PUSH0 DUP3 PUSH1 0x1F DUP4 ADD SLT PUSH2 0x17CB JUMPI PUSH2 0x17CA PUSH2 0x16B8 JUMP JUMPDEST JUMPDEST DUP2 CALLDATALOAD PUSH2 0x17DB DUP5 DUP3 PUSH1 0x20 DUP7 ADD PUSH2 0x1776 JUMP JUMPDEST SWAP2 POP POP SWAP3 SWAP2 POP POP JUMP JUMPDEST PUSH0 DUP1 PUSH0 DUP1 PUSH1 0x80 DUP6 DUP8 SUB SLT ISZERO PUSH2 0x17FC JUMPI PUSH2 0x17FB PUSH2 0x1344 JUMP JUMPDEST JUMPDEST PUSH0 PUSH2 0x1809 DUP8 DUP3 DUP9 ADD PUSH2 0x155B JUMP JUMPDEST SWAP5 POP POP PUSH1 0x20 PUSH2 0x181A DUP8 DUP3 DUP9 ADD PUSH2 0x155B JUMP JUMPDEST SWAP4 POP POP PUSH1 0x40 PUSH2 0x182B DUP8 DUP3 DUP9 ADD PUSH2 0x14AE JUMP JUMPDEST SWAP3 POP POP PUSH1 0x60 DUP6 ADD CALLDATALOAD PUSH8 0xFFFFFFFFFFFFFFFF DUP2 GT ISZERO PUSH2 0x184C JUMPI PUSH2 0x184B PUSH2 0x1348 JUMP JUMPDEST JUMPDEST PUSH2 0x1858 DUP8 DUP3 DUP9 ADD PUSH2 0x17B7 JUMP JUMPDEST SWAP2 POP POP SWAP3 SWAP6 SWAP2 SWAP5 POP SWAP3 POP JUMP JUMPDEST PUSH0 DUP1 PUSH1 0x40 DUP4 DUP6 SUB SLT ISZERO PUSH2 0x187A JUMPI PUSH2 0x1879 PUSH2 0x1344 JUMP JUMPDEST JUMPDEST PUSH0 PUSH2 0x1887 DUP6 DUP3 DUP7 ADD PUSH2 0x155B JUMP JUMPDEST SWAP3 POP POP PUSH1 0x20 PUSH2 0x1898 DUP6 DUP3 DUP7 ADD PUSH2 0x155B JUMP JUMPDEST SWAP2 POP POP SWAP3 POP SWAP3 SWAP1 POP JUMP JUMPDEST PUSH32 0x4E487B7100000000000000000000000000000000000000000000000000000000 PUSH0 MSTORE PUSH1 0x22 PUSH1 0x4 MSTORE PUSH1 0x24 PUSH0 REVERT JUMPDEST PUSH0 PUSH1 0x2 DUP3 DIV SWAP1 POP PUSH1 0x1 DUP3 AND DUP1 PUSH2 0x18E6 JUMPI PUSH1 0x7F DUP3 AND SWAP2 POP JUMPDEST PUSH1 0x20 DUP3 LT DUP2 SUB PUSH2 0x18F9 JUMPI PUSH2 0x18F8 PUSH2 0x18A2 JUMP JUMPDEST JUMPDEST POP SWAP2 SWAP1 POP JUMP JUMPDEST PUSH32 0x746F6B656E206E6F742065786973740000000000000000000000000000000000 PUSH0 DUP3 ADD MSTORE POP JUMP JUMPDEST PUSH0 PUSH2 0x1933 PUSH1 0xF DUP4 PUSH2 0x1409 JUMP JUMPDEST SWAP2 POP PUSH2 0x193E DUP3 PUSH2 0x18FF JUMP JUMPDEST PUSH1 0x20 DUP3 ADD SWAP1 POP SWAP2 SWAP1 POP JUMP JUMPDEST PUSH0 PUSH1 0x20 DUP3 ADD SWAP1 POP DUP2 DUP2 SUB PUSH0 DUP4 ADD MSTORE PUSH2 0x1960 DUP2 PUSH2 0x1927 JUMP JUMPDEST SWAP1 POP SWAP2 SWAP1 POP JUMP JUMPDEST PUSH32 0x6E6F74206F776E6572206E6F7220617070726F76656420666F7220616C6C0000 PUSH0 DUP3 ADD MSTORE POP JUMP JUMPDEST PUSH0 PUSH2 0x199B PUSH1 0x1E DUP4 PUSH2 0x1409 JUMP JUMPDEST SWAP2 POP PUSH2 0x19A6 DUP3 PUSH2 0x1967 JUMP JUMPDEST PUSH1 0x20 DUP3 ADD SWAP1 POP SWAP2 SWAP1 POP JUMP JUMPDEST PUSH0 PUSH1 0x20 DUP3 ADD SWAP1 POP DUP2 DUP2 SUB PUSH0 DUP4 ADD MSTORE PUSH2 0x19C8 DUP2 PUSH2 0x198F JUMP JUMPDEST SWAP1 POP SWAP2 SWAP1 POP JUMP JUMPDEST PUSH32 0x6E6F74206F776E6572206E6F7220617070726F76656400000000000000000000 PUSH0 DUP3 ADD MSTORE POP JUMP JUMPDEST PUSH0 PUSH2 0x1A03 PUSH1 0x16 DUP4 PUSH2 0x1409 JUMP JUMPDEST SWAP2 POP PUSH2 0x1A0E DUP3 PUSH2 0x19CF JUMP JUMPDEST PUSH1 0x20 DUP3 ADD SWAP1 POP SWAP2 SWAP1 POP JUMP JUMPDEST PUSH0 PUSH1 0x20 DUP3 ADD SWAP1 POP DUP2 DUP2 SUB PUSH0 DUP4 ADD MSTORE PUSH2 0x1A30 DUP2 PUSH2 0x19F7 JUMP JUMPDEST SWAP1 POP SWAP2 SWAP1 POP JUMP JUMPDEST PUSH32 0x746F6B656E20646F6573206E6F74206578697374000000000000000000000000 PUSH0 DUP3 ADD MSTORE POP JUMP JUMPDEST PUSH0 PUSH2 0x1A6B PUSH1 0x14 DUP4 PUSH2 0x1409 JUMP JUMPDEST SWAP2 POP PUSH2 0x1A76 DUP3 PUSH2 0x1A37 JUMP JUMPDEST PUSH1 0x20 DUP3 ADD SWAP1 POP SWAP2 SWAP1 POP JUMP JUMPDEST PUSH0 PUSH1 0x20 DUP3 ADD SWAP1 POP DUP2 DUP2 SUB PUSH0 DUP4 ADD MSTORE PUSH2 0x1A98 DUP2 PUSH2 0x1A5F JUMP JUMPDEST SWAP1 POP SWAP2 SWAP1 POP JUMP JUMPDEST PUSH32 0x6F776E6572203D207A65726F2061646472657373000000000000000000000000 PUSH0 DUP3 ADD MSTORE POP JUMP JUMPDEST PUSH0 PUSH2 0x1AD3 PUSH1 0x14 DUP4 PUSH2 0x1409 JUMP JUMPDEST SWAP2 POP PUSH2 0x1ADE DUP3 PUSH2 0x1A9F JUMP JUMPDEST PUSH1 0x20 DUP3 ADD SWAP1 POP SWAP2 SWAP1 POP JUMP JUMPDEST PUSH0 PUSH1 0x20 DUP3 ADD SWAP1 POP DUP2 DUP2 SUB PUSH0 DUP4 ADD MSTORE PUSH2 0x1B00 DUP2 PUSH2 0x1AC7 JUMP JUMPDEST SWAP1 POP SWAP2 SWAP1 POP JUMP JUMPDEST PUSH32 0x6E6F74206F776E657220697320617070726F7665640000000000000000000000 PUSH0 DUP3 ADD MSTORE POP JUMP JUMPDEST PUSH0 PUSH2 0x1B3B PUSH1 0x15 DUP4 PUSH2 0x1409 JUMP JUMPDEST SWAP2 POP PUSH2 0x1B46 DUP3 PUSH2 0x1B07 JUMP JUMPDEST PUSH1 0x20 DUP3 ADD SWAP1 POP SWAP2 SWAP1 POP JUMP JUMPDEST PUSH0 PUSH1 0x20 DUP3 ADD SWAP1 POP DUP2 DUP2 SUB PUSH0 DUP4 ADD MSTORE PUSH2 0x1B68 DUP2 PUSH2 0x1B2F JUMP JUMPDEST SWAP1 POP SWAP2 SWAP1 POP JUMP JUMPDEST PUSH32 0x546F6B656E204E6F742045786973740000000000000000000000000000000000 PUSH0 DUP3 ADD MSTORE POP JUMP JUMPDEST PUSH0 PUSH2 0x1BA3 PUSH1 0xF DUP4 PUSH2 0x1409 JUMP JUMPDEST SWAP2 POP PUSH2 0x1BAE DUP3 PUSH2 0x1B6F JUMP JUMPDEST PUSH1 0x20 DUP3 ADD SWAP1 POP SWAP2 SWAP1 POP JUMP JUMPDEST PUSH0 PUSH1 0x20 DUP3 ADD SWAP1 POP DUP2 DUP2 SUB PUSH0 DUP4 ADD MSTORE PUSH2 0x1BD0 DUP2 PUSH2 0x1B97 JUMP JUMPDEST SWAP1 POP SWAP2 SWAP1 POP JUMP JUMPDEST PUSH0 DUP2 SWAP1 POP SWAP3 SWAP2 POP POP JUMP JUMPDEST PUSH0 PUSH2 0x1BEB DUP3 PUSH2 0x13FF JUMP JUMPDEST PUSH2 0x1BF5 DUP2 DUP6 PUSH2 0x1BD7 JUMP JUMPDEST SWAP4 POP PUSH2 0x1C05 DUP2 DUP6 PUSH1 0x20 DUP7 ADD PUSH2 0x1419 JUMP JUMPDEST DUP1 DUP5 ADD SWAP2 POP POP SWAP3 SWAP2 POP POP JUMP JUMPDEST PUSH0 PUSH2 0x1C1C DUP3 DUP6 PUSH2 0x1BE1 JUMP JUMPDEST SWAP2 POP PUSH2 0x1C28 DUP3 DUP5 PUSH2 0x1BE1 JUMP JUMPDEST SWAP2 POP DUP2 SWAP1 POP SWAP4 SWAP3 POP POP POP JUMP JUMPDEST PUSH32 0x6E6F74206F776E65720000000000000000000000000000000000000000000000 PUSH0 DUP3 ADD MSTORE POP JUMP JUMPDEST PUSH0 PUSH2 0x1C68 PUSH1 0x9 DUP4 PUSH2 0x1409 JUMP JUMPDEST SWAP2 POP PUSH2 0x1C73 DUP3 PUSH2 0x1C34 JUMP JUMPDEST PUSH1 0x20 DUP3 ADD SWAP1 POP SWAP2 SWAP1 POP JUMP JUMPDEST PUSH0 PUSH1 0x20 DUP3 ADD SWAP1 POP DUP2 DUP2 SUB PUSH0 DUP4 ADD MSTORE PUSH2 0x1C95 DUP2 PUSH2 0x1C5C JUMP JUMPDEST SWAP1 POP SWAP2 SWAP1 POP JUMP JUMPDEST PUSH32 0x7472616E7366657220746F20746865207A65726F206164647265737300000000 PUSH0 DUP3 ADD MSTORE POP JUMP JUMPDEST PUSH0 PUSH2 0x1CD0 PUSH1 0x1C DUP4 PUSH2 0x1409 JUMP JUMPDEST SWAP2 POP PUSH2 0x1CDB DUP3 PUSH2 0x1C9C JUMP JUMPDEST PUSH1 0x20 DUP3 ADD SWAP1 POP SWAP2 SWAP1 POP JUMP JUMPDEST PUSH0 PUSH1 0x20 DUP3 ADD SWAP1 POP DUP2 DUP2 SUB PUSH0 DUP4 ADD MSTORE PUSH2 0x1CFD DUP2 PUSH2 0x1CC4 JUMP JUMPDEST SWAP1 POP SWAP2 SWAP1 POP JUMP JUMPDEST PUSH32 0x4E487B7100000000000000000000000000000000000000000000000000000000 PUSH0 MSTORE PUSH1 0x11 PUSH1 0x4 MSTORE PUSH1 0x24 PUSH0 REVERT JUMPDEST PUSH0 PUSH2 0x1D3B DUP3 PUSH2 0x148F JUMP JUMPDEST SWAP2 POP PUSH2 0x1D46 DUP4 PUSH2 0x148F JUMP JUMPDEST SWAP3 POP DUP3 DUP3 SUB SWAP1 POP DUP2 DUP2 GT ISZERO PUSH2 0x1D5E JUMPI PUSH2 0x1D5D PUSH2 0x1D04 JUMP JUMPDEST JUMPDEST SWAP3 SWAP2 POP POP JUMP JUMPDEST PUSH0 PUSH2 0x1D6E DUP3 PUSH2 0x148F JUMP JUMPDEST SWAP2 POP PUSH2 0x1D79 DUP4 PUSH2 0x148F JUMP JUMPDEST SWAP3 POP DUP3 DUP3 ADD SWAP1 POP DUP1 DUP3 GT ISZERO PUSH2 0x1D91 JUMPI PUSH2 0x1D90 PUSH2 0x1D04 JUMP JUMPDEST JUMPDEST SWAP3 SWAP2 POP POP JUMP JUMPDEST PUSH0 PUSH2 0x1DA1 DUP3 PUSH2 0x148F JUMP JUMPDEST SWAP2 POP PUSH32 0xFFFFFFFFFFFFFFFFFFFFFFFFFFFFFFFFFFFFFFFFFFFFFFFFFFFFFFFFFFFFFFFF DUP3 SUB PUSH2 0x1DD3 JUMPI PUSH2 0x1DD2 PUSH2 0x1D04 JUMP JUMPDEST JUMPDEST PUSH1 0x1 DUP3 ADD SWAP1 POP SWAP2 SWAP1 POP JUMP JUMPDEST PUSH32 0x4E487B7100000000000000000000000000000000000000000000000000000000 PUSH0 MSTORE PUSH1 0x12 PUSH1 0x4 MSTORE PUSH1 0x24 PUSH0 REVERT JUMPDEST PUSH0 PUSH2 0x1E15 DUP3 PUSH2 0x148F JUMP JUMPDEST SWAP2 POP PUSH2 0x1E20 DUP4 PUSH2 0x148F JUMP JUMPDEST SWAP3 POP DUP3 PUSH2 0x1E30 JUMPI PUSH2 0x1E2F PUSH2 0x1DDE JUMP JUMPDEST JUMPDEST DUP3 DUP3 DIV SWAP1 POP SWAP3 SWAP2 POP POP JUMP JUMPDEST PUSH0 PUSH2 0x1E45 DUP3 PUSH2 0x148F JUMP JUMPDEST SWAP2 POP PUSH0 DUP3 SUB PUSH2 0x1E57 JUMPI PUSH2 0x1E56 PUSH2 0x1D04 JUMP JUMPDEST JUMPDEST PUSH1 0x1 DUP3 SUB SWAP1 POP SWAP2 SWAP1 POP JUMP JUMPDEST PUSH0 PUSH2 0x1E6C DUP3 PUSH2 0x148F JUMP JUMPDEST SWAP2 POP PUSH2 0x1E77 DUP4 PUSH2 0x148F JUMP JUMPDEST SWAP3 POP DUP3 PUSH2 0x1E87 JUMPI PUSH2 0x1E86 PUSH2 0x1DDE JUMP JUMPDEST JUMPDEST DUP3 DUP3 MOD SWAP1 POP SWAP3 SWAP2 POP POP JUMP JUMPDEST PUSH32 0x4E487B7100000000000000000000000000000000000000000000000000000000 PUSH0 MSTORE PUSH1 0x32 PUSH1 0x4 MSTORE PUSH1 0x24 PUSH0 REVERT JUMPDEST PUSH0 DUP2 MLOAD SWAP1 POP SWAP2 SWAP1 POP JUMP JUMPDEST PUSH0 DUP3 DUP3 MSTORE PUSH1 0x20 DUP3 ADD SWAP1 POP SWAP3 SWAP2 POP POP JUMP JUMPDEST PUSH0 PUSH2 0x1EE3 DUP3 PUSH2 0x1EBF JUMP JUMPDEST PUSH2 0x1EED DUP2 DUP6 PUSH2 0x1EC9 JUMP JUMPDEST SWAP4 POP PUSH2 0x1EFD DUP2 DUP6 PUSH1 0x20 DUP7 ADD PUSH2 0x1419 JUMP JUMPDEST PUSH2 0x1F06 DUP2 PUSH2 0x1427 JUMP JUMPDEST DUP5 ADD SWAP2 POP POP SWAP3 SWAP2 POP POP JUMP JUMPDEST PUSH0 PUSH1 0x80 DUP3 ADD SWAP1 POP PUSH2 0x1F24 PUSH0 DUP4 ADD DUP8 PUSH2 0x151D JUMP JUMPDEST PUSH2 0x1F31 PUSH1 0x20 DUP4 ADD DUP7 PUSH2 0x151D JUMP JUMPDEST PUSH2 0x1F3E PUSH1 0x40 DUP4 ADD DUP6 PUSH2 0x1628 JUMP JUMPDEST DUP2 DUP2 SUB PUSH1 0x60 DUP4 ADD MSTORE PUSH2 0x1F50 DUP2 DUP5 PUSH2 0x1ED9 JUMP JUMPDEST SWAP1 POP SWAP6 SWAP5 POP POP POP POP POP JUMP JUMPDEST PUSH0 DUP2 MLOAD SWAP1 POP PUSH2 0x1F69 DUP2 PUSH2 0x1377 JUMP JUMPDEST SWAP3 SWAP2 POP POP JUMP JUMPDEST PUSH0 PUSH1 0x20 DUP3 DUP5 SUB SLT ISZERO PUSH2 0x1F84 JUMPI PUSH2 0x1F83 PUSH2 0x1344 JUMP JUMPDEST JUMPDEST PUSH0 PUSH2 0x1F91 DUP5 DUP3 DUP6 ADD PUSH2 0x1F5B JUMP JUMPDEST SWAP2 POP POP SWAP3 SWAP2 POP POP JUMP INVALID LOG2 PUSH5 0x6970667358 0x22 SLT KECCAK256 DUP10 CALL CALLER PUSH32 0x4783405024A7EABD3166218FB1A3B8EDD33278C806DB720116A5BAB964736F6C PUSH4 0x4300081A STOP CALLER "
				},
				"gasEstimates": {
					"creation": {
						"codeDepositCost": "1628800",
						"executionCost": "infinite",
						"totalCost": "infinite"
					},
					"external": {
						"approve(address,uint256)": "31580",
						"balanceOf(address)": "2909",
						"getApproved(uint256)": "5143",
						"isApprovalForAll(address,address)": "infinite",
						"name()": "infinite",
						"ownerOf(uint256)": "2961",
						"safeTransferFrom(address,address,uint256)": "infinite",
						"safeTransferFrom(address,address,uint256,bytes)": "infinite",
						"setApprovalForAll(address,bool)": "infinite",
						"supportsInterface(bytes4)": "722",
						"symbol()": "infinite",
						"tokenURI(uint256)": "infinite",
						"transferFrom(address,address,uint256)": "infinite"
					},
					"internal": {
						"_approve(address,address,uint256)": "26289",
						"_baseURI()": "infinite",
						"_burn(uint256)": "infinite",
						"_checkOnERC721Received(address,address,uint256,bytes memory)": "infinite",
						"_isApprovedOrOwner(address,address,uint256)": "4639",
						"_mint(address,uint256)": "infinite",
						"_safeTransfer(address,address,address,uint256,bytes memory)": "infinite",
						"_transfer(address,address,address,uint256)": "infinite"
					}
				},
				"methodIdentifiers": {
					"approve(address,uint256)": "095ea7b3",
					"balanceOf(address)": "70a08231",
					"getApproved(uint256)": "081812fc",
					"isApprovalForAll(address,address)": "ebd1d359",
					"name()": "06fdde03",
					"ownerOf(uint256)": "6352211e",
					"safeTransferFrom(address,address,uint256)": "42842e0e",
					"safeTransferFrom(address,address,uint256,bytes)": "b88d4fde",
					"setApprovalForAll(address,bool)": "a22cb465",
					"supportsInterface(bytes4)": "01ffc9a7",
					"symbol()": "95d89b41",
					"tokenURI(uint256)": "c87b56dd",
					"transferFrom(address,address,uint256)": "23b872dd"
				}
			},
			"storageLayout": {
				"storage": [
					{
						"astId": 16,
						"contract": "34_ERC721/ERC721.sol:ERC721",
						"label": "name",
						"offset": 0,
						"slot": "0",
						"type": "t_string_storage"
					},
					{
						"astId": 19,
						"contract": "34_ERC721/ERC721.sol:ERC721",
						"label": "symbol",
						"offset": 0,
						"slot": "1",
						"type": "t_string_storage"
					},
					{
						"astId": 23,
						"contract": "34_ERC721/ERC721.sol:ERC721",
						"label": "_owner",
						"offset": 0,
						"slot": "2",
						"type": "t_mapping(t_uint256,t_address)"
					},
					{
						"astId": 27,
						"contract": "34_ERC721/ERC721.sol:ERC721",
						"label": "_balances",
						"offset": 0,
						"slot": "3",
						"type": "t_mapping(t_address,t_uint256)"
					},
					{
						"astId": 31,
						"contract": "34_ERC721/ERC721.sol:ERC721",
						"label": "_tokenApprovals",
						"offset": 0,
						"slot": "4",
						"type": "t_mapping(t_uint256,t_address)"
					},
					{
						"astId": 37,
						"contract": "34_ERC721/ERC721.sol:ERC721",
						"label": "_operatorApprovals",
						"offset": 0,
						"slot": "5",
						"type": "t_mapping(t_address,t_mapping(t_address,t_bool))"
					}
				],
				"types": {
					"t_address": {
						"encoding": "inplace",
						"label": "address",
						"numberOfBytes": "20"
					},
					"t_bool": {
						"encoding": "inplace",
						"label": "bool",
						"numberOfBytes": "1"
					},
					"t_mapping(t_address,t_bool)": {
						"encoding": "mapping",
						"key": "t_address",
						"label": "mapping(address => bool)",
						"numberOfBytes": "32",
						"value": "t_bool"
					},
					"t_mapping(t_address,t_mapping(t_address,t_bool))": {
						"encoding": "mapping",
						"key": "t_address",
						"label": "mapping(address => mapping(address => bool))",
						"numberOfBytes": "32",
						"value": "t_mapping(t_address,t_bool)"
					},
					"t_mapping(t_address,t_uint256)": {
						"encoding": "mapping",
						"key": "t_address",
						"label": "mapping(address => uint256)",
						"numberOfBytes": "32",
						"value": "t_uint256"
					},
					"t_mapping(t_uint256,t_address)": {
						"encoding": "mapping",
						"key": "t_uint256",
						"label": "mapping(uint256 => address)",
						"numberOfBytes": "32",
						"value": "t_address"
					},
					"t_string_storage": {
						"encoding": "bytes",
						"label": "string",
						"numberOfBytes": "32"
					},
					"t_uint256": {
						"encoding": "inplace",
						"label": "uint256",
						"numberOfBytes": "32"
					}
				}
			},
			"userdoc": {
				"kind": "user",
				"methods": {
					"tokenURI(uint256)": {
						"notice": "实现IERC721Metadata的tokenURI函数，查询metadata。"
					}
				},
				"version": 1
			}
		}
	}
}